:020000041008E2
:4000000000780408EB0208100D00000051030810510308105103081051030810000000000000000000000000000000004D0308104D030810000000004D0308104D030810DA
:400040004D0308104D0308104D0308104D0308104D0308104D0308104D0308104D0308104D0308104D0308104D0308104D0308104D0308104D0308104D0308104D03081000
:400080004D0308104D0308104D0308104D0308104D0308104D0308104D0308104D0308104D0308104D0308104D0308104D0308104D0308104D0308104D0308104D030810C0
:4000C0004D0308104D0308104D0308104D0308104D0308104D0308104D0308104D0308104D0308104D0308104D0308104D0308104D0308104D0308104D0308104D03081080
:400100004D0308104D0308104D0308104D0308104D0308104D0308104D0308104D0308104D0308104D0308104D0308104D0308104D0308104D0308104D0308104D0308103F
:400140004D0308104D0308104D0308104D0308104D0308104D0308104D0308104D0308104D0308104D0308104D0308104D0308104D0308104D0308104D0308104D030810FF
:400180004D0308104D0308104D0308104D0308104D0308104D0308104D0308104D0308104D0308104D0308104D0308104D0308104D0308104D0308104D0308104D030810BF
:4001C0004D0308104D0308104D0308104D0308104D0308104D0308104D0308104D0308104D0308104D0308104D0308104D0308104D0308104D0308104D0308104D0308107F
:400200004D0308104D0308104D0308104D0308104D0308104D0308104D0308104D0308104D0308104D0308104D0308104D0308104D0308104D0308104D0308104D0308103E
:400240004D0308104D0308104D0308104D0308104D0308104D0308104D0308104D0308104D0308104D0308104D0308104D0308104D0308104D0308104D0308104D030810FE
:400280004D0308104D0308104D03081010B5054C237833B9044B13B10448AFF300800123237010BDF071020800000000B47F0810084B10B51BB108490848AFF300800848B7
:4002C000036803B910BD074B002BFBD0BDE81040184700BF00000000F4710208B47F0810FC460208000000007047FFF7FDFF72B6104C114DAC4209DA21686268A368043BB0
:40030000A2BFC858D050FAE70C34F3E70B490C4A00209142BCBF41F8040BFAE709480A490860BFF34F8F00F025F900F0FFF800F01DF8FEE7F05E0910085F0910F071020813
:400340002C7D02080040020808ED00E0FEE7FEE700B504207146084202D0EFF3098001E0EFF30880043002F015FDFEE708B5064B5B6813F4003F01D002F06EFE62B600F014
:4003800019F9002008BD00BF0000264008B5012001F04EF908BD00BF704700BF5C4AD2F8803303F00F0303F1D00152F8212002F00702032A04D0042A05D092B9554914E0BD
:4003C000554A116811E003F1C002514951F8222002F01F02112A06D0132A04D04FF4FA4103E04E4901E04FF400418BBB484BD3F8902502F00100D3F88825C2F30172D3F8D0
:40040000883513F0405F07D0414BD3F88835C3F30173012B02D102E0012300E0002303B108B9032A46D13A48D0F88025C2F31103D0F88425C2F30C02D0F88005C0F300603B
:400440000130B1FBF2F202FB03F2B2FBF0F131E0012B2FD12E4BD3F8402602F00100D3F80026C2F30172D3F8003613F0405F07D0274BD3F80036C3F30173012B02D102E050
:40048000012300E0002303B108B9032A12D12048D0F8002602F07F02D0F80036C3F30423D0F80006C0F3044002FB01F2B2FBF3F2B2FBF0F1164BD3F88033C3F3011321FA53
:4004C00003F215494A601648D0F89030C3F3072301330069000E0130B2FBF0F08860B2FBF3F3CB600B6103F5742202F23F220D48A0FB0202C2F387420A7503F2E7330A4A87
:40050000A2FB03239B098B61DB03CB61704700BF0000264000127A008C42020800366E010000214083DE1B43D34D621008B50D4802F028FFFFF730FFFFF730FF00221146D9
:40054000042000F027FE084800F0BAFE074B1B6893F8513013B1064800F022FF00F064FD08BD00BF5C7708100C720208AC7C0208486F081008B502F068FC074AD2F8883017
:4005800043F47003C2F88830BFF34F8FBFF36F8F02F05FFC08BD00BF00ED00E030B1044B1A8864321A809A7801329A70704700BFAC42020808B500F041FC184800F01EFC2E
:4005C000032000F0D3FA00F07DF9154C1549204602F072FBB4F90030134A92681033142142F8231007F01AFE104CA07800F002F9208800F031F900F051F908B100F06EF99E
:400600000B4B1B7813B9002002F0ACFD00F0E0F8084B1860FFF7C2FFE4E700BF3906081014710810F508081000ED00E0AC420208BD7C02088C73020838B504460D46554934
:40064000554800F0BBFB44F206039C427BD00CD841F201039C424AD043F212039C4261D0B4F5805F40F0918009E044F208039C4216D02CD345F217039C427AD085E0474C3C
:40068000474B07CB20606160A2601B88A3812146444800F093FB0021084603F079F838BD0021084603F074F83C4D3F4C0FCC28606960AA60EB6003CC286169612288A37849
:4006C0002A83AB762946374800F078FB38BD334D364C0FCC28606960AA60EB6020682861A388AB8229462F4800F068FB38BD304B1A6801321A60294C2E49204604F034FFA9
:400700002146284800F05AFB2B78042B41D1EA78294B1B789A423CD1274A93780133DBB2937038BD1D4C254B07CB20606160A2601A889B78A281A37321461A4800F03EFB64
:4007400002F050FC38BD154D1D4C0FCC28606960AA60EB6003CC2861696123782B762946104800F02BFB174B1B7893B900F062FB38BD0A4A144B03CB106051601B78137282
:400780001146084800F01AFB38BD1049054800F015FB38BD7C6F0810846F0810387C0208886F0810986F08109C6F0810B86F081090730208D06F0810B0420208DC6F0810DE
:4007C000EC6F0810BD7C0208087008101470081008B5074B9B7813F0FF0F06D004480023837008F009FF012008BD002008BD00BFB042020800B583B002AB03F8010D012265
:400800000021084603F0CEFD03B05DF804FB00BFC0B900B587B002900390049005900192ADF808100A4A1268126800EB400302EB43035B88ADF80C3001A803F075F818B183
:40084000044801E00348704707B05DF804FB00BFB47402080100160010B5074C6071000A224602F8040F02210020FFF7D1FF00236371237110BD00BF9073020808B5064A94
:40088000138801339BB21380B3F5967F02D1002002F068FC08BD00BF9673020808B500F067F8074B186090ED007AF2EE087AB4EEE77AF1EE10FA01DC002008BD012008BD29
:4008C0006C7C020808B50349034802F0F5F900F0CFFA08BD7D0808100C7108100023034A1380034AC2F80831704700BF9673020800003840704700BF6822014B1A70704751
:40090000367C020810B582B0054B1878054C0094022304221B2100F0ADF9207802B010BD367C0208207C020810B582B0054B1C780090022304221B21204600F0B9F902B0FD
:4009400010BD00BF367C020810B5074C2346022243210648007800F015F92078637843EA002000B210BD00BF207C0208367C0208F8B52DED048BFFF7E7FF504B1880FFF7A7
:40098000C1FF064618B94E4A4E4B1A6010E0012803D14D4A4B4B1A600AE0022803D14B4A484B1A6004E0032802D1494A454B1A60424FB7F9003007EE903AF8EEE77A414D0D
:4009C00095ED007AC7EE879AF1EE087AC9EEA78AF0EEE88ADFED3F7A88EEA78AB0EEC88AF7EE007A87EE889AB0EEC99AC5ED018A85ED028A85ED039A3749384800F0DEF968
:400A0000374CB7F900203749204604F0ADFD2146354800F0D3F932463449204604F0A4FD2146334800F0CAF955F8040B03F0A2FE02460B462F49204604F096FD21462E48F0
:400A400000F0BCF919EE900A03F094FE02460B462A49204604F088FD2146294800F0AEF918EE900A03F086FE02460B462549204604F07AFD2146244800F0A0F918EE100AE6
:400A800003F078FE02460B462049204604F06CFD21461F4800F092F919EE100A03F06AFE02460B461B49204604F05EFD21461A4800F084F92846BDEC048BF8BD707C02080A
:400AC000000003439C730208000083423333034233338341000070421C70081030700810387C0208347008104070081044700810587008105C700810747008107870081021
:400B00008C70081090700810987008109C700810A4700810A8700810B070081008B5034606226B210248007800F0E8F808BD00BF367C020810B582B0054B1C780090032394
:400B400000226B21204600F0B3F802B010BD00BF367C020808B50120FFF7ECFF0020FFF7E3FE0020FFF7DAFF08BD00BF10B5044603F060FCFFF7C0FEFFF7ECFF2046FFF754
:400B8000D3FE10BD2DE9F04383B08046894615461E461B4C1B4F00970A2300220146204601F04EFC3B460A224946204601F0B6FD00970A2301224146204601F0B9FC002444
:400BC0000BE0104B00930A23321900210C4801F04BFD0134E4B2013DEDB2012DF1D1084D084F00970A2332190121284601F03CFD3A460021284601F005FD03B0BDE8F0831C
:400C000000006740DC7C02082DE9F04182B0884614461E46124D134F00970A2300220146284601F00DFC3B460A224146284601F075FD002509E00B4B0A22715D084801F0AC
:400C40006DFD0135EDB2013CE4B2002CF3D1054A0021034801F0D6FC02B0BDE8F08100BF00006740DC7C020808B513460122FFF789FF08BD70B5049E01249C40013CD21AF7
:400C8000551CAC40E4B23246FFF7EEFF3278144044FA05F5357070BD00B583B002AB03F8012D0122FFF7B0FF03B05DF804FB00BF2DE9F04182B006460F4601249C40013C3A
:400CC000D21A551CAC405FFA84F80DF10702FFF7CBFF9DF82020AA4002EA08089DF8072022EA040448EA04028DF8072039463046FFF7D2FF02B0BDE8F08100BFF0B583B085
:400D000004460D4616461F460DF10702FFF7ACFF37B10122B2409DF807301A43D2B205E00122B2409DF8073023EA02028DF8072029462046FFF7B0FF03B0F0BD38B505466E
:400D4000002404E00349044800F032FD0134AC42F8DB38BDB47008100000664070B506460D461149114800F023FD26B940F2A5510F4801F0FFFF0D4C3146204600F018FDD8
:400D80000C49204600F014FD25B940F2A551084801F0F0FF054C2946204600F009FD0649204600F005FD70BDBC70081000006640C070081000710810AC70081070B50646F1
:400DC0000C460B4D2946FFF7C9FF0120FFF7B6FF29463046FFF7C2FF24B940F2A551054801F0C8FF2146044800F0E2FC70BD00BF04710810C07008100000664008B518B13C
:400E0000094AD062002000E0084858B9084B1B782BB9054802F03EFB0122054B1A7008B902F062FB08BD00BFB442020801001600AC73020808B502F0EDFB08BD08B5084B4D
:400E40001B783BB9074A0849084801F05FFD0122034B1A70054A136843F00043136008BDF4730208747C0208507308100000664008B5084B1B783BB9074A0021074802F003
:400E8000F9F90122034B1A70044B01229A609A6108BD00BFF573020890730810000038401F4B98422DD00CD840282ED003D8E8B1102828D02FE0802829D0B0F5807F28D0DA
:400EC00029E0184B984228D006D8B0F1204F0DD0154B984212D01EE0144B98420AD00133984209D0023B984215D101E0002070470F4870470F4870470F4870474FF4A00013
:400F00007047074870470D4870470D4870470D487047034870470C4870474FF4A400704706005200010000F0090000A0040000F001005200020052000300520001005000F2
:400F40000200500005005200FF00520038B5124B1B6893F83130012B04D840F2C3110F4801F008FF0C4B1D682A6AB5F8B03013442C46D5F8B420D358002B0BDB084B1868EB
:400F8000FFF78EFF6B6801229A6063689B68002BFBD138BD034838BDAC7C0208DC730810F8730208020050001A4B186128B102230370FF23437000234380174B1B6893F8EA
:400FC00050202AB300B583B0B3F93830ADF80030002301931149684601F06EFEBDF90030002B08DB590903F01F03012202FA03F30B4A42F82130084B1B6893F8513023B1A1
:4010000002220849012000F077FA03B05DF804FB704700BFF8730208AC7C02086D47020800E100E02548020808B50248FFF7BCFF08BD00BF0C74020838B50B4B1B68D3F848
:40104000B4301B58002B0DDA0D4604460B0C1B0423B140F2D521054801F08CFEA9B26160002038BD024838BDAC7C02081C74081001008A0038B50368002B01DA002300E03A
:40108000094B73B90D460446C2600B0C1B0423B140F2BB21054801F06DFEA9B2A160002038BD014838BD00BF01008A001C74081038B504460D4619B99921084801F05AFEE0
:4010C000074B1B68D3F8B4301B59002B03DAE3682B60002038BD034838BD00BF5C740810AC7C020801008A00254B1B6893F8313083423AD900293AD00B6813F01F0F38D1CA
:4011000070B50D4604461E4B1B6893F83130984204D340F2C3111B4801F02CFE184B1B68186AB3F8B03004FB0304174E34602A68D2080021686803F09DFD00212046FFF787
:401140007BFF346825B940F293310E4801F012FE2A4600212046FFF78DFF60B900210A4B1868FFF769FF40B970BD084870470748704706487047064870BD054870BD00BF5C
:40118000AC7C02081C7408101074020803018A0001018A0010B504461346B2B9A9B9124B1B6893F83130984204D340F2C3110F4801F0E0FD0C4B1B681A6AB3F8B03004FBE8
:4011C00003240B4B1C60002010BD43B149B1084A51609360111D2046FFF786FF10BD054810BD044810BD00BFAC7C02081C7408101074020803018A002DE9F0411B4B1B6831
:40120000DC68236883422CD90D464609A0EB4610012303FA00F819B901F017FE074600E00027124B18680368002B01DA002300E00F4B83B9626852F8263018EA030F05D013
:4012400023EA080342F82630002400E0094C0021FFF7F2FE00E0084C25B9384601F0F9FD00E0064C2046BDE8F08100BF1074020801008A00020188000301880004018A00C3
:401280000B4B1B68DB681A6882420CD94109A0EB4110012202FA00F05B6853F82130184203D004487047044870470448704700BF107402080101880004018A00000188002E
:4012C000024B1B680BB9014B186070471C7402082DE9F8430446884691461D46089F2C4B1B681BB9B5212B4801F044FD284B1B682C2000FB04F01C18EEB21E50C5F307235D
:4013000063602D0CA560244B1B6893F831309E4204D340F2C311214801F02CFD1E4B1B68196AB3F8B02006FB02162661666893F832309E4204D340F2DF11184801F01AFD08
:40134000154B1B681D6A803605EB46156561A668330C1B0423B14FF4FF71104801F00AFD330C1B0423B140F2FF110C4801F002FDB3B243EA0646AE60C4F81C90C4F8208091
:401380000023A36117B1B7F90030A381BDE8F8831C7402089C740810AC7C02081C740810F0B58FB0044618B95221274801F0E2FCA369072B03D95621234801F0DBFCE36ABD
:4013C0001BB95821204801F0D5FC236B1BB959211D4801F0CFFC07AD04F114060FCE0FC537682F6002AD26460FCE0FC533682B60164B1B68B3F93620079B1344ADF8303001
:40140000089B0D93A26AE16A0CAD00953B460A98FFF75EFF00210091069B0A460598FFF757FF216B284601F047FCBDF93030002B08DB590903F01F03012202FA03F3044A96
:4014400042F821300FB0F0BD9C740810AC7C020800E100E0F8B506460F461D4614461AB9FD211F4801F086FC1E4B1B681BB9FE211B4801F07FFC1B4B1B682C2101FB06306E
:4014800001FB07314B68012202FA03F31B04466802FA06F60269EAB18F69EFB91268002A01DA002200E0104AC2B92288134323600369DC6001238B614D620469330C1B04BA
:4014C00023B140F2BB21094801F054FCB2B2A2600020F8BD0648F8BD0648F8BD0548F8BD9C7408101C74020801008A001C74081004028A0007028A00F8B505460F46164674
:401500000E4B1B6823B94FF4AF710D4801F032FC0A4B1B682C2404FB0534236A23B94FF4B171074801F026FCE369B34204D9236A43F826700020F8BD0248F8BD1C740208A2
:401540009C7408100A028A0038B504460D46074B1B6823B94FF4C871054801F00BFC034B1B682C2202FB0434A56238BD1C7402089C74081070B582B000230193044620B96E
:4015800040F2D111284801F0F5FB236923B94FF4E971254801F0EEFB636923B940F2D311214801F0E7FB236A23B94FF4EA711E4801F0E0FB6369DD682A0C20D012041A6080
:4015C0001B682069194B1B68D3F8B430C358002B15DA01A9FFF76CFD60B9019803681E0CDBB2E269934206D2226A52F8233013B1984700E0002631462069FFF71DFDADB2FE
:4016000075B16369ADB21D601B68636A1BB198470023636202E0A36A03B198470023A36163691B6802B070BD9C740810AC7C020810B50446074B1B6823B940F2B1110648C6
:4016400001F098FB034B1B682C2000FB0430FFF791FF10BD1C7402089C74081010B50446104B1B6823B940F22B210F4801F082FB0C4B1B682C2202FB0434B4F90C30002B08
:401680000DDB5A0903F01F03012101FA03F32032064941F82230BFF34F8FBFF36F8F002010BD00BF1C7402089C74081000E100E010B504460D4B1B6823B940F24B210C4864
:4016C00001F058FB094B1B682C2202FB0434B4F90C30002B08DB590903F01F03012202FA03F3044A42F82130002010BD1C7402089C74081000E100E010B4D0F8003303F0CE
:401700000F03072B06D900230DE0D0F84043CC54013300E000239342F7D306E0D0F8404321F8134001339342F8D35DF8044B704710B51446D0F80833C3F308039A4200D3D7
:401740001C462246FFF7D8FF204610BD10B4D0F8003203F00F03072B06D900230DE0CC5CC0F84042013300E000239342F7D306E031F81340C0F8404201339342F8D35DF8BE
:40178000044B704710B51446036813F4006F01D0802200E04022D0F80832C3F30803D31AA34200D81C462246FFF7D0FF204610BD30B4036813F4006F01D0802200E04022C5
:4017C000002408E0D0F80832C3F308039A42F9D0C0F8405201340D5D002DF3D130BC704702E0C0F84012013A002AFAD1704700BF10B51446036813F4006F01D0802200E013
:401800004022D0F80832C3F30803D31AA34200D81C462246FFF7E4FF204610BD10B54A6841F201039A4231D1D0F80833C3F30803B3B10B6A43F040030B620B7873B1D0F888
:40184000043343F48033C0F80433D0F8043323F48033C0F80433D0F8043301E0D0F840330B6A43F020030B620B6A23F010030B62036E23F4204303660023C0F8C83F0123EB
:40188000C0F8C03FD0F8C03F202221E0D0F80832C3F30802D0F80832C3F3C03313440A6BD21A4A630A6A12F0080F05D1CA6A1A44CA628A6AD31A8B620B6A43F004030B628A
:4018C0000B6A23F001030B620023C0F8883F1022D0F84C4F40F201131C420DD0036823F00043036000238366C366036843F000430360036842F040024FF080534B604B6C47
:401900000BB11046984710BDD0F80C3F13F0020F1DD00222C0F8002FD0F8002FD0F8002F12F0040F02D04FF4001001E04FF480108A6802438A604A68B2F5B81F07D00A7B41
:4019400012B14FF4C01201E04FF4B0124A6013F4807F03D08A6842F400028A6013F0010F03D08A6842F480028A6040F21112134202D04FF4C0134B60704700BF0023C0F80A
:40198000C83FC0F8883F836E23B140F21713C0F8083F704740F21313C0F8083F182383664FF4B8134B60704738B5D0F80C4F036E23F4807303660023C0F8C83FC0F8883F8A
:4019C000C0F8083F40F21713C0F8003FD0F8003F8B6823F480338B604B7B13B18B69CB610BE08D69D0F80822C2F30802D0F80832C3F3C0331344EB1ACB6140F201131C42D3
:401A00001BD0036E9B0F032B05D114F4827F14BF0123002300E001235BB1036823F00043036000238366C366036843F00043036003684FF080534B601BE00B7893B1D0F81A
:401A4000043343F48033C0F80433D0F8043323F48033C0F80433D0F804330123C0F8C03FD0F8C03F0B7B0BB10B4B01E04FF080534B604A6C72B14B7B13B14FF4802001E0A0
:401A80004FF400308B6813F0F87301D04FF400231843904738BD00BF000010100346002940DB11F0C00F06D0002181664FF0805050602F4844E011F4807F36D111F0010F64
:401AC0000ED050682B49884232D1196E11F0804F0CBF012100214FF08050506026482FE011F0020F06D050682249884223D10021224825E011F0100F05D04FF0805151605F
:401B0000002108461CE050681A49884216D1517B11B14FF4881101E04FF4A0115160002108460DE0012116480AE00121154807E00121114804E00021134801E00021084627
:401B400079B1196821F00041196000219966D966196841F0004119601B684FF080535360704740F21712C3F8002FD3F8003F70470820AA00000013100620AA000420AA008C
:401B80000320AA000720AA000520AA00036853B110B50446012001F0E1F82368013B23601BB1002010BD002070474FF0004010BD70B505460C4691F8243013F0FF0F0ED19A
:401BC000CB6A63B94B6C0BB108209847E36AB3FA83F35B0984F824300123C5F8883F94F8243013F0FF0F16D063783BB12B6813F4006F01D0802202E0402200E00122FF214D
:401C00002846FFF7F5FD236B18442063236A43F00803236270BDE26A012A11D963780BB1013A00E00122A16A2846FFF7ABFD236B03442363E36A1B1AE362A36A1844A0628A
:401C4000D5F80832C3F30803802B23D0E36A012B20D101F0FAF8A36A1B78C5F840324026C5F8806FD5F8803F01F0F3F8236B013323630023E362A36A0133A362C5F8886FBE
:401C800063783BB1236A43F002032362636C0BB10420984770BD00BF38B54B68B3F5A81F03D14FF4C0134B6038BD4B68B3F5A01F4DD10C4605464A69012A11D94B780BB1E4
:401CC000013A00E0012221692846FFF75BFDA3690344A36163691B1A6361236903442361D5F80832C3F30803802B14D06369012B11D101F0AAF823691B78C5F84032402378
:401D0000C5F8803FD5F8803F01F0A3F8A3690133A361002363616369CBB9237B33B14023C5F8883F4FF4A813636005E00023C5F8883F4FF4B0136360637843B1A36843F404
:401D40000033A360636C13B14FF48030984738BD70B504460D468A6C82B3036813F4803F06D0D0F84C3F13F0400F03D0022002E0002000E00020236E13F4006F06D1D4F899
:401D80004C3F13F0800300D001231843C0B190470123C4F8C03FD4F8C03F024648B91023C4F8403FD4F8403F40F2D113C4F8483F07E040F2C113C4F8483F02E0002200E062
:401DC0000022D4F8043243F48033C4F80432D4F8043223F48033C4F80432D4F804320AB9012300E00223E366002A59D1666E06F010066B6C23B10EB1012000E0022098474E
:401E00007EB141F202036B602B6A43F001032B626B6B2B63002385F824300123C4F8883F70BD41F201036B602B6A43F010032B620123C4F8C83F2B78BBB1EB6BBBB1236E38
:401E400043F400532366ED6B802D05D9A5F18003802B0ED8813D0DE0013D236E43F4004323660023C4F8C83F04E0002502E0002500E03F25236813F4006F01D0802300E0B6
:401E800040239D4204D34FF42071064800F072FFD4F8043323F0FF03EDB21D43C4F8045370BD00BFDC74081038B54B68B3F5881F03D0B3F5901F1AD038BD0B69D0F8402371
:401EC0001A708B6901338B614B69013B4B612BB10B6901330B610423836638BD0B7B13B14FF4C01301E04FF4B0134B6038BD0C4605464A690969FFF71BFCA3690344A361A6
:401F000063691B1A6361226910442061012B24D82B6E23F480732B666369012B16D12B6813F4006F01D0802300E0402323B94FF42071184800F01EFFD5F8043323F0FF034B
:401F4000C5F804334FF48813636038BD0023C5F8C83F4FF4B013636038BD402B01D89C1E00E03F242B6813F4006F01D0802300E040239C4204D34FF42071064800F0FAFE72
:401F8000D5F8043323F0FF02E3B21343C5F8043338BD00BFDC74081038B5CB6B002B50D00B78002B3FD00C460546D0F80423D2B20132896BFFF7BCFB236C03442364E36B54
:401FC0001B1AE363A26B1044A063802B06D9A3F18002802A0FD8A3F181040DE02B6E43F400432B66E36B0BB15C1E00E000240023C5F8C83F00E03F242B6813F4006F01D09B
:40200000802300E040239C4204D34FF42071104800F0B0FED5F8043323F0FF02E3B21343C5F8043338BD0123C3668A6B0B6CD0F84003D0540B6C01330B64CB6B013BCB63AD
:4020400038BD0223C3660023C0F8C83F38BD00BFDC740810F8B50B78012B03D00C7A1CB9002702E0002700E00127002800F0A780002900F0A680002A00F0A58016460C46F2
:402080000546013BDBB2022B03D94F214F4800F071FE637803B163791BB150214B4800F069FE94F90330002B03DA5121474800F061FE237913F0010F03D05221434800F083
:4020C00059FE2369102B03D95321404800F052FEE368102B03D954213C4800F04BFE637913B14FF4803100E00021E27912B14FF4807300E000230B4343F400632B60A3799B
:4021000013B94FF4006300E000232269013A02F00F021A43E368013B1B01DBB21343227843EA82732B6617B140F2073301E040F20713C5F800330FB1254B00E0254B2B67CE
:4021400063780BB17F2300E00023C5F80433E3785B00DBB2227943EA0243C5F810331E4BC5F80032A3780BB1402300E00123C5F804320023C5F8C83EC5F8883EC5F8C83F29
:40218000C5F8883FC5F8083F2378022B02D040F2D11300E00023C5F8483F63783370A37873704FF0805373600020B060B06130623064F0633063F0627064B064F8BD0748B4
:4021C000F8BD0648F8BD0548F8BD00BF2075081003002A0013102A00070101000120AA0038B505460C4621B940F2C321194800F0C1FD2B6E9B0F012B17D1174B2344174A61
:4022000093421ED9A4F5BD13A3F5D66302F5611202F56162934216D9A4F57104A4F533440F4B9C4211D80F4838BD84B1286EC0F303102B6E03F00F0318440230B4FBF0F0D9
:4022400038BD094838BD094838BD002038BD002038BD00BF2075081020AD88FF405B730040555C0440420F00801A0600A08601002DE9F84307468846914622B940F2122115
:40228000624800F077FD08F1FF34614B9C4204D940F213215D4800F06DFD3B6E9B0F012B0DD149463846FFF79BFF0546D7F8003323F40073C7F80033564B3B67A2E0544BF1
:4022C0009C421FD8544B984509D8A9F5BD13A3F5D663524A934218D90021012328E0504B984507D84F4B4B444F4A934213D9002101231DE04D4B4B444D4A934212D9002103
:40230000012315E00021012312E0002141F288352E460B460CE000214FF461754FF4C8660B4605E001214FF4BE754FF41B760023002B66D13F4BB3FBF9F3B6FBF3F404FBFE
:4023400003F2964200D90134102C00D910240F2C8CBF00220122B5FBF3F606FB03F39D4200D90136102E00D91026A519B9FBF5F50FE022B10F2C09D80134002206E00F2EEE
:4023800004D801360F2C8CBF00220122A519B9FBF5F5454502D9A3191F2BEAD941B1D7F8003343F40073C7F80033234B3B6707E0D7F8003323F40073C7F80033154B3B67AE
:4023C000E31F092B04D940F283511C4800F0D2FC3B6E23F0F003013C2401E4B223433B66731F0B2B04D94FF4B461144800F0C2FC3B6E23F00F03013E06F00F061E433E66D0
:4024000000E000252846BDE8F88300BF207508103F420F0013102A00A0860100502D1900801A060020AD88FFA0432100807E25FFC02BAF0000CA9A3B03002A006075081096
:402440002DE9F04182B005460C4617469846089E11F0800F04D04FF4D961314800F08AFC304B984504D940F2C9612D4800F082FC012F04D940F2CA61294800F07BFC0023BC
:40248000C5F8483F7368B3F1805F41D14FF47A7303FB08F30193244B7360012F14BF00230123737340F21713C5F8003FD5F8003F0423C5F8C03FD5F8C03FD5F8043243F4EC
:4024C0008033C5F80432D5F8043223F48033C5F80432D5F804326400E4B23C43C5F840420223AB66D5F8004F24F0F804E405E40DD5F8403F03F0C0031C4301A8FFF746FB3E
:4025000054EA0001EED032462846FFF7C7FA00E0064840F2D113C5F8483F02B0BDE8F0812075081037894100000013100220AA002DE9F04182B005460F4614469846089E1D
:4025400011F0800F04D040F229712A4800F012FC294B984504D940F22A71264800F00AFC012C04D940F22B71224800F003FC736813F4801F39D04FF47A7303FB08F30193E4
:402580001E4B7360012C14BF0023012373736B6E13F0200F01D0092300E00123AB666B6E13F0200F05D0002009E001A8FFF7EEFA00E0002018B9AB6E13F0010FF5D170B939
:4025C0007F00FFB23C43C5F84042D5F8000F40F20714044001A8FFF7D9FA2043F5D0324601462846FFF75AFA00E0054802B0BDE8F08100BF207508103789410000001310EA
:402600000220AA0070B582B005460C461646134B994204D940F28C71114800F0ABFB736813F4801F17D04FF47A7303FB04F401941823AB66D5F8004F24F0EE04E405E40DDF
:4026400001A8FFF7A3FA54EA0001F3D032462846FFF724FA00E0034802B070BD37894100207508100220AA002DE9F04383B0074688461C460A9D914622B94FF4FB61244841
:4026800000F078FB234B9C4204D940F2D971204800F070FBB8F1010F04D940F2DA711C4800F068FB6B68B3F5881F2BD14FF47A7303FB04F40194D7F8C06F06F00406D7F8DF
:4026C000001F40F201140C4001A8FFF75FFA44EA00010EB90029EED046B1D7F8403389F800300523C7F8C03FD7F8C03F2A463846FFF7D4F9034630B9B8F1000F03D1042220
:40270000BA6600E0044B184603B0BDE8F08300BF20750810378941000220AA00F0B583B005460F4614461E46134B9A4204D940F63201124800F01EFB7368B3F5A01F17D1A5
:402740004FF47A7303FB04F40194C5F84072D5F8004F24F0F804E405E40D01A8FFF716FA54EA0001F3D032462846FFF797F900E0034803B0F0BD00BF378941002075081014
:402780000220AA0070B504460E46D0F88C3E13F0010F07D04FF480534B600123C0F8803ED0F8803ED4F84C5F40F201131D420FD0336A15F4807F02D04FF4807200E0802204
:4027C000134333620023C4F8C83F45F010050EE015F0100F0BD0D4F80833C3F3080333B1F36B23B10123C4F8C43FC4F8C83FD4F8CC3F13F0010F08D031462046FFF7CCFBF1
:402800000123C4F8C03FD4F8C03F15F0100F0AD031462046FFF702F81023C4F8403FD4F8403FD4F84C5F15F0C00F0DD031462046FFF78EFA0123C4F8803ED4F8803EC023DC
:40284000C4F8403FD4F8403FD4F88C3F13F0410F08D031462046FFF7ABF90123C4F8803FD4F8803F70BD00BF70B506460D46D0F8004E14F0020F0AD0836E2BB100238366E1
:402880008B6843F080738B604FF4C0136B6014F0010F05D029463046FFF736F824F0040414F0080F08D029463046FFF7FDFA0123C6F8C03FD6F8C03F14F0040F08D0294654
:4028C0003046FFF7E9F90123C6F8803FD6F8803F6B68B3F5C01F03D129463046FFF764F86B68B3F5B01F03D129463046FFF746F870BD00BF08B54B6813F4801F02D0FFF7F6
:40290000B3FF08BDFFF73EFF08BD00BF002800F0A48170B50546002900F0A18116460C460B78022B03D93F21A24800F023FA637B023BDBB2062B03D940219E4800F01AFAF0
:40294000A37B3BB1022B05D0032B03D04121994800F010FA94F82130012B03D94221954800F008FA94F82830012B03D94321914800F000FA2378012B06D86368083B082BFD
:4029800094BF0023012307E0A37F2BB16368013B062B94BF002301231BB14521854800F0E9F9A368053B042B03D94621814800F0E1F96369FF2B03D947217E4800F0DAF9E2
:4029C000A369FF2B03D948217A4800F0D3F9A37C6BB1237833B9A368092B05D1A37B2BB1012304E0012302E0012300E000231BB14A21704800F0BEF9636B23F4366323F0B1
:402A00000D031BB14C216B4800F0B4F9E36B23F4EE6323F003031BB14D21664800F0AAF92378022B01D1A37F13B16268013A00E00022237F13B14FF4803100E00021A368C6
:402A4000082B02D84FF4006300E000230B4302F00F02134343F000732B60226B2B6813F4006F01D0802300E040239A4203D36221504800F07FF9A26B2B6813F4006F01D05F
:402A8000802300E040239A4203D36321494800F071F9626A2B6813F4006F01D0802300E040239A4203D36421424800F063F923781B0603F040732B64637F0BB1402200E0A5
:402AC0000022A37C13B14FF4806300E000231343227C12B14FF4807200E000221343627C12B14FF4007200E000221A43E36A013B1B0403F470231343627B013A02F0070214
:402B00001343A27B120102F030021343AB64237B13B14FF4807200E00022E37B23B92378022B03D1012302E0012300E0002313B14FF4007300E000231A43A368013B03F0D6
:402B40000F031343C5F80033227DA3691B0403F47F031343C5F81033E26AD5F8003303F00F0303339A4201D3102A03D97A21114800F000F9E37F23B12378012B03D0002347
:402B800002E0002300E0012313B14FF4807200E00022637B013B03F007031A43A37B1B0103F0300313436B64237B2BB14FF4807203E000BFE07508100022A368013B03F0FE
:402BC0000F0313432278012A02D14FF4803200E000221343C5F8003294F83030C5F8043394F8203013B14FF0007200E0002294F82130012B02D14FF0807300E000231343FF
:402C000094F82820012A02D14FF4803200E00022134394F8242013432B6594F83830C5F80432636B23F4926323F002031B051B0DC5F8C83FE36B23F08C035B055B0DC5F865
:402C4000883F76B1002070603060B060F0603062F0623063044B736370BD04487047034870BD002070BD00BFEFCDAB000160AA0038B50D4B9A680D4B9A420FD10D460446CC
:402C800021B940F237110A4800F074F804F11003064A52F8230042F8235038BD1030054B53F8200038BD00BF00ED00E000400208207608100000081048B338B504460D469A
:402CC0004368072B03D93221134800F053F8B4F900306268002B08DB5201D2B203F1604303F5614383F8002305E003F00F035201D2B20A49CA540A4B9A680A4B9A4208D142
:402D00002946B4F90000FFF7B3FF002038BD06487047002038BD00BF2076081014ED00E000ED00E0004002080100560010B5044605E0084B186800F07FF8A4F50044B4F530
:402D4000004FF6D8044B186800FB04F000F074F810BD00BFA8420208A442020808B5034B1B7800FB03F000F067F808BDA042020801BEFEE738B50D46044C18220146204605
:402D800002F01EFCA5610020FFF7F2FF984C0208FEE700BF08B50268254BDA6142681A6282685A62C2689A620269DA6242691A6382695A63C2699A631E4A916AD963D16A2B
:402DC0001964516A5964516B9964926BDA64F1EE103A13F0900F27D0026A154B1A65426A5A65826A9A65C26ADA65026B1A66426B5A66826B9A66C26BDA66026C1A67426CCB
:402E00005A67826C9A67C26CDA67026DC3F88020426DC3F88420826DC3F88820C26DC3F88C20026EC3F89020FFF7B2FF08BD00BF984C020800ED00E00230800803D0013034
:402E40000238FCD100BF00BF7047EFF3108072B6704780F31088704710B30246C3680BB303680BB330B40579114B03EB85035C682346002103E0934205D019465B69002B89
:402E8000F9D1012000E0002080B124B9084B03EB85056A6000E04A6111610023536105E000207047002070470020704730BC70472074020850B310B402460479164B03EB2A
:402EC000840359680B4602E0934204D05B69002BFAD1002000E00120D0B18A420ED14B6933B10D4A02EB8404636000221A610FE0094B03EB84040023636009E01A69596916
:402F000051615A6922B11B69136101E0002070475DF8044B704700BF2074020830B583B004460D46022808D9042806D0032804D040F6B2112848FFF71DFF6B1EDBB2012B63
:402F400008D9042D06D0082D04D040F6B3112248FFF710FF214800EB84004468042D12D0012D1AD111E0A3681D420AD1E3681A6800925B6801932368294668469847174B72
:402F80009C61646902E0002000E0002014B3144B9842E8D1012DE6D11CE0022D01D104E01C466369002BFBD103E00C4B9C6904B1246900200CE0A3681D4208D1E3681A6804
:402FC00000925B68019323682946684698472469002CF0D103B030BD6476081020740208FF00420010B5174BDB682BB101210220FFF794FF044600E00024E4B9FFF725FF5E
:40300000104BDB681BB104210220FFF787FF0E4B59680E4A0A4042F01B025A6059680C4A1143596059681143596059680A435A605B6830BF04E002210846FFF76FFF054C28
:40304000204610BD20740208000026400000FC0F003A0280FF00420008B5FFF7F6FE074B5A6807490A4042F468525A605A68114059605B68FFF7EDFE08BD00BF00002640B8
:40308000FF00FC0F10B5044620B940F6A1211748FFF770FE164A1368DB6803F5F2431B6823601368DA6802F5F04212686260D96847F604028A58A260D96847F608028A581E
:4030C000E260D96847F60C028A582261D96847F610028A586261D96847F614028A58A261DA6847F61803D358E36110BD64760810AC7C020810B5044620B940F6C92117488E
:40310000FFF738FE164B1B68DA68616802F5F0421160D968A06847F604028850D968E06847F608028850D968206947F60C028850D968606947F610028850D968A06947F629
:4031400014028850D968E06947F618028850DB68226803F5F2431A6010BD00BF64760810AC7C020870B50446012804D94FF426713A48FFF7FFFD3A4B9B682BB101210846ED
:40318000FFF7CCFE054600E00025002D5ED1FFF75CFE0646324B9B681BB104210120FFF7BDFE304B1B6893F8432042B19B68D3F8E03013F0100F02D02B48FFF763FF4FF009
:4031C000B0539B899BB223B14FF0B0539B899BB201E04FF48073B3F5807F03D1204603F0ABFE1AE0214A136943F004031361012C01D030BF07E020BF194B1B7803B120BF74
:403200000122174B1A70174B1B681A68D3F89430D35803F00303022BE4D0124B1B6893F8432042B19B68D3F8E03013F0100F02D00D48FFF75FFF3046FFF70BFE084B9B687D
:403240004BB108210120FFF769FE04E002210120FFF764FE064D284670BD00BF6476081020740208AC7C02083C74020800ED00E0FF00420000287DD00346002A7CD070B49C
:403280005068000280B29568AD0405F480252843D468240404F4403404431069000600F0E0602043147F0CB1012400E0002420430C1DA4011851D06828B903EB8110002473
:4032C000C0F808410CE0012805D1146803EB8110C0F8084104E003EB81100124C0F80841106938B9546903EB8110C0F80C419469C0F81041146803EB8110C0F81441906CA8
:40330000B0F1FF3F17D0946A04F00F04166B360206F470663443956B2D0405F470252543146C2403A4B22C430001C0B2204303EB8114C4F82001506A00F00300D66A3601D5
:4033400006F030063043556B2D0205F440752843D46BA401E4B20443506C800000F00C00204303EB8113C3F82401126AC3F83821002003E0024870470148704770BC704771
:403380000100B600014B1860704700BFAC7C020810B5012902D0082929D02EE01A4B1B78012B2CD00320FDF76BFF184B984228D0FFF74BFD164B1860022004F031FF044674
:4033C00004F039FF022C05D1032805D0052805D1002404E00F4C02E0002400E00D4C0D4B9C420FD10A4B1868FFF733FD0AE0084B1868FFF72EFD002404E0064C02E0054C7C
:4034000000E0044C204610BDB47C0208010188005C740208FF00420008B502291CD0082914D001291ED1124B1B78012B1CD0FFF70CFD104B5860022004F0F2FE022815D019
:403440000C4B5868FFF705FD0B4808BD094B5868FFF7FFFC002008BD064B5868FFF7F9FC054808BD044808BD034808BD002008BDB47C02085C740208FF00420010B5044CBD
:403480002046FFF717FD04F11800FFF713FD10BD5C440208B0B110B50B4A9060C36A03B1D3600024094B1C70094B1C70094B1C60094B1C7000F060F9084B1C70084B1C70F8
:4034C000204610BD074870475C740208C47C0208C87C0208CC7C0208C97C0208B37C0208B87C02080100160070B59AB0404D15AC28686968AA68EB680FC4286920604C221D
:40350000002102A801F0B6FB3A4B029315AB049342F2C443ADF8143005238DF81630364B9B681B69069340F64A4307931B23ADF82030ADF8223003238DF8243004238DF8C3
:40354000253006238DF8263010238DF828308DF829305023ADF84C3001238DF85030274C2046FFF779FC04F11800FFF775FC08A804F0ACFE0346002836D1214B03931E4B5E
:403580009B68996B89B10B460DF12A0220311E685D689C68D868166055609460D060103310328B42F3D11B88138002A804F056FE0346B0B90122134B1A700023124A137023
:4035C000124A13700C4B9B681A6A00929B6ADB88ADF804301223ADF8063068460DF04EFB034600210A4A116018461AB070BD00BF147808106D3B08105C7402085C4402080C
:403600002C4D0208B47C0208BC7C0208BD7C0208CC7C020808B505F0DFFF08BD08B5044B1B689847034B1B6803B1984708BD00BF807402086C74020808B510B1034A5268DE
:403640009047034B1B6803B1984708BD807402086C74020870B5C0B006460C4615464FF480720849684601F0FAFA05E016F8012B6A401DF80250013C002CF7D1284640B0FC
:4036800070BD00BF2878081008B50022FFF7E2FF08BD00BF08B5FFF7D8FB08BD08B5FFF7D8FB08BD08B50120FEF702F808BD00BF08B50120FDF7D2FF08BD00BF08B5094B0D
:4036C00058601960012208491046FDF715FF034628B9002205490120FDF70EFF0346184608BD00BF80740208393608101D36081038B515460B46024601210020FDF7AAFE31
:40370000044618B129460120FDF71EFF204638BD704700BF704700BF0020704700487047110016000048704711001600004870471100160000487047110016000048704720
:4037400011001600004870471100160000487047110016000048704711001600004870471100160000487047110016000048704711001600704700BF08B5034800F0FCFDD7
:40378000024800F03DFE08BD5044020858440208F8B5022872D8012972D80022134606E03B4CE45C012C01D90132D2B20133002BF6D0012A0CD1374B1B681C6801EB8102EB
:4037C000930023445B681B79023BDBB2012B59D8314B1B78002B57D1304B1970E0B92D4F3C68236801EB8105AA009D186668C1EBC1014B001E44B18829822168114449687A
:403800006468E45A0C8039680C682244526849680B445B8853801EE001281CD11D4F3C68236801EB8105AA009D186668C1EBC1014B001E44B1892982216811444D6861685D
:4038400019440989298039680C682244526849680B445B895380124B18700E4B1B6818680E4B1B7803EB83039A00104409F0D4F8034650B90121084A117006E0094B04E00B
:40388000084B02E0084B00E0084B1846F8BD00BFBC7C020864740208BD7C0208B27C0208C97C02080100160002001600FF001600F0B54FF0000E59B91A4B1B681C680EEBE0
:4038C0008E02930023449C68E77F00231E4612E0144B1B681C680EEB8E0293002344DC68E77FF2E7E25C52B10133E55C1B2D01D0134400E00126BB4201D2002EF2D05EB1F3
:4039000001338279E254002204E0D5180135865C66550132052AF8D90EF1010EBEF1010FC9D9F0BD6474020870B504460DF0C0F9054620BB134B1968086A228902EB820273
:403940009300143B03445A6812F0007F17D0E67B1B695A68CB69D21A06EB4606B318A28821680948184401F07AF9E37B074AD35C012B04D1064A137843F00203137028467E
:4039800070BD00BF64740208C07C0208B87C0208B37C020830B587B002891A4B1B685B699B889A4229D1044601AB07C883E807000022ADF81020A289ADF8122040228DF819
:4039C00014201846FFF7B0FF054680B923681B7803F002039BB22BB10B4B1B6821460B48984704E0084B1B68214609489847094A137803F0FE03137000E00025284607B08B
:403A000030BD00BF64740208687402080500010006000100C47C02084288531E9BB2172B1AD84178D1B910B40F4B1868046A02EB82029300143B23445A6812F0007F0FD0D4
:403A40001B695A68C369D31A01EB41011944074B5B5A1380002004E0012070470120704700205DF8044B704764740208C07C020800B583B00023ADF804308389ADF80030A6
:403A80000389ADF8023012238DF80430084B1B7813F0010F09D129B18DF8051068460CF031FA02E0C0680CF04DFA03B05DF804FBC47C020810B4044688B10023194606E04C
:403AC000114A52F82320944200D1012101330E4A127A934206D20029F2D0002003E000210A4800E0002058B951B9074B1B7A012B05D8054A42F823400133137200E0044813
:403B00005DF8044B704700BFD07C0208010016000300160070B506460D460020044606E0084B53F824302946304698470134054B1B7A9C4204D2044B1B7813F0010FEFD198
:403B400070BD00BFD07C0208C47C020883792BB100207047C25C32B9013300E00023052BF8D9002070470120704700BF70B58CB004460D46C04A137843F00103137044F2D8
:403B80000803984200F04C823CD842F20403984200F0F18019D841F20203984200F0188108D8B0F5805F76D041F20103984200F00C8155E341F20303984200F0428141F2E3
:403BC0000403984200F047834AE343F2190398425BD00AD843F20103984200F0BA8043F21203984200F0B5803AE344F20603984200F01A8200F2CD8144F20403984200F036
:403C000033812DE345F20C03984200F0DB821BD845F20103984200F046820AD844F20A03984200F0B38144F21003984200F0B18116E345F20203984200F07F8245F20303EE
:403C4000984200F093820BE345F21003984200F0F4820AD845F20E03984200F0E88245F20F03984200F0E682FAE245F21703984200F0E98246F20103984200F0118245F2E2
:403C80001403984240F0EC82DAE27B4A137803F0FE031370E4E2794B1E683046FFF756FF60B1304609F080FE744E00213068FFF7FFFD01213068FFF7FBFD37E0704B1A68BA
:403CC000936A1B791BB34FF0B05191F8043603F03F0391F8050600F03F0043EA801391F8030600F01F0043EA003391F8001601F07F0143EA4143126B1370614A1168096B50
:403D0000C3F3072048701268126B1B0C93705C4E3368186B09F048FE33680021186BFFF7C7FD33680121186BFFF7C2FD544B1B68986A02300AF044F90023059306933F2395
:403D40008DF8143005A809F053FE02224D4B1A7086E200234B4A13704B4A13704B4A13700A20FEF7E3FF43F212039C4240F07882FFF784FB74E2464B1B6813F0010F40F0F5
:403D80006F820023ADF814308DF816303C4E33689B6A93F900308DF8143005A809F042FE33689B6A93F901308DF8143001238DF81530FF238DF8163005A809F033FE344A50
:403DC000136843F0010313604AE2FFF7A3FE47E24978304B1B88ADF81430002319E02E4A32F81320ADF808209DF8092012B92B48825C00E00022012A0AD9274A12F8132094
:403E0000914205D1244A32F81330ADF8143002E00133002BE3D09DF81530FF2B05D104D140F2CA311E48FEF7A5FFBDF81430ADF82030ADF81C30C3F307232978194AD1545E
:403E40000EE20B78002B40F00B820B7A33B9164B0022DA809A80154A1A604B60064A137803F0FE031370FBE149790A4B1B88ADF81430002336E000BFC47C02088C4402080E
:403E800064740208B47C0208BD7C020898740208CC7C020828790810B07C0208BC7C02082C790810C87C0208A0740208F0710208B34A32F81320ADF80C209DF80D2012B9BE
:403EC000B048825C00E00022012A0AD9AC4A12F81320914205D1AA4A32F81330ADF8143002E00133002BE3D09DF81530FF2B05D104D140F2CA31A448FEF73CFFBDF81430D1
:403F0000ADF82430ADF81430C3F3072369789F4AD154EB78002B40F0A38169799C4B1B88ADF81430002319E0954A32F81320ADF810209DF8112012B99248825C00E0002221
:403F4000012A0AD98E4A12F81320914205D18C4A32F81330ADF8143002E00133002BE3D09DF81530FF2B05D104D140F2CA318648FEF700FFBDF81430ADF82830ADF81430D8
:403F8000C3F307230121834AD15469E1FFF7C2FD66E12B78002B3FD1AB78012B02D100227D4B1A7069787A4B1B88ADF81030002319E0734A32F81320ADF814209DF815204C
:403FC00012B97048825C00E00022012A0AD96C4A12F81320914205D1694A32F81330ADF8103002E00133002BE3D09DF81130FF2B05D104D140F2CA316348FEF7BBFEBDF8D5
:404000001030ADF82C30ADF81030C3F30723FF2B02D0A978614AD1540222614B1A701FE102225F4B1A701BE1FFF774FD5D4B1B7813F0010F00F01481574B1B78012B03D170
:404040000222554B1A700BE1032B03D10022524B1A7005E1022B40F0038100224E4B1A70514B1B685B68514A1178C1EBC10203EB42039A79002A00F0F3809B88002B00F029
:40408000EF804B4B1B78002B40F0EA800120FFF77FFB002840F0E48001223F4B1A70DFE0FFF738FDDCE00B88ADF800309DF801301BB90221334AD15405E023B940F2863108
:4040C0003148FEF757FE6A7829882D4B23F812106B780021374AD15403EB4301364E8819314B1B681B692A7802EB420202F64842134433F8022F9B788A538370687800EB7B
:40410000400002213044FFF7BFFA6B7803EB430333449B7898420BD0284B1B680021284898476B7803EB4303981900229A53827029462046FFF7EEFC92E00B88ADF80430E1
:404140009DF805301BB900210E4AD15405E023B940F286310C48FEF70DFE6B7800210D4AD15429462046FFF7D5FC79E00B88ADF814301723ADF8163005A80BF0CFFE6FE02B
:40418000B07C0208BC7C02082C790810B87C02082879081098740208BD7C02089C740208B47C0208C47C020864740208B27C0208C97C0208C87C0208C07C020868740208F9
:4041C000040001000846FFF7E5FB014620B929462046FFF79FFC01462846FFF749FC294B1B7813F0110F04D0274B1B682946204698472A89234B1B7813F0010F11D0531E60
:404200009BB2172B0DD912238DF81830ADF81620AB89ADF8143001238DF8193005A80BF071FE184A137803F0FE03137018E0FFF771FC15E0FFF76EFC12E0FFF76BFC0FE0B4
:40424000FFF768FC0CE00846FFF7E6FB29462046FFF760FC04E00D4A137843F001031370084B1B7813F0110F09D0064A137803F0FE031370044B1B682946204698470CB0B6
:4042800070BD00BFC47C020868740208B37C020830B589B00023069307938389ADF81830274B1B68002B44D00189254B5B681A68D38899423FD1234B1B68196A528802EB48
:4042C00082029300143B0B445B6813F4801F29D0044601AB07C883E807000022ADF81020A289ADF8122040228DF814201846FFF71BFB0546B8B900238DF81A308DF81B3074
:40430000079323681B7813F0010F05D00C4B1B6806A90D48984706E0094B1B6806A90B48984700E006250A4A137803F0FE03137002E0002500E00025284609B030BD00BF42
:40434000AC740208647402083200010033000100C47C0208B0F5803F09D208B583B245F20C02934205D10846FFF792FF08BD00207047002008BD00BF50B110B5064C606072
:404380000648FFF797FB63685B681BB1236010BD0348704710BD00BFAC7402085543081001001600E8B910B586B0E1B9012A1CD1197864291BD8002102910391049105912C
:4043C0000193ADF808200B4B5B681B6803EBC0046388ADF80C3001A8FFF7A6FA40B1064806E005487047044802E0034800E0024806B010BDAC74020801001600002070479C
:4044000030B108B5034A10600348FFF753FB08BD02487047B4740208FD4308100100160008B502490248FEF765FA08BDDC7C02080000674010B5144B1B788BB9134C144AFF
:4044400014492046FDF706FE134A14492046FDF70FFF13491348FEF72FFC01220A4B1A70104BB3F90030002B08DB590903F01F03012202FA03F30C4A42F82130034A13680C
:4044800043F00043136010BDB874020800006740DC7C02086479081084D71700A0860100214408101C71081000E100E081F0004102E000BF83F0004330B54FEA41044FEAF1
:4044C000430594EA050F08BF90EA020F1FBF54EA000C55EA020C7FEA645C7FEA655C00F0E2804FEA5454D4EB5555B8BF6D420CDD2C4480EA020281EA030382EA000083EAF5
:40450000010180EA020281EA0303362D88BF30BD11F0004F4FEA01314FF4801C4CEA113102D0404261EB410113F0004F4FEA03334CEA133302D0524263EB430394EA050F46
:4045400000F0A780A4F10104D5F1200E0DDB02FA0EFC22FA05F2801841F1000103FA0EF2801843FA05F359410EE0A5F120050EF1200E012A03FA0EFC28BF4CF0020C43FAF0
:4045800005F3C01851EBE37101F0004507D54FF0000EDCF1000C7EEB00006EEB0101B1F5801F1BD3B1F5001F0CD349085FEA30004FEA3C0C04F101044FEA445212F5800F1E
:4045C00080F09A80BCF1004F08BF5FEA500C50F1000041EB045141EA050130BD5FEA4C0C404141EB010111F4801FA4F10104E9D191F0000F04BF01460020B1FA81F308BF01
:404600002033A3F10B03B3F120020CDA0C3208DD02F1140CC2F10C0201FA0CF021FA02F10CE002F11402D8BFC2F1200C01FA02F120FA0CFCDCBF41EA0C019040E41AA2BF60
:4046400001EB0451294330BD6FEA04041F3C1CDA0C340EDC04F11404C4F1200220FA04F001FA02F340EA030021FA04F345EA030130BDC4F10C04C4F1200220FA02F001FAE0
:4046800004F340EA0300294630BD21FA04F0294630BD94F0000F83F4801306BF81F480110134013D4EE77FEA645C18BF7FEA655C29D094EA050F08BF90EA020F05D054EAE5
:4046C000000C04BF1946104630BD91EA030F1EBF0021002030BD5FEA545C05D14000494128BF41F0004130BD14F580043CBF01F5801130BD01F0004545F0FE4141F4700186
:404700004FF0000030BD7FEA645C1ABF194610467FEA655C1CBF0B46024650EA013406BF52EA033591EA030F41F4002130BD00BF90F0000F04BF0021704730B54FF480648B
:4047400004F132044FF000054FF0000150E700BF90F0000F04BF0021704730B54FF4806404F1320410F0004548BF40424FF000013EE700BF42004FEAE2014FEA31014FEA3F
:4047800002701FBF12F07F4393F07F4F81F06051704792F0000F14BF93F07F4F704730B54FF4607401F0004521F0004120E700BF50EA010208BF704730B54FF000050AE037
:4047C00050EA010208BF704730B511F0004502D5404261EB41014FF4806404F132045FEA915C3FF4DCAE4FF003025FEADC0C18BF03325FEADC0C18BF033202EBDC02C2F16B
:40480000200300FA03FC20FA02F001FA03FE40EA0E0021FA02F11444C1E600BF70B54FF0FF0C4CF4E06C1CEA11541DBF1CEA135594EA0C0F95EA0C0F00F0DEF82C4481EACC
:40484000030621EA4C5123EA4C5350EA013518BF52EA033541F4801143F4801338D0A0FB02CE4FF00005E1FB02E506F00042E0FB03E54FF00006E1FB03569CF0000F18BF2F
:404880004EF0010EA4F1FF04B6F5007F64F5407404D25FEA4E0E6D4146EB060642EAC62141EA55514FEAC52040EA5E504FEACE2EB4F1FD0C88BFBCF5E06F1ED8BEF1004F7E
:4048C00008BF5FEA500E50F1000041EB045170BD06F0004646EA010140EA020081EA0301B4EB5C04C2BFD4EB0C0541EA045170BD41F480114FF0000E013C00F3AB8014F1E2
:40490000360FDEBF002001F0004170BDC4F10004203C35DA0C341BDC04F11404C4F1200500FA05F320FA04F001FA05F240EA020001F0004221F0004110EBD37021FA04F6DE
:4049400042EB06015EEA430E08BF20EAD37070BDC4F10C04C4F1200500FA04F320FA05F001FA04F240EA020001F0004110EBD37041F100015EEA430E08BF20EAD37070BDF0
:40498000C4F1200500FA05F24EEA020E20FA04F301FA05F243EA020321FA04F001F0004121FA04F220EA020000EBD3705EEA430E08BF20EAD37070BD94F0000F0FD101F0E5
:4049C0000046400041EB010111F4801F08BF013CF7D041EA060195F0000F18BF704703F00046520043EB030313F4801F08BF013DF7D043EA0603704794EA0C0F0CEA13552B
:404A000018BF95EA0C0F0CD050EA410618BF52EA4306D1D181EA030101F000414FF0000070BD50EA410606BF1046194652EA430619D094EA0C0F02D150EA013613D195EAF4
:404A40000C0F05D152EA03361CBF104619460AD181EA030101F0004141F0FE4141F470014FF0000070BD41F0FE4141F4780170BD70B54FF0FF0C4CF4E06C1CEA11541DBFB5
:404A80001CEA135594EA0C0F95EA0C0F00F0A7F8A4EB050481EA030E52EA03354FEA013100F088804FEA03334FF0805545EA131343EA12634FEA022245EA111545EA10650B
:404AC0004FEA00260EF000419D4208BF964244F1FD0404F5407402D25B084FEA3202B61A65EB03055B084FEA32024FF480104FF4002CB6EB020E75EB030E22BFB61A75464B
:404B000040EA0C005B084FEA3202B6EB020E75EB030E22BFB61A754640EA5C005B084FEA3202B6EB020E75EB030E22BFB61A754640EA9C005B084FEA3202B6EB020E75EB56
:404B4000030E22BFB61A754640EADC0055EA060E18D04FEA051545EA16754FEA06164FEAC30343EA52734FEAC2025FEA1C1CC0D111F4801F0BD141EA00014FF000004FF0EB
:404B8000004CB6E711F4801F04BF01430020B4F1FD0C88BFBCF5E06F3FF6AFAEB5EB030C04BFB6EB020C5FEA500C50F1000041EB045170BD0EF0004E4EEA113114EB5C04E0
:404BC000C2BFD4EB0C0541EA045170BD41F480114FF0000E013C90E645EA060E8DE60CEA135594EA0C0F08BF95EA0C0F3FF43BAF94EA0C0F0AD150EA01347FF434AF95EA0E
:404C00000C0F7FF425AF104619462CE795EA0C0F06D152EA03353FF4FDAE1046194622E750EA410618BF52EA43067FF4C5AE50EA41047FF40DAF52EA43057FF4EBAE12E7CF
:404C400010B501390244904207D010F8013B11F8014FA342F7D0181B10BD002010BD10B5431E0A44914204D011F8014B03F8014FF8E710BD02440346934202D003F8011B5C
:404C8000FAE770472DE9F04788B0002B149F1299109EDDF84CA01D4627F02007BBBF03F100431D4600232D231446B8BF1446462F0B7003D0452F03D1013601E0032300E063
:404CC000022307AA049206AA03928DE8480422462B4600F019FD472F804602D1119BDB0728D5462F08EB060911D198F80030302B0AD1002200232046294602F093F818B912
:404D0000C6F10106CAF80060DAF800309944002200232046294602F085F808B9302202E0CDF81C9006E0079B994503D9591C07911A70F8E7079B159AC8EB0303404613600A
:404D400008B0BDE8F08773B503460029B8BF494203F8022BB4BF2D222B220929427019DD0DF1070216460A2591FBF5F405FB14113031092C02F8011D2146F5DC3031541ECD
:404D800002F8011CB4421A460AD214F8012B03F8012BF7E730241A46214402F8024B5970101A02B070BD00002DE9F04F91B00C46DDF8688016461F46054601F041FA0368F3
:404DC0000893184600F0F4FB00230E93D8F800300990073323F0070303F1080294F818A0D4F800B0C8F80020D3E90023C4E91223D4E9128929F000430B93CDF828804FF0CA
:404E0000FF32A74BDDE90A0102F03EF8A0B94FF0FF32A34BDDE90A0102F018F860B9002200234046494602F007F810B12D2384F843309C4B9C4A0AE042464B464046494683
:404E400002F022F8002800F09281984B984ABAF1470F8CBF90469846032323612BF0040323604FF000093DE0BAF1670F00F08A81BAF1470F00F08681236000210DF1330297
:404E80000193636805900292009342464B460691CDF810A0CDF80CE02846FFF7F3FE0AF0DF03472B804600F08481BAF1650F0D9900F28D810139524604F150000D91FFF733
:404EC00042FF0E9A8318012A8146236100F37C812268D10700F178819DF8333013B12D2384F84330009733460FAA2146284600F09FF9013002D14FF0FF3096E123685A0588
:404F000001D4236965E0BAF1650F40F2D58000220023D4E9120101F085FF78B30123654A31462846B8470130E5D00E9B0D9A9A420BDB2368D80708D423689B0740F111818B
:404F40004FF0000804F1190906E1099B089A31462846B8470130CED04FF0000804F11A090E9B013B9845E7DA01234A4631462846B8470130BFD008F10108F1E70D9B002B0C
:404F800029DC01234B4A31462846B8470130B2D00D9B23B90E9B13B92368D907CCD5099B089A31462846B8470130A4D04FF0000904F11A0A0D9B5B42994509DA01235246A5
:404FC00031462846B847013095D009F10109F1E70E9B4246A7E00E9AA36D9A42A8BF1A46002A914606DC4FF0000A29EAE97904F11A0B11E01346314642462846B8470130A6
:40500000F1D178E701235A4631462846B84701303FF471AF0AF1010AA36DC9EB03029245F0DB08EB03090D9A0E9B9A420FDB2368DA070CD40E9B0D9A9844C9EB08089B1AAC
:405040009845A8BF9846B8F1000F08DC0FE0099B089A31462846B8470130EBD14BE743464A4631462846B84701303FF444AF4FF0000928EAE87804F11A0A09E0012352466E
:4050800031462846B84701303FF435AF09F101090D9A0E9B9B1AC8EB03039945EEDB4BE7FFFFEF7F567E08105A7E08105E7E0810627E0810667E08100E9A012A01DCDB0767
:4050C00038D50123424631462846B84701303FF412AF099B089A31462846B84701303FF40AAF00220023D4E9120101F09BFE20B14FF0000804F11A0A0EE00E9B08F1010244
:40510000013B19E00123524631462846B84701303FF4F1AE08F101080E9B013B9845F1DB4B4604F1500231462846B84701307FF403AFE0E60123424631462846B84701306E
:40514000EED1D8E601234A4631462846B84701303FF4D1AE08F10108E3680F9A9B1A9845F0DBE0680F9B9842B8BF18465DE06268531C0EA84BF480630DF1340E7FF474AE20
:40518000062201E012B90122626075E6002106910DF133018DE80C00236005904246CDF810A0CDF80CE002914B462846FFF76AFD80460D9BD81C02DB626893421DDDAAF148
:4051C000020A5FFA8AFA70E60133236184E6BAF1660F14D10029636807DD216113B92268D2071DD501330B4419E013B92268D00701D5023313E0012311E04FF0670A0D9BBA
:405200000E9A934205DB22682361D10708D5013305E0002BD4BFC3F102030123134423610D9BA3654FF0000956E611B0BDE8F08F2DE9F04791461F460A698B68DDF8208042
:405240009342B8BF1346C9F8003091F8432006460C4612B10133C9F800302368990642BFD9F800300233C9F80030256815F0060510D104F1190A07E00123524639463046A6
:40528000C04701301AD00135E368D9F800209B1A9D42F1DB94F843302268003318BF012392060FD5E1185A1C302081F84300224494F8451082F84310023303E04FF0FF30B2
:4052C000BDE8F08704F1430239463046C0470130F4D02268D9F80050E36802F00602042A08BF5D1B2269A3680CBF25EAE57500259342C4BF9B1AED184FF000091A344D45E1
:4053000009D00123224639463046C0470130D5D009F10109F3E70020BDE8F0872DE9F04317460A7E85B06E2A984606460C460C9B01F1430E00F0AE8011D8632A22D009D854
:40534000002A00F0BB80582A40F0CA8081F84520834955E0642A1ED0692A1CD0C0E0732A00F0B08009D86F2A2ED0702A40F0B8800A6842F020020A603EE0752A24D0782AA8
:405380003AD0ADE01A6801F14205111D1960136884F84230A8E021681A6811F0800F02D0111D196008E011F0400F02F10401196002D0B2F9003000E01368002B3CDA2D22AE
:4053C0005B4284F8432037E021681A6811F0800F02D0111D196007E011F0400F02F10401196001D0138800E01368227E5C496F2A14BF0A2208221BE078225A4984F8452077
:405400002268186812F0800F00F104051D6003D1550601D5038800E00368D00744BF42F0200222601BB9226822F0200222601022002084F8430001E049490A226568A56039
:40544000002D08DB206820F0040020602BB9002D7DD175460CE0002B79D07546B3FBF2F002FB1033CB5C05F8013D03460028F5D1082A0BD12368DA0708D5236962689A42D9
:40548000DEBF302305F8013C05F1FF35C5EB0E0323612EE008681A68496910F0800F03D0101D1860136808E010F0400F02F104001860136801D0198000E019600023236194
:4054C000754616E01A68111D1960156862680021284600F0C5FE08B1401B6060636804E004F1420584F8422001232361002384F84330CDF800803B4603AA21463046FFF7AC
:4055000097FE013002D14FF0FF3026E023692A4639463046C0470130F5D023689B0710D5002504F1190907E001234A4639463046C0470130E7D00135E368039A9B1A9D42F1
:40554000F2DBE068039B9842B8BF184605E00B7884F8423004F142058AE705B0BDE8F083687E0810797E08100EB400B59CB04FF402711DABADF81410029006906FF000411A
:405580000A48049107914FF6FF7153F8042BADF816100068019302A901F09CFA029B00221A701CB05DF804EB03B07047B8460208034613F8012B002AFBD1181A01387047E1
:4055C00010B5034642B111F8014B03F8014B013A002CF7D11A4400E010BD934202D003F8014BFAE710BD2DE9F74F03690C699C42804600F38380013C01F114074FEA840E4C
:4056000000F1140657F8245006EB0E030193013556F82430B3FBF5F507EB0E09002D39D04FF0000A3846B446D34650F8042B93B205FB03A34FEA134A9BB2C3EB0B03120C5E
:40564000BCF800B005FB02A213FA8BF34FEA124A1FFA82FBDCF80020CBEB124202EB23429BB243EA024381454FEA224B4CF8043BDBD256F80E306BB9019B043B9E421A46F6
:4056800002D3C8F8104005E01268043B002AF8D1013CF3E7404601F040F800282CDB013530464FF0000E57F8041BD0F800C08AB2C2EB0E03090C13FA8CF3C1EB1C4202EBFE
:4056C00023429BB243EA0243B9454FEA224E40F8043BE8D256F8242006EB840362B9043B9E421A4602D3C8F8104005E01268043B002AF8D1013CF3E7284600E0002003B05C
:40570000BDE8F08F000000002DE9F04F456A97B08246239CCDE9022345B9102000F094FDCAF82400456085600560C560DAF82430196859B15A684A60012393408B6050465A
:4057400000F013FEDAF8243000221A60039BA04A002BBFBF01232360039B23F00043B8BF0393DDF80C80A4BF0023236028F000431B0D1B0593421DD1229A42F20F731360D8
:40578000029B43B9934A944BC8F31300002814BF1846104600E09048249B002B00F04A85C37813B100F1080300E0C31C249A136000F040BDDDE902450022002320462946B7
:4057C00001F030FB074658B1229A01231360249B002B00F0228581481860013800F02ABD14AB019315AB009322462B46504601F00FF8C8F30A56059056B1C5F3130343F04D
:405800007F51204641F44011A6F2FF3611971DE0159B149E1E4406F23243202B0ADD029A06F21240C3F1400322FA00F008FA03F3184304E0C3F12000029B03FA00F0FEF764
:4058400077FF0123A1F1F871013E11930022644BFEF730FE58A3D3E90023FEF7DFFF58A3D3E90023FEF728FE044630460D46FEF76FFF55A3D3E90023FEF7D0FF02460B4670
:4058800020462946FEF718FE04460D4601F012FB0022834600232046294601F0CDFA58B15846FEF755FF02460B462046294601F0B9FA08B90BF1FF3BBBF1160F0DD8494991
:4058C00001EBCB01DDE90223D1E9000101F0D2FA30B10BF1FF3B002300E00123109300E01090149B9E1B731E089343BFC3F10009002308934FF00009BBF1000F07DB089B93
:40590000CDF834B05B4408930023099306E0CBF1000309930023CBEB09090D93209B092B27D8052BC4BF043B2093209BA3F10203CCBF00250125032B20D8DFE803F0060E48
:405940000204012302E0012308E000230C93219B002B1CDD069398461EE000230C93219B5B4403F1010806934346012BB8BF012312E00125002320930C9501E001230C93C2
:405980004FF0FF33069398460022122303E00123069398461A462192DAF8244000226260042101F114029A421ED86268013262604900F6E7AFF3008061436F63A787D23F42
:4059C000B3C8608B288AC63FFB799F501344D33F0000F07F8A7E0810937E0810677E08100000F83FD87E08106168504600F088FCDAF8243020601B680793B8F10E0F00F216
:405A00005D81002D00F05A819DED027BBBF1000F8DED0E7B31DDA04A0BF00F0302EBC30393ED007B4FEA2B14E2068DED0A7B0CD59A4BDDE90E01D3E90823FFF719F804F03C
:405A40000F04CDE90201032600E00226934D6CB1E30708D5DDE90A01D5E90023FEF7DEFECDE90A01013664100835F0E7DDE90A23DDE90201FEF7FCFF20E0CBF1000404B33F
:405A8000854B864D04F00F0203EBC203D3E90023DDE90E01FEF7C2FECDE9020124110023022654B1E70705D5D5E90023FEF7B6FE0136012364100835F3E71BB1CDE9020127
:405AC00000E00226109BEBB1DDE902450022744B2046294601F0B0F9A0B1B8F1000F11D0069B002B40F3E6800BF1FF330A9300226C4B20462946FEF791FE0136CDE90201BE
:405B0000069F02E0CDF828B047463046FEF720FEDDE90223FEF782FE0022634BFEF7CCFC0446A1F15075CFB90022604BDDE90201FEF7C0FC22462B46CDE9020101F09AF9B8
:405B4000002840F04182224605F10043DDE9020101F072F9002840F02E82ABE00C9A4E4B791E002A4AD003EBC103D3E9002300204F49FEF77DFF22462B46FEF79BFC079CD5
:405B800005460E46DDE9020101F094F91290FEF7DFFD02460B46DDE90201FEF78BFC129B303304F8013B2A463346CDE9020101F043F9002840F02183DDE90223002038490F
:405BC000FEF778FC2A46334601F036F9002840F0D280079BE31ABB426CDA0022314B28463146FEF71BFE002205460E462D4BDDE90201FEF713FECDE90201C3E703EBC101FB
:405C000022462B46D1E90001FEF708FE079BCDE91201DC191D46DDE9020101F04BF90646FEF796FD303602460B46DDE90201FEF741FC05F8016BAC42CDE902014FF00002F5
:405C400023D11B4BDDE91201FEF736FC02460B46DDE9020101F00EF9002840F08C80DDE9122300201249FEF725FC02460B46DDE9020101F0E1F8E8B114F8013C302B04F122
:405C8000FF3240F0BA821446F6E7064BFEF7C6FDCDE90201BFE700BFD87E0810B07E08100000F03F0000244000001C40000014400000E03FDDE90E34CDE90234159B002B04
:405CC0007CDBBBF10E0F79DC8F4B03EBCB03D3E90067219B002B14DAB8F1000F11DC40F06C810022894B30463946FEF797FDDDE9022301F0B5F845464646002840F05F8193
:405D000066E1079C32463B46DDE90201FEF7B0FE01F0D0F80546FEF71BFD32463B46FEF77DFD0B460246DDE90201FEF7C3FB05F1300E04F801EB079BC3EB040EF045CDE91D
:405D400002012ED102460B46FEF7B6FB8046894602460B463046394601F06EF878B942464B463046394601F05DF8002800F04782E90704D443E2DDF828B000E01C4614F81A
:405D8000012C392A04F1FF3307D1079A9A42F5D1079930220BF1010B0A701A7801321A702DE200225A4BFEF739FD00220023CDE9020101F037F80028A4D020E20C9A002AC1
:405DC0002DD0209A012A0ADC119A12B103F2334302E0149BC3F13603099D4C4615E0099B08F1FF35AB42BFBF099B0995EA1A0D9BB7BF9B185D1B0D930025B8F1000FB9BF97
:405E0000C8EB090400234C464346089A01211A4450469944089200F047FB064602E0099D0C9E4C465CB1089B002B08DDA342089AA8BF2346C3EB0909E41AD31A0893099BF2
:405E4000002B1DDD0C9BABB185B131462A46504600F0C4FB059A01460646504600F02DFB05990746504600F080FA0597099B5A1B06D000E0099A0599504600F0AFFB05905C
:405E80000121504600F010FB0D9B05465BB31A460146504600F0A2FB209B012B054618DC029B83B9039BC3F3130373B9039B23F000473F0D3F054FB1089B013309F101096C
:405EC0000893012702E0002700E0029F0D9B73B100E000272B6905EB8303186900F097FAC0F1200004E0209B012BD9DD0D9F0120089B184410F01F000ED0C0F12003042B58
:405F000008DDC0F11C0008E0D87E0810000014400000244006D018461C30089B0344814404440893B9F1000F05DD4A460599504600F0A2FB0590089B002B05DD29461A468F
:405F4000504600F099FB0546109BEBB12946059800F0E3FB002817DA00230A220599504600F01AFA0C9B05900BF1FF3B002B00F05881002331460A22504600F00DFA069BA1
:405F8000002B064637DC33E0B8F1000F2ADC209B022B27DDCDF81880069B83B929460522504600F0F9F901460546059800F0B5FB00280DDC03E03D4600E000252E46219BD7
:405FC000079C6FEA030B0AE0DDF828B03D463E46079B079A5C1C312313700BF1010BB0460026F7E00C9BCDF8188023B9079CB1E0209B022BD0DC002C05DD31462246504641
:4060000000F03AFB06469FB17168504600F078F9326902320446920006F10C010C30FEF71EFE01222146504600F026FB804600E0B046029BDDF81C9003F0010308932946E7
:406040000598FFF7D0FA3146044600F13007059800F063FB424602902946504600F079FBC36802463BB901460990059800F055FB099A034600E0012311465046099300F0DF
:4060800074F9099B4BB9209A3AB9089A2AB9392F28D0029B002B1ADC1BE0029A002A04DB1AD1209AC2B9089AB2B9002B11DD01220599504600F0E0FA2946059000F02DFB58
:4060C000002802DC05D1FA0703D5392F0AD004F1310709F101040CE0002B09F101040BDD392F05D1392389F8003009F1010954E0013789F800706DE0079B069A04F8017CCB
:40610000E31A9342A1463AD000230A220599504600F042F9464505904FF000034FF00A023146504604D100F037F90646804686E700F032F94146064600230A22504600F0FD
:406140002BF980467BE700230A220599504600F023F9059029460598FFF745FA00F1300704F8017B079B069AE31A9342EBDB079B012AACBF9B180133B046994600260122B7
:406180000599504600F078FA2946059000F0C5FA002802DC15D1FB0713D54C4614F8013C392B04F1FF3209D1079B934204D10BF1010B3123079A02E01446EFE7013313706F
:4061C00008E04C4614F8013C302B04F1FF3201D11446F7E72946504600F0C7F8B8F1000F0DD02EB1464503D03146504600F0BDF84146504600F0B9F801E0DDF828B005992F
:40620000504600F0B2F80023229A23700BF101031360249B1BB11C6001E008480AE0079808E0069B002B3FF7E1AE209B022B7FF7DDAEB1E617B0BDE8F08F00BF667E0810E9
:4062400000487047BC460208024B0146186800F089BB00BFB8460208000000000000000001F0FF01102A2BDB10F0070F08D010F8013B013A8B422DD010F0070F42B3F6D1CA
:40628000F0B441EA012141EA014122F007047FF000070023F0E80256083C85EA010586EA010685FA47F5A3FA87F586FA47F6A5FA87F68EB9EED1F0BC01F0FF0102F007021F
:4062C00032B110F8013B013A83EA010313B1F8D10020704701387047002D06BF35460338073815F0010F07D1013015F4807F02BF013015F4C03F0130F0BC0138704700BFE4
:4063000070B5456A04460E463DB91020FFF79CFF6062456085600560C560656AEB6843B1636ADB6853F8260078B1026843F8262017E021220421204600F0B8FA636AE86037
:40634000DB68002BECD1002070BD012101FA06F56A1D9200204600F0A9FA0028F3D04660856000230361C36070BD70B5446A06460D463CB91020FFF767FF706244608460E1
:406380000460C4603DB1736A6A68DB6853F82210296043F8225070BD2DE9F0410D691F4606460C4601F1140E0023DEF8000081B202FB01710F0C000C02FB007089B2013323
:4063C00001EB00419D424FEA10474EF8041BECDCD7B1A3689D4212DB616830460131FFF78FFF2269023204F10C01804692000C30FEF735FC21463046FFF7B7FF444604EB03
:40640000850301355F6125612046BDE8F081030C1B0413B90004102300E0002310F07F4F04BF0002083310F0704F04BF0001043310F0404F04BF80000233002803DB4200D1
:4064400003D5581C70471846704720207047036813F007020BD0D90722D49A074BBF5B089B08036003604CBF01200220704799B209B91B0C102213F0FF0F04BF1B0A0832D0
:40648000190704BF1B090432990704BF9B080232D90702D45B0805D00132036010467047002070472020704710B50C460121FFF727FF01224461026110BD2DE9F74F144603
:4064C0000A6923699A42B8BF0B468846BCBFA0461C46D8F81070D4F81090D8F80830D8F8041007EB09069E42C8BF0131FFF708FF00F1140505EB860C2B460022634502D28E
:4065000043F8042BFAE704F1140208F1140102EB890301EB87070093009B0192934257D9B2F800B0BBF1000F23D08946AE464FF0000859F8044BBEF800A0A3B20BFB03A335
:406540004FEA144ADEF8004043444FEA14480BFB0A8404EB1344F2469BB243EA04434F454FEA14484AF8043B01D9D646E1E7CEF80480019BB3F802A00432BAF1000F21D003
:406580002B682C4689464FF00008B9F800E0B4F802B00AFB0EBEF044A3469BB243EA08434BF8043B59F8043BB4F804E01B0C0AFB03E303EB18434F454FEA134801D95C467D
:4065C000E3E763600435A7E75CF8043D13B9013E002EF9DC066103B0BDE8F08F2DE9F843154612F0030206460F4607D0013A214C002354F82220FFF7CFFE0746AD1036D00F
:40660000746A3CB91020FFF71FFE7062446084600460C460D6F82480D8F808404CB940F271213046FFF740FF0023C8F80800044603604FF00008EB070AD539462246304657
:40664000FFF73BFF394681463046FFF78EFE4F466D100CD0206808B10446ECE7224621463046FFF72AFF2060C0F80080F4E73846BDE8F883A07E08102DE9F0470C464FEABD
:40668000621A26694968A368564407469146751CAB4202DA01315B00FAE73846FFF730FE0023804600F114011A46534503DA41F823200133F9E72AEAEA73206901EB83032B
:4066C00019F01F0904F1140101EB800E14D0C9F1200C0022086800FA09F002439A4643F8042B51F8042B8E4522FA0CF2F2D8CAF8042042B1B51C06E0043B51F8042B43F856
:40670000042F8E45F9D8013D3846C8F810502146FFF72BFE4046BDE8F08703690A699B1A10B511D192001430143183180A4453F8044D52F8041D8C4202D007D3012010BDD0
:406740009842F4D3002010BD184610BD4FF0FF3010BD2DE9F8430C460746114620461546FFF7DBFF061E08D131463846FFF7C8FD012303614661BDE8F883BCBF23462C46FB
:4067800038466168BABF1D4601260026FFF7B8FD2B69C660266905F11409143404EB860709EB830800F114054FF0000C54F8043B59F8042B1CFA83F11FFA82FE120CCEEBC5
:4067C0000101C2EB134303EB214389B24FEA234CC84541EA0343A64645F8043BE6D8BE450ED25EF8041B1CFA81F2131403EB114392B242EA03424FEA234C45F8042BEEE7D3
:4068000055F8043D0BB9013EFAE70661BDE8F8832DE9F34101211C46089E099D9046FFF76FFDC4F31303C4F30A5407460CB143F480130193B8F1000F19D002A840F8088DAB
:40684000FFF705FE009B48B1019AC0F1200102FA01F10B43C2407B61019200E07B61019BBB61002B14BF02210121396107E001A8FFF7EDFD019B7B6101213961203034B147
:40688000A4F2334404443460C0F1350009E007EB8103A0F2324030601869FFF7B8FDC0EB41102860384602B0BDE8F08138B502FB01F4214600F056F8054618B122460021FF
:4068C000FEF7D8F9284638BD38B50546002946D051F8043C0C1F002BB8BFE41800F019FA1F4A1368114613B96360146032E0A3420ED92268A018834204BF18685B686360B7
:4069000004BF121822600C6024E0A24203D813465A68002AF9D118681918A1420BD12168014458188242196014D1106852685A60014419600EE002D90C232B600AE021683A
:406940006018824204BF10685268626004BF091821605C602846BDE8384000F0DBB938BD187C020870B5CD1C25F0030508350C2D38BF0C25002D064601DBA94202D90C234E
:40698000336046E000F0C5F9234B1C681A462146A1B10B685B1B0ED40B2B03D90B60CC18CD501EE08C420DBF63684B686360136018BF0C4615E00C464968E9E7174C2368F1
:4069C0001BB9304600F07AF920602946304600F075F9431C18D0C41C24F00304A0420DD12560304600F096F904F10B00231D20F00700C31A0ED05A42E25070BD211A3046ED
:406A000000F05CF90130EBD10C233360304600F081F9002070BD00BF187C0208147C02082DE9F0478E689E4282460C46914698463ED88A8912F4906F3AD0256809696F1A8C
:406A40006569022305EB450595FBF3F57B1C43449D4238BF1D4653050FD52946FFF782FF064698B13A462169FEF7F9F8A38923F4906343F08003A38113E02A4600F04BF9CC
:406A8000064670B921695046FFF71EFF0C23CAF80030A38943F04003A3814FF0FF30BDE8F087266165613E44ED1B2660A5604646464528BF464632464946206800F00EF94B
:406AC000A3689B1BA36023681E4426600020BDE8F08700002DE9F04F9DB0804603938B891C060D4616460DD50B695BB94021FFF739FF2860286118B90C23C8F80030CDE099
:406B000040236B610023099320238DF82930DFF89CB130238DF82A3037463C4614F8013B1BB9B7EB060910D003E0252BF9D02746F3E74B46324629464046FFF771FF01306C
:406B400000F0A780099B4B4409933B78002B00F0A08000234FF0FF3204930793059206938DF853301A930126052221784E48FFF777FB671C049B38B14B4A801A06FA00F089
:406B8000184304903C46EFE7D90644BF20228DF853201A0744BF2B228DF8532022782A2A03D0079A00210A200BE0039A111D12680391002A10DA524243F00200079204908E
:406BC0000BE0274601343B78303B092B03D800FB02320121F5E701B107923B782E2B1ED17B782A2B0AD1039B1A1D1B680392002BB8BF4FF0FF330237059310E000230593C9
:406C0000781C19460A24074601303A78303A092A03D804FB01210123F5E703B10591032239782248FFF71CFB40B14023CBEB000003FA00F0049B18430490013739781C4801
:406C40008DF8281006227E1CFFF70AFB88B1194B33B9039B073323F007030833039314E003AB00932A46144B04A94046FEF79CF807E003AB00932A460F4B04A94046FEF771
:406C80004DFBB0F1FF3F824603D0099B5344099342E7AB895B0601D4099801E04FF0FF301DB0BDE8F08F00BFA07F0810A67F0810AA7F0810A94D0810216A081038B5064C63
:406CC000002305460846236000F01CF9431C02D1236803B12B6038BD287D0208884210B501EB020301D8421E0BE09842FBD28118D21AD34204D013F8014D01F8014DF8E778
:406D000010BD994204D011F8014B02F8014FF8E710BD70477047F8B5074615460E4621B91146BDE8F840FFF71DBE1AB9FFF7CCFD2846F8BD00F015F885420ED92946384649
:406D4000FFF710FE044650B131462A46FDF787FF31463846FFF7B8FD01E03046F8BD2046F8BD51F8040C0028BEBF091851F8043CC0180438704700004FF0FF3C06E000BF0A
:406D80004FF0010C02E000BF4FF0010C4DF804CD4FEA410C7FEA6C5C4FEA430C18BF7FEA6C5C1BD001B050EA410C0CBF52EA430C91EA030F02BF90EA020F0020704710F113
:406DC000000F91EA030F58BF994208BF90422CBFD8176FEAE37040F0010070474FEA410C7FEA6C5C02D150EA013C07D14FEA430C7FEA6C5CD6D152EA033CD3D05DF8040B43
:406E0000704700BF8446104662468C461946634600E000BF01B5FFF7B7FF002848BF10F1000F01BD4DF808EDFFF7F4FF0CBF012000205DF808FB00BF4DF808EDFFF7EAFFDD
:406E400034BF012000205DF808FB00BF4DF808EDFFF7E0FF94BF012000205DF808FB00BF4DF808EDFFF7CEFF94BF012000205DF808FB00BF4DF808EDFFF7C4FF34BF01205E
:406E800000205DF808FB00BF4FEA410C7FEA6C5C02D150EA013C0AD14FEA430C7FEA6C5C02D152EA033C02D14FF0000070474FF0010070474FEA410212F5001215D211D596
:406EC0006FF47873B3EB625212D94FEAC12343F0004343EA505311F0004F23FA02F018BF404270474FF00000704750EA013005D111F0004008BF6FF0004070474FF0000061
:406F0000704700BF044A05491368002B08BF0B4618441060184670471C7C0208307D0208F8B500BFF8BC08BC9E467047F8B500BFF8BC08BC9E46704701B40248844601BCC3
:406F4000604700BF014A020803000000010000000100000000000000050360000400000001000000000000000100000006046000080000006C7302088D030810424C453AD3
:406F80000000000031390000537461636B204F6E200D200A2000000032300000446576696365206C696E6B20636F6E6E6563746564200D200A200000446576696365206380
:406FC0006F6E6E6563746564200D200A2000000054696D656F75742025690000537461636B2073687574646F776E00004164766572746973656D656E742073746172742FCB
:4070000073746F7000000000526561642D7265710000000044656661756C74004B6164656E63652D636F6E74726F6C3A0000000031000000582076616C75653A2025690013
:40704000320000004779726F73636F70652072616E67653A20256900340000005363616C6520466163746F723A2020583A2025660000000035000000446567726565732F99
:4070800073656320583A2025660000003700000052504D3A2025660039000000487A3A202566000031310000543A202566000000313300001B5B324B000000001B5B0000E5
:4070C00047656E6572617465645F536F757263655C50536F43365C70646C5C647269766572732F7065726970686572616C2F7363622F63795F7363625F756172742E68003E
:407100003B00000030000000256400007B000000070000007A000000070000002F00000007000000000000000100180001000028010000000B0000000018000000000000BC
:40714000020003280100020003000000002A0000000000000300002A01000201030000000B00000000430208040003280100020005000000012A0000000000000500012A94
:4071800001000201050000000200000008430208060003280100020007000000A62A0000000000000700A62A010002010700000001000000104302080800032801000200EE
:4071C00009000000042A0000000000000900042A010002010900000008000000184302080A000328010002000B000000C92A0000000000000B00C92A010002010B00000064
:4072000001000000204302080C000028010000000F00000001180000000000000D000328010020000F000000052A0000000000000E00052A000020010F000000040000007B
