:020000041008E2
:4000000000780408EB0208100D00000051030810510308105103081051030810000000000000000000000000000000004D0308104D030810000000004D0308104D030810DA
:400040004D0308104D0308104D0308104D0308104D0308104D0308104D0308104D0308104D0308104D0308104D0308104D0308104D0308104D0308104D0308104D03081000
:400080004D0308104D0308104D0308104D0308104D0308104D0308104D0308104D0308104D0308104D0308104D0308104D0308104D0308104D0308104D0308104D030810C0
:4000C0004D0308104D0308104D0308104D0308104D0308104D0308104D0308104D0308104D0308104D0308104D0308104D0308104D0308104D0308104D0308104D03081080
:400100004D0308104D0308104D0308104D0308104D0308104D0308104D0308104D0308104D0308104D0308104D0308104D0308104D0308104D0308104D0308104D0308103F
:400140004D0308104D0308104D0308104D0308104D0308104D0308104D0308104D0308104D0308104D0308104D0308104D0308104D0308104D0308104D0308104D030810FF
:400180004D0308104D0308104D0308104D0308104D0308104D0308104D0308104D0308104D0308104D0308104D0308104D0308104D0308104D0308104D0308104D030810BF
:4001C0004D0308104D0308104D0308104D0308104D0308104D0308104D0308104D0308104D0308104D0308104D0308104D0308104D0308104D0308104D0308104D0308107F
:400200004D0308104D0308104D0308104D0308104D0308104D0308104D0308104D0308104D0308104D0308104D0308104D0308104D0308104D0308104D0308104D0308103E
:400240004D0308104D0308104D0308104D0308104D0308104D0308104D0308104D0308104D0308104D0308104D0308104D0308104D0308104D0308104D0308104D030810FE
:400280004D0308104D0308104D03081010B5054C237833B9044B13B10448AFF300800123237010BDF071020800000000105A0810084B10B51BB108490848AFF30080084880
:4002C000036803B910BD074B002BFBD0BDE81040184700BF00000000F4710208105A0810F8460208000000007047FFF7FDFF72B6104C114DAC4209DA21686268A368043B7D
:40030000A2BFC858D050FAE70C34F3E70B490C4A00209142BCBF41F8040BFAE709480A490860BFF34F8F00F025F900F0FFF800F01DF8FEE74C39091064390910F0710208A6
:40034000747C02080040020808ED00E0FEE7FEE700B504207146084202D0EFF3098001E0EFF30880043001F0D1F9FEE708B5064B5B6813F4003F01D001F088F962B600F002
:400380000DF9002008BD00BF0000264008B5012000F082FD08BD00BF704700BF5C4AD2F8803303F00F0303F1D00152F8212002F00702032A04D0042A05D092B9554914E092
:4003C000554A116811E003F1C002514951F8222002F01F02112A06D0132A04D04FF4FA4103E04E4901E04FF400418BBB484BD3F8902502F00100D3F88825C2F30172D3F8D0
:40040000883513F0405F07D0414BD3F88835C3F30173012B02D102E0012300E0002303B108B9032A46D13A48D0F88025C2F31103D0F88425C2F30C02D0F88005C0F300603B
:400440000130B1FBF2F202FB03F2B2FBF0F131E0012B2FD12E4BD3F8402602F00100D3F80026C2F30172D3F8003613F0405F07D0274BD3F80036C3F30173012B02D102E050
:40048000012300E0002303B108B9032A12D12048D0F8002602F07F02D0F80036C3F30423D0F80006C0F3044002FB01F2B2FBF3F2B2FBF0F1164BD3F88033C3F3011321FA53
:4004C00003F215494A601648D0F89030C3F3072301330069000E0130B2FBF0F08860B2FBF3F3CB600B6103F5742202F23F220D48A0FB0202C2F387420A7503F2E7330A4A87
:40050000A2FB03239B098B61DB03CB61704700BF0000264000127A008C42020800366E010000214083DE1B43D34D621008B50D4801F04EF9FFF730FFFFF730FF00221146BA
:40054000042000F05BFA084800F0EEFA074B1B6893F8513013B1064800F056FB00F08EFF08BD00BF045208100C7202083C7C0208E84B081008B501F024F9074AD2F8883014
:4005800043F47003C2F88830BFF34F8FBFF36F8F01F01BF908BD00BF00ED00E000B583B000F006F90E490F4800F0DAFC0E4800F0DFF805F061FB0D4C207800F09DF8608872
:4005C00000F0CAF800F086F8094B58600028F0D0628864326280227801322270E9E700BF1C4C081000006740F5050810AC4202088C73020810B543F2120398423AD00C4618
:4006000007D8B0F5805F11D041F2010398421FD046E044F20803984211D045F21703984239D044F2060398423AD12AE01F49204800F096FC0021084601F0D0FA10BD002188
:40064000084601F0CBFA1B49194800F089FC10BD1949174800F084FC2378042B24D1E278164B1B789A421FD1144A93780133DBB2937010BD12490E4800F072FC00F0CCFFA1
:4006800010BD10490A4800F06BFC0F4B1B785BB900F08AF810BD0D49054800F061FC10BD0B49034800F05CFC10BD00BF284C081000006740384C0810544C0810B042020878
:4006C000644C0810704C08104D7C02087C4C0810884C081008B5074B9B7813F0FF0F06D004480023837006F0B5FC012008BD002008BD00BFB042020800B583B002AB03F897
:40070000010D01220021084602F072F803B05DF804FB00BFB0B900B587B002900390049005900192ADF80810094A1268126802EB80035B88ADF80C3001A801F01BFB18B110
:40074000044801E00348704707B05DF804FB00BF9C7402080100160008B5044A5070000A107002210020FFF7D5FF08BD9473020808B518B1094AD062002000E0084858B9AB
:40078000084B1B782BB9054801F0AAF80122054B1A7008B901F0CEF808BD00BFB4420208010016009673020808B501F059F908BD08B5084B1B783BB9074A0849084800F02E
:4007C000E7FB0122034B1A70054A136843F00043136008BDDC730208047C0208C44E08100000674038B50D4B9A680D4B9A420FD10D46044621B940F237110A4800F076FFED
:4008000004F11003064A52F8230042F8235038BD1030054B53F8200038BD00BF00ED00E000400208044F08100000081048B338B504460D464368072B03D93221134800F02C
:4008400055FFB4F900306268002B08DB5201D2B203F1604303F5614383F8002305E003F00F035201D2B20A49CA540A4B9A680A4B9A4208D12946B4F90000FFF7B3FF002050
:4008800038BD06487047002038BD00BF044F081014ED00E000ED00E0004002080100560038B50B4B1B68D3F8B4301B58002B0DDA0D4604460B0C1B0423B140F2D52105489A
:4008C00000F014FFA9B26160002038BD024838BD3C7C0208484F081001008A0038B50368002B01DA002300E0094B73B90D460446C2600B0C1B0423B140F2BB21054800F094
:40090000F5FEA9B2A160002038BD014838BD00BF01008A00484F081038B504460D4619B99921084800F0E2FE074B1B68D3F8B4301B59002B03DAE3682B60002038BD0348B0
:4009400038BD00BF884F08103C7C020801008A00254B1B6893F8313083423AD900293AD00B6813F01F0F38D170B50D4604461E4B1B6893F83130984204D340F2C3111B483C
:4009800000F0B4FE184B1B68186AB3F8B03004FB0304174E34602A68D2080021686802F049FB00212046FFF77BFF346825B940F293310E4800F09AFE2A4600212046FFF7DE
:4009C0008DFF60B900210A4B1868FFF769FF40B970BD084870470748704706487047064870BD054870BD00BF3C7C0208484F0810E073020803018A0001018A0010B504461B
:400A00001346B2B9A9B9124B1B6893F83130984204D340F2C3110F4800F068FE0C4B1B681A6AB3F8B03004FB03240B4B1C60002010BD43B149B1084A51609360111D20461A
:400A4000FFF786FF10BD054810BD044810BD00BF3C7C0208484F0810E073020803018A002DE9F0411B4B1B68DC68236883422CD90D464609A0EB4610012303FA00F819B9A9
:400A800000F09FFE074600E00027124B18680368002B01DA002300E00F4B83B9626852F8263018EA030F05D023EA080342F82630002400E0094C0021FFF7F2FE00E0084CDF
:400AC00025B9384600F081FE00E0064C2046BDE8F08100BFE073020801008A00020188000301880004018A000B4B1B68DB681A6882420CD94109A0EB4110012202FA00F0B4
:400B00005B6853F82130184203D004487047044870470448704700BFE07302080101880004018A0000018800024B1B680BB9014B18607047EC7302082DE9F8430446884681
:400B400091461D46089F2C4B1B681BB9B5212B4800F0CCFD284B1B682C2000FB04F01C18EEB21E50C5F3072363602D0CA560244B1B6893F831309E4204D340F2C31121486A
:400B800000F0B4FD1E4B1B68196AB3F8B02006FB02162661666893F832309E4204D340F2DF11184800F0A2FD154B1B681D6A803605EB46156561A668330C1B0423B14FF4D3
:400BC000FF71104800F092FD330C1B0423B140F2FF110C4800F08AFDB3B243EA0646AE60C4F81C90C4F820800023A36117B1B7F90030A381BDE8F883EC730208C84F081014
:400C00003C7C0208484F0810F0B58FB0044618B95221274800F06AFDA369072B03D95621234800F063FDE36A1BB95821204800F05DFD236B1BB959211D4800F057FD07AD3A
:400C400004F114060FCE0FC537682F6002AD26460FCE0FC533682B60164B1B68B3F93620079B1344ADF83030089B0D93A26AE16A0CAD00953B460A98FFF75EFF00210091A0
:400C8000069B0A460598FFF757FF216B2846FFF7CDFDBDF93030002B08DB590903F01F03012202FA03F3044A42F821300FB0F0BDC84F08103C7C020800E100E0F8B5064600
:400CC0000F461D4614461AB9FD211F4800F00EFD1E4B1B681BB9FE211B4800F007FD1B4B1B682C2101FB063001FB07314B68012202FA03F31B04466802FA06F60269EAB12A
:400D00008F69EFB91268002A01DA002200E0104AC2B92288134323600369DC6001238B614D620469330C1B0423B140F2BB21094800F0DCFCB2B2A2600020F8BD0648F8BDCF
:400D40000648F8BD0548F8BDC84F0810EC73020801008A00484F081004028A0007028A00F8B505460F4616460E4B1B6823B94FF4AF710D4800F0BAFC0A4B1B682C2404FB93
:400D80000534236A23B94FF4B171074800F0AEFCE369B34204D9236A43F826700020F8BD0248F8BDEC730208C84F08100A028A0038B504460D46074B1B6823B94FF4C8710E
:400DC000054800F093FC034B1B682C2202FB0434A56238BDEC730208C84F081070B582B000230193044620B940F2D111284800F07DFC236923B94FF4E971254800F076FC4D
:400E0000636923B940F2D311214800F06FFC236A23B94FF4EA711E4800F068FC6369DD682A0C20D012041A601B682069194B1B68D3F8B430C358002B15DA01A9FFF76CFDC8
:400E400060B9019803681E0CDBB2E269934206D2226A52F8233013B1984700E0002631462069FFF71DFDADB275B16369ADB21D601B68636A1BB198470023636202E0A36AC5
:400E800003B198470023A36163691B6802B070BDC84F08103C7C020810B50446074B1B6823B940F2B111064800F020FC034B1B682C2000FB0430FFF791FF10BDEC73020843
:400EC000C84F081010B50446104B1B6823B940F22B210F4800F00AFC0C4B1B682C2202FB0434B4F90C30002B0DDB5A0903F01F03012101FA03F32032064941F82230BFF36D
:400F00004F8FBFF36F8F002010BD00BFEC730208C84F081000E100E010B504460D4B1B6823B940F24B210C4800F0E0FB094B1B682C2202FB0434B4F90C30002B08DB5909E8
:400F400003F01F03012202FA03F3044A42F82130002010BDEC730208C84F081000E100E030B4036813F4006F01D0802200E04022002408E0D0F80832C3F308039A42F9D03A
:400F8000C0F8405201340D5D002DF3D130BC7047002800F0A48170B50546002900F0A18116460C460B78022B03D93F21A24800F09DFB637B023BDBB2062B03D940219E48C4
:400FC00000F094FBA37B3BB1022B05D0032B03D04121994800F08AFB94F82130012B03D94221954800F082FB94F82830012B03D94321914800F07AFB2378012B06D863681D
:40100000083B082B94BF0023012307E0A37F2BB16368013B062B94BF002301231BB14521854800F063FBA368053B042B03D94621814800F05BFB6369FF2B03D947217E48D0
:4010400000F054FBA369FF2B03D948217A4800F04DFBA37C6BB1237833B9A368092B05D1A37B2BB1012304E0012302E0012300E000231BB14A21704800F038FB636B23F4BF
:40108000366323F00D031BB14C216B4800F02EFBE36B23F4EE6323F003031BB14D21664800F024FB2378022B01D1A37F13B16268013A00E00022237F13B14FF4803100E0E8
:4010C0000021A368082B02D84FF4006300E000230B4302F00F02134343F000732B60226B2B6813F4006F01D0802300E040239A4203D36221504800F0F9FAA26B2B6813F492
:40110000006F01D0802300E040239A4203D36321494800F0EBFA626A2B6813F4006F01D0802300E040239A4203D36421424800F0DDFA23781B0603F040732B64637F0BB14A
:40114000402200E00022A37C13B14FF4806300E000231343227C12B14FF4807200E000221343627C12B14FF4007200E000221A43E36A013B1B0403F470231343627B013A66
:4011800002F007021343A27B120102F030021343AB64237B13B14FF4807200E00022E37B23B92378022B03D1012302E0012300E0002313B14FF4007300E000231A43A368A4
:4011C000013B03F00F031343C5F80033227DA3691B0403F47F031343C5F81033E26AD5F8003303F00F0303339A4201D3102A03D97A21114800F07AFAE37F23B12378012B2D
:4012000003D0002302E0002300E0012313B14FF4807200E00022637B013B03F007031A43A37B1B0103F0300313436B64237B2BB14FF4807203E000BF8C5008100022A36849
:40124000013B03F00F0313432278012A02D14FF4803200E000221343C5F8003294F83030C5F8043394F8203013B14FF0007200E0002294F82130012B02D14FF0807300E0E2
:401280000023134394F82820012A02D14FF4803200E00022134394F8242013432B6594F83830C5F80432636B23F4926323F002031B051B0DC5F8C83FE36B23F08C035B05AB
:4012C0005B0DC5F8883F76B1002070603060B060F0603062F0623063044B736370BD04487047034870BD002070BD00BFEFCDAB000160AA001F4B98422DD00CD840282ED0AE
:4013000003D8E8B1102828D02FE0802829D0B0F5807F28D029E0184B984228D006D8B0F1204F0DD0154B984212D01EE0144B98420AD00133984209D0023B984215D101E0C2
:40134000002070470F4870470F4870470F4870474FF4A0007047074870470D4870470D4870470D487047034870470C4870474FF4A400704706005200010000F0090000A00B
:40138000040000F0010052000200520003005200010050000200500005005200FF00520038B5124B1B6893F83130012B04D840F2C3110F4800F09AF90C4B1D682A6AB5F834
:4013C000B03013442C46D5F8B420D358002B0BDB084B1868FFF78EFF6B6801229A6063689B68002BFBD138BD034838BD3C7C0208CC500810F0730208020050001A4B186194
:4014000028B102230370FF23437000234380174B1B6893F850202AB300B583B0B3F93830ADF800300023019311496846FFF7FEF9BDF90030002B08DB590903F01F030122B8
:4014400002FA03F30B4A42F82130084B1B6893F8513023B1022208490120FFF781FC03B05DF804FB704700BFF07302083C7C02086947020800E100E02148020808B502483A
:40148000FFF7BCFF08BD00BF0474020810B30246C3680BB303680BB330B40579114B03EB85035C682346002103E0934205D019465B69002BF9D1012000E0002080B124B902
:4014C000084B03EB85056A6000E04A6111610023536105E000207047002070470020704730BC70470874020850B310B402460479164B03EB840359680B4602E0934204D0F1
:401500005B69002BFAD1002000E00120D0B18A420ED14B6933B10D4A02EB8404636000221A610FE0094B03EB84040023636009E01A69596951615A6922B11B69136101E0F2
:40154000002070475DF8044B704700BF0874020830B583B004460D46022808D9042806D0032804D040F6B211284800F0BFF86B1EDBB2012B08D9042D06D0082D04D040F6BA
:40158000B311224800F0B2F8214800EB84004468042D12D0012D1AD111E0A3681D420AD1E3681A6800925B6801932368294668469847174B9C61646902E0002000E0002012
:4015C00014B3144B9842E8D1012DE6D11CE0022D01D104E01C466369002BFBD103E00C4B9C6904B1246900200CE0A3681D4208D1E3681A6800925B68019323682946684619
:4016000098472469002CF0D103B030BD0C51081008740208FF00420010B5174BDB682BB101210220FFF794FF044600E00024E4B900F0C7F8104BDB681BB104210220FFF721
:4016400087FF0E4B59680E4A0A4042F01B025A6059680C4A1143596059681143596059680A435A605B6830BF04E002210846FFF76FFF054C204610BD08740208000026408A
:401680000000FC0F003A0280FF00420008B500F098F8074B5A6807490A4042F468525A605A68114059605B6800F08FF808BD00BF00002640FF00FC0F10B5044605E0084B4C
:4016C000186800F075F8A4F50044B4F5004FF6D8044B186800FB04F000F06AF810BD00BFA8420208A442020801BEFEE738B50D46044C18220146204601F0F8FFA5610020C1
:40170000FFF7F2FF984C0208FEE700BF08B50268254BDA6142681A6282685A62C2689A620269DA6242691A6382695A63C2699A631E4A916AD963D16A1964516A5964516B42
:401740009964926BDA64F1EE103A13F0900F27D0026A154B1A65426A5A65826A9A65C26ADA65026B1A66426B5A66826B9A66C26BDA66026C1A67426C5A67826C9A67C26C34
:40178000DA67026DC3F88020426DC3F88420826DC3F88820C26DC3F88C20026EC3F89020FFF7B2FF08BD00BF984C020800ED00E00230800803D001300238FCD100BF00BF24
:4017C0007047EFF3108072B6704780F310887047014B1860704700BF3C7C020810B5012902D0082929D02EE01A4B1B78012B2CD00320FFF779F9184B984228D0FFF7E1FF74
:40180000164B1860022004F039FA044604F041FA022C05D1032805D0052805D1002404E00F4C02E0002400E00D4C0D4B9C420FD10A4B1868FFF7C9FF0AE0084B1868FFF708
:40184000C4FF002404E0064C02E0054C00E0044C204610BD447C02080101880044740208FF00420008B502291CD0082914D001291ED1124B1B78012B1CD0FFF7A2FF104B62
:401880005860022004F0FAF9022815D00C4B5868FFF79BFF0B4808BD094B5868FFF795FF002008BD064B5868FFF78FFF054808BD044808BD034808BD002008BD447C02089F
:4018C00044740208FF00420010B5044C2046FFF70BFE04F11800FFF707FE10BD58440208B0B110B50B4A9060C36A03B1D3600024094B1C70094B1C70094B1C60094B1C70DD
:4019000000F060F9084B1C70084B1C70204610BD0748704744740208587C02085C7C0208607C02085D7C0208437C0208487C02080100160070B59AB0404D15AC2868696850
:40194000AA68EB680FC4286920604C22002102A801F070FB3A4B029315AB049342F2C443ADF8143005238DF81630364B9B681B69069340F64A4307931B23ADF82030ADF82B
:40198000223003238DF8243004238DF8253006238DF8263010238DF828308DF829305023ADF84C3001238DF85030274C2046FFF76DFD04F11800FFF769FD08A804F0B4F933
:4019C0000346002836D1214B03931E4B9B68996B89B10B460DF12A0220311E685D689C68D868166055609460D060103310328B42F3D11B88138002A804F05EF90346B0B926
:401A00000122134B1A700023124A1370124A13700C4B9B681A6A00929B6ADB88ADF804301223ADF8063068460CF056FE034600210A4A116018461AB070BD00BFBC52081092
:401A4000B91F081044740208584402082C4D0208447C02084C7C02084D7C0208607C020808B505F0E7FA08BD08B5044B1B689847034B1B6803B1984708BD00BF68740208A2
:401A80005474020808B510B1034A52689047034B1B6803B1984708BD687402085474020870B5C0B006460C4615464FF480720849684601F0B4FA05E016F8012B6A401DF8D8
:401AC0000250013C002CF7D1284640B070BD00BFD052081008B50022FFF7E2FF08BD00BF08B5FFF76EFE08BD08B5FFF76EFE08BD08B50120FFF710FA08BD00BF08B501209D
:401B0000FFF7E0F908BD00BF08B5094B58601960012208491046FFF723F9034628B9002205490120FFF71CF90346184608BD00BF68740208851A0810691A081038B51546C3
:401B40000B46024601210020FFF7B8F8044618B129460120FFF72CF9204638BD704700BF704700BF0020704700487047110016000048704711001600004870471100160096
:401B800000487047110016000048704711001600004870471100160000487047110016000048704711001600004870471100160000487047110016000048704711001600F5
:401BC000704700BF08B5034800F0FCFD024800F03DFE08BD4C44020854440208F8B5022872D8012972D80022134606E03B4CE45C012C01D90132D2B20133002BF6D0012A3D
:401C00000CD1374B1B681C6801EB8102930023445B681B79023BDBB2012B59D8314B1B78002B57D1304B1970E0B92D4F3C68236801EB8105AA009D186668C1EBC1014B0055
:401C40001E44B18829822168114449686468E45A0C8039680C682244526849680B445B8853801EE001281CD11D4F3C68236801EB8105AA009D186668C1EBC1014B001E44A5
:401C8000B1892982216811444D68616819440989298039680C682244526849680B445B895380124B18700E4B1B6818680E4B1B7803EB83039A00104408F0DCFB034650B9AF
:401CC0000121084A117006E0094B04E0084B02E0084B00E0084B1846F8BD00BF4C7C02084C7402084D7C0208427C02085D7C02080100160002001600FF001600F0B54FF002
:401D0000000E59B91A4B1B681C680EEB8E02930023449C68E77F00231E4612E0144B1B681C680EEB8E0293002344DC68E77FF2E7E25C52B10133E55C1B2D01D0134400E03F
:401D40000126BB4201D2002EF2D05EB101338279E254002204E0D5180135865C66550132052AF8D90EF1010EBEF1010FC9D9F0BD4C74020870B504460CF0C8FC054620BBD4
:401D8000134B1968086A228902EB82029300143B03445A6812F0007F17D0E67B1B695A68CB69D21A06EB8606B318A28821680948184401F034F9E37B074AD35C012B04D1F7
:401DC000064A137843F002031370284670BD00BF4C740208507C0208487C0208437C020830B587B002891A4B1B685B699B889A4229D1044601AB07C883E807000022ADF872
:401E00001020A289ADF8122040228DF814201846FFF7B0FF054680B923681B7803F002039BB22BB10B4B1B6821460B48984704E0084B1B68214609489847094A137803F0FB
:401E4000FE03137000E00025284607B030BD00BF4C740208507402080500010006000100587C02084288531E9BB2172B1AD84178D1B910B40F4B1868046A02EB8202930076
:401E8000143B23445A6812F0007F0FD01B695A68C369D31A01EB81011944074B5B5A1380002004E0012070470120704700205DF8044B70474C740208507C020800B583B0CF
:401EC0000023ADF804308389ADF800300389ADF8023012238DF80430084B1B7813F0010F09D129B18DF8051068460BF039FD02E0C0680BF055FD03B05DF804FB587C020852
:401F000010B4044688B10023194606E0114A52F82320944200D1012101330E4A127A934206D20029F2D0002003E000210A4800E0002058B951B9074B1B7A012B05D8054AC1
:401F400042F823400133137200E004485DF8044B704700BF647C0208010016000300160070B506460D460020044606E0084B53F824302946304698470134054B1B7A9C42E9
:401F800004D2044B1B7813F0010FEFD170BD00BF647C0208587C020883792BB100207047C25C32B9013300E00023052BF8D9002070470120704700BF70B58CB004460D4686
:401FC000C04A137843F00103137044F20803984200F04C823CD842F20403984200F0F18019D841F20203984200F0188108D8B0F5805F76D041F20103984200F00C8155E333
:4020000041F20303984200F0428141F20403984200F047834AE343F2190398425BD00AD843F20103984200F0BA8043F21203984200F0B5803AE344F20603984200F01A825F
:4020400000F2CD8144F20403984200F033812DE345F20C03984200F0DB821BD845F20103984200F046820AD844F20A03984200F0B38144F21003984200F0B18116E345F290
:402080000203984200F07F8245F20303984200F093820BE345F21003984200F0F4820AD845F20E03984200F0E88245F20F03984200F0E682FAE245F21703984200F0E98281
:4020C00046F20103984200F0118245F21403984240F0EC82DAE27B4A137803F0FE031370E4E2794B1E683046FFF756FF60B1304609F088F9744E00213068FFF7FFFD01219D
:402100003068FFF7FBFD37E0704B1A68936A1B791BB34FF0B05191F8043603F03F0391F8050600F03F0043EA801391F8030600F01F0043EA003391F8001601F07F0143EA6D
:402140004143126B1370614A1168096BC3F3072048701268126B1B0C93705C4E3368186B09F050F933680021186BFFF7C7FD33680121186BFFF7C2FD544B1B68986A02303F
:4021800009F04CFC0023059306933F238DF8143005A809F05BF902224D4B1A7086E200234B4A13704B4A13704B4A13700A20FFF783FA43F212039C4240F07882FFF784FBE8
:4021C00074E2464B1B6813F0010F40F06F820023ADF814308DF816303C4E33689B6A93F900308DF8143005A809F04AF933689B6A93F901308DF8143001238DF81530FF239C
:402200008DF8163005A809F03BF9344A136843F0010313604AE2FFF7A3FE47E24978304B1B88ADF81430002319E02E4A32F81320ADF808209DF8092012B92B48825C00E02A
:402240000022012A0AD9274A12F81320914205D1244A32F81330ADF8143002E00133002BE3D09DF81530FF2B05D104D140F2CA311E48FFF73BFABDF81430ADF82030ADF81F
:402280001C30C3F307232978194AD1540EE20B78002B40F00B820B7A33B9164B0022DA809A80154A1A604B60064A137803F0FE031370FBE149790A4B1B88ADF8143000238E
:4022C00036E000BF587C0208884402084C740208447C02084D7C020880740208607C0208D0530810407C02084C7C0208D45308105C7C020888740208F0710208B34A32F87E
:402300001320ADF80C209DF80D2012B9B048825C00E00022012A0AD9AC4A12F81320914205D1AA4A32F81330ADF8143002E00133002BE3D09DF81530FF2B05D104D140F22B
:40234000CA31A448FFF7D2F9BDF81430ADF82430ADF81430C3F3072369789F4AD154EB78002B40F0A38169799C4B1B88ADF81430002319E0954A32F81320ADF810209DF812
:40238000112012B99248825C00E00022012A0AD98E4A12F81320914205D18C4A32F81330ADF8143002E00133002BE3D09DF81530FF2B05D104D140F2CA318648FFF796F94C
:4023C000BDF81430ADF82830ADF81430C3F307230121834AD15469E1FFF7C2FD66E12B78002B3FD1AB78012B02D100227D4B1A7069787A4B1B88ADF81030002319E0734A49
:4024000032F81320ADF814209DF8152012B97048825C00E00022012A0AD96C4A12F81320914205D1694A32F81330ADF8103002E00133002BE3D09DF81130FF2B05D104D1EB
:4024400040F2CA316348FFF751F9BDF81030ADF82C30ADF81030C3F30723FF2B02D0A978614AD1540222614B1A701FE102225F4B1A701BE1FFF774FD5D4B1B7813F0010F39
:4024800000F01481574B1B78012B03D10222554B1A700BE1032B03D10022524B1A7005E1022B40F0038100224E4B1A70514B1B685B68514A1178C1EBC10203EB42039A7916
:4024C000002A00F0F3809B88002B00F0EF804B4B1B78002B40F0EA800120FFF77FFB002840F0E48001223F4B1A70DFE0FFF738FDDCE00B88ADF800309DF801301BB9022165
:40250000334AD15405E023B940F286313148FFF7EDF86A7829882D4B23F812106B780021374AD15403EB8301364E8819314B1B681B692A7802EB820202F64842134453F8B8
:40254000022F8A511B790371687800EB800004213044FFF7BFFA6B7803EB830333441B7998420BD0284B1B680021284898476B7803EB8303981900229A51027129462046DA
:40258000FFF7EEFC92E00B88ADF804309DF805301BB900210E4AD15405E023B940F286310C48FFF7A3F86B7800210D4AD15429462046FFF7D5FC79E00B88ADF81430172367
:4025C000ADF8163005A80BF0D7F96FE0407C02084C7C0208D4530810487C0208D0530810807402084D7C020884740208447C0208587C02084C740208427C02085D7C020859
:402600005C7C0208507C020850740208040001000846FFF7E5FB014620B929462046FFF79FFC01462846FFF749FC294B1B7813F0110F04D0274B1B682946204698472A891B
:40264000234B1B7813F0010F11D0531E9BB2172B0DD912238DF81830ADF81620AB89ADF8143001238DF8193005A80BF079F9184A137803F0FE03137018E0FFF771FC15E0C5
:40268000FFF76EFC12E0FFF76BFC0FE0FFF768FC0CE00846FFF7E6FB29462046FFF760FC04E00D4A137843F001031370084B1B7813F0110F09D0064A137803F0FE03137036
:4026C000044B1B682946204698470CB070BD00BF587C020850740208437C020830B589B00023069307938389ADF81830274B1B68002B44D00189254B5B681A68D388994221
:402700003FD1234B1B68196A528802EB82029300143B0B445B6813F4801F29D0044601AB07C883E807000022ADF81020A289ADF8122040228DF814201846FFF71BFB054637
:40274000B8B900238DF81A308DF81B30079323681B7813F0010F05D00C4B1B6806A90D48984706E0094B1B6806A90B48984700E006250A4A137803F0FE03137002E00025C3
:4027800000E00025284609B030BD00BF947402084C7402083200010033000100587C0208B0F5803F09D208B583B245F20C02934205D10846FFF792FF08BD0020704700206E
:4027C00008BD00BF50B110B5064C60600648FFF797FB63685B681BB1236010BD0348704710BD00BF94740208A127081001001600E8B910B586B0E1B9012A1CD119786429FA
:402800001BD8002102910391049105910193ADF808200B4B5B681B6803EBC0046388ADF80C3001A8FFF7A6FA40B1064806E005487047044802E0034800E0024806B010BD29
:4028400094740208010016000020704730B108B5034A10600348FFF753FB08BD024870479C740208492808100100160081F0004102E000BF83F0004330B54FEA41044FEA49
:40288000430594EA050F08BF90EA020F1FBF54EA000C55EA020C7FEA645C7FEA655C00F0E2804FEA5454D4EB5555B8BF6D420CDD2C4480EA020281EA030382EA000083EA51
:4028C000010180EA020281EA0303362D88BF30BD11F0004F4FEA01314FF4801C4CEA113102D0404261EB410113F0004F4FEA03334CEA133302D0524263EB430394EA050FA3
:4029000000F0A780A4F10104D5F1200E0DDB02FA0EFC22FA05F2801841F1000103FA0EF2801843FA05F359410EE0A5F120050EF1200E012A03FA0EFC28BF4CF0020C43FA4C
:4029400005F3C01851EBE37101F0004507D54FF0000EDCF1000C7EEB00006EEB0101B1F5801F1BD3B1F5001F0CD349085FEA30004FEA3C0C04F101044FEA445212F5800F7A
:4029800080F09A80BCF1004F08BF5FEA500C50F1000041EB045141EA050130BD5FEA4C0C404141EB010111F4801FA4F10104E9D191F0000F04BF01460020B1FA81F308BF5D
:4029C0002033A3F10B03B3F120020CDA0C3208DD02F1140CC2F10C0201FA0CF021FA02F10CE002F11402D8BFC2F1200C01FA02F120FA0CFCDCBF41EA0C019040E41AA2BFBD
:402A000001EB0451294330BD6FEA04041F3C1CDA0C340EDC04F11404C4F1200220FA04F001FA02F340EA030021FA04F345EA030130BDC4F10C04C4F1200220FA02F001FA3C
:402A400004F340EA0300294630BD21FA04F0294630BD94F0000F83F4801306BF81F480110134013D4EE77FEA645C18BF7FEA655C29D094EA050F08BF90EA020F05D054EA41
:402A8000000C04BF1946104630BD91EA030F1EBF0021002030BD5FEA545C05D14000494128BF41F0004130BD14F580043CBF01F5801130BD01F0004545F0FE4141F47001E2
:402AC0004FF0000030BD7FEA645C1ABF194610467FEA655C1CBF0B46024650EA013406BF52EA033591EA030F41F4002130BD00BF90F0000F04BF0021704730B54FF48064E8
:402B000004F132044FF000054FF0000150E700BF90F0000F04BF0021704730B54FF4806404F1320410F0004548BF40424FF000013EE700BF42004FEAE2014FEA31014FEA9B
:402B400002701FBF12F07F4393F07F4F81F06051704792F0000F14BF93F07F4F704730B54FF4607401F0004521F0004120E700BF50EA010208BF704730B54FF000050AE093
:402B800050EA010208BF704730B511F0004502D5404261EB41014FF4806404F132045FEA915C3FF4DCAE4FF003025FEADC0C18BF03325FEADC0C18BF033202EBDC02C2F1C7
:402BC000200300FA03FC20FA02F001FA03FE40EA0E0021FA02F11444C1E600BF70B54FF0FF0C4CF4E06C1CEA11541DBF1CEA135594EA0C0F95EA0C0F00F0DEF82C4481EA29
:402C0000030621EA4C5123EA4C5350EA013518BF52EA033541F4801143F4801338D0A0FB02CE4FF00005E1FB02E506F00042E0FB03E54FF00006E1FB03569CF0000F18BF8B
:402C40004EF0010EA4F1FF04B6F5007F64F5407404D25FEA4E0E6D4146EB060642EAC62141EA55514FEAC52040EA5E504FEACE2EB4F1FD0C88BFBCF5E06F1ED8BEF1004FDA
:402C800008BF5FEA500E50F1000041EB045170BD06F0004646EA010140EA020081EA0301B4EB5C04C2BFD4EB0C0541EA045170BD41F480114FF0000E013C00F3AB8014F13E
:402CC000360FDEBF002001F0004170BDC4F10004203C35DA0C341BDC04F11404C4F1200500FA05F320FA04F001FA05F240EA020001F0004221F0004110EBD37021FA04F63B
:402D000042EB06015EEA430E08BF20EAD37070BDC4F10C04C4F1200500FA04F320FA05F001FA04F240EA020001F0004110EBD37041F100015EEA430E08BF20EAD37070BD4C
:402D4000C4F1200500FA05F24EEA020E20FA04F301FA05F243EA020321FA04F001F0004121FA04F220EA020000EBD3705EEA430E08BF20EAD37070BD94F0000F0FD101F041
:402D80000046400041EB010111F4801F08BF013CF7D041EA060195F0000F18BF704703F00046520043EB030313F4801F08BF013DF7D043EA0603704794EA0C0F0CEA135587
:402DC00018BF95EA0C0F0CD050EA410618BF52EA4306D1D181EA030101F000414FF0000070BD50EA410606BF1046194652EA430619D094EA0C0F02D150EA013613D195EA51
:402E00000C0F05D152EA03361CBF104619460AD181EA030101F0004141F0FE4141F470014FF0000070BD41F0FE4141F4780170BD70B54FF0FF0C4CF4E06C1CEA11541DBF11
:402E40001CEA135594EA0C0F95EA0C0F00F0A7F8A4EB050481EA030E52EA03354FEA013100F088804FEA03334FF0805545EA131343EA12634FEA022245EA111545EA106567
:402E80004FEA00260EF000419D4208BF964244F1FD0404F5407402D25B084FEA3202B61A65EB03055B084FEA32024FF480104FF4002CB6EB020E75EB030E22BFB61A7546A7
:402EC00040EA0C005B084FEA3202B6EB020E75EB030E22BFB61A754640EA5C005B084FEA3202B6EB020E75EB030E22BFB61A754640EA9C005B084FEA3202B6EB020E75EBB3
:402F0000030E22BFB61A754640EADC0055EA060E18D04FEA051545EA16754FEA06164FEAC30343EA52734FEAC2025FEA1C1CC0D111F4801F0BD141EA00014FF000004FF047
:402F4000004CB6E711F4801F04BF01430020B4F1FD0C88BFBCF5E06F3FF6AFAEB5EB030C04BFB6EB020C5FEA500C50F1000041EB045170BD0EF0004E4EEA113114EB5C043C
:402F8000C2BFD4EB0C0541EA045170BD41F480114FF0000E013C90E645EA060E8DE60CEA135594EA0C0F08BF95EA0C0F3FF43BAF94EA0C0F0AD150EA01347FF434AF95EA6A
:402FC0000C0F7FF425AF104619462CE795EA0C0F06D152EA03353FF4FDAE1046194622E750EA410618BF52EA43067FF4C5AE50EA41047FF40DAF52EA43057FF4EBAE12E72C
:4030000010B501390244904207D010F8013B11F8014FA342F7D0181B10BD002010BD10B5431E0A44914204D011F8014B03F8014FF8E710BD02440346934202D003F8011BB8
:40304000FAE770472DE9F04788B0002B149F1299109EDDF84CA01D4627F02007BBBF03F100431D4600232D231446B8BF1446462F0B7003D0452F03D1013601E0032300E0BF
:40308000022307AA049206AA03928DE8480422462B4600F0CDFB472F804602D1119BDB0728D5462F08EB060911D198F80030302B0AD1002200232046294601F00BFD18B940
:4030C000C6F10106CAF80060DAF800309944002200232046294601F0FDFC08B9302202E0CDF81C9006E0079B994503D9591C07911A70F8E7079B159AC8EB030340461360EC
:4031000008B0BDE8F08773B503460029B8BF494203F8022BB4BF2D222B220929427019DD0DF1070216460A2591FBF5F405FB14113031092C02F8011D2146F5DC3031541E29
:4031400002F8011CB4421A460AD214F8012B03F8012BF7E730241A46214402F8024B5970101A02B070BD00002DE9F04F91B00C46DDF8688016461F46054601F0F5F803689D
:403180000893184600F0AAFA00230E93D8F800300990073323F0070303F1080294F818A0D4F800B0C8F80020D3E90023C4E91223D4E9128929F000430B93CDF828804FF071
:4031C000FF32A74BDDE90A0101F0B6FCA0B94FF0FF32A34BDDE90A0101F090FC60B9002200234046494601F07FFC10B12D2384F843309C4B9C4A0AE042464B46404649466F
:4032000001F09AFC002800F09281984B984ABAF1470F8CBF90469846032323612BF0040323604FF000093DE0BAF1670F00F08A81BAF1470F00F08681236000210DF1330278
:403240000193636805900292009342464B460691CDF810A0CDF80CE02846FFF7F3FE0AF0DF03472B804600F08481BAF1650F0D9900F28D810139524604F150000D91FFF78F
:4032800042FF0E9A8318012A8146236100F37C812268D10700F178819DF8333013B12D2384F84330009733460FAA2146284600F09FF9013002D14FF0FF3096E123685A05E4
:4032C00001D4236965E0BAF1650F40F2D58000220023D4E9120101F0FDFB78B30123654A31462846B8470130E5D00E9B0D9A9A420BDB2368D80708D423689B0740F1118174
:403300004FF0000804F1190906E1099B089A31462846B8470130CED04FF0000804F11A090E9B013B9845E7DA01234A4631462846B8470130BFD008F10108F1E70D9B002B68
:4033400029DC01234B4A31462846B8470130B2D00D9B23B90E9B13B92368D907CCD5099B089A31462846B8470130A4D04FF0000904F11A0A0D9B5B42994509DA0123524601
:4033800031462846B847013095D009F10109F1E70E9B4246A7E00E9AA36D9A42A8BF1A46002A914606DC4FF0000A29EAE97904F11A0B11E01346314642462846B847013002
:4033C000F1D178E701235A4631462846B84701303FF471AF0AF1010AA36DC9EB03029245F0DB08EB03090D9A0E9B9A420FDB2368DA070CD40E9B0D9A9844C9EB08089B1A09
:403400009845A8BF9846B8F1000F08DC0FE0099B089A31462846B8470130EBD14BE743464A4631462846B84701303FF444AF4FF0000928EAE87804F11A0A09E001235246CA
:4034400031462846B84701303FF435AF09F101090D9A0E9B9B1AC8EB03039945EEDB4BE7FFFFEF7FEA580810EE580810F2580810F6580810FA5808100E9A012A01DCDB079D
:4034800038D50123424631462846B84701303FF412AF099B089A31462846B84701303FF40AAF00220023D4E9120101F013FB20B14FF0000804F11A0A0EE00E9B08F101022B
:4034C000013B19E00123524631462846B84701303FF4F1AE08F101080E9B013B9845F1DB4B4604F1500231462846B84701307FF403AFE0E60123424631462846B8470130CB
:40350000EED1D8E601234A4631462846B84701303FF4D1AE08F10108E3680F9A9B1A9845F0DBE0680F9B9842B8BF18465DE06268531C0EA84BF480630DF1340E7FF474AE7C
:40354000062201E012B90122626075E6002106910DF133018DE80C00236005904246CDF810A0CDF80CE002914B462846FFF76AFD80460D9BD81C02DB626893421DDDAAF1A4
:40358000020A5FFA8AFA70E60133236184E6BAF1660F14D10029636807DD216113B92268D2071DD501330B4419E013B92268D00701D5023313E0012311E04FF0670A0D9B16
:4035C0000E9A934205DB22682361D10708D5013305E0002BD4BFC3F102030123134423610D9BA3654FF0000956E611B0BDE8F08F2DE9F04791461F460A698B68DDF820809F
:403600009342B8BF1346C9F8003091F8432006460C4612B10133C9F800302368990642BFD9F800300233C9F80030256815F0060510D104F1190A07E0012352463946304602
:40364000C04701301AD00135E368D9F800209B1A9D42F1DB94F843302268003318BF012392060FD5E1185A1C302081F84300224494F8451082F84310023303E04FF0FF300E
:40368000BDE8F08704F1430239463046C0470130F4D02268D9F80050E36802F00602042A08BF5D1B2269A3680CBF25EAE57500259342C4BF9B1AED184FF000091A344D453D
:4036C00009D00123224639463046C0470130D5D009F10109F3E70020BDE8F087034613F8012B002AFBD1181A0138704710B5034642B111F8014B03F8014B013A002CF7D115
:403700001A4400E010BD934202D003F8014BFAE710BD2DE9F74F03690C699C42804600F38380013C01F114074FEA840E00F1140657F8245006EB0E030193013556F82430BA
:40374000B3FBF5F507EB0E09002D39D04FF0000A3846B446D34650F8042B93B205FB03A34FEA134A9BB2C3EB0B03120CBCF800B005FB02A213FA8BF34FEA124A1FFA82FBBB
:40378000DCF80020CBEB124202EB23429BB243EA024381454FEA224B4CF8043BDBD256F80E306BB9019B043B9E421A4602D3C8F8104005E01268043B002AF8D1013CF3E706
:4037C000404600F0EAFF00282CDB013530464FF0000E57F8041BD0F800C08AB2C2EB0E03090C13FA8CF3C1EB1C4202EB23429BB243EA0243B9454FEA224E40F8043BE8D2BE
:4038000056F8242006EB840362B9043B9E421A4602D3C8F8104005E01268043B002AF8D1013CF3E7284600E0002003B0BDE8F08F2DE9F04F456A97B08246239CCDE9022365
:4038400045B9102000F094FDCAF82400456085600560C560DAF82430196859B15A684A60012393408B60504600F0BFFDDAF8243000221A60039BA04A002BBFBF01232360C4
:40388000039B23F00043B8BF0393DDF80C80A4BF0023236028F000431B0D1B0593421DD1229A42F20F731360029B43B9934A944BC8F31300002814BF1846104600E09048C8
:4038C000249B002B00F04A85C37813B100F1080300E0C31C249A136000F040BDDDE90245002200232046294601F0F4F8074658B1229A01231360249B002B00F02285814850
:403900001860013800F02ABD14AB019315AB009322462B46504600F0BBFFC8F30A56059056B1C5F3130343F07F51204641F44011A6F2FF3611971DE0159B149E1E4406F29E
:403940003243202B0ADD029A06F21240C3F1400322FA00F008FA03F3184304E0C3F12000029B03FA00F0FFF7C3F80123A1F1F871013E11930022644BFEF77CFF58A3D3E977
:403980000023FFF72BF958A3D3E90023FEF774FF044630460D46FFF7BBF855A3D3E90023FFF71CF902460B4620462946FEF764FF04460D4601F0D6F8002283460023204654
:4039C000294601F091F858B15846FFF7A1F802460B462046294601F07DF808B90BF1FF3BBBF1160F0DD8494901EBCB01DDE90223D1E9000101F096F830B10BF1FF3B00237E
:403A000000E00123109300E01090149B9E1B731E089343BFC3F10009002308934FF00009BBF1000F07DB089BCDF834B05B4408930023099306E0CBF1000309930023CBEB0A
:403A400009090D93209B092B27D8052BC4BF043B2093209BA3F10203CCBF00250125032B20D8DFE803F0060E0204012302E0012308E000230C93219B002B1CDD06939846B2
:403A80001EE000230C93219B5B4403F1010806934346012BB8BF012312E00125002320930C9501E001230C934FF0FF33069398460022122303E00123069398461A46219202
:403AC000DAF8244000226260042101F114029A421ED86268013262604900F6E7AFF3008061436F63A787D23FB3C8608B288AC63FFB799F501344D33F0000F07FFC5808102D
:403B000005590810FB5808100000F83F485908106168504600F034FCDAF8243020601B680793B8F10E0F00F25D81002D00F05A819DED027BBBF1000F8DED0E7B31DDA04A27
:403B40000BF00F0302EBC30393ED007B4FEA2B14E2068DED0A7B0CD59A4BDDE90E01D3E90823FFF765F904F00F04CDE90201032600E00226934D6CB1E30708D5DDE90A01CF
:403B8000D5E90023FFF72AF8CDE90A01013664100835F0E7DDE90A23DDE90201FFF748F920E0CBF1000404B3854B864D04F00F0203EBC203D3E90023DDE90E01FFF70EF817
:403BC000CDE9020124110023022654B1E70705D5D5E90023FFF702F80136012364100835F3E71BB1CDE9020100E00226109BEBB1DDE902450022744B2046294600F074FF0E
:403C0000A0B1B8F1000F11D0069B002B40F3E6800BF1FF330A9300226C4B20462946FEF7DDFF0136CDE90201069F02E0CDF828B047463046FEF76CFFDDE90223FEF7CEFFC7
:403C40000022634BFEF718FE0446A1F15075CFB90022604BDDE90201FEF70CFE22462B46CDE9020100F05EFF002840F04182224605F10043DDE9020100F036FF002840F0CA
:403C80002E82ABE00C9A4E4B791E002A4AD003EBC103D3E9002300204F49FFF7C9F822462B46FEF7E7FD079C05460E46DDE9020100F058FF1290FEF72BFF02460B46DDE98B
:403CC0000201FEF7D7FD129B303304F8013B2A463346CDE9020100F007FF002840F02183DDE9022300203849FEF7C4FD2A46334600F0FAFE002840F0D280079BE31ABB42C3
:403D00006CDA0022314B28463146FEF767FF002205460E462D4BDDE90201FEF75FFFCDE90201C3E703EBC10122462B46D1E90001FEF754FF079BCDE91201DC191D46DDE992
:403D4000020100F00FFF0646FEF7E2FE303602460B46DDE90201FEF78DFD05F8016BAC42CDE902014FF0000223D11B4BDDE91201FEF782FD02460B46DDE9020100F0D2FEC0
:403D8000002840F08C80DDE9122300201249FEF771FD02460B46DDE9020100F0A5FEE8B114F8013C302B04F1FF3240F0BA821446F6E7064BFEF712FFCDE90201BFE700BF56
:403DC00048590810205908100000F03F0000244000001C40000014400000E03FDDE90E34CDE90234159B002B7CDBBBF10E0F79DC8F4B03EBCB03D3E90067219B002B14DA45
:403E0000B8F1000F11DC40F06C810022894B30463946FEF7E3FEDDE9022300F079FE45464646002840F05F8166E1079C32463B46DDE90201FEF7FCFF00F094FE0546FEF700
:403E400067FE32463B46FEF7C9FE0B460246DDE90201FEF70FFD05F1300E04F801EB079BC3EB040EF045CDE902012ED102460B46FEF702FD8046894602460B4630463946AA
:403E800000F032FE78B942464B463046394600F021FE002800F04782E90704D443E2DDF828B000E01C4614F8012C392A04F1FF3307D1079A9A42F5D1079930220BF1010BFF
:403EC0000A701A7801321A702DE200225A4BFEF785FE00220023CDE9020100F0FBFD0028A4D020E20C9A002A2DD0209A012A0ADC119A12B103F2334302E0149BC3F1360338
:403F0000099D4C4615E0099B08F1FF35AB42BFBF099B0995EA1A0D9BB7BF9B185D1B0D930025B8F1000FB9BFC8EB090400234C464346089A01211A4450469944089200F077
:403F4000F3FA064602E0099D0C9E4C465CB1089B002B08DDA342089AA8BF2346C3EB0909E41AD31A0893099B002B1DDD0C9BABB185B131462A46504600F070FB059A014627
:403F80000646504600F0D9FA05990746504600F02CFA0597099B5A1B06D000E0099A0599504600F05BFB05900121504600F0BCFA0D9B05465BB31A460146504600F04EFBD3
:403FC000209B012B054618DC029B83B9039BC3F3130373B9039B23F000473F0D3F054FB1089B013309F101090893012702E0002700E0029F0D9B73B100E000272B6905EB25
:404000008303186900F043FAC0F1200004E0209B012BD9DD0D9F0120089B184410F01F000ED0C0F12003042B08DDC0F11C0008E048590810000014400000244006D01846EF
:404040001C30089B0344814404440893B9F1000F05DD4A460599504600F04EFB0590089B002B05DD29461A46504600F045FB0546109BEBB12946059800F08FFB002817DABF
:4040800000230A220599504600F0C6F90C9B05900BF1FF3B002B00F05881002331460A22504600F0B9F9069B002B064637DC33E0B8F1000F2ADC209B022B27DDCDF8188025
:4040C000069B83B929460522504600F0A5F901460546059800F061FB00280DDC03E03D4600E000252E46219B079C6FEA030B0AE0DDF828B03D463E46079B079A5C1C31234B
:4041000013700BF1010BB0460026F7E00C9BCDF8188023B9079CB1E0209B022BD0DC002C05DD31462246504600F0E6FA06469FB17168504600F024F9326902320446920043
:4041400006F10C010C30FEF76AFF01222146504600F0D2FA804600E0B046029BDDF81C9003F00103089329460598FFF7D2FA3146044600F13007059800F00FFB4246029011
:404180002946504600F025FBC36802463BB901460990059800F001FB099A034600E0012311465046099300F020F9099B4BB9209A3AB9089A2AB9392F28D0029B002B1ADCA0
:4041C0001BE0029A002A04DB1AD1209AC2B9089AB2B9002B11DD01220599504600F08CFA2946059000F0D9FA002802DC05D1FA0703D5392F0AD004F1310709F101040CE036
:40420000002B09F101040BDD392F05D1392389F8003009F1010954E0013789F800706DE0079B069A04F8017CE31A9342A1463AD000230A220599504600F0EEF8464505907C
:404240004FF000034FF00A023146504604D100F0E3F80646804686E700F0DEF84146064600230A22504600F0D7F880467BE700230A220599504600F0CFF805902946059845
:40428000FFF747FA00F1300704F8017B079B069AE31A9342EBDB079B012AACBF9B180133B0469946002601220599504600F024FA2946059000F071FA002802DC15D1FB0781
:4042C00013D54C4614F8013C392B04F1FF3209D1079B934204D10BF1010B3123079A02E01446EFE70133137008E04C4614F8013C302B04F1FF3201D11446F7E72946504632
:4043000000F073F8B8F1000F0DD02EB1464503D03146504600F069F84146504600F065F801E0DDF828B00599504600F05EF80023229A23700BF101031360249B1BB11C6094
:4043400001E008480AE0079808E0069B002B3FF7E1AE209B022B7FF7DDAEB1E617B0BDE8F08F00BFFA58081000487047B8460208024B0146186800F0E7BA00BFB446020807
:4043800070B5456A04460E463DB91020FFF7F0FF6062456085600560C560656AEB6843B1636ADB6853F8260078B1026843F8262017E021220421204600F0B8FA636AE86083
:4043C000DB68002BECD1002070BD012101FA06F56A1D9200204600F0A9FA0028F3D04660856000230361C36070BD70B5446A06460D463CB91020FFF7BBFF7062446084602D
:404400000460C4603DB1736A6A68DB6853F82210296043F8225070BD2DE9F0410D691F4606460C4601F1140E0023DEF8000081B202FB01710F0C000C02FB007089B20133C2
:4044400001EB00419D424FEA10474EF8041BECDCD7B1A3689D4212DB616830460131FFF78FFF2269023204F10C01804692000C30FEF7D5FD21463046FFF7B7FF444604EB01
:40448000850301355F6125612046BDE8F081030C1B0413B90004102300E0002310F07F4F04BF0002083310F0704F04BF0001043310F0404F04BF80000233002803DB420071
:4044C00003D5581C70471846704720207047036813F007020BD0D90722D49A074BBF5B089B08036003604CBF01200220704799B209B91B0C102213F0FF0F04BF1B0A083270
:40450000190704BF1B090432990704BF9B080232D90702D45B0805D00132036010467047002070472020704710B50C460121FFF727FF01224461026110BD2DE9F74F1446A2
:404540000A6923699A42B8BF0B468846BCBFA0461C46D8F81070D4F81090D8F80830D8F8041007EB09069E42C8BF0131FFF708FF00F1140505EB860C2B460022634502D22D
:4045800043F8042BFAE704F1140208F1140102EB890301EB87070093009B0192934257D9B2F800B0BBF1000F23D08946AE464FF0000859F8044BBEF800A0A3B20BFB03A3D5
:4045C0004FEA144ADEF8004043444FEA14480BFB0A8404EB1344F2469BB243EA04434F454FEA14484AF8043B01D9D646E1E7CEF80480019BB3F802A00432BAF1000F21D0A3
:404600002B682C4689464FF00008B9F800E0B4F802B00AFB0EBEF044A3469BB243EA08434BF8043B59F8043BB4F804E01B0C0AFB03E303EB18434F454FEA134801D95C461C
:40464000E3E763600435A7E75CF8043D13B9013E002EF9DC066103B0BDE8F08F2DE9F843154612F0030206460F4607D0013A214C002354F82220FFF7CFFE0746AD1036D0AE
:40468000746A3CB91020FFF773FE7062446084600460C460D6F82480D8F808404CB940F271213046FFF740FF0023C8F80800044603604FF00008EB070AD5394622463046A3
:4046C000FFF73BFF394681463046FFF78EFE4F466D100CD0206808B10446ECE7224621463046FFF72AFF2060C0F80080F4E73846BDE8F883145908102DE9F0470C464FEA0E
:40470000621A26694968A368564407469146751CAB4202DA01315B00FAE73846FFF730FE0023804600F114011A46534503DA41F823200133F9E72AEAEA73206901EB8303CA
:4047400019F01F0904F1140101EB800E14D0C9F1200C0022086800FA09F002439A4643F8042B51F8042B8E4522FA0CF2F2D8CAF8042042B1B51C06E0043B51F8042B43F8F5
:40478000042F8E45F9D8013D3846C8F810502146FFF72BFE4046BDE8F08703690A699B1A10B511D192001430143183180A4453F8044D52F8041D8C4202D007D3012010BD70
:4047C0009842F4D3002010BD184610BD4FF0FF3010BD2DE9F8430C460746114620461546FFF7DBFF061E08D131463846FFF7C8FD012303614661BDE8F883BCBF23462C469B
:4048000038466168BABF1D4601260026FFF7B8FD2B69C660266905F11409143404EB860709EB830800F114054FF0000C54F8043B59F8042B1CFA83F11FFA82FE120CCEEB64
:404840000101C2EB134303EB214389B24FEA234CC84541EA0343A64645F8043BE6D8BE450ED25EF8041B1CFA81F2131403EB114392B242EA03424FEA234C45F8042BEEE772
:4048800055F8043D0BB9013EFAE70661BDE8F8832DE9F34101211C46089E099D9046FFF76FFDC4F31303C4F30A5407460CB143F480130193B8F1000F19D002A840F8088D4B
:4048C000FFF705FE009B48B1019AC0F1200102FA01F10B43C2407B61019200E07B61019BBB61002B14BF02210121396107E001A8FFF7EDFD019B7B6101213961203034B1E7
:40490000A4F2334404443460C0F1350009E007EB8103A0F2324030601869FFF7B8FDC0EB41102860384602B0BDE8F08138B502FB01F4214600F008F8054618B122460021EC
:40494000FEF778FB284638BD70B5CD1C25F0030508350C2D38BF0C25002D064601DBA94202D90C23336046E000F05CF8234B1C681A462146A1B10B685B1B0ED40B2B03D974
:404980000B60CC18CD501EE08C420DBF63684B686360136018BF0C4615E00C464968E9E7174C23681BB9304600F02CF820602946304600F027F8431C18D0C41C24F003044C
:4049C000A0420DD12560304600F02DF804F10B00231D20F00700C31A0ED05A42E25070BD211A304600F00EF80130EBD10C233360304600F018F8002070BD00BFFC7B020881
:404A0000F87B020838B5064C002305460846236000F0D0F8431C02D1236803B12B6038BD707C0208704770474FF0FF3C06E000BF4FF0010C02E000BF4FF0010C4DF804CD00
:404A40004FEA410C7FEA6C5C4FEA430C18BF7FEA6C5C1BD001B050EA410C0CBF52EA430C91EA030F02BF90EA020F0020704710F1000F91EA030F58BF994208BF90422CBFB3
:404A8000D8176FEAE37040F0010070474FEA410C7FEA6C5C02D150EA013C07D14FEA430C7FEA6C5CD6D152EA033CD3D05DF8040B704700BF8446104662468C4619466346A0
:404AC00000E000BF01B5FFF7B7FF002848BF10F1000F01BD4DF808EDFFF7F4FF0CBF012000205DF808FB00BF4DF808EDFFF7EAFF34BF012000205DF808FB00BF4DF808EDD4
:404B0000FFF7E0FF94BF012000205DF808FB00BF4DF808EDFFF7CEFF94BF012000205DF808FB00BF4DF808EDFFF7C4FF34BF012000205DF808FB00BF4FEA410C7FEA6C5C58
:404B400002D150EA013C0AD14FEA430C7FEA6C5C02D152EA033C02D14FF0000070474FF0010070474FEA410212F5001215D211D56FF47873B3EB625212D94FEAC12343F00C
:404B8000004343EA505311F0004F23FA02F018BF404270474FF00000704750EA013005D111F0004008BF6FF0004070474FF00000704700BF044A05491368002B08BF0B46CF
:404BC0001844106018467047007C0208787C0208F8B500BFF8BC08BC9E467047F8B500BFF8BC08BC9E467047030000000100000001000000000000000503600004000000E1
:404C000001000000000000000100000006046000080000006C7302088D0308104D61696E200D200A20000000537461636B204F6E200D200A20000000446576696365206C4D
:404C4000696E6B20636F6E6E6563746564200D200A20000054696D656F7574200D200A2000000000436173652033200D200A2000436173652037200D200A2000526561643E
:404C80002D7265710000000044656661756C74200D200A2000000000000000000100180001000028010000000B0000000018000000000000020003280100020003000000AA
:404CC000002A0000000000000300002A01000201030000000B00000000430208040003280100020005000000012A0000000000000500012A01000201050000000200000061
:404D000008430208060003280100020007000000A62A0000000000000700A62A01000201070000000100000010430208080003280100020009000000042A00000000000066
:404D40000900042A010002010900000008000000184302080A000328010002000B000000C92A0000000000000B00C92A010002010B00000001000000204302080C0000289D
:404D8000010000000F00000001180000000000000D000328010020000F000000052A0000000000000E00052A000020010F00000004000000284302080F00022901010A0304
:404DC0000F00000002000000304302081000002801000000140000000F18000000000000110003280100020014000000192A0000000000001200192A0100020114000000AE
:404E0000010000003843020813000429010002011300000007000000404302081400022901010A03140000000200000048430208150000280100000818000000100000009A
:404E40005043020816000328010002001800000010000000584302081700F50701000209180000000200000060430208180001290100020118000000120000006843020879
:404E8000DEA0A70E9B1B25AB66431FBE85DD0F7F088B740373100A921942389FF5073DCA010003000500090007000B000C000E000F000000100012001300140015001700A3
:404EC0001800000000000000100000000800000000020000000000000000000000000000000000000000000000000000000000000B00000000000000000000000000000075
:404F00000000000047656E6572617465645F536F757263655C50536F43365C70646C5C647269766572735C7065726970686572616C5C737973696E745C63795F7379736947
:404F40006E742E630000000047656E6572617465645F536F757263655C50536F43365C70646C5C647269766572735C7065726970686572616C5C6970635C63795F6970638E
:404F80005F6472762E68000047656E6572617465645F536F757263655C50536F43365C70646C5C647269766572735C7065726970686572616C5C6970635C63795F69706380
:404FC0005F6472762E63000047656E6572617465645F536F757263655C50536F43365C70646C5C647269766572735C7065726970686572616C5C6970635C63795F69706345
:405000005F706970652E630047656E6572617465645F536F757263655C50536F43365C70646C5C647269766572735C7065726970686572616C5C7363625C63795F736362AA
:405040005F756172742E680047656E6572617465645F536F757263655C50536F43365C70646C5C647269766572735C7065726970686572616C5C7363625C63795F73636257
:405080005F636F6D6D6F6E2E6800000047656E6572617465645F536F757263655C50536F43365C70646C5C647269766572735C7065726970686572616C5C7363625C6379E1
:4050C0005F7363625F756172742E630047656E6572617465645F536F757263655C50536F43365C70646C5C647269766572732F7065726970686572616C2F6970632F63795F
:405100005F6970635F6472762E68000047656E6572617465645F536F757263655C50536F43365C70646C5C647269766572735C7065726970686572616C5C737973706D5CDA
:4051400063795F737973706D2E6300000000204000002440000000400000000000002340000030400000314000009F40000022400000104002020202020202020210101DFF
:40518000800017007500FF030602063604102000000000007FC0000000040000000000000019324B647D00804000080B100000000000FF012002001F00800004FF081018D8
:4051C000001000140018001C4044484C50000000081000000800000004000000041000000012000004210000002100000016000040114002C41300138013A0132000000066
:405200001C0000000000214000002540000001400000344000002440000031400000324000001F410000234000001140010101010101010101101010800019005500F00065
:405240000501053B04101C01010000000FC000000004000001010101011D3A57789600082000101208000000001F00000010000F002000023F06080E00080009000A000BEF
:4052800024282C3034000000100000009000000088000000080000008000000004F0000000F00000400200002005A000D00100018001A0012000000010000000240003002C
:4052C0003000010028000200240002000C00010000316253C4F5A697B988DBEA7D4C1F2E4372211087B6E5D4FACB98A93E0F5C6D86B7E4D5427320113F0E5D6CFBCA99A838
:40530000C5F4A796013063527C4D1E2FB889DAEB3D0C5F6EF9C89BAA84B5E6D7407122137E4F1C2DBA8BD8E9C7F6A59403326150BB8AD9E87F4E1D2C02336051C6F7A4958D
:40534000F8C99AAB3C0D5E6F4170231285B4E7D67A4B1829BE8FDCEDC3F2A1900736655439085B6AFDCC9FAE80B1E2D344752617FCCD9EAF38095A6B4574271681B0E3D24D
:40538000BF8EDDEC7B4A192806376455C2F3A0914776251483B2E1D0FECF9CAD3A0B586904356657C0F1A293BD8CDFEE79481B2AC1F0A3920534675678491A2BBC8DDEEF0D
:4053C00082B3E0D1467724153B0A5968FFCE9DACFFFF000047656E6572617465645F536F757263655C50536F43365C70646C5C6D6964646C65776172655C626C655C637994
:405400005F626C655F6761702E680000000404000104080002041400030C200004042C0005064800819E081015A3081015A3081015A3081015A308108D8808106189081022
:4054400015A3081015A3081015A3081015A3081015A3081015A3081015A3081015A3081015A3081015A30810A9A00810F5A008102D970810319908100D9D08108977081066
:4054800000000000905808103058081008000000790F091000000000005708104C5608100F00000000000000000000000000000000000000000000000120000071AE081013
:4054C00006200000B5AF08100720000085AE08100820000075AF08100920000075B008100A20000071AD08100B20000039B008100C20000001B0081010200000CDAD08108B
:40550000112000004DAD08101220000051AF081014200000EDAF081015200000E5AD081017200000A1AD08100E200000D1AD0810ACFD000047B20810ADFD00003BB108104E
:40554000A0FD0000B1B20810A1FD00009BB10810A2FD0000D7B10810A5FD0000A7B30810A6FD00000BB30810A8FD00000DB10810A9FD0000E3B00810AAFD0000FFB108100A
:40558000ABFD00006DB30810AFFD0000FDB10810C3FD000059B30810B0FD0000D1B20810B2FD00001FB30810051400002BAE08102D0C000005AF08107B0C0000B3AE0810C5
:4055C0007C0C0000A9B0081027200F2028201020292010202B200A202C200B202D200D202E200C204E201720000001000100000100010202030002000000000002020100B4
:405600000200000100010005010005020203000200000000000205010005000085070910ED080910F507091001010B01020281028205030404038409060907090809090984
:405640000A09050A0C0B0D0D0E0E0000010000000100000000000000020000000400000002000000030000000700000005000000040000000A000000080000000500000087
:405680000C0000000B000000060000000E0000000D00000007000000100000000F0000000800000013000000110000000900000016000000140000000A000000170000000C
:4056C00017000000FF00000018000000180000000B0000001B000000190000000C0000001D0000001C0000000D0000001F0000001E0000000E000000210000002000000047
:4057000001000000912C0910FEFFFFFF5D2B091001000000912C091006000000552E0910F8FFFFFF5D2B091018001200792B0910A000000CD128091047FFEDFB5D2B091073
:40574000E8000C00C92A091000012000D92909101FFED3FF5D2B0910A000000CF13209105FFFFFFB5D2B09100002000049310910FFFDFFFF5D2B0910000C0000D927091027
:40578000FFF3FFFF5D2B0910000A00007D2A0910010000009D2A0910FEF7FFFF5D2B0910002000001D29091000400000F9310910FF9FFFFF5D2B0910FFFFFFFF632B091037
:4057C000FFFFFFFFD327091000800000B52709100000010097270910FF7FFEFF5D2B0910008001005B270910FF7FFEFF5D2B0910000080033D270910FFFF7FFC5D2B0910DF
:4058000000801F0A79270910FF7FE0F55D2B091000000000000000000000000000000000870000000000000000000000000000008100000000000000000000008200000088
:405840000100000001000000010000000200000002000000020000000400000003000000030000000600000005000000F10000000700000007000000F20000000900000010
:4058800008000000FF0000000A0000000A000000020000008137091001000000813709100E0000007536091002000000B93609100C0000005D36091002000000F93609104A
:4058C0000C0000005D3609100E000000813709100C000000BD370910020000005D3609100E000000013809104300494E4600696E66004E414E006E616E003000496E6669BD
:405900006E697479004E614E00504F534958002E0000000005000000190000007D0000000080E03779C34143176E05B5B5B89346F5F93FE9034F384D321D30F94877825A6E
:405940003CBF737FDD4F1575000000000000F03F000000000000244000000000000059400000000000408F40000000000088C34000000000006AF8400000000080842E41A9
:4059800000000000D01263410000000084D797410000000065CDCD41000000205FA00242000000E876483742000000A2941A6D42000040E59C30A2420000901EC4BCD64252
:4059C00000003426F56B0C430080E03779C3414300A0D8855734764300C84E676DC1AB43003D9160E458E143408CB5781DAF154450EFE2D6E41A4B4492D54D06CFF0804400
:405A0000F64AE1C7022DB544B49DD9794378EA44000000002DE9F05F00250746041D00F1180840682E4E4FF6FF7A88B1616879B180070DD1207A80070AD198F8300038B1A9
:405A40002849084600F0A2FB10EA0A0002D044E0354642E02289A37ADFF88C90206858B1C9F800000025A9F80420A9F80650A9F808302946FDF7DEFAA07A801D00F0FF0B90
:405A80005946606800F072F8050021D1404601F087F905001CD1E06820B1384600F0CAFA050015D1B9F80400B9F80610884206D3401A80B2594600F0A9FE20B100E05046E7
:405AC000354628B109E0A07A801DC0B200F0C4F900F0D8F90549012008702846BDE8F09F010016007D5D0810A07402088C44020803480078012801D100F018BD704700000E
:405B00008C44020810B500F073FB0449002008608880C88008810249087010BDA07402088C44020870B5044600208A0703D001F00302891A091D084B89B2DA889E885518FD
:405B4000B54206D81D682A442260DA881144D98070BD024870BD0000A0740208030016000148008970470000A07402082DE9F84705460C460020890000908A466846FFF7AA
:405B8000D1FF07004BD12748009B0022036017E003F82220062A08D2234803EB820100EB820046784E70408807E005EB8200183803EB820186784E700088521C4880D2B280
:405BC000A242E5D300251EE005F1010909F0FF0015E003EB850203EB8001B2F802C04E88B4450AD991F80180A1F802C092F801C081F801C0568082F80180401CC0B2A0428C
:405C0000E7D309F0FF05A542DED347B951466846FFF788FF070002D10449009808603846BDE8F887904402080C54081094440208F0B5002319E05A1C00EB830612E030F88D
:405C4000235030F82240A5420BD2778820F8234000EB8204B4F802C0A6F802C020F822506780521C8A42EAD35B1C8B42E3D3F0BD00487047AC740208FFF73ABF10B5022498
:405C800001F032F810B100F03FFF00B90124204610BD05207047000010B5002428B132220349FDF7BCF9204610BD024810BD0000AC74020801001600F8B506004FF0000065
:405CC0008DF8000006F1040407D020892081304601F0E2F8050002D012E01248F8BDA17A6A46606801F0B2F8050009D1E06838B1B6F84400000903D0304600F0FBF9054635
:405D00002089208165B93046FFF784FE050007D1304600F0B5FF0546A17A6068FFF788FF2846F8BD0100160038B504004FF00000ADF8000008D0A18D090A05D1617A102959
:405D400002D8E179102901D90A4838BDE0856946204600F0D5FF0500E08DBDF800100844E08504D1322221460348FDF758F9284638BD000001001600AC74020870470000F4
:405D8000002809D005494A68002A05D0011F087852F8200000F0E4BC704700009044020810B50446FFF7DCFEC0B2801DA0420BD30648406840B150F8240000F03DFC002862
:405DC00001D000F8044B10BD002010BD90440208F8B516460D460446FFF7C2FEC0B2801DA04203D24FF0FF300090F8BDB2B2E9B2684600F04BFC0099481C03D00248406878
:405E000040F824100098F8BD904402082DE9F0410746FFF7A5FE801D0B49C6B2002005460C680CE0617839B16188B94202D32078FFF7B6FF002804D1241D6D1CEDB2B5424E
:405E4000F0D3BDE8F081000090440208002801D0FFF796BF7047000070B506460848002504680AE0617829B162882078121D0023FFF7AEFF241D6D1CEDB2B542F2D370BDB8
:405E8000904402081CB50024142001908DF800402346064A694606480BF000FE04480068401C01D14FF6FF7420461CBDED5E0810984402080EB50C4A0146002312684FF672
:405EC000FF7004290DD009290AD109200093ADF80800ADF80A30694610460BF0DCFD80B20EBD04200093F2E79844020870B5D0E90054468900890C282DD2DFE800F02C2CBC
:405F00000606112C2C152C191C27E0B23246294608F09CFFE0B23246294600F037FD1AE000200BF0C3FA16E02878FBF749FE12E000F00AFE0FE0E8B2022C02D008F0C2FCDC
:405F400009E0FF2807D002F073FF04E02846022C03D008F08FFD002070BD03F07BFAFAE70148006800F0CABA984402082DE9F0411F4F0026386D60B1796D51B14218891EE4
:405F800012F8024C0022FBF78BFD844201D0194E2BE0002505EB850307EB8304606800B357F82310E9B16289D7F854C0624518D294F80CC01CF0090F02D0FDF730F80AE084
:405FC00009780170606831B1628957F82310083A08310830F1E723691BB10122207B114698476D1CADB2042DD4D33046BDE8F081E0740208FFFF1600F0B5C10701D040F095
:4060000008000B4CFF2184F85D10002101250E4601EB810204EB820205FA01F3177B03409F4200D11681491CC9B20429F0D3F0BDE074020870B5134908B3B0F84410124CF9
:40604000C1F30711002584F85C10016921654069C4E91505FF2684F85D6028464FF6FF7300EB800204EB8201401C4B8144F822500D610E73C0B20D810428F1D30021084661
:4060800070BD000001001600E074020810B5174B48B3417839B3002202E04908521CD2B20029FAD102EB8201114A02EB810111F8084CFF2C17D103787BB1438821F80A3CC1
:4060C000946D136D234441F8143C4488936D2344936582680AB141F8042C103942780A72406800230860184610BD000001001600E0740208F0B5B0F84420234C46690021B4
:40610000C2F30712D2B3D3070BD090F8203003EBC30505EB431501EB850101EB031101F14001530715D5C37F2C2513FB05F55FEA857C4FF00C0723D003EB430505EBC30382
:4061400007EB830505F00305C5EB830505F11005294492070ED590F821004FF00803C20095070FD003EBC00202F00302C2EBC0020C321144891C8E4200D300242046F0BD24
:406180000C35E5E70832F4E7010016000F4A10B5002313600E4A13600E4B18600E4801600E49012008600E49086000020E4990600C4808600D4914300860A0F58A705060BA
:4061C00000F0D0F800F008FA002010BDB44402089C440208C8440208CC440208B8440208A844020840760208AC440208C04402080020704710B501004FF0000010D0094B18
:406200001A689C681144A14209D25868196010448A0704D001F00302891A091D196010BD002010BD9C4402082DE9F04102461A4F002010253B1F4FF0FF38444639681B682C
:4062400007E000EB800605EB86068E59761C1ED0401C9842F5D3601C16D004EB84060C2000EB86000A5002EB42008000FFF7C2FF396841F8260060B1396805EB8602002063
:4062800088507868401C78602046BDE8F0810446E1E74046F9E70000AC4402082DE9F0410F464FF0FF36002821DB2249096888421DD8E7B1DFF87C8000EB800508F1040855
:4062C0001020D8F8001000EB85040859401C0ED0FBF714FCD8F800000C2202EB8502015950F802C04346614504DBFBF701FC3046BDE8F081082101EB8506815950F8250037
:4063000001EB410500EB85003D6805607D684560BD6885601868491C82588A4200D10021815118680159491C0151FBF7E1FB0020DEE70000A8440208002803DB08490968CC
:40634000884202D94FF0FF307047054900EB8000091D1022096802EB8000085870470000A84402082DE9F0430020134A0427441E03464FF0080C1025A2F10409506014E0EF
:4063800000EB8001166807EB8108401C46F8083016680CEB810846F80830166805EB810846F80840166846F82130D9F800108842E6D30020BDE8F083AC4402082DE9F041CB
:4063C0000E464FF0FF3700284CDB29490968884248D8EEB3DFF8988000EB800408F104081020D8F8001000EB84054859401C39D0FBF784FBD8F800004346415949B30421A5
:4064000001EB8407C25950F8240002EB420100EB8100521CD0F800C0C6F800C0D0F804C0C6F804C08068B060186850F8240000EB810000210160416081600C21186801EB53
:4064400084014158914200D10022C251186801E008E009E04159491E4151FBF749FB0020BDE8F0813846FBE7FBF742FBFAE70000A84402082DE9F0470D4601001E4C4FF044
:406480000000089E80464FF0FF37206010D0606885420DD262B15EB1642E09D804F10C09C5EBC501D9F8000000EB8104207A10B13846BDE8F0870120226020721846FFF759
:4064C000B3FE6060401C13D06681A6812761676199F80410A94201D289F8045041460B4661F30F030A46284600F052F82846E0E784F80880DCE70000B444020810B5002835
:4065000010DB0949496888420CD80749C0EBC0000C31096801EB80004068FFF70DFF08B1002010BD012010BDB4440208FEB5174E4FF0FF373D4600240DE03068C4EBC4017D
:4065400000EB8100017A29B14068FFF7F5FE08B1254603E0641C3079A042EEDA681C13D03068C5EBC50100EB8104FBF7C7FA69466068FFF723FF0546FBF7BAFA002DD9D100
:40658000216868468847D5E7FEBD0000C044020838B50024009400F001F838BD1FB500220C49541E00280A6012DB496888420FD80849C0EBC0000C31096801EB800001A9AF
:4065C0004068FFF76BFE401C02D0002004B010BD2046FBE7B4440208F0B50021154A4E1EA2F10C0711710B46BE601EE0C1EBC1000425146805EB800566511468082505EB7E
:40660000800544F820301468635514680C2505EB8005635314680A2505EB800563531825146805EB8000491C265078688142DDD30020F0BDC044020838B5041E4FF00000E7
:40664000009012DB1048007884420EDA0E4D0C35286800EB0411096839B1042101EB04110844694600F047F908B1002038BDFBF745FA0F21286801EB0411425C521E4254E3
:40668000FBF736FA009838BDD04402082DE9F74F8A46002500996C1ED21C0C604FF6FC71DFF8B88002EA0107A8F10C0128460A78D8F8001005E001EB00131B687BB1401C25
:4066C000C0B29042F7D3601C2CD0042000EB041B01EB0B00514600F0FDF818BB01E00446F1E7D8F800000C2101EB041147520E22D8F8001002EB041207FB0AF001F802A05C
:406700000F22D8F8001002EB041201F802A000F0ABF8D8F8001001EB0411086010B1814600260EE0012516E0D8F8001001EB0B00494600F0FAF808B1012500E0B944761C80
:40674000F6B25645F0D335B90098046098F80410491C88F804102846BDE8FE8FDC440208F8B54FF000070D46041EADF800703ADB25480078844236DADFF88CC00CF10C0C3D
:40678000DCF8001001EB0410006860B30C2202EB04128E5A0E2202EB041285428B5C06FB030220D395421ED2002205E002FB060EAE4504D0521CD2B29A42F7D39FB10420D5
:4067C00000EB0417C81966466A46294600F0C7F848B9BDF80000012807D030682946384400F0A3F818B10120F8BD0020F8BDFBF785F90F21306801EB0411425C521C425425
:40680000FBF776F9F1E70000D04402082DE9F0410D46002400F03CF8002821D11149002201F10C034A600C210E264FF00F0E14E01F6801EB041C07EB04173A601F6827F84D
:406840000C201F6806EB041C07F80C200EEB041C1F68641CE4B207F80C20AC42E8D31A71BDE8F081D044020800280BD0074AC01C20F00301506853880144994203D8936813
:40688000516018447047002070470000D0440208F8B5064600200E4D00900C01297021466846FFF73FF958B905F10C0100980860301B001F84B221466846FFF733F910B186
:4068C0004FF6FF70F8BD6C800098A8600020F8BDD044020830B50D4604000AD0A800FFF7C3FF606028B125704FF0FF306080002030BD012030BD70B50D46040004D01DB185
:40690000B4F90200002801DA012070BDFBF7F6F8B4F90210606850F8210028606088401E6080FBF7E5F8002070BD70B50D46040006D02DB12078B4F90210401E814201DB39
:40694000012070BDFBF7DAF86088401C00B26080616841F82050FBF7CBF8002070BD70B500231D4610B1B0F902400AE0012070BD466856F823608E4201D1012503E05B1C8B
:40698000DBB29C42F4DA1570002070BD70B586B015460E460446182200216846FCF74AFB00238DF800308DF80140ADF804506846029600F023F906B070BD00000EB501891E
:4069C0000091407801900A20ADF808000020ADF80A000348694600680BF05DF80EBD0000984402080EB541680091417801910221ADF808100089ADF80A00034869460068F2
:406A00000BF049F80EBD00009844020800F0DEB802490020488000F071B80000E44402082DE9F041074621480125002405704FF6FF75012F02D0022F2FD10DE04770828017
:406A40001B4A128842F4807282818160174800F0D5F810BB2C4620E0164E012B20D0B6F800C0022B624492B2328010D081607188091D8A4211D1104947708280098841F495
:406A800000718181094800F0B9F818B103E009684161ECE72C46002030802046BDE8F0814A887280096801610420F5E770760208D0450208E44402084C45020870B504463F
:406AC0000D4600EB4400C20000212846FCF7B2FA074A0020074914711560907150710648FBF712F808B1002070BD012070BD0000E8440208BD690810E569081001491420B1
:406B0000FFF7DCBF8876020810B5FAF7E9FF06494A7989798A4201D1012400E00024FAF7E3FF204610BD0000E844020805494879401CC0B248710A79904201D10020487171
:406B400070470000E844020810B5FAF7D7FF0B4948798A7990420DD0096800EB400001EBC000AFF21B020649FAF7E8FF10B10920FFF7A0F9BDE81040FAF7BABFE84402089A
:406B80002D6B081070B5104C0146A2796379501CC0B2834216D02579854200D193B1206802EB420200EBC2001822FCF738FAA079401CC0B2A0712179884201D10020A0713F
:406BC000012070BD002070BDE844020870B5FAF787FF094C0546217901EB4100C20000212068FCF727FA0021A17161712846BDE87040FAF779BF0000E844020810B5FFF760
:406C0000C1FF0446FFF7A0FF204610BD10B5124802F03AFC68B9114802F01EF848B911490F480860084600F085FA10B90E4808F0F5FF04000ED1FFF799F90404240C04D060
:406C4000002141F2050000F089F900214FF4805000F084F9204610BD11840810BF870810A5BB0810F84402087DB7081010B504F0C1FB03F00DFDBDE8104004F035BC000014
:406C800070B50546041D00F1180600F0ADF9144829680160616809888180A17A03290FD361688979017261684989C1F34701417261688989C180B179817296F83010C1720A
:406CC0006168098A818100F091F8002806D100F0A5F8002802D1034A0121117070BD000068780208F044020810B502F097F9012803D1FFF735F9012800D0002010BD0000A3
:406D00002DE9F0411C4D0C46060005D0DFF86C8098F8000018B16D1C2846BDE8F081B08D08F00EFA308808F011FA0500F4D1304609F044FE0746304603F074FB07443046F4
:406D400001F028F8384400F634102080304605F08CFB21880844208096F83010C1EBC10100EBC1002080304601F00CFC218808442080A8F80400CFE701001600F0440208EA
:406D800010B505F00DFB03F05BFB00F0D3FF09F042FE01F0B3FBBDE8104008F0A3B9000010B5040010481DD0204608F0A3F9002818D1204601F0B0FB002813D1204609F05F
:406DC00035FE00280ED1204600F0BCFF002809D1204603F03BFB002804D12046BDE8104005F0EABA10BD000001001600094810B50949C07A887000F081FF064801F0CCFBD2
:406E0000002806D103F034FBBDE81040014805F00DBB10BD68780208F044020810B500220849094800F032FF10F0FF0008D000220449054800F02AFFBDE8104004F014BE30
:406E400010BD00000D6C081011AB0810F0B5002635461670334616E030F82340082C0AD900EB83077F8837B1083C20F823401478641C147005E053B100EB830420F823506A
:406E800065805B1CDBB28B42E6D33046F0BD014EFBE7000001001600F0B52E4C031D0020A188247802460CB12B48F0BD2A4D1C68083D4CB11F898F4206D3596821B1002469
:406EC0004FF0020C9E7A39E02846F0BD0CEB8203CB5A03B331F822E0BEF1000F2AD00EFB03439CB2052A32D2DFE802F0030C11161E00B1F800E08B78BEF1230FE4D3032B90
:406F0000E2D317E08B8833B1302BDDD312E00B890BB1282BD8D30DE08B895BB1233B4FF6BA7E7345D0D205E00B8A002BCCD04B8A012BC9D10028C8D1521CD2B29642C5D81D
:406F4000C6EBC60104EB81018F42BDD3F0BD0020F2E70000F044020809001600034A1268002A02D0002800D0104770476878020870B5044605F077FA01F01AFC00F066FEE1
:406F8000174D012C16D0022C29D11648046800F02BF8FEF7B7FDFFF7F3FEFFF767FE00202870002C1BD0A446BDE87040002143F212006047FEF75CFE848DFFF717FF38B9F0
:406FC000FFF72CFF20B901202870204608F0B8F8BDE87040002143F20100FFF7BFBF70BDF04402086878020803480021016041608160C160704700006878020801464FF6BE
:40700000C05007F0D7BB000008B504218DF8001010B100788DF803000549487808B1401E4870694641F20100FFF798FF08BD0000F0440208064910B509780448002903D052
:407040000220FFF7DBFF002010BD000002001600F044020838B503000B4810D0597800290DD00A4C084D60786D1C042806D201200090074A184608F085FB08B1284638BDDD
:407080006178491C617038BD01001600F04402080970081030B50C46054600F00DF8002806D1044A6978126802EB0111C988218030BD0000FC4402080B4B024642F6137046
:4070C00051781B7899420DD2084B1B6803EB01110B7A6FEA03039B0704D4127809788A4200D1002070470000F2440208FC44020810B50A490A4B027809781B68491EC9B270
:4071000003EB01142478A24202D14170002010BD0029F3D14FF6FF7010BD0000F2440208FC4402080249096801EB0010807B7047FC44020842F6117138B1006828B105497D
:407140000A6822B142F61470704708467047086000207047004502082DE9F74F84B0154604980E4660B1152E05D01E2E0BD9D22E09D0522E07D042F6127007B0BDE8F08FCB
:4071800042F61170F9E700200390049890F80180FF208DF808000498FFF78EFF07002ED1DFF854A542F6147B1B2E0CD01D2E0AD0F0070BD0012E06D0DAF8001001EB08106F
:4071C000007BB0421AD1F00703D00FE01E2EF3D0F9E71E2E14D0DAF8001001EB0810407B20B1522E0CD0D22E08D109E01D2E07D1DAF8001001EB0810407B08B15F46D6E0F7
:40720000012E20D0DAF8001001EB0810C088001DFEF7FCFD040018D002214FF0010942F616700F2E75D013DC4FF005024FF0030729D2DFE806F0282BFB48FA54F971F88062
