:020000041008E2
:4000000000780408EB0208100D00000051030810510308105103081051030810000000000000000000000000000000004D0308104D030810000000004D0308104D030810DA
:400040004D0308104D0308104D0308104D0308104D0308104D0308104D0308104D0308104D0308104D0308104D0308104D0308104D0308104D0308104D0308104D03081000
:400080004D0308104D0308104D0308104D0308104D0308104D0308104D0308104D0308104D0308104D0308104D0308104D0308104D0308104D0308104D0308104D030810C0
:4000C0004D0308104D0308104D0308104D0308104D0308104D0308104D0308104D0308104D0308104D0308104D0308104D0308104D0308104D0308104D0308104D03081080
:400100004D0308104D0308104D0308104D0308104D0308104D0308104D0308104D0308104D0308104D0308104D0308104D0308104D0308104D0308104D0308104D0308103F
:400140004D0308104D0308104D0308104D0308104D0308104D0308104D0308104D0308104D0308104D0308104D0308104D0308104D0308104D0308104D0308104D030810FF
:400180004D0308104D0308104D0308104D0308104D0308104D0308104D0308104D0308104D0308104D0308104D0308104D0308104D0308104D0308104D0308104D030810BF
:4001C0004D0308104D0308104D0308104D0308104D0308104D0308104D0308104D0308104D0308104D0308104D0308104D0308104D0308104D0308104D0308104D0308107F
:400200004D0308104D0308104D0308104D0308104D0308104D0308104D0308104D0308104D0308104D0308104D0308104D0308104D0308104D0308104D0308104D0308103E
:400240004D0308104D0308104D0308104D0308104D0308104D0308104D0308104D0308104D0308104D0308104D0308104D0308104D0308104D0308104D0308104D030810FE
:400280004D0308104D0308104D03081010B5054C237833B9044B13B10448AFF300800123237010BD0071020800000000DC350810084B10B51BB108490848AFF300800848C9
:4002C000036803B910BD074B002BFBD0BDE81040184700BF0000000004710208DC3508100C460208000000007047FFF7FDFF72B6104C114DAC4209DA21686268A368043BB2
:40030000A2BFC858D050FAE70C34F3E70B490C4A00209142BCBF41F8040BFAE709480A490860BFF34F8F00F025F900F0FFF800F01DF8FEE718150910301509100071020846
:40034000547B02080040020808ED00E0FEE7FEE700B504207146084202D0EFF3098001E0EFF30880043001F0D5F9FEE708B5064B5B6813F4003F01D001F08CF962B600F01B
:400380000DF9002008BD00BF0000264008B5012000F086FD08BD00BF704700BF5C4AD2F8803303F00F0303F1D00152F8212002F00702032A04D0042A05D092B9554914E08E
:4003C000554A116811E003F1C002514951F8222002F01F02112A06D0132A04D04FF4FA4103E04E4901E04FF400418BBB484BD3F8902502F00100D3F88825C2F30172D3F8D0
:40040000883513F0405F07D0414BD3F88835C3F30173012B02D102E0012300E0002303B108B9032A46D13A48D0F88025C2F31103D0F88425C2F30C02D0F88005C0F300603B
:400440000130B1FBF2F202FB03F2B2FBF0F131E0012B2FD12E4BD3F8402602F00100D3F80026C2F30172D3F8003613F0405F07D0274BD3F80036C3F30173012B02D102E050
:40048000012300E0002303B108B9032A12D12048D0F8002602F07F02D0F80036C3F30423D0F80006C0F3044002FB01F2B2FBF3F2B2FBF0F1164BD3F88033C3F3011321FA53
:4004C00003F215494A601648D0F89030C3F3072301330069000E0130B2FBF0F08860B2FBF3F3CB600B6103F5742202F23F220D48A0FB0202C2F387420A7503F2E7330A4A87
:40050000A2FB03239B098B61DB03CB61704700BF0000264000127A008C42020800366E010000214083DE1B43D34D621008B50D4801F052F9FFF730FFFFF730FF00221146B6
:40054000042000F05FFA084800F0F2FA074B1B6893F8513013B1064800F05AFB00F092FF08BD00BFF82E08101C710208207B0208DC28081008B501F028F9074AD2F888306D
:4005800043F47003C2F88830BFF34F8FBFF36F8F01F01FF908BD00BF00ED00E000B583B000F00AF90E490F4800F0DEFC0E4800F0E3F803F047F90D4C207800F09DF8608880
:4005C00000F0CAF800F086F8094B58600028F0D0628864326280227801322270E9E700BF1029081000006640F5050810AC4202089C72020810B543F2120398423AD00C4639
:4006000007D8B0F5805F11D041F2010398421FD046E044F20803984211D045F21703984239D044F2060398423AD12AE01F49204800F09AFC0021084601F0D4FA10BD002180
:40064000084601F0CFFA1B49194800F08DFC10BD1949174800F088FC2378042B24D1E278164B1B789A421FD1144A93780133DBB2937010BD12490E4800F076FC00F0D0FF8D
:4006800010BD10490A4800F06FFC0F4B1B785BB900F08EF810BD0D49054800F065FC10BD0B49034800F060FC10BD00BF1C290810000066402C29081048290810B0420208F6
:4006C0005829081064290810317B0208702908107C29081008B5074B9B7813F0FF0F06D004480023837004F09BFA012008BD002008BD00BFB042020800B583B002AB03F88E
:40070000010D01220021084602F068F803B05DF804FB00BFB0B900B587B002900390049005900192ADF80810094A1268126802EB80035B88ADF80C3001A801F011FB18B124
:40074000044801E00348704707B05DF804FB00BF8C7302080100160010B5064C6070000A2070224602210020FFF7D4FF00236370237010BDA472020808B518B1094AD062EA
:40078000002000E0084858B9084B1B782BB9054801F0AAF80122054B1A7008B901F0CEF808BD00BFB442020801001600A672020808B501F059F908BD08B5084B1B783BB9A0
:4007C000074A0849084800F0E7FB0122034B1A70054A136843F00043136008BDCC720208E87A0208B82B08100000664038B50D4B9A680D4B9A420FD10D46044621B940F269
:4008000037110A4800F076FF04F11003064A52F8230042F8235038BD1030054B53F8200038BD00BF00ED00E000400208F82B08100000081048B338B504460D464368072BD7
:4008400003D93221134800F055FFB4F900306268002B08DB5201D2B203F1604303F5614383F8002305E003F00F035201D2B20A49CA540A4B9A680A4B9A4208D12946B4F99E
:400880000000FFF7B3FF002038BD06487047002038BD00BFF82B081014ED00E000ED00E0004002080100560038B50B4B1B68D3F8B4301B58002B0DDA0D4604460B0C1B044B
:4008C00023B140F2D521054800F014FFA9B26160002038BD024838BD207B02083C2C081001008A0038B50368002B01DA002300E0094B73B90D460446C2600B0C1B0423B1E2
:4009000040F2BB21054800F0F5FEA9B2A160002038BD014838BD00BF01008A003C2C081038B504460D4619B99921084800F0E2FE074B1B68D3F8B4301B59002B03DAE3687F
:400940002B60002038BD034838BD00BF7C2C0810207B020801008A00254B1B6893F8313083423AD900293AD00B6813F01F0F38D170B50D4604461E4B1B6893F831309842DD
:4009800004D340F2C3111B4800F0B4FE184B1B68186AB3F8B03004FB0304174E34602A68D2080021686801F071FF00212046FFF77BFF346825B940F293310E4800F09AFE60
:4009C0002A4600212046FFF78DFF60B900210A4B1868FFF769FF40B970BD084870470748704706487047064870BD054870BD00BF207B02083C2C0810D072020803018A0026
:400A000001018A0010B504461346B2B9A9B9124B1B6893F83130984204D340F2C3110F4800F068FE0C4B1B681A6AB3F8B03004FB03240B4B1C60002010BD43B149B1084AB7
:400A400051609360111D2046FFF786FF10BD054810BD044810BD00BF207B02083C2C0810D072020803018A002DE9F0411B4B1B68DC68236883422CD90D464609A0EB4610B9
:400A8000012303FA00F819B900F09FFE074600E00027124B18680368002B01DA002300E00F4B83B9626852F8263018EA030F05D023EA080342F82630002400E0094C00210E
:400AC000FFF7F2FE00E0084C25B9384600F081FE00E0064C2046BDE8F08100BFD072020801008A00020188000301880004018A000B4B1B68DB681A6882420CD94109A0EB0B
:400B00004110012202FA00F05B6853F82130184203D004487047044870470448704700BFD07202080101880004018A0000018800024B1B680BB9014B18607047DC720208AC
:400B40002DE9F8430446884691461D46089F2C4B1B681BB9B5212B4800F0CCFD284B1B682C2000FB04F01C18EEB21E50C5F3072363602D0CA560244B1B6893F831309E4247
:400B800004D340F2C311214800F0B4FD1E4B1B68196AB3F8B02006FB02162661666893F832309E4204D340F2DF11184800F0A2FD154B1B681D6A803605EB46156561A66802
:400BC000330C1B0423B14FF4FF71104800F092FD330C1B0423B140F2FF110C4800F08AFDB3B243EA0646AE60C4F81C90C4F820800023A36117B1B7F90030A381BDE8F88337
:400C0000DC720208BC2C0810207B02083C2C0810F0B58FB0044618B95221274800F06AFDA369072B03D95621234800F063FDE36A1BB95821204800F05DFD236B1BB959218B
:400C40001D4800F057FD07AD04F114060FCE0FC537682F6002AD26460FCE0FC533682B60164B1B68B3F93620079B1344ADF83030089B0D93A26AE16A0CAD00953B460A9848
:400C8000FFF75EFF00210091069B0A460598FFF757FF216B2846FFF7CDFDBDF93030002B08DB590903F01F03012202FA03F3044A42F821300FB0F0BDBC2C0810207B020801
:400CC00000E100E0F8B506460F461D4614461AB9FD211F4800F00EFD1E4B1B681BB9FE211B4800F007FD1B4B1B682C2101FB063001FB07314B68012202FA03F31B0446686E
:400D000002FA06F60269EAB18F69EFB91268002A01DA002200E0104AC2B92288134323600369DC6001238B614D620469330C1B0423B140F2BB21094800F0DCFCB2B2A260A9
:400D40000020F8BD0648F8BD0648F8BD0548F8BDBC2C0810DC72020801008A003C2C081004028A0007028A00F8B505460F4616460E4B1B6823B94FF4AF710D4800F0BAFC51
:400D80000A4B1B682C2404FB0534236A23B94FF4B171074800F0AEFCE369B34204D9236A43F826700020F8BD0248F8BDDC720208BC2C08100A028A0038B504460D46074B02
:400DC0001B6823B94FF4C871054800F093FC034B1B682C2202FB0434A56238BDDC720208BC2C081070B582B000230193044620B940F2D111284800F07DFC236923B94FF4DB
:400E0000E971254800F076FC636923B940F2D311214800F06FFC236A23B94FF4EA711E4800F068FC6369DD682A0C20D012041A601B682069194B1B68D3F8B430C358002B97
:400E400015DA01A9FFF76CFD60B9019803681E0CDBB2E269934206D2226A52F8233013B1984700E0002631462069FFF71DFDADB275B16369ADB21D601B68636A1BB19847A4
:400E80000023636202E0A36A03B198470023A36163691B6802B070BDBC2C0810207B020810B50446074B1B6823B940F2B111064800F020FC034B1B682C2000FB0430FFF77E
:400EC00091FF10BDDC720208BC2C081010B50446104B1B6823B940F22B210F4800F00AFC0C4B1B682C2202FB0434B4F90C30002B0DDB5A0903F01F03012101FA03F3203273
:400F0000064941F82230BFF34F8FBFF36F8F002010BD00BFDC720208BC2C081000E100E010B504460D4B1B6823B940F24B210C4800F0E0FB094B1B682C2202FB0434B4F948
:400F40000C30002B08DB590903F01F03012202FA03F3044A42F82130002010BDDC720208BC2C081000E100E030B4036813F4006F01D0802200E04022002408E0D0F8083234
:400F8000C3F308039A42F9D0C0F8405201340D5D002DF3D130BC7047002800F0A48170B50546002900F0A18116460C460B78022B03D93F21A24800F09DFB637B023BDBB2B2
:400FC000062B03D940219E4800F094FBA37B3BB1022B05D0032B03D04121994800F08AFB94F82130012B03D94221954800F082FB94F82830012B03D94321914800F07AFB39
:401000002378012B06D86368083B082B94BF0023012307E0A37F2BB16368013B062B94BF002301231BB14521854800F063FBA368053B042B03D94621814800F05BFB636994
:40104000FF2B03D947217E4800F054FBA369FF2B03D948217A4800F04DFBA37C6BB1237833B9A368092B05D1A37B2BB1012304E0012302E0012300E000231BB14A21704893
:4010800000F038FB636B23F4366323F00D031BB14C216B4800F02EFBE36B23F4EE6323F003031BB14D21664800F024FB2378022B01D1A37F13B16268013A00E00022237F78
:4010C00013B14FF4803100E00021A368082B02D84FF4006300E000230B4302F00F02134343F000732B60226B2B6813F4006F01D0802300E040239A4203D36221504800F094
:40110000F9FAA26B2B6813F4006F01D0802300E040239A4203D36321494800F0EBFA626A2B6813F4006F01D0802300E040239A4203D36421424800F0DDFA23781B0603F090
:4011400040732B64637F0BB1402200E00022A37C13B14FF4806300E000231343227C12B14FF4807200E000221343627C12B14FF4007200E000221A43E36A013B1B0403F487
:4011800070231343627B013A02F007021343A27B120102F030021343AB64237B13B14FF4807200E00022E37B23B92378022B03D1012302E0012300E0002313B14FF400730E
:4011C00000E000231A43A368013B03F00F031343C5F80033227DA3691B0403F47F031343C5F81033E26AD5F8003303F00F0303339A4201D3102A03D97A21114800F07AFABF
:40120000E37F23B12378012B03D0002302E0002300E0012313B14FF4807200E00022637B013B03F007031A43A37B1B0103F0300313436B64237B2BB14FF4807203E000BF6D
:40124000802D08100022A368013B03F00F0313432278012A02D14FF4803200E000221343C5F8003294F83030C5F8043394F8203013B14FF0007200E0002294F82130012BD5
:4012800002D14FF0807300E00023134394F82820012A02D14FF4803200E00022134394F8242013432B6594F83830C5F80432636B23F4926323F002031B051B0DC5F8C83F16
:4012C000E36B23F08C035B055B0DC5F8883F76B1002070603060B060F0603062F0623063044B736370BD04487047034870BD002070BD00BFEFCDAB000160AA001F4B9842A5
:401300002DD00CD840282ED003D8E8B1102828D02FE0802829D0B0F5807F28D029E0184B984228D006D8B0F1204F0DD0154B984212D01EE0144B98420AD00133984209D059
:40134000023B984215D101E0002070470F4870470F4870470F4870474FF4A0007047074870470D4870470D4870470D487047034870470C4870474FF4A400704706005200C7
:40138000010000F0090000A0040000F0010052000200520003005200010050000200500005005200FF00520038B5124B1B6893F83130012B04D840F2C3110F4800F09AF9B7
:4013C0000C4B1D682A6AB5F8B03013442C46D5F8B420D358002B0BDB084B1868FFF78EFF6B6801229A6063689B68002BFBD138BD034838BD207B0208C02D0810E072020804
:40140000020050001A4B186128B102230370FF23437000234380174B1B6893F850202AB300B583B0B3F93830ADF800300023019311496846FFF7FEF9BDF90030002B08DB22
:40144000590903F01F03012202FA03F30B4A42F82130084B1B6893F8513023B1022208490120FFF781FC03B05DF804FB704700BFE0720208207B02087D46020800E100E035
:401480003547020808B50248FFF7BCFF08BD00BFF472020810B30246C3680BB303680BB330B40579114B03EB85035C682346002103E0934205D019465B69002BF9D1012095
:4014C00000E0002080B124B9084B03EB85056A6000E04A6111610023536105E000207047002070470020704730BC7047F872020850B310B402460479164B03EB84035968D1
:401500000B4602E0934204D05B69002BFAD1002000E00120D0B18A420ED14B6933B10D4A02EB8404636000221A610FE0094B03EB84040023636009E01A69596951615A69C2
:4015400022B11B69136101E0002070475DF8044B704700BFF872020830B583B004460D46022808D9042806D0032804D040F6B211284800F0BFF86B1EDBB2012B08D9042D35
:4015800006D0082D04D040F6B311224800F0B2F8214800EB84004468042D12D0012D1AD111E0A3681D420AD1E3681A6800925B6801932368294668469847174B9C616469FF
:4015C00002E0002000E0002014B3144B9842E8D1012DE6D11CE0022D01D104E01C466369002BFBD103E00C4B9C6904B1246900200CE0A3681D4208D1E3681A6800925B6853
:40160000019323682946684698472469002CF0D103B030BD002E0810F8720208FF00420010B5174BDB682BB101210220FFF794FF044600E00024E4B900F0C7F8104BDB682F
:401640001BB104210220FFF787FF0E4B59680E4A0A4042F01B025A6059680C4A1143596059681143596059680A435A605B6830BF04E002210846FFF76FFF054C204610BD6D
:40168000F8720208000026400000FC0F003A0280FF00420008B500F098F8074B5A6807490A4042F468525A605A68114059605B6800F08FF808BD00BF00002640FF00FC0FB9
:4016C00010B5044605E0084B186800F075F8A4F50044B4F5004FF6D8044B186800FB04F000F06AF810BD00BFA8420208A442020801BEFEE738B50D46044C18220146204688
:4017000001F0CCF8A5610020FFF7F2FFA84B0208FEE700BF08B50268254BDA6142681A6282685A62C2689A620269DA6242691A6382695A63C2699A631E4A916AD963D16A09
:401740001964516A5964516B9964926BDA64F1EE103A13F0900F27D0026A154B1A65426A5A65826A9A65C26ADA65026B1A66426B5A66826B9A66C26BDA66026C1A67426C61
:401780005A67826C9A67C26CDA67026DC3F88020426DC3F88420826DC3F88820C26DC3F88C20026EC3F89020FFF7B2FF08BD00BFA84B020800ED00E00230800803D00130BC
:4017C0000238FCD100BF00BF7047EFF3108072B6704780F310887047014B1860704700BF207B020810B5012902D0082929D02EE01A4B1B78012B2CD00320FFF779F9184BB4
:40180000984228D0FFF7E1FF164B1860022002F01BF8044602F023F8022C05D1032805D0052805D1002404E00F4C02E0002400E00D4C0D4B9C420FD10A4B1868FFF7C9FF57
:401840000AE0084B1868FFF7C4FF002404E0064C02E0054C00E0044C204610BD287B02080101880034730208FF00420008B502291CD0082914D001291ED1124B1B78012BBB
:401880001CD0FFF7A2FF104B5860022001F0DCFF022815D00C4B5868FFF79BFF0B4808BD094B5868FFF795FF002008BD064B5868FFF78FFF054808BD044808BD034808BD8B
:4018C000002008BD287B020834730208FF00420010B5044C2046FFF70BFE04F11800FFF707FE10BD08440208B0B110B50B4A9060C36A03B1D3600024094B1C70094B1C705C
:40190000094B1C60094B1C7000F060F9084B1C70084B1C70204610BD07487047347302083C7B0208407B0208447B0208417B0208277B02082C7B02080100160070B59AB00E
:40194000404D15AC28686968AA68EB680FC4286920604C22002102A800F098FF3A4B029315AB049342F2C443ADF8143005238DF81630364B9B681B69069340F64A43079329
:401980001B23ADF82030ADF8223003238DF8243004238DF8253006238DF8263010238DF828308DF829305023ADF84C3001238DF85030274C2046FFF76DFD04F11800FFF712
:4019C00069FD08A801F096FF0346002836D1214B03931E4B9B68996B89B10B460DF12A0220311E685D689C68D868166055609460D060103310328B42F3D11B88138002A887
:401A000001F040FF0346B0B90122134B1A700023124A1370124A13700C4B9B681A6A00929B6ADB88ADF804301223ADF8063068460AF038FC034600210A4A116018461AB0E4
:401A400070BD00BFB02F0810A51F081034730208084402083C4C0208287B0208307B0208317B0208447B020808B503F0C9F808BD08B5044B1B689847034B1B6803B1984725
:401A800008BD00BF587302084473020808B510B1034A52689047034B1B6803B1984708BD587302084473020870B5C0B006460C4615464FF480720849684600F0DCFE05E080
:401AC00016F8012B6A401DF80250013C002CF7D1284640B070BD00BFC42F081008B50022FFF7E2FF08BD00BF08B5FFF76EFE08BD08B5FFF76EFE08BD08B50120FFF710FA35
:401B000008BD00BF08B50120FFF7E0F908BD00BF08B5094B58601960012208491046FFF723F9034628B9002205490120FFF71CF90346184608BD00BF587302088D1A08104D
:401B4000711A081038B515460B46024601210020FFF7B8F8044618B129460120FFF72CF9204638BD704700BF704700BF0020704700487047110016000048704711001600D1
:401B800000487047110016000048704711001600004870471100160000487047110016000048704711001600004870471100160000487047110016000048704711001600F5
:401BC0000048704711001600704700BF08B5034800F0EEFD024800F02FFE08BDFC43020804440208F8B5022872D8002972D10022134606E03B4CE45C012C01D90132D2B22C
:401C00000133002BF6D0012A0CD1374B1B681C6801EB8102930023445B681B79023BDBB2012B59D8314B1B78002B57D1304B1970E0B92D4F3C68236801EB8105AA009D188C
:401C40006668C1EBC1014B001E44B18829822168114449686468E45A0C8039680C682244526849680B445B8853801EE001281CD11D4F3C68236801EB8105AA009D18666839
:401C8000C1EBC1014B001E44B1892982216811444D68616819440989298039680C682244526849680B445B895380124B18700E4B1B6818680E4B1B7803EB83039A001044B5
:401CC00006F0BEF9034650B90121084A117006E0094B04E0084B02E0084B00E0084B1846F8BD00BF307B02083C730208317B0208267B0208417B0208010016000200160081
:401D0000FF00160070B439B9144B1B681B689968CE7F00231D460EE0104B1B681B68D968CE7FF6E7CA5C52B10133CC5C1B2C01D0134400E00125B34201D2002DF2D05DB1C6
:401D400001338279CA54002204E0D4180134855C0D550132052AF8D970BC70473C73020870B504460AF0B8FA054620BB134B1968086A228902EB82029300143B03445A6844
:401D800012F0007F17D0E67B1B695A68CB69D21A06EB8606B318A28821680948184400F06AFDE37B074AD35C012B04D1064A137843F002031370284670BD00BF3C7302086D
:401DC000347B02082C7B0208277B020830B587B002891A4B1B685B699B889A4229D1044601AB07C883E807000022ADF81020A289ADF8122040228DF814201846FFF7B0FF33
:401E0000054680B923681B7803F002039BB22BB10B4B1B6821460B48984704E0084B1B68214609489847094A137803F0FE03137000E00025284607B030BD00BF3C73020838
:401E40004073020805000100060001003C7B02084288531E9BB2172B1AD84178D1B910B40F4B1868046A02EB82029300143B23445A6812F0007F0FD01B695A68C369D31A91
:401E800001EB81011944074B5B5A1380002004E0012070470120704700205DF8044B70473C730208347B020800B583B00023ADF804308389ADF800300389ADF802301223BF
:401EC0008DF80430084B1B7813F0010F09D129B18DF80510684609F029FB02E0C06809F045FB03B05DF804FB3C7B020810B4044688B10023194606E0114A52F8232094429F
:401F000000D1012101330E4A127A934206D20029F2D0002003E000210A4800E0002058B951B9074B1B7A012B05D8054A42F823400133137200E004485DF8044B704700BF92
:401F4000487B0208010016000300160070B506460D460020044606E0084B53F824302946304698470134054B1B7A9C4204D2044B1B7813F0010FEFD170BD00BF487B02085E
:401F80003C7B020883792BB100207047C25C32B9013300E00023052BF8D9002070470120704700BF70B58CB004460D46C04A137843F00103137044F20803984200F04C82DC
:401FC0003CD842F20403984200F0F18019D841F20203984200F0188108D8B0F5805F76D041F20103984200F00C8155E341F20303984200F0428141F20403984200F04783C7
:402000004AE343F2190398425BD00AD843F20103984200F0BA8043F21203984200F0B5803AE344F20603984200F01A8200F2CD8144F20403984200F033812DE345F20C03A2
:40204000984200F0DB821BD845F20103984200F046820AD844F20A03984200F0B38144F21003984200F0B18116E345F20203984200F07F8245F20303984200F093820BE307
:4020800045F21003984200F0F4820AD845F20E03984200F0E88245F20F03984200F0E682FAE245F21703984200F0E98246F20103984200F0118245F21403984240F0EC82FC
:4020C000DAE27B4A137803F0FE031370E4E2794B1E683046FFF756FF60B1304606F078FF744E00213068FFF70DFE01213068FFF709FE37E0704B1A68936A1B791BB34FF073
:40210000B05191F8043603F03F0391F8050600F03F0043EA801391F8030600F01F0043EA003391F8001601F07F0143EA4143126B1370614A1168096BC3F3072048701268BA
:40214000126B1B0C93705C4E3368186B06F040FF33680021186BFFF7D5FD33680121186BFFF7D0FD544B1B68986A023007F03CFA0023059306933F238DF8143005A806F00C
:402180004BFF02224D4B1A7086E200234B4A13704B4A13704B4A13700A20FFF791FA43F212039C4240F07882FFF792FB74E2464B1B6813F0010F40F06F820023ADF8143092
:4021C0008DF816303C4E33689B6A93F900308DF8143005A806F03AFF33689B6A93F901308DF8143001238DF81530FF238DF8163005A806F02BFF344A136843F00103136018
:402200004AE2FFF7A3FE47E24978304B1B88ADF81430002319E02E4A32F81320ADF808209DF8092012B92B48825C00E00022012A0AD9274A12F81320914205D1244A32F853
:402240001330ADF8143002E00133002BE3D09DF81530FF2B05D104D140F2CA311E48FFF749FABDF81430ADF82030ADF81C30C3F307232978194AD1540EE20B78002B40F00D
:402280000B820B7A33B9164B0022DA809A80154A1A604B60064A137803F0FE031370FBE149790A4B1B88ADF81430002336E000BF3C7B0208384402083C730208287B02082F
:4022C000317B020870730208447B0208C4300810247B0208307B0208C8300810407B02087873020800710208B34A32F81320ADF80C209DF80D2012B9B048825C00E0002233
:40230000012A0AD9AC4A12F81320914205D1AA4A32F81330ADF8143002E00133002BE3D09DF81530FF2B05D104D140F2CA31A448FFF7E0F9BDF81430ADF82430ADF8143003
:40234000C3F3072369789F4AD154EB78002B40F0A38169799C4B1B88ADF81430002319E0954A32F81320ADF810209DF8112012B99248825C00E00022012A0AD98E4A12F8EF
:402380001320914205D18C4A32F81330ADF8143002E00133002BE3D09DF81530FF2B05D104D140F2CA318648FFF7A4F9BDF81430ADF82830ADF81430C3F307230121834A36
:4023C000D15469E1FFF7C2FD66E12B78002B3FD1AB78012B02D100227D4B1A7069787A4B1B88ADF81030002319E0734A32F81320ADF814209DF8152012B97048825C00E0B6
:402400000022012A0AD96C4A12F81320914205D1694A32F81330ADF8103002E00133002BE3D09DF81130FF2B05D104D140F2CA316348FFF75FF9BDF81030ADF82C30ADF86B
:402440001030C3F30723FF2B02D0A978614AD1540222614B1A701FE102225F4B1A701BE1FFF774FD5D4B1B7813F0010F00F01481574B1B78012B03D10222554B1A700BE1F8
:40248000032B03D10022524B1A7005E1022B40F0038100224E4B1A70514B1B685B68514A1178C1EBC10203EB42039A79002A00F0F3809B88002B00F0EF804B4B1B78002B7C
:4024C00040F0EA800120FFF78DFB002840F0E48001223F4B1A70DFE0FFF738FDDCE00B88ADF800309DF801301BB90221334AD15405E023B940F286313148FFF7FBF86A7855
:4025000029882D4B23F812106B780021374AD15403EB8301364E8819314B1B681B692A7802EB820202F64842134453F8022F8A511B790371687800EB800004213044FFF74C
:40254000CDFA6B7803EB830333441B7998420BD0284B1B680021284898476B7803EB8303981900229A51027129462046FFF7EEFC92E00B88ADF804309DF805301BB900213D
:402580000E4AD15405E023B940F286310C48FFF7B1F86B7800210D4AD15429462046FFF7D5FC79E00B88ADF814301723ADF8163005A808F0C7FF6FE0247B0208307B0208D3
:4025C000C83008102C7B0208C430081070730208317B020874730208287B02083C7B02083C730208267B0208417B0208407B0208347B020840730208040001000846FFF75E
:40260000E5FB014620B929462046FFF79FFC01462846FFF749FC294B1B7813F0110F04D0274B1B682946204698472A89234B1B7813F0010F11D0531E9BB2172B0DD91223DA
:402640008DF81830ADF81620AB89ADF8143001238DF8193005A808F069FF184A137803F0FE03137018E0FFF771FC15E0FFF76EFC12E0FFF76BFC0FE0FFF768FC0CE00846B0
:40268000FFF7E6FB29462046FFF760FC04E00D4A137843F001031370084B1B7813F0110F09D0064A137803F0FE031370044B1B682946204698470CB070BD00BF3C7B020879
:4026C00040730208277B020830B589B00023069307938389ADF81830274B1B68002B44D00189254B5B681A68D38899423FD1234B1B68196A528802EB82029300143B0B445B
:402700005B6813F4801F29D0044601AB07C883E807000022ADF81020A289ADF8122040228DF814201846FFF71BFB0546B8B900238DF81A308DF81B30079323681B7813F049
:40274000010F05D00C4B1B6806A90D48984706E0094B1B6806A90B48984700E006250A4A137803F0FE03137002E0002500E00025284609B030BD00BF847302083C7302081F
:4027800032000100330001003C7B0208B0F5803F09D208B583B245F20C02934205D10846FFF792FF08BD00207047002008BD00BF50B110B5064C60600648FFF797FB636842
:4027C0005B681BB1236010BD0348704710BD00BF847302088D27081001001600E8B910B586B0E1B9012A1CD1197864291BD8002102910391049105910193ADF808200B4BFF
:402800005B681B6803EBC0046388ADF80C3001A8FFF7A6FA40B1064806E005487047044802E0034800E0024806B010BD84730208010016000020704730B108B5034A1060FC
:402840000348FFF753FB08BD024870478C730208352808100100160010B501390244904207D010F8013B11F8014FA342F7D0181B10BD002010BD10B5431E0A44914204D02F
:4028800011F8014B03F8014FF8E710BD02440346934202D003F8011BFAE7704710B5034642B111F8014B03F8014B013A002CF7D11A4400E010BD934202D003F8014BFAE741
:4028C00010BD0000F8B500BFF8BC08BC9E467047F8B500BFF8BC08BC9E4670470300000001000000010000000000000005036000040000000100000000000000010000009A
:4029000006046000080000007C7202088D0308104D61696E200D200A20000000537461636B204F6E200D200A20000000446576696365206C696E6B20636F6E6E65637465B2
:4029400064200D200A20000054696D656F7574200D200A2000000000436173652033200D200A2000436173652037200D200A2000526561642D72657100000000446566612D
:40298000756C74200D200A2000000000000000000100180001000028010000000B0000000018000000000000020003280100020003000000002A0000000000000300002A5B
:4029C00001000201030000000B00000000430208040003280100020005000000012A0000000000000500012A01000201050000000200000008430208060003280100020052
:402A000007000000A62A0000000000000700A62A01000201070000000100000010430208080003280100020009000000042A0000000000000900042A0100020109000000CE
:402A400008000000184302080A000328010002000B000000C92A0000000000000B00C92A010002010B00000001000000204302080C000028010000000F00000001180000DB
:402A8000000000000D000328010020000F000000052A0000000000000E00052A000020010F00000004000000284302080F00022901010A030F0000000200000030430208C2
:402AC0001000002801000000140000000F18000000000000110003280100020014000000192A0000000000001200192A010002011400000001000000384302081300042999
:402B0000010002011300000007000000404302081400022901010A0314000000020000004843020815000028010000081800000010000000504302081600032801000200A2
:402B40001800000010000000584302081700F507010002091800000002000000604302081800012901000201180000001200000068430208DEA0A70E9B1B25AB66431FBE3E
:402B800085DD0F7F088B740373100A921942389FF5073DCA010003000500090007000B000C000E000F00000010001200130014001500170018000000000000000D000000E0
:402BC0000800000000020000000000000000000000000000000000000000000000000000000000000B0000000000000000000000000000000000000047656E657261746595
:402C0000645F536F757263655C50536F43365C70646C5C647269766572735C7065726970686572616C5C737973696E745C63795F737973696E742E630000000047656E65A3
:402C400072617465645F536F757263655C50536F43365C70646C5C647269766572735C7065726970686572616C5C6970635C63795F6970635F6472762E68000047656E65E3
:402C800072617465645F536F757263655C50536F43365C70646C5C647269766572735C7065726970686572616C5C6970635C63795F6970635F6472762E63000047656E65A8
:402CC00072617465645F536F757263655C50536F43365C70646C5C647269766572735C7065726970686572616C5C6970635C63795F6970635F706970652E630047656E6506
:402D000072617465645F536F757263655C50536F43365C70646C5C647269766572735C7065726970686572616C5C7363625C63795F7363625F756172742E680047656E65BA
:402D400072617465645F536F757263655C50536F43365C70646C5C647269766572735C7065726970686572616C5C7363625C63795F7363625F636F6D6D6F6E2E680000002C
:402D800047656E6572617465645F536F757263655C50536F43365C70646C5C647269766572735C7065726970686572616C5C7363625C63795F7363625F756172742E63003F
:402DC00047656E6572617465645F536F757263655C50536F43365C70646C5C647269766572732F7065726970686572616C2F6970632F63795F6970635F6472762E680000E9
:402E000047656E6572617465645F536F757263655C50536F43365C70646C5C647269766572735C7065726970686572616C5C737973706D5C63795F737973706D2E630000D1
:402E40000000204000002440000000400000000000002340000030400000314000009F40000022400000104002020202020202020210101D800017007500FF0306020636D8
:402E800004102000000000007FC0000000040000000000000019324B647D00804000080B100000000000FF012002001F00800004FF081018001000140018001C4044484CDD
:402EC00050000000081000000800000004000000041000000012000004210000002100000016000040114002C41300138013A013200000001C000000000021400000254017
:402F0000000001400000344000002440000031400000324000001F410000234000001140010101010101010101101010800019005500F0000501053B04101C0101000000F2
:402F40000FC000000004000001010101011D3A57789600082000101208000000001F00000010000F002000023F06080E00080009000A000B24282C3034000000100000009E
:402F80009000000088000000080000008000000004F0000000F00000400200002005A000D00100018001A001200000001000000024000300300001002800020024000200BA
:402FC0000C00010000316253C4F5A697B988DBEA7D4C1F2E4372211087B6E5D4FACB98A93E0F5C6D86B7E4D5427320113F0E5D6CFBCA99A8C5F4A796013063527C4D1E2FEA
:40300000B889DAEB3D0C5F6EF9C89BAA84B5E6D7407122137E4F1C2DBA8BD8E9C7F6A59403326150BB8AD9E87F4E1D2C02336051C6F7A495F8C99AAB3C0D5E6F41702312A0
:4030400085B4E7D67A4B1829BE8FDCEDC3F2A1900736655439085B6AFDCC9FAE80B1E2D344752617FCCD9EAF38095A6B4574271681B0E3D2BF8EDDEC7B4A19280637645560
:40308000C2F3A0914776251483B2E1D0FECF9CAD3A0B586904356657C0F1A293BD8CDFEE79481B2AC1F0A3920534675678491A2BBC8DDEEF82B3E0D1467724153B0A596860
:4030C000FFCE9DACFFFF000047656E6572617465645F536F757263655C50536F43365C70646C5C6D6964646C65776172655C626C655C63795F626C655F6761702E680000DA
:40310000000404000104080002041400030C200004042C00050648004D7A0810E17E0810E17E0810E17E0810E17E0810596408102D650810E17E0810E17E0810E17E08100B
:40314000E17E0810E17E0810E17E0810E17E0810E17E0810E17E0810E17E0810757C0810C17C0810F9720810FD740810D97808105553081000000000843508102435081039
:403180000800000045EB081000000000F4330810403308100F0000000000000000000000000000000000000000000000012000003D8A081006200000818B08100720000075
:4031C000518A081008200000418B081009200000418C08100A2000003D8908100B200000058C08100C200000CD8B08101020000099890810112000001989081012200000C3
:403200001D8B081014200000B98B081015200000B1890810172000006D8908100E2000009D890810ACFD0000138E0810ADFD0000078D0810A0FD00007D8E0810A1FD0000F0
:40324000678D0810A2FD0000A38D0810A5FD0000738F0810A6FD0000D78E0810A8FD0000D98C0810A9FD0000AF8C0810AAFD0000CB8D0810ABFD0000398F0810AFFD000019
:40328000C98D0810C3FD0000258F0810B0FD00009D8E0810B2FD0000EB8E081005140000F78908102D0C0000D18A08107B0C00007F8A08107C0C0000758C081027200F20C8
:4032C00028201020292010202B200A202C200B202D200D202E200C204E20172000000100010000010001020203000200000000000202010002000001000100050100050235
:403300000203000200000000000205010005000051E30810B9E40810C1E3081001010B0102028102820503040403840906090709080909090A09050A0C0B0D0D0E0E000054
:40334000010000000100000000000000020000000400000002000000030000000700000005000000040000000A00000008000000050000000C0000000B00000006000000FC
:403380000E0000000D00000007000000100000000F0000000800000013000000110000000900000016000000140000000A0000001700000017000000FF000000180000001E
:4033C000180000000B0000001B000000190000000C0000001D0000001C0000000D0000001F0000001E0000000E0000002100000020000000010000005D080910FEFFFFFF1E
:4034000029070910010000005D08091006000000210A0910F8FFFFFF290709101800120045070910A000000C9D04091047FFEDFB29070910E8000C00950609100001200007
:40344000A50509101FFED3FF29070910A000000CBD0E09105FFFFFFB2907091000020000150D0910FFFDFFFF29070910000C0000A5030910FFF3FFFF29070910000A000090
:40348000490609100100000069060910FEF7FFFF2907091000200000E904091000400000C50D0910FF9FFFFF29070910FFFFFFFF2F070910FFFFFFFF9F0309100080000027
:4034C000810309100000010063030910FF7FFEFF290709100080010027030910FF7FFEFF290709100000800309030910FFFF7FFC2907091000801F0A45030910FF7FE0F59C
:4035000029070910000000000000000000000000000000008700000000000000000000000000000081000000000000000000000082000000010000000100000001000000B5
:403540000200000002000000020000000400000003000000030000000600000005000000F10000000700000007000000F20000000900000008000000FF0000000A00000025
:403580000A000000020000004D130910010000004D1309100E0000004112091002000000851209100C0000002912091002000000C51209100C000000291209100E00000020
:4035C0004D1309100C0000008913091002000000291209100E000000CD130910000000002DE9F05F00250746041D00F1180840682E4E4FF6FF7A88B1616879B180070DD1B8
:40360000207A80070AD198F8300038B12849084600F0A2FB10EA0A0002D044E0354642E02289A37ADFF88C90206858B1C9F800000025A9F80420A9F80650A9F808302946CC
:40364000FFF724F9A07A801D00F0FF0B5946606800F072F8050021D1404601F087F905001CD1E06820B1384600F0CAFA050015D1B9F80400B9F80610884206D3401A80B204
:40368000594600F0A9FE20B100E05046354628B109E0A07A801DC0B200F0C4F900F0D8F90549012008702846BDE8F09F0100160049390810907302083C4402080348007825
:4036C000012801D100F018BD704700003C44020810B500F073FB0449002008608880C88008810249087010BD907302083C44020870B5044600208A0703D001F00302891A45
:40370000091D084B89B2DA889E885518B54206D81D682A442260DA881144D98070BD024870BD000090730208030016000148008970470000907302082DE9F84705460C4634
:403740000020890000908A466846FFF7D1FF07004BD12748009B0022036017E003F82220062A08D2234803EB820100EB820046784E70408807E005EB8200183803EB820135
:4037800086784E700088521C4880D2B2A242E5D300251EE005F1010909F0FF0015E003EB850203EB8001B2F802C04E88B4450AD991F80180A1F802C092F801C081F801C073
:4037C000568082F80180401CC0B2A042E7D309F0FF05A542DED347B951466846FFF788FF070002D10449009808603846BDE8F887404402080031081044440208F0B500233D
:4038000019E05A1C00EB830612E030F8235030F82240A5420BD2778820F8234000EB8204B4F802C0A6F802C020F822506780521C8A42EAD35B1C8B42E3D3F0BD0048704703
:403840009C730208FFF73ABF10B5022401F032F810B100F03FFF00B90124204610BD05207047000010B5002428B132220349FFF702F8204610BD024810BD00009C730208A9
:4038800001001600F8B506004FF000008DF8000006F1040407D020892081304601F0E2F8050002D012E01248F8BDA17A6A46606801F0B2F8050009D1E06838B1B6F8440011
:4038C000000903D0304600F0FBF905462089208165B93046FFF784FE050007D1304600F0B5FF0546A17A6068FFF788FF2846F8BD0100160038B504004FF00000ADF8000040
:4039000008D0A18D090A05D1617A102902D8E179102901D90A4838BDE0856946204600F0D5FF0500E08DBDF800100844E08504D1322221460348FEF79EFF284638BD000000
:40394000010016009C73020870470000002809D005494A68002A05D0011F087852F8200000F0E4BC704700004044020810B50446FFF7DCFEC0B2801DA0420BD306484068DD
:4039800040B150F8240000F03DFC002801D000F8044B10BD002010BD40440208F8B516460D460446FFF7C2FEC0B2801DA04203D24FF0FF300090F8BDB2B2E9B2684600F087
:4039C0004BFC0099481C03D00248406840F824100098F8BD404402082DE9F0410746FFF7A5FE801D0B49C6B2002005460C680CE0617839B16188B94202D32078FFF7B6FF57
:403A0000002804D1241D6D1CEDB2B542F0D3BDE8F081000040440208002801D0FFF796BF7047000070B506460848002504680AE0617829B162882078121D0023FFF7AEFF61
:403A4000241D6D1CEDB2B542F2D370BD404402081CB50024142001908DF800402346064A694606480BF000FE04480068401C01D14FF6FF7420461CBDB93A081048440208BE
:403A80000EB50C4A0146002312684FF6FF7004290DD009290AD109200093ADF80800ADF80A30694610460BF0DCFD80B20EBD04200093F2E74844020870B5D0E900544689F9
:403AC00000890C282DD2DFE800F02C2C0606112C2C152C191C27E0B23246294608F09CFFE0B23246294600F037FD1AE000200BF0C3FA16E02878FEF767F812E000F00AFE9A
:403B00000FE0E8B2022C02D008F0C2FC09E0FF2807D002F073FF04E02846022C03D008F08FFD002070BD03F07BFAFAE70148006800F0CABA484402082DE9F0411F4F0026F8
:403B4000386D60B1796D51B14218891E12F8024C0022FDF7A9FF844201D0194E2BE0002505EB850307EB8304606800B357F82310E9B16289D7F854C0624518D294F80CC023
:403B80001CF0090F02D0FEF776FE0AE009780170606831B1628957F82310083A08310830F1E723691BB10122207B114698476D1CADB2042DD4D33046BDE8F081D073020843
:403BC000FFFF1600F0B5C10701D040F008000B4CFF2184F85D10002101250E4601EB810204EB820205FA01F3177B03409F4200D11681491CC9B20429F0D3F0BDD073020883
:403C000070B5134908B3B0F84410124CC1F30711002584F85C10016921654069C4E91505FF2684F85D6028464FF6FF7300EB800204EB8201401C4B8144F822500D610E738E
:403C4000C0B20D810428F1D30021084670BD000001001600D073020810B5174B48B3417839B3002202E04908521CD2B20029FAD102EB8201114A02EB810111F8084CFF2C90
:403C800017D103787BB1438821F80A3C946D136D234441F8143C4488936D2344936582680AB141F8042C103942780A72406800230860184610BD000001001600D073020860
:403CC000F0B5B0F84420234C46690021C2F30712D2B3D3070BD090F8203003EBC30505EB431501EB850101EB031101F14001530715D5C37F2C2513FB05F55FEA857C4FF0E9
:403D00000C0723D003EB430505EBC30307EB830505F00305C5EB830505F11005294492070ED590F821004FF00803C20095070FD003EBC00202F00302C2EBC0020C32114415
:403D4000891C8E4200D300242046F0BD0C35E5E70832F4E7010016000F4A10B5002313600E4A13600E4B18600E4801600E49012008600E49086000020E4990600C480860E0
:403D80000D4914300860A0F58A70506000F0D0F800F008FA002010BD644402084C440208784402087C4402086844020858440208307502085C440208704402080020704705
:403DC00010B501004FF0000010D0094B1A689C681144A14209D25868196010448A0704D001F00302891A091D196010BD002010BD4C4402082DE9F04102461A4F0020102526
:403E00003B1F4FF0FF38444639681B6807E000EB800605EB86068E59761C1ED0401C9842F5D3601C16D004EB84060C2000EB86000A5002EB42008000FFF7C2FF396841F8B9
:403E4000260060B1396805EB8602002088507868401C78602046BDE8F0810446E1E74046F9E700005C4402082DE9F0410F464FF0FF36002821DB2249096888421DD8E7B1E1
:403E8000DFF87C8000EB800508F104081020D8F8001000EB85040859401C0ED0FDF732FED8F800000C2202EB8502015950F802C04346614504DBFDF71FFE3046BDE8F081F6
:403EC000082101EB8506815950F8250001EB410500EB85003D6805607D684560BD6885601868491C82588A4200D10021815118680159491C0151FDF7FFFD0020DEE70000E6
:403F000058440208002803DB08490968884202D94FF0FF307047054900EB8000091D1022096802EB8000085870470000584402082DE9F0430020134A0427441E03464FF0C2
:403F4000080C1025A2F10409506014E000EB8001166807EB8108401C46F8083016680CEB810846F80830166805EB810846F80840166846F82130D9F800108842E6D30020FB
:403F8000BDE8F0835C4402082DE9F0410E464FF0FF3700284CDB29490968884248D8EEB3DFF8988000EB800408F104081020D8F8001000EB84054859401C39D0FDF7A2FDF2
:403FC000D8F800004346415949B3042101EB8407C25950F8240002EB420100EB8100521CD0F800C0C6F800C0D0F804C0C6F804C08068B060186850F8240000EB8100002120
:404000000160416081600C21186801EB84014158914200D10022C251186801E008E009E04159491E4151FDF767FD0020BDE8F0813846FBE7FDF760FDFAE700005844020882
:404040002DE9F0470D4601001E4C4FF00000089E80464FF0FF37206010D0606885420DD262B15EB1642E09D804F10C09C5EBC501D9F8000000EB8104207A10B13846BDE873
:40408000F0870120226020721846FFF7B3FE6060401C13D06681A6812761676199F80410A94201D289F8045041460B4661F30F030A46284600F052F82846E0E784F808804B
:4040C000DCE700006444020810B5002810DB0949496888420CD80749C0EBC0000C31096801EB80004068FFF70DFF08B1002010BD012010BD64440208FEB5174E4FF0FF3770
:404100003D4600240DE03068C4EBC40100EB8100017A29B14068FFF7F5FE08B1254603E0641C3079A042EEDA681C13D03068C5EBC50100EB8104FDF7E5FC69466068FFF78C
:4041400023FF0546FDF7D8FC002DD9D1216868468847D5E7FEBD00007044020838B50024009400F001F838BD1FB500220C49541E00280A6012DB496888420FD80849C0EBDB
:40418000C0000C31096801EB800001A94068FFF76BFE401C02D0002004B010BD2046FBE764440208F0B50021154A4E1EA2F10C0711710B46BE601EE0C1EBC1000425146873
:4041C00005EB800566511468082505EB800544F820301468635514680C2505EB8005635314680A2505EB800563531825146805EB8000491C265078688142DDD30020F0BDE3
:404200007044020838B5041E4FF00000009012DB1048007884420EDA0E4D0C35286800EB0411096839B1042101EB04110844694600F047F908B1002038BDFDF763FC0F214E
:40424000286801EB0411425C521E4254FDF754FC009838BD804402082DE9F74F8A46002500996C1ED21C0C604FF6FC71DFF8B88002EA0107A8F10C0128460A78D8F8001071
:4042800005E001EB00131B687BB1401CC0B29042F7D3601C2CD0042000EB041B01EB0B00514600F0FDF818BB01E00446F1E7D8F800000C2101EB041147520E22D8F800106B
:4042C00002EB041207FB0AF001F802A00F22D8F8001002EB041201F802A000F0ABF8D8F8001001EB0411086010B1814600260EE0012516E0D8F8001001EB0B00494600F08B
:40430000FAF808B1012500E0B944761CF6B25645F0D335B90098046098F80410491C88F804102846BDE8FE8F8C440208F8B54FF000070D46041EADF800703ADB25480078BF
:40434000844236DADFF88CC00CF10C0CDCF8001001EB0410006860B30C2202EB04128E5A0E2202EB041285428B5C06FB030220D395421ED2002205E002FB060EAE4504D037
:40438000521CD2B29A42F7D39FB1042000EB0417C81966466A46294600F0C7F848B9BDF80000012807D030682946384400F0A3F818B10120F8BD0020F8BDFDF7A3FB0F2196
:4043C000306801EB0411425C521C4254FDF794FBF1E70000804402082DE9F0410D46002400F03CF8002821D11149002201F10C034A600C210E264FF00F0E14E01F6801EB12
:40440000041C07EB04173A601F6827F80C201F6806EB041C07F80C200EEB041C1F68641CE4B207F80C20AC42E8D31A71BDE8F0818044020800280BD0074AC01C20F00301E3
:40444000506853880144994203D8936851601844704700207047000080440208F8B5064600200E4D00900C01297021466846FFF73FF958B905F10C0100980860301B001FDF
:4044800084B221466846FFF733F910B14FF6FF70F8BD6C800098A8600020F8BD8044020830B50D4604000AD0A800FFF7C3FF606028B125704FF0FF306080002030BD012016
:4044C00030BD70B50D46040004D01DB1B4F90200002801DA012070BDFDF714FBB4F90210606850F8210028606088401E6080FDF703FB002070BD70B50D46040006D02DB1A1
:404500002078B4F90210401E814201DB012070BDFDF7F8FA6088401C00B26080616841F82050FDF7E9FA002070BD70B500231D4610B1B0F902400AE0012070BD466856F8FC
:4045400023608E4201D1012503E05B1CDBB29C42F4DA1570002070BD70B586B015460E460446182200216846FEF790F900238DF800308DF80140ADF804506846029600F0E3
:4045800023F906B070BD00000EB501890091407801900A20ADF808000020ADF80A000348694600680BF05DF80EBD0000484402080EB541680091417801910221ADF80810F4
:4045C0000089ADF80A000348694600680BF049F80EBD00004844020800F0DEB802490020488000F071B80000944402082DE9F041074621480125002405704FF6FF75012F2B
:4046000002D0022F2FD10DE0477082801B4A128842F4807282818160174800F0D5F810BB2C4620E0164E012B20D0B6F800C0022B624492B2328010D081607188091D8A420A
:4046400011D1104947708280098841F400718181094800F0B9F818B103E009684161ECE72C46002030802046BDE8F0814A887280096801610420F5E7607502088045020886
:4046800094440208FC44020870B504460D4600EB4400C20000212846FEF7F8F8074A0020074914711560907150710648FDF730FA08B1002070BD012070BD00009844020884
:4046C00089450810B145081001491420FFF7DCBF7875020810B5FDF707FA06494A7989798A4201D1012400E00024FDF701FA204610BD00009844020805494879401CC0B246
:4047000048710A79904201D100204871704700009844020810B5FDF7F5F90B4948798A7990420DD0096800EB400001EBC000AFF21B020649FDF706FA10B10920FFF7A0F9F3
:40474000BDE81040FDF7D8B998440208F946081070B5104C0146A2796379501CC0B2834216D02579854200D193B1206802EB420200EBC2001822FEF77EF8A079401CC0B2CE
:40478000A0712179884201D10020A071012070BD002070BD9844020870B5FDF7A5F9094C0546217901EB4100C20000212068FEF76DF80021A17161712846BDE87040FDF761
:4047C00097B900009844020810B5FFF7C1FF0446FFF7A0FF204610BD10B5124802F03AFC68B9114802F01EF848B911490F480860084600F085FA10B90E4808F0F5FF040047
:404800000ED1FFF799F90404240C04D0002141F2050000F089F900214FF4805000F084F9204610BDDD5F08108B63081071970810A84402084993081010B504F0C1FB03F09A
:404840000DFDBDE8104004F035BC000070B50546041D00F1180600F0ADF9144829680160616809888180A17A03290FD361688979017261684989C1F34701417261688989E9
:40488000C180B179817296F83010C1726168098A818100F091F8002806D100F0A5F8002802D1034A0121117070BD000058770208A044020810B502F097F9012803D1FFF71D
:4048C00035F9012800D0002010BD00002DE9F0411C4D0C46060005D0DFF86C8098F8000018B16D1C2846BDE8F081B08D08F00EFA308808F011FA0500F4D1304609F044FE2B
:404900000746304603F074FB0744304601F028F8384400F634102080304605F08CFB21880844208096F83010C1EBC10100EBC1002080304601F00CFC218808442080A8F877
:404940000400CFE701001600A044020810B505F00DFB03F05BFB00F0D3FF09F042FE01F0B3FBBDE8104008F0A3B9000010B5040010481DD0204608F0A3F9002818D120460B
:4049800001F0B0FB002813D1204609F035FE00280ED1204600F0BCFF002809D1204603F03BFB002804D12046BDE8104005F0EABA10BD000001001600094810B50949C07A9D
:4049C000887000F081FF064801F0CCFB002806D103F034FBBDE81040014805F00DBB10BD58770208A044020810B500220849094800F032FF10F0FF0008D00022044905485C
:404A000000F02AFFBDE8104004F014BE10BD0000D9470810DD860810F0B5002635461670334616E030F82340082C0AD900EB83077F8837B1083C20F823401478641C147092
:404A400005E053B100EB830420F8235065805B1CDBB28B42E6D33046F0BD014EFBE7000001001600F0B52E4C031D0020A188247802460CB12B48F0BD2A4D1C68083D4CB1F0
:404A80001F898F4206D3596821B100244FF0020C9E7A39E02846F0BD0CEB8203CB5A03B331F822E0BEF1000F2AD00EFB03439CB2052A32D2DFE802F0030C11161E00B1F894
:404AC00000E08B78BEF1230FE4D3032BE2D317E08B8833B1302BDDD312E00B890BB1282BD8D30DE08B895BB1233B4FF6BA7E7345D0D205E00B8A002BCCD04B8A012BC9D101
:404B00000028C8D1521CD2B29642C5D8C6EBC60104EB81018F42BDD3F0BD0020F2E70000A044020809001600034A1268002A02D0002800D0104770475877020870B504463F
:404B400005F077FA01F01AFC00F066FE174D012C16D0022C29D11648046800F02BF8FEF7B7FDFFF7F3FEFFF767FE00202870002C1BD0A446BDE87040002143F212006047F0
:404B8000FEF75CFE848DFFF717FF38B9FFF72CFF20B901202870204608F0B8F8BDE87040002143F20100FFF7BFBF70BDA04402085877020803480021016041608160C16053
:404BC000704700005877020801464FF6C05007F0D7BB000008B504218DF8001010B100788DF803000549487808B1401E4870694641F20100FFF798FF08BD0000A0440208C8
:404C0000064910B509780448002903D00220FFF7DBFF002010BD000002001600A044020838B503000B4810D0597800290DD00A4C084D60786D1C042806D201200090074AA6
:404C4000184608F085FB08B1284638BD6178491C617038BD01001600A0440208D54B081030B50C46054600F00DF8002806D1044A6978126802EB0111C988218030BD000004
:404C8000AC4402080B4B024642F6137051781B7899420DD2084B1B6803EB01110B7A6FEA03039B0704D4127809788A4200D1002070470000A2440208AC44020810B50A49D6
:404CC0000A4B027809781B68491EC9B203EB01142478A24202D14170002010BD0029F3D14FF6FF7010BD0000A2440208AC4402080249096801EB0010807B7047AC4402084F
:404D000042F6117138B1006828B105490A6822B142F61470704708467047086000207047B04402082DE9F74F84B0154604980E4660B1152E05D01E2E0BD9D22E09D0522EBA
:404D400007D042F6127007B0BDE8F08F42F61170F9E700200390049890F80180FF208DF808000498FFF78EFF07002ED1DFF854A542F6147B1B2E0CD01D2E0AD0F0070BD052
:404D8000012E06D0DAF8001001EB0810007BB0421AD1F00703D00FE01E2EF3D0F9E71E2E14D0DAF8001001EB0810407B20B1522E0CD0D22E08D109E01D2E07D1DAF8001043
:404DC00001EB0810407B08B15F46D6E0012E20D0DAF8001001EB0810C088001DFEF7FCFD040018D002214FF0010942F616700F2E75D013DC4FF005024FF0030729D2DFE8B0
:404E000006F0282BFB48FA54F971F880F78FF685F5000920E2E742F60577AEE0182E6FD009DCA6F11002082A13D2DFE802F0E7B5FDE81212EBEB1E2E7ED006DC192E7BD020
:404E40001B2E01D01D2E04D1EEE0522E75D0D22E74D042F612778DE0E878042809D0DAF80030A97803EB0810007B401E81420ED105E0DAF8001001EB0810007B38B1A8789B
:404E800060712888A071000AE071E878F7E05F4670E02988172901D207466BE0ADF8067028886071000AA07144E02879012817D01027ADF8061028796071EA88BDF8063030
:404EC000BF1C201D7A4318442968FDF7D4FCBDF80600E98807FB0100ADF806002AE050E00227E6E7ADF80690A88829688200601DFDF7C1FCBDF80600A98800EB8100EBE74C
:404F0000D0E1ADF80610A888801C5CE0286808B1A88828B9012003900020ADF806900090434601222146284600F0EEFB070026D00398F8B1267102E061E075E076E10020E3
:404F40008DF80A008DF80960304600F09FFA04998DF808006A460988ADF80410BDF806100094091DADF806100146002002F0D2FF070002D02046FEF74FFD3846E3E6E888F0
:404F80009DE1ADF80690AA88601D2968FDF773FCBDF80600A988AFE0EA88002A3FF47CAFAA88002AFAD0DAF8007007EB0813DB885B1E9A42BFF670AF2A68002AEED0ADF800
:404FC0000610A888001DA8806071AA88E888BDF806304243201D18442968FDF74CFCBDF80600A988EA8801FB020075E7DBE0BFE0B5E083E047E033E021E003E0DEE0ADF852
:40500000069097E729890029C8D0ADF80690221D288909F80200BDF80670631D010AF954BDF80600801C4EE0434601222146284600F046FB07009DD1E888C01C4CE72988DC
:405040001729FFF429AFADF8067028886071000AA071DAF80020298802EB0810418069E7298800299AD06B88002B97D099423FF613AF6171080AA0716888E071000A207248
:40508000ADF8062056E72A89002A87D06989002984D08A42EBD8ADF80690221D288909F80200BDF80670631D010AF954BDF80670A11D68897854010ABDF80670E01D39541F
:4050C000BDF80600001D81B2ADF80610A8898854BDF80610000AC854BDF806004346801C82B2ADF806202146284600F00DFB0700A1D1BDF80600E9880844EDE629880029A2
:40510000B0D06A88002AADD09142B0D8ADF80690211D288809F80100BDF80670631D020AFA54BDF80670A21D6888B854020ABDF80670E01D3A54BDF80600001D82B2ADF872
:405140000620287D012801D050185EE0A8885054000A67E0022000E010200844BCE62988002992D06171080AA071ADF80670E1E62988002989D0ADF8069028886071000A73
:40518000A071BDF80600221D801C81B2ADF8061068888854010ABDF80620601D1154BDF80600801C98E642462146284600F062FA07009DD1E98809EB41008DE629880029E0
:4051C0009ED06A88002A9BD091429ED8ADF80690201D298809F80010BDF80670631D0A0AFA54BDF80670A21D6988B9540A0ABDF80670E11D7A54BDF80610091D8AB2ADF865
:405200000620297D01290AD010441022291DFDF732FB287DBDF8061001289DD19AE7A9881154080ABDF80610C854F2E7288900283FF411AEADF806902889271D010A09F8BA
:405240000700BDF80620601D1154BDF80600801CADF80600DAF8001001EB0810C0880F3880B2E880A988884200D9E980BDF80600EA8838442968FDF7FEFA2868FEF7CCFBAA
:40528000BDF80600E988084480B2ADF806003844E96801602969416069698160BDF806000C3019E6297811B101297FF4F5ADADF80690221D287809F80200BDF80600401CB9
:4052C0000AE60000AC44020830B50C460546FFF7D9FC002805D1034A6978126802EB01118C7330BDAC440208F0B40E480023122603600D48012401780A48001F172205682A
:40530000491E05EB011046708460C28042808280037343738473F3D1F0BC1721034A042001F0D8BEB0440208A2440208AD54081070470001704700000149002008607047A3
:40534000AC44020801010148FEF7D2B9AC44020870470000044A4079126802EB001080680860002070470000AC4402082DE9F843324E0746457930684FF0000800EB05105D
:405380004FF01209846811F1090F2DD011F1050F05D00C22042914D0082949D136E04078122806D008F038F8316801EB051181F80190316824F0040401EB051181F80D80B3
:4053C00036E04178122906D10092401C3B461C4A1E2107F0BDFF3168787A01EB0511401C487344F0040423E04078122806D008F013F8316801EB051181F80190316824F005
:40540000080401EB051181F80C8011E04178122906D10092401C3B46094A1E2107F098FF3168787A01EB0511401C087344F00804306800EB05108460BDE8F883AC440208D4
:405440004D57081070B5104D04460129286800EB0410816016D140781226122805D007F0DBFF286800EB041046702868012200EB041017218260C1804180818000210173AA
:405480004173827370BD0000AC440208032809D9C10704D01B2804D01D2802D003E01E2801D0F1207047F220704700002DE9F04F85B00646032956D803D1002A53D0002B3E
:4054C00051D04E484FF0FF0A42F6137904784FF001008DF80A008DF804A049488DF805A096F800C0006825460DF10C0BA4F1010400EB041797F80080C44508D1BF68012F9C
:4055000005D08DF8054030788DF8040007E0002CECD1B9F1000F02D0012924D126E0012921D002294CD01078142801D9162805D31E2858D9D22856D0522854D08DF808A0A3
:405540008DF809A00092ADF806309DF808106A46002002F0DFFCA0F53C51123903D1012106200AF065F805B0BDE8F08F6D1E00EB05118968012906D0002DF7D19DF8050081
:40558000FF28F0D0E1E7EAB28DF8052031788DF8041000EB05103178017002211046FFF751FF81208DF808008DF8090003A9304600F0F2FB0720CDF800B0ADF80600DDE715
:4055C000E0B20121FFF73EFF82208DF808008DF8090003A9304600F0DFFB0720CDF800B0ADF80600B1E78DF80900FFF74FFF521C8DF808005B1E0092A5E70000A2440208E8
:40560000AC440208F8B50546447A807A0E46012822D1287A81281FD082281DD076B91E2C0CD0E10702D01D2C0DD005E0522C03D0D22C01D01B2C06D1FF2804D0E00704D071
:405640001B2C04D108E0082103E01E2C04D16FF004012846FFF78AFE05480768002F06D0E888009032462146281D2B68B847F8BDB0440208F0B58788012405683B0019D017
:40568000DFF838E004F1020CDEF8006006EB0216F68866450AD30C4435F8026B26714FEA162666715B1E1FFA8CF4EBD1F91AC1800020F0BD42F61670F0BD0000AC44020892
:4056C0002DE9F0410489CCB1DFF838C08788961CDCF800C037440CEB031C42F62075BCF806C0674507D80A441471240A5471B2B200F00AF805462846BDE8F08142F6167029
:40570000FAE70000AC4402082DE9F0410D468488016804B151B10C4EA718366806EB0313DB889F4206D99B1AC38004E042F61170BDE8F081C480C388A818001D1A46FDF77C
:405740009AF80020F4E70000AC4402082DE9F041184E0446407931684FF0000501EB001042F6177780686FEA0000410701D4691F03E000070DD46FF008012046FFF7F6FDEB
:40578000607A3946401C60722560E5802046FFF739FF6079316801EB00104078122807D007F03AFE61793268122002EB01114870BDE8F081AC44020870B50446C38804C88B
:4057C000042101F051FC05000FD1617AC8070ED01D2912D0522908D0D22906D01B2904D06FF008012046FFF7C1FD284670BD5229FBD0D229F9D01E29F2D00421F2E7000047
:4058000020B10449097801700020704741F2130070470000B444020810B50E4C2078032804D0022802D041F2120010BD09F033FF00F0C8FF07F0CEFA09F02CFFFEF7CCFE3A
:4058400007F080FE00F042F909F082FB0020207010BD0000B444020870B5134D04462878012802D041F2110070BD02202870696009F0F0FE09F05EFB00F00AF907F030FEE4
:4058800009F010FF204606F06FFD040003D107F053FA040002D00120287003E000F024FF09F001FF204670BDB4440208054810B50178022904D103210170406800B18047A9
:4058C000002010BDB444020810B50C4C2078002812D1606009F0C4FE09F0A8FB00F0D0FAFEF77CFE09F0E6FE07F00AFB00F084FF09F0E1FE0120207010BD0000B444020815
:40590000024800218160416070470000BC44020838B5044600200090204600F021F801466846FDF7E5FE002813D10C4B009A5A6094F83010CC070DD001EB810404EBC10142
:40594000032404EA4104C4EB4101091D11440091996038BD1A246143F8E70000BC44020890F83010007A4FF003030844C207C0EBC00013D003EA4002C2EB4000001D82B2C0
:40598000C8070DD001EB810000EBC10003EA4001C1EB4001091D881880B270474000EEE71A204143F7E700002DE9FE4306460D0041F2114066D0002E64D0304600F08AFAF1
:4059C000040023D041F2134741F21448BC4220D0A879022801D003281BD128680090A888ADF80400A8796946801E8DF80600304600F070FA040009D0BC420AD002A96846A3
:405A000007F034FF38B99DF80800307041F2124437E0444530D130781B49C0EBC003AA798868002400EB43039A7132782B68C2EBC20200EB42021360AB88938001F10C0261
:405A400093793278C2EBC20200EB420253733278C2EBC20200EB4200CA6840F8072F0A8A82800878401CC0B2087008490988814207D109F029FE04E0BC4202D1284609F00D
:405A800021FE2046BDE8FE83BC440208B845020830B40C480C4C00220088A368401EC0EBC00103EB410100280A608A808A71C1F80720A1F80B204A73F0DC227030BC09F0B0
:405AC00004BE0000B8450208BC44020809F0FEBD18B5002401468DF800406A46204600F029F8002822D19DF8000000EB800101EBC0020F48416801EB4200427E012A15D132
:405B000044769DF8000000EB800202EBC00001EB4000C0F8064044819DF8000000EB800202EBC00001EB40000460848018BD0000BC440208F0B5144C144D06464FF6FF7085
:405B4000002364682D7811E003EB830707EBC307012E04EB470705D03F7E8F4204D113700020F0BD7F7E27B15B1CDBB2AB42EBD3F0BD03EB830000EBC30004EB40000125D3
:405B800045760176EBE70000BC440208A24402081A2100FB01F2024800214068FCF776BEBC44020838B50D4600218DF80010144601466A460020FFF7BDFF00281AD19DF8B9
:405BC000001001EB810202EBC1030B494A6802EB43012B68CB60AB880B829DF8001001EB810303EBC10102EB41012268C1F81220A288CA8238BD0000BC44020810B538B134
:405C0000174A01781288914205D341F2154010BD41F2114010BD134CC1EBC102A16801EB420300221A609A800378C3EBC30301EB43039A710378C3EBC30301EB430343F859
:405C4000072F9A800378C3EBC30301EB43014A732178491E217009F036FD002010BD0000B8450208BC44020841F2114241B138B10E4B02781B889A4204D341F21540704774
:405C800010467047C2EBC203094A926802EB43035B7B8B710078C0EBC00002EB400050F8072F0A608088888000207047B8450208BC4402082DE9FE434FF0000807460C002C
:405CC0008DF80080CDF8048041F21140CDF8088008D0002F06D02E4839780088814203D341F21540BDE8FE836A460020FFF722FF284D06004FF001091CD19DF8000006225D
:405D000000EB800101EBC000696801EB4001891D01A8FCF7A1FD68B19DF8000000EB800101EBC000696801EB4000D0F806102160408927E021463846FFF796FF0646A079A6
:405D4000022822D30FD19DF8000000EB800101EBC000696801EB4000C1682160008AA08084F8068011E003280FD19DF8000000EB800101EBC000696801EB4000D0F8121094
:405D80002160C08AA08084F806903046AAE70000B8450208BC44020810B5024641F2114000291DD0002A1BD010481378048841F21540A34214D2C3EBC3040D4B9B6803EB92
:405DC0004404A4798C711278C2EBC20203EB420213680B6092888A8000228B5C0BB1002010BD521CD2B2062AF7D310BDB8450208BC440208FEB506464FF000008DF80000CB
:405E0000019002900C0041F2114008D0002E06D0194831780088814202D341F21540FEBD6A460020FFF786FE05001ED19DF80020124F02EB820000EBC2007968062201EB01
:405E4000400101A8FCF708FD78B19DF8000000EB800101EBC000796801EB4000016821608088A0800120A07104E021463046FFF793FF05462846FEBDB8450208BC4402084B
:405E800000B591B06846FDF7EDFCBDF82C00C00617D508208DF8350001208DF834009DF830009DF808100844C0EBC0004000ADF8360000200F90064880680E900DA8FDF792
:405EC000CBFE9DF83000FFF763FE11B000BD0000BC4402082DE9FC475FEA0109054641F2114134D095B3DFF880A08E1C0020BAF800402C70ADF80400DFF8708000908DF899
:405F00000600641ED8F80800C4EBC40700EB470199F806208879824204D106224846FCF79BFCB8B12978BAF80000814218D1D8F808009DF8062000EB4701887982420FD1F0
:405F400006226846FCF788FC38B109E0FFE70846BDE8FC8700262C7004E02C7041F21446002CCEDC3046F3E7B8450208BC44020848B1064A0368D3608088108202F10C0020
:405F800081710020704741F211407047BC44020810B541F2114241B138B10E4B02781B889A4204D341F2154010BD104610BDC2EBC204094A8B79926802EB4404A371007887
:405FC000C0EBC00002EB40000A68026089888180002010BDB8450208BC44020838B54FF6FF73012915D0022939D0032910D100788DF80100507803EA0020ADF80000117830
:406000000843ADF80000694646F20200FEF78CFD38BD01781A480172D17803EA01210180947821430180517903EA01214180147921434180D17903EA0121818094792143E5
:406040008180517A03EA0121C180127A1143C180BDE8384001464FF4C040FEF765BD00788DF80200D07803EA0020ADF8000091780843ADF80000694646F20100C6E700009E
:40608000687702080C4810B5006808B1FDF7C4FC0A48006808B1FDF7BFFC0948006808B1FDF7BAFC07480068002803D0BDE81040FDF7B2BC10BD0000F8440208E044020881
:4060C000DC440208E444020803490020086003490860034908607047F0440208E8440208E444020838B504460020009094F83000A17910FB01F000EB80008004010C684648
:40610000FDF7F6FA00281CD10E490098086094F8300000EBC000C1006846FDF7E9FA00280FD109490098086094F8300000EB001081006846FDF7DCFA002802D1034A009977
:40614000116038BDE4440208E8440208F044020890F8300000EBC001C90000EB001001EB800070472DE9F843644F1E21624C7971017A01B901217970427A02B901223A7069
:40618000817A19B10B46C57A15B102E00123FAE701256B43BB7001B90121F970491E3971C0880025042802D9001FF88000E0FD80C2EBC2008000FDF70FFCDFF8448100286E
:4061C000C8F800007ED0387800EB80008000FDF703FC4C490028086074D0787800EBC0008000FDF7F9FB484E002830607DD0002400F08CF82846009537E000EBC001306806
:4062000040F82150009901EBC10100EB81014D60009901EBC10100EB81018D60009901EBC10100EB8101CD60009901EBC10100EB81010D61009901EBC10100EB81014D614E
:40624000009901EBC10100EB81018D61009901EBC10100EB81018D83009901EBC10100EB8100C5830098401C009079788842C4D341462846009528E0C0EBC002086800EB8D
:4062800082029560009AC2EBC20200EB82029581009AC2EBC20200EB8202D581009AC2EBC20200EB82021561009AC2EBC20200EB82029582009AC2EBC20200EB8200C582C5
:4062C000009800E011E0401C00903A789042D3D32846009505E0684600F05CFF0098401C009039788842F6D31CB100F00FF8FFF7C9FE2046BDE8F88303001600D044020838
:40630000F8440208E0440208DC44020810B51648164C006830B12178C1EBC1018A000021FCF7B4FA1248006830B1217801EB81018A000021FCF7AAFA0E48006830B161783A
:4063400001EBC1018A000021FCF7A0FA0A480068002808D0A178BDE8104001EB81018A000021FCF793BA10BDF8440208D0440208E0440208DC440208E444020810B5FFF7A0
:40638000C5FFBDE81040FFF77DBE08B569468DF800008DF8012041F20200FEF7C5FB002008BD00002DE9F347284A9DF800000E46126800EB800100F1400912F8218002EB2A
:4063C0008101002488784D89022806D0032806D0052804D0062805D103E0012402E0082400E00424684600F0D5FE194FE00711D0184908EBC8003A68096801EBC00005EB91
:40640000C50102EB81012E30D1F804C0002332464946E04760070DD5A6F50C50383800D100263A6805EBC50002EB80003146C26848469047200707D5396805EBC50001EB35
:406440008000816848468847BDE8FC87E0440208DC440208E84402082DE9FE430E468046082B05D00021304601F0C0FCBDE8FE8350794FF6FF71147901EA00200443D07917
:40648000957901EA002005432548264F402C00780ED300F140018C420AD23A6804EB840102EB8101A1F2FE41097809B1A4F140008DF8080008F0FF02214602A800F0F4FE18
:4064C00048B99DF80800396800EB800001EB80008088A84208D00023022231464046CDE9004501F0CBFCC1E7082307222146304601F0FEFC0C4906EB0610096801EB8001C7
:40650000200A8C75C8750D76280A4876304601F069FB42F238319DF80800FFF743FFA5E7D0440208E0440208F044020870B50D46082B42D150794FF6FF71167901EA002057
:406540000643D07901EA0021907908431B4940280A781B490B682ED302F1400188422AD200EB800103EB8101A1F2FE41097811B3A0F14004E4B2A2421FD004EB840103EB76
:4065800081018A88B24218D18978062915D10D4A05EB0511126802EB8101498981420CD10121284601F022FC2046BDE8704042F23831FFF7F7BE1446DCE770BDD044020892
:4065C000E0440208F0440208F8B50746694600F0E9FA00287BD101220721009800F074F901220821009800F06FF9394E002456F8345025B104236A4602213846A847641C89
:40660000032CF4D30024334D42F23737324E0CE0296804EB840011F820000099884203D1E0B23946FFF7BEFE641C30788442EFD300242A4D2A4E0FE0296804EB041001EB59
:406640008000817B39B140680099884203D10121204601F0CBFB641C30788442ECD3214C0098216800EBC00001EBC000018D19B1818DC28C1144818506F014FB009901EB6B
:40668000C102216801EBC2025085009800EBC00001EBC000343009F00BFD00984FF6FF7100EBC002206800EBC20291840099FF2201EBC10100EBC10181F82E2000991722C1
:4066C00001EBC10100EBC100A0F844200020F8BD74770208E0440208D0440208F0440208A2440208E8440208F0B50021FF270C462E4E2F4D28E001EBC10233694FF6FF7C81
:4067000003EBC200491CA0F824C080F82E704FF0170CA0F844C04FF0030CC0F804C0DFF894C09CF800C0C0F808C0DFF88CC09CF800C043F832C04FF0FF32C260C0E90424E4
:40674000C477048380F8464028788142D3D300201A4AF16805E000EB800301EB8303401C1F7413789842F6D37461747014493470002041F83040401C0328FAD30020122761
:40678000B3690DE000EB001203EB8201401C8C7395F800C0C1F804C00C8103F822704C7429788842EED3F461F0BD0000D8440208A2440208D4440208D3440208D2440208BC
:4067C0007477020870B50024094D0A4E0BE0E96804EB840001EB8000007CFF2802D0204600F00CF9641C30788442F0D370BD0000D8440208D2440208084809490022007862
:406800000B69401E10F0FF0000EBC00103EBC1010A854A858A85F4D170470000A2440208D844020818B1034948610020704742F216307047D84402082DE9F04102461E484B
:406840004FF0FF360078814202D93046BDE8F0811A481B4C0378246801FB03F505EB850004EB8000002407E004EB840700EB87073F7CFF2F07D0641C9C42F5D30121084606
:4068800008F0D6FEE1E704EB8403002740F8237000EB83008781C78146600274094A01EBC100126852F830305B1E42F83030084600F0B8F92819C9E7A2440208D3440208DA
:4068C000E4440208E84402082DE9F04791460D46072908D0082D06D02E4900EB0010096801EB800080882C4980B200EBC0080A6802EBC800C468621C4AD00069274F8A465B
:40690000844225D0396804EB840001EB800017E03A6800EB800602EB86010B7CAB420BD104EB840302EB830249685160B9F1000F03D000F063F800E00446386800EB8600F2
:406940004068411CE4D1DAF8001001EBC8000461DAF800003B6800EBC801C86800EB800203EB82031B7CAB4212D10023CB770B833B6803EB82025268CA600B69834200D1CC
:406980000A61B9F1000F03D0BDE8F04700F036B8BDE8F087F0440208E8440208E4440208F0B4144C024601EBC1032068124D00EBC300C668761C1AD000692E6800EB8000BF
:4069C00006EB80004260206800EBC300026120684FF0FF3200EBC3002B68006900EB800003EB80004260F0BC084600F019BB0261C260ECE7E8440208E44402082DE9F05FEB
:406A0000494A01460025106800287DD0474B1F68002F79D0DFF818C1DCF80030002B73D0444B1C68002C7CD0434C2468002C78D0424C2468002C74D001EB810400EB840132
:406A400092460A7C0026012A04D0072A0AD0082A4DD113E0886800EB001007EB8000808885B244E050F82400554608B1FCF7D4FF286800EB84008068050C38E050F8242063
:406A80000AB140F824608F68DCF8002007EB8709C7EBC70812F829501A68898902EB8800E346028B114489B20183828A91421ED10069FCF7B1FF1F4940371FFA87FC096855
:406AC000002301EB88001A4606618682C6820683DBF8001001EB8900408900EBC0011648006800EB81001946076A6046B847DAF80000FF2140F8246000EB84008681C68180
:406B0000017405EBC50000E00BE00C49096851F83020521C41F830202846BDE8F05F00F081B8BDE8F09F0000E4440208F0440208E0440208F8440208DC440208E844020807
:406B400011B581B0FF24694601A800F02BF840B905490098096800EBC00001EBC00090F8464020461CBD0000E844020830B50B4B0B4C00221B6824780AE002EBC20503EB07
:406B8000C505AD8C854202D100200A6030BD521CA242F2D342F2113030BD0000E8440208A2440208F0B50E4B00224FF6FF761D680C4B1C780FE002EBC20305EBC3039F8C56
:406BC000B74207D0077893F82E309F4202D100200A60F0BD521CA242EDD342F21130F0BDE8440208A24402080C4810B504689CB10B4900200B780DE000EBC00104EBC10105
:406C0000CA68521C02D10969491C01D0002010BD401C80B29842EFD3012010BDE8440208A2440208154B30B4196809B1012400E00024134900EBC0000A6852F8301002EB76
:406C4000C0004268914202D890F8462092B18268914211D390F84620012A0DD1002280F84620012C08D110F82E2F1B68007E30BC89B218470122F2E730BC7047EC44020869
:406C8000E84402082DE9F05F3149DFF8C89080464FF0000A81F800A000EBC806D9F8000000EBC600C568681C46D0DFF8ACB005EB85014F46DBF8000000EB8104D9F8000014
:406CC00000EBC600C17F008B08440004000C03D14146284600F044F838681FFA88F200EBC601B9461431284600F088F820BB277C012F0ED11949A068096800EB001301EB6E
:406D0000830181F811A0097C012902D1002101F06DF8D9F8000000EBC600C168A94201D16168C160D4E90150691C05D0082FBED1C0B200F06DFDBAE7D9F8000000EBC6003D
:406D4000C168491C01D1491E0161BDE8F09F0000D8440208E8440208E4440208F0440208224A10B5126800EB800002EB80000022C4890368234401EBC1041D49096801EBB2
:406D8000C4014B618389C4891B1B9CB20C83037C012B04D0072B10D0082B18D10FE0154A8068126800EB001002EB8000807B08B105220CE00020088310BD027A07E00E4A37
:406DC0008068126800EB800002EB8000828811F81F0F001DC0B208702044001F4870000A8870CA70100A087110BD0000E4440208E8440208F0440208E04402082DE9F74F0A
:406E00000C46C87A898882B0084486B2002001900498464900EBC0074FF0000B086800EBC700B0F82480A8F57F43FF3B04D184F80BB0A4F804B077E0808D8A4660B371E024
:406E4000DAF8000000EBC700028D0AB1828D1AB3458DB54200D33546721BC07F96B2F8B1002081464FEA182141EA091001998DF8008040EA81108DF801008DF80250280A0E
:406E80008DF803000123042269460220FDF7AEFBB9F1000F06D011E0012005B0BDE8F08F0120DEE70223E27A04F10C011846FDF79DFBE07A84F80BB0281A85B2A08828B3B8
:406EC000A84200D80546A84213D3401B0004000CA08010D01648FF21018000232A4602202168FDF783FB70B10220049906F01EFAD2E7A4F804B0DAF800000D4900EBC700CA
:406F000080890880E9E7206828442060DAF8000000EBC700C18C491CC184018D11B1818D491E8185002E8BD10020B6E7E8440208FC4402081A4A10B51268002A22D0194A4D
:406F40001268002A1ED0184A1268002A1AD0174A1268002A16D0164A1268002A12D0154A1468002C0ED0144A127860B159B1521E12F0FF0202EBC20304EBC3031985588581
:406F80009985F4D110BD0021521E12F0FF0202EBC20004EBC000018541858185F4D110BDE4440208F0440208E0440208F8440208DC440208E8440208A244020838B50C46D8
:406FC0006946FFF7D3FD002826D1009800EBC0011248006800EBC101CA8CA24201D2002200E0121BCA84009901EBC10100EBC1010A8D62B18A8D224492B28A85009901EBCD
:40700000C10100EBC100018D8A4200D98185002C02D0009800F004F838BD0000E84402080A4A1178002910D1094900EBC003096801EBC3018B8D002B07D0C968491C04D070
:40704000012111700021FFF71DBE7047D8440208E844020818B1034908600020704742F212307047F4440208F8B51C0015460E4604D01DB110B1311F032902D342F2123003
:40708000F8BD6946FFF78EFD10B142F25430F8BD009881B20720FFF7CFFB411C14D0009900EB800246EA014609490B6803EB82018E6043F822508C810422CA81009989B22A
:4070C000FFF76EFC0020F8BD42F21330F8BD0000E444020812B1031F032B02D342F212307047044B03EBC0002038818002600020704700007477020838B5144608B1042937
:4071000002D042F2123038BD6946FFF74BFD10B142F2543038BD05490098096800EBC00001EBC000A0F84440002038BDE844020830B505460C480D4C0178226842F22B3033
:40714000491E01EB810302EB83039B7813B10029F6D130BD2970236801EB8101002003EB810101228A7030BDD0440208E044020830B4074C0D4604EBC00050F8204C002C80
:4071800004D02846A44630BC0321604730BC7047747702082DE9F041404E04463268002A79D03F4F3968002975D02078002500EB800302EB83029288402A1DD3C0EBC0000F
:4071C00001EB80008168B9B18089A8B10846FCF723FC2078C0EBC001386800EB81018D602178C1EBC10100EB81018D812178C1EBC10100EB8100C58120783968C0EBC00031
:4072000001EB80000069D0B1FCF706FC2078C0EBC001386800EB81010D612178C1EBC10100EB81018D822178C1EBC10100EB8101CD822178C1EBC10100EB810005831948E2
