:020000041008E2
:4000000000780408EB0208100D00000051030810510308105103081051030810000000000000000000000000000000004D0308104D030810000000004D0308104D030810DA
:400040004D0308104D0308104D0308104D0308104D0308104D0308104D0308104D0308104D0308104D0308104D0308104D0308104D0308104D0308104D0308104D03081000
:400080004D0308104D0308104D0308104D0308104D0308104D0308104D0308104D0308104D0308104D0308104D0308104D0308104D0308104D0308104D0308104D030810C0
:4000C0004D0308104D0308104D0308104D0308104D0308104D0308104D0308104D0308104D0308104D0308104D0308104D0308104D0308104D0308104D0308104D03081080
:400100004D0308104D0308104D0308104D0308104D0308104D0308104D0308104D0308104D0308104D0308104D0308104D0308104D0308104D0308104D0308104D0308103F
:400140004D0308104D0308104D0308104D0308104D0308104D0308104D0308104D0308104D0308104D0308104D0308104D0308104D0308104D0308104D0308104D030810FF
:400180004D0308104D0308104D0308104D0308104D0308104D0308104D0308104D0308104D0308104D0308104D0308104D0308104D0308104D0308104D0308104D030810BF
:4001C0004D0308104D0308104D0308104D0308104D0308104D0308104D0308104D0308104D0308104D0308104D0308104D0308104D0308104D0308104D0308104D0308107F
:400200004D0308104D0308104D0308104D0308104D0308104D0308104D0308104D0308104D0308104D0308104D0308104D0308104D0308104D0308104D0308104D0308103E
:400240004D0308104D0308104D0308104D0308104D0308104D0308104D0308104D0308104D0308104D0308104D0308104D0308104D0308104D0308104D0308104D030810FE
:400280004D0308104D0308104D03081010B5054C237833B9044B13B10448AFF300800123237010BD6C490208000000002C2B0810084B10B51BB108490848AFF3008008483F
:4002C000036803B910BD074B002BFBD0BDE81040184700BF00000000704902082C2B081038430208000000007047FFF7FDFF72B6104C114DAC4209DA21686268A368043BFF
:40030000A2BFC858D050FAE70C34F3E70B490C4A00209142BCBF41F8040BFAE709480A490860BFF34F8F00F067F900F041F900F031F8FEE7302B0810482B08106C4902080F
:40034000D44D02080040020808ED00E0FEE7FEE700B504207146084202D0EFF3098001E0EFF30880043001F0A9FBFEE710B5084BD3F80843E4B207E00548D0F84013C9B2CB
:4003800000F034FF013CE4B2002CF5D110BD00BF0000664010B58AB062B6174C1749204601F028FBB4F90030002B08DB590903F01F03012202FA03F3114A42F8213000F082
:4003C000F1FA1049104800F057FF00F031FA28220021684601F06AFCC82001F045FB642000F04AFA02460949684601F02BFD6946054800F041FFEFE79C2608106D030810FA
:4004000000E100E03C260810000066404826081008B5012000F0AAFE08BD00BF704700BF5C4AD2F8803303F00F0303F1D00152F8212002F00702032A04D0042A05D092B923
:40044000554914E0554A116811E003F1C002514951F8222002F01F02112A06D0132A04D04FF4FA4103E04E4901E04FF400418BBB484BD3F8902502F00100D3F88825C2F3FB
:400480000172D3F8883513F0405F07D0414BD3F88835C3F30173012B02D102E0012300E0002303B108B9032A46D13A48D0F88025C2F31103D0F88425C2F30C02D0F8800590
:4004C000C0F300600130B1FBF2F202FB03F2B2FBF0F131E0012B2FD12E4BD3F8402602F00100D3F80026C2F30172D3F8003613F0405F07D0274BD3F80036C3F30173012B72
:4005000002D102E0012300E0002303B108B9032A12D12048D0F8002602F07F02D0F80036C3F30423D0F80006C0F3044002FB01F2B2FBF3F2B2FBF0F1164BD3F88033C3F34C
:40054000011321FA03F215494A601648D0F89030C3F3072301330069000E0130B2FBF0F08860B2FBF3F3CB600B6103F5742202F23F220D48A0FB0202C2F387420A7503F245
:40058000E7330A4AA2FB03239B098B61DB03CB61704700BF0000264000127A008C42020800366E010000214083DE1B43D34D621008B50D4801F06CFBFFF730FFFFF730FF25
:4005C00000221146042000F099FB084800F02CFC074B1B6893F8513013B1064800F094FC00F0D6FA08BD00BF3C2A081088490208CC4D02085026081008B501F0BAFA074AFE
:40060000D2F8883043F47003C2F88830BFF34F8FBFF36F8F01F0B1FA08BD00BF00ED00E0064B1B6913F0200F03D02022034B5A6070472022014B9A60704700BF000532409F
:4006400008B51F4B1A681F4B1B689A4211D11E4B01225A601D49B1F90010C3F83011D3F830311B4B402199601A490A7020225A6008BD194B1B68194A82FB0312DB17C3EBBE
:400680006213013B104AC2F81431FFF7C9FF104B1B6913F0200F0ED1094B1B682F2B0ADC074A53680A490969C1F3801102EB8300816001335360024A13680133136008BDEA
:4006C000084B0208AC420208000038409426081000053240804D0208844D02081F85EB5108B51C4B19601C4B83FB0123C917C1EB63110139194BC3F81411802803D132225E
:40070000174B1A600AE0402803D13622144B1A6004E0202802D13422114B1A60114B1B6913F0400FFAD100230F4A13700F4A5360136020210B4A5160084AC2F8083100F064
:40074000F7F8094B1B78002BFBD02022054B5A60074808BD844D02081F85EB5100003840AC42020800053240804D0208084B0208104B020810B50E4C0E49204601F03AF912
:40078000B4F90030002B08DB590903F01F03012202FA03F3084A42F82130084B20225A6040225A6043F698218020FFF799FF10BD942608104106081000E100E00005324024
:4007C00010B543F698218020FFF78AFF04460123002008E0C3EB83718A002244126E591E8A4010440133182BF4D9034B9B680BB140F07F4010BD00BF084B0208084B1A6808
:40080000084B1B689A4206DA0222074B5A600122064B1A7070470122024B5A60704700BF884D0208704B0208000038408C4D020810B58020FFF79EFF0B4C0C49204601F0A7
:40084000D9F8B4F90030002B08DB590903F01F03012202FA03F3064A42F82130042001F01DFA044B186010BD8C260810FD07081000E100E0904D020870B5264B996901FB73
:4008800000F0254981FB0031C017C0EBA111234B19608900224B186801F0BCFA0024214BC3F84841204B1C605C6000F059F81F4B1C700FE01C4B5B6863B11B4C2668184BC2
:4008C0001D68FFF77DFF45F8260023680133236000236360154B1B78012BEBD10023124AC2F898310AE00E4A126852F823200E49D1F898010244C1F898210133074A1268E0
:400900009342F0DB084BD3F8980190FBF2F0C3F8980170BDB0420208D34D6210884D0208904D020800003840704B02088C4D020808B5084B1B783BB9074A0021074801F0B5
:400940001FF90122034B1A70044B01229A609A6108BD00BF0C4D0208A42608100000384008B5084B1B783BB9074A0121074801F007F90122034B1A70044B02229A609A610F
:4009800008BD00BF0D4D0208F02608100000384008B50249024800F095FF08BD944D02080000664008B5114B1B785BB9104A1149114800F063FD1149114801F01BF8012286
:4009C0000A4B1A700E4BB3F90030002B08DB590903F01F03012202FA03F30A4A42F82130054A136843F00043136008BD0E4D0208944D02083C2708100000664091090810CF
:400A00009C26081000E100E01F4B98422DD00CD840282ED003D8E8B1102828D02FE0802829D0B0F5807F28D029E0184B984228D006D8B0F1204F0DD0154B984212D01EE07D
:400A4000144B98420AD00133984209D0023B984215D101E0002070470F4870470F4870470F4870474FF4A0007047074870470D4870470D4870470D487047034870470C4883
:400A800070474FF4A400704706005200010000F0090000A0040000F0010052000200520003005200010050000200500005005200FF00520038B5124B1B6893F83130012BCF
:400AC00004D840F2C3110F4800F0E8FF0C4B1D682A6AB5F8B03013442C46D5F8B420D358002B0BDB084B1868FFF78EFF6B6801229A6063689B68002BFBD138BD034838BD03
:400B0000CC4D02087C270810104D0208020050001A4B186128B102230370FF23437000234380174B1B6893F850202AB300B583B0B3F93830ADF800300023019311496846C7
:400B400000F058FFBDF90030002B08DB590903F01F03012202FA03F30B4A42F82130084B1B6893F8513023B102220849012000F077FA03B05DF804FB704700BF104D02083D
:400B8000CC4D0208A943020800E100E06144020808B50248FFF7BCFF08BD00BF244D020838B50B4B1B68D3F8B4301B58002B0DDA0D4604460B0C1B0423B140F2D5210548DF
:400BC00000F06CFFA9B26160002038BD024838BDCC4D0208BC27081001008A0038B50368002B01DA002300E0094B73B90D460446C2600B0C1B0423B140F2BB21054800F08C
:400C00004DFFA9B2A160002038BD014838BD00BF01008A00BC27081038B504460D4619B99921084800F03AFF074B1B68D3F8B4301B59002B03DAE3682B60002038BD0348AF
:400C400038BD00BFFC270810CC4D020801008A00254B1B6893F8313083423AD900293AD00B6813F01F0F38D170B50D4604461E4B1B6893F83130984204D340F2C3111B488C
:400C800000F00CFF184B1B68186AB3F8B03004FB0304174E34602A68D2080021686801F005F800212046FFF77BFF346825B940F293310E4800F0F2FE2A4600212046FFF772
:400CC0008DFF60B900210A4B1868FFF769FF40B970BD084870470748704706487047064870BD054870BD00BFCC4D0208BC270810284D020803018A0001018A0010B5044649
:400D00001346B2B9A9B9124B1B6893F83130984204D340F2C3110F4800F0C0FE0C4B1B681A6AB3F8B03004FB03240B4B1C60002010BD43B149B1084A51609360111D2046BF
:400D4000FFF786FF10BD054810BD044810BD00BFCC4D0208BC270810284D020803018A002DE9F0411B4B1B68DC68236883422CD90D464609A0EB4610012303FA00F819B9D7
:400D800000F0F7FE074600E00027124B18680368002B01DA002300E00F4B83B9626852F8263018EA030F05D023EA080342F82630002400E0094C0021FFF7F2FE00E0084C84
:400DC00025B9384600F0D9FE00E0064C2046BDE8F08100BF284D020801008A00020188000301880004018A000B4B1B68DB681A6882420CD94109A0EB4110012202FA00F037
:400E00005B6853F82130184203D004487047044870470448704700BF284D02080101880004018A0000018800024B1B680BB9014B18607047344D02082DE9F843044688463A
:400E400091461D46089F2C4B1B681BB9B5212B4800F024FE284B1B682C2000FB04F01C18EEB21E50C5F3072363602D0CA560244B1B6893F831309E4204D340F2C31121480E
:400E800000F00CFE1E4B1B68196AB3F8B02006FB02162661666893F832309E4204D340F2DF11184800F0FAFD154B1B681D6A803605EB46156561A668330C1B0423B14FF41F
:400EC000FF71104800F0EAFD330C1B0423B140F2FF110C4800F0E2FDB3B243EA0646AE60C4F81C90C4F820800023A36117B1B7F90030A381BDE8F883344D02083C280810F2
:400F0000CC4D0208BC270810F0B58FB0044618B95221274800F0C2FDA369072B03D95621234800F0BBFDE36A1BB95821204800F0B5FD236B1BB959211D4800F0AFFD07AD2A
:400F400004F114060FCE0FC537682F6002AD26460FCE0FC533682B60164B1B68B3F93620079B1344ADF83030089B0D93A26AE16A0CAD00953B460A98FFF75EFF002100919D
:400F8000069B0A460598FFF757FF216B284600F031FDBDF93030002B08DB590903F01F03012202FA03F3044A42F821300FB0F0BD3C280810CC4D020800E100E0F8B50646F1
:400FC0000F461D4614461AB9FD211F4800F066FD1E4B1B681BB9FE211B4800F05FFD1B4B1B682C2101FB063001FB07314B68012202FA03F31B04466802FA06F60269EAB177
:401000008F69EFB91268002A01DA002200E0104AC2B92288134323600369DC6001238B614D620469330C1B0423B140F2BB21094800F034FDB2B2A2600020F8BD0648F8BD73
:401040000648F8BD0548F8BD3C280810344D020801008A00BC27081004028A0007028A00F8B505460F4616460E4B1B6823B94FF4AF710D4800F012FD0A4B1B682C2404FB7C
:401080000534236A23B94FF4B171074800F006FDE369B34204D9236A43F826700020F8BD0248F8BD344D02083C2808100A028A0070B582B000230193044620B940F2D111B5
:4010C000284800F0EBFC236923B94FF4E971254800F0E4FC636923B940F2D311214800F0DDFC236A23B94FF4EA711E4800F0D6FC6369DD682A0C20D012041A601B68206975
:40110000194B1B68D3F8B430C358002B15DA01A9FFF782FD60B9019803681E0CDBB2E269934206D2226A52F8233013B1984700E0002631462069FFF733FDADB275B16369B0
:40114000ADB21D601B68636A1BB198470023636202E0A36A03B198470023A36163691B6802B070BD3C280810CC4D020810B50446074B1B6823B940F2B111064800F08EFCBE
:40118000034B1B682C2000FB0430FFF791FF10BD344D02083C28081010B4D0F8003303F00F03072B06D900230DE0D0F84043CC54013300E000239342F7D306E0D0F8404332
:4011C00021F8134001339342F8D35DF8044B704710B51446D0F80833C3F308039A4200D31C462246FFF7D8FF204610BD036813F4006F01D0802200E04022D0F80832C3F3AA
:401200000803934203D0C0F84012012070470020704700BF10B4D0F8003203F00F03072B06D900230DE0CC5CC0F84042013300E000239342F7D306E031F81340C0F84042CB
:4012400001339342F8D35DF8044B704710B51446036813F4006F01D0802200E04022D0F80832C3F30803D31AA34200D81C462246FFF7D0FF204610BD30B4036813F4006F96
:4012800001D0802200E04022002408E0D0F80832C3F308039A42F9D0C0F8405201340D5D002DF3D130BC70472DE9F84305460C46036813F4006F02D04FF0800801E04FF000
:4012C0004008D5F8007207F00F07A26A012A19D9D4F82490E262561EB9F1000F00D026B940F27351254800F0D9FB324649462846FFF7ACFFA36A1B1AA362072F00D94000BE
:4013000048446062D5F80832C3F30803984533D0A36A012B30D10023A362072F02D8636A1E7801E0636A1E8800F023FCC5F840624FF40073C5F8803FD5F8803F00F01DFC59
:40134000D5F8883F23F4007222F0010242F4007623F4EE6323F0030323B140F22A41084800F09CFBC5F8886F236843F002032360236B0BB101209847BDE8F8837C280810A6
:40138000BC2808102DE9F04105460C46036813F4006F01D0802600E040267608A769D4F81C8017B1B8F1000F04D14FF49961314800F074FB424639462846FFF709FF236A4F
:4013C00003442362E3691B1AE36173BBA368FBB1E3689E4201D8013E00E05E1E2B6813F4006F01D0802300E040239E4204D34FF42071214800F052FBD5F8043323F0FF03CE
:40140000F6B21E43C5F804630123C5F8C83F02E00023C5F8C83F636823F001036360236B33B304209847BDE8F081A169D5F8002302F00F02072A00D940000844A0619E4228
:4014400016D95C1E2B6813F4006F01D0802300E040239C4204D34FF42071074800F01EFBD5F8043323F0FF02E3B21343C5F80433BDE8F0817C280810BC280810002800F085
:40148000A48170B50546002900F0A18116460C460B78022B03D93F21A24800F0FFFA637B023BDBB2062B03D940219E4800F0F6FAA37B3BB1022B05D0032B03D041219948C3
:4014C00000F0ECFA94F82130012B03D94221954800F0E4FA94F82830012B03D94321914800F0DCFA2378012B06D86368083B082B94BF0023012307E0A37F2BB16368013BC8
:40150000062B94BF002301231BB14521854800F0C5FAA368053B042B03D94621814800F0BDFA6369FF2B03D947217E4800F0B6FAA369FF2B03D948217A4800F0AFFAA37C70
:401540006BB1237833B9A368092B05D1A37B2BB1012304E0012302E0012300E000231BB14A21704800F09AFA636B23F4366323F00D031BB14C216B4800F090FAE36B23F4A5
:40158000EE6323F003031BB14D21664800F086FA2378022B01D1A37F13B16268013A00E00022237F13B14FF4803100E00021A368082B02D84FF4006300E000230B4302F086
:4015C0000F02134343F000732B60226B2B6813F4006F01D0802300E040239A4203D36221504800F05BFAA26B2B6813F4006F01D0802300E040239A4203D36321494800F070
:401600004DFA626A2B6813F4006F01D0802300E040239A4203D36421424800F03FFA23781B0603F040732B64637F0BB1402200E00022A37C13B14FF4806300E00023134398
:40164000227C12B14FF4807200E000221343627C12B14FF4007200E000221A43E36A013B1B0403F470231343627B013A02F007021343A27B120102F030021343AB64237B7F
:4016800013B14FF4807200E00022E37B23B92378022B03D1012302E0012300E0002313B14FF4007300E000231A43A368013B03F00F031343C5F80033227DA3691B0403F4FF
:4016C0007F031343C5F81033E26AD5F8003303F00F0303339A4201D3102A03D97A21114800F0DCF9E37F23B12378012B03D0002302E0002300E0012313B14FF4807200E037
:401700000022637B013B03F007031A43A37B1B0103F0300313436B64237B2BB14FF4807203E000BF002908100022A368013B03F00F0313432278012A02D14FF4803200E0CB
:4017400000221343C5F8003294F83030C5F8043394F8203013B14FF0007200E0002294F82130012B02D14FF0807300E00023134394F82820012A02D14FF4803200E000229F
:40178000134394F8242013432B6594F83830C5F80432636B23F4926323F002031B051B0DC5F8C83FE36B23F08C035B055B0DC5F8883F76B1002070603060B060F060306263
:4017C000F0623063044B736370BD04487047034870BD002070BD00BFEFCDAB000160AA000B694A69934202D34869181A7047CA694869101A184470472DE9F04107460D4646
:40180000036813F4006F02D04FF0800801E04FF040084FEA5808D7F80863C6F308062C6926E00134EB689C4200D100246B699C420FD12B6B0BB1082098476B699C4208D1C0
:401840000023C7F8C83F0CB1013C13E0EC68013C10E0D7F84023D7F8003303F00F03072B02D8AB681A5502E0AB6823F81420013E002ED6D12C61EC6829463846FFF7B0FF7F
:40188000201A804519D908B1441E00E000243B6813F4006F01D0802300E040239C4204D34FF42071064800F0F9F8D7F8040320F0FF03E0B21843C7F80403BDE8F08100BF20
:4018C000BC28081038B504460D46D0F8003E13F0080F35D0D0F8CC3F13F448730AD04A681A434A60C0F8C03FD0F8C03F0B6B0BB110209847D4F8CC3F13F4006F09D06B685D
:4019000043F400636B604FF40063C4F8C03FD4F8C03FD4F8CC3F13F0010F11D0EB6923B129462046FFF72EFD05E0AB681BB129462046FFF761FF0123C4F8C03FD4F8C03F94
:40194000D4F8003E13F0040F2ED0D4F88C3F13F4A0630AD02A681A432A60C4F8803FD4F8803F2B6B0BB120209847D4F88C3F13F0010F08D029462046FFF796FC0123C4F81F
:40198000803FD4F8803FD4F88C3F13F4007F0BD00022C4F8882F2B6823F001032B60EA622B6B0BB10220984738BD00BF38B50D4B9A680D4B9A420FD10D46044621B940F2C4
:4019C00037110A4800F06AF804F11003064A52F8230042F8235038BD1030054B53F8200038BD00BF00ED00E000400208402908100000081048B338B504460D464368072BD3
:401A000003D93221134800F049F8B4F900306268002B08DB5201D2B203F1604303F5614383F8002305E003F00F035201D2B20A49CA540A4B9A680A4B9A4208D12946B4F9DF
:401A40000000FFF7B3FF002038BD06487047002038BD00BF4029081014ED00E000ED00E0004002080100560010B5044605E0084B186800F075F8A4F50044B4F5004FF6D839
:401A8000044B186800FB04F000F06AF810BD00BFA8420208A442020801BEFEE738B50D46044C18220146204600F0F0F9A5610020FFF7F2FFD8480208FEE700BF08B50268B0
:401AC000254BDA6142681A6282685A62C2689A620269DA6242691A6382695A63C2699A631E4A916AD963D16A1964516A5964516B9964926BDA64F1EE103A13F0900F27D025
:401B0000026A154B1A65426A5A65826A9A65C26ADA65026B1A66426B5A66826B9A66C26BDA66026C1A67426C5A67826C9A67C26CDA67026DC3F88020426DC3F88420826D62
:401B4000C3F88820C26DC3F88C20026EC3F89020FFF7B2FF08BD00BFD848020800ED00E00230800803D001300238FCD100BF00BF7047EFF3108072B6704780F31088704762
:401B800000287DD00346002A7CD070B45068000280B29568AD0405F480252843D468240404F4403404431069000600F0E0602043147F0CB1012400E0002420430C1DA40157
:401BC0001851D06828B903EB81100024C0F808410CE0012805D1146803EB8110C0F8084104E003EB81100124C0F80841106938B9546903EB8110C0F80C419469C0F810419E
:401C0000146803EB8110C0F81441906CB0F1FF3F17D0946A04F00F04166B360206F470663443956B2D0405F470252543146C2403A4B22C430001C0B2204303EB8114C4F82D
:401C40002001506A00F00300D66A360106F030063043556B2D0205F440752843D46BA401E4B20443506C800000F00C00204303EB8113C3F82401126AC3F83821002003E027
:401C8000024870470148704770BC70470100B600014B1860704700BFCC4D0208024B0146186800F059B800BF2C43020802440346934202D003F8011BFAE7704738B50546C2
:401CC000002946D051F8043C0C1F002BB8BFE41800F0EFF81F4A1368114613B96360146032E0A3420ED92268A018834204BF18685B68636004BF121822600C6024E0A242CD
:401D000003D813465A68002AF9D118681918A1420BD12168014458188242196014D1106852685A60014419600EE002D90C232B600AE021686018824204BF10685268626056
:401D400004BF091821605C602846BDE8384000F0B1B838BD784D020870B5CD1C25F0030508350C2D38BF0C25002D064601DBA94202D90C23336046E000F09BF8234B1C6859
:401D80001A462146A1B10B685B1B0ED40B2B03D90B60CC18CD501EE08C420DBF63684B686360136018BF0C4615E00C464968E9E7174C23681BB9304600F034F82060294641
:401DC000304600F02FF8431C18D0C41C24F00304A0420DD12560304600F06CF804F10B00231D20F00700C31A0ED05A42E25070BD211A304600F016F80130EBD10C2333609A
:401E0000304600F057F8002070BD00BF784D0208744D0208024B0A460146186800F04BB82C43020838B5064C002305460846236000F0D6FB431C02D1236803B12B6038BD47
:401E4000D04D02080EB400B59CB04FF402711DABADF81410029006906FF000410A48049107914FF6FF7153F8042BADF816100068019302A900F09EF8029B00221A701CB0AE
:401E80005DF804EB03B070472C43020810B5034642B111F8014B03F8014B013A002CF7D11A4400E010BD934202D003F8014BFAE710BD70477047F8B5074615460E4621B997
:401EC0001146BDE8F840FFF747BF1AB9FFF7F6FE2846F8BD00F07AFB85420ED929463846FFF73AFF044650B131462A4600F048FB31463846FFF7E2FE01E03046F8BD204601
:401F0000F8BD2DE9F0478E689E4282460C46914698463ED88A8912F4906F3AD0256809696F1A6569022305EB450595FBF3F57B1C43449D4238BF1D4653050FD52946FFF79D
:401F40000BFF064698B13A46216900F019FBA38923F4906343F08003A38113E02A46FFF7AAFF064670B921695046FFF7A7FE0C23CAF80030A38943F04003A3814FF0FF301D
:401F8000BDE8F087266165613E44ED1B2660A5604646464528BF464632464946206800F0FAFAA3689B1BA36023681E4426600020BDE8F0872DE9F04F9DB0804603938B8921
:401FC0001C060D4616460DD50B695BB94021FFF7C3FE2860286118B90C23C8F80030CDE040236B610023099320238DF82930DFF89CB130238DF82A3037463C4614F8013B34
:402000001BB9B7EB060910D003E0252BF9D02746F3E74B46324629464046FFF772FF013000F0A780099B4B4409933B78002B00F0A08000234FF0FF3204930793059206939A
:402040008DF853301A930126052221784E4800F047FA671C049B38B14B4A801A06FA00F0184304903C46EFE7D90644BF20228DF853201A0744BF2B228DF8532022782A2A19
:4020800003D0079A00210A200BE0039A111D12680391002A10DA524243F00200079204900BE0274601343B78303B092B03D800FB02320121F5E701B107923B782E2B1ED166
:4020C0007B782A2B0AD1039B1A1D1B680392002BB8BF4FF0FF330237059310E000230593781C19460A24074601303A78303A092A03D804FB01210123F5E703B105910322E8
:402100003978224800F0ECF940B14023CBEB000003FA00F0049B18430490013739781C488DF8281006227E1C00F0DAF988B1194B33B9039B073323F007030833039314E058
:4021400003AB00932A46144B04A94046AFF3008007E003AB00932A460F4B04A9404600F093F8B0F1FF3F824603D0099B5344099342E7AB895B0601D4099801E04FF0FF3086
:402180001DB0BDE8F08F00BFF62A0810FC2A0810002B081000000000031F08102DE9F04791461F460A698B68DDF820809342B8BF1346C9F8003091F8432006460C4612B135
:4021C0000133C9F800302368990642BFD9F800300233C9F80030256815F0060510D104F1190A07E00123524639463046C04701301AD00135E368D9F800209B1A9D42F1DB46
:4022000094F843302268003318BF012392060FD5E1185A1C302081F84300224494F8451082F84310023303E04FF0FF30BDE8F08704F1430239463046C0470130F4D0226885
:40224000D9F80050E36802F00602042A08BF5D1B2269A3680CBF25EAE57500259342C4BF9B1AED184FF000091A344D4509D00123224639463046C0470130D5D009F1010927
:40228000F3E70020BDE8F0872DE9F04317460A7E85B06E2A984606460C460C9B01F1430E00F0AE8011D8632A22D009D8002A00F0BB80582A40F0CA8081F84520834955E010
:4022C000642A1ED0692A1CD0C0E0732A00F0B08009D86F2A2ED0702A40F0B8800A6842F020020A603EE0752A24D0782A3AD0ADE01A6801F14205111D1960136884F8423027
:40230000A8E021681A6811F0800F02D0111D196008E011F0400F02F10401196002D0B2F9003000E01368002B3CDA2D225B4284F8432037E021681A6811F0800F02D0111D92
:40234000196007E011F0400F02F10401196001D0138800E01368227E5C496F2A14BF0A2208221BE078225A4984F845202268186812F0800F00F104051D6003D1550601D53E
:40238000038800E00368D00744BF42F0200222601BB9226822F0200222601022002084F8430001E049490A226568A560002D08DB206820F0040020602BB9002D7DD17546BB
:4023C0000CE0002B79D07546B3FBF2F002FB1033CB5C05F8013D03460028F5D1082A0BD12368DA0708D5236962689A42DEBF302305F8013C05F1FF35C5EB0E0323612EE029
:4024000008681A68496910F0800F03D0101D1860136808E010F0400F02F104001860136801D0198000E0196000232361754616E01A68111D1960156862680021284600F04B
:402440004FF808B1401B6060636804E004F1420584F8422001232361002384F84330CDF800803B4603AA21463046FFF797FE013002D14FF0FF3026E023692A46394630467A
:40248000C0470130F5D023689B0710D5002504F1190907E001234A4639463046C0470130E7D00135E368039A9B1A9D42F2DBE068039B9842B8BF184605E00B7884F84230E8
:4024C00004F142058AE705B0BDE8F083072B0810182B081000000000000000000000000001F0FF01102A2BDB10F0070F08D010F8013B013A8B422DD010F0070F42B3F6D183
:40250000F0B441EA012141EA014122F007047FF000070023F0E80256083C85EA010586EA010685FA47F5A3FA87F586FA47F6A5FA87F68EB9EED1F0BC01F0FF0102F00702DC
:4025400032B110F8013B013A83EA010313B1F8D10020704701387047002D06BF35460338073815F0010F07D1013015F4807F02BF013015F4C03F0130F0BC0138704700BFA1
:4025800010B5431E0A44914204D011F8014B03F8014FF8E710BD884210B501EB020301D8421E0BE09842FBD28118D21AD34204D013F8014D01F8014DF8E710BD994204D000
:4025C00011F8014B02F8014FF8E710BD51F8040C0028BEBF091851F8043CC01804387047044A05491368002B08BF0B4618441060184670477C4D0208D84D0208F8B500BF74
:40260000F8BC08BC9E467047F8B500BFF8BC08BC9E46704747656E6572617465645F536F757263655C50536F43362F426174746572695F4144432E68000000005374617271
:402640007475700A0D00000025690D0A000000000300000001000000010000000000000005036000040000000100000000000000010000000604600008000000E84A020824
:40268000110408108A000000070000007B000000070000007A000000070000002E0000000700000000000000000000000000000000000000020000000040000000400000A2
:4026C000000000000100000003000000FFFFFFFF03000000FFFFFFFF03000000FFFFFFFF03000000FFFFFFFF03000000FFFFFFFFDA04000000000000000000000000000000
:40270000020000000040000000400000000000000100000003000000FFFFFFFF03000000FFFFFFFF03000000FFFFFFFF03000000FFFFFFFF03000000FFFFFFFF000000001B
:402740000C0000000800000000020000000000000000000000000000000000000000000000000000000000000B0000000000000000000000000000000000000047656E65B9
:4027800072617465645F536F757263655C50536F43365C70646C5C647269766572732F7065726970686572616C2F6970632F63795F6970635F6472762E68000047656E652F
:4027C00072617465645F536F757263655C50536F43365C70646C5C647269766572735C7065726970686572616C5C6970635C63795F6970635F6472762E68000047656E6568
:4028000072617465645F536F757263655C50536F43365C70646C5C647269766572735C7065726970686572616C5C6970635C63795F6970635F6472762E63000047656E652C
:4028400072617465645F536F757263655C50536F43365C70646C5C647269766572735C7065726970686572616C5C6970635C63795F6970635F706970652E630047656E658A
:4028800072617465645F536F757263655C50536F43365C70646C5C647269766572735C7065726970686572616C5C7363625C63795F7363625F756172742E680047656E653F
:4028C00072617465645F536F757263655C50536F43365C70646C5C647269766572735C7065726970686572616C5C7363625C63795F7363625F636F6D6D6F6E2E68000000B1
:4029000047656E6572617465645F536F757263655C50536F43365C70646C5C647269766572735C7065726970686572616C5C7363625C63795F7363625F756172742E6300C3
:4029400047656E6572617465645F536F757263655C50536F43365C70646C5C647269766572735C7065726970686572616C5C737973696E745C63795F737973696E742E63BA
:40298000000000000000204000002440000000400000000000002340000030400000314000009F40000022400000104002020202020202020210101D800017007500FF03E1
:4029C0000602063604102000000000007FC0000000040000000000000019324B647D00804000080B100000000000FF012002001F00800004FF081018001000140018001C76
:402A00004044484C50000000081000000800000004000000041000000012000004210000002100000016000040114002C41300138013A013200000001C0000000000214028
:402A400000002540000001400000344000002440000031400000324000001F410000234000001140010101010101010101101010800019005500F0000501053B04101C0153
:402A8000010000000FC000000004000001010101011D3A57789600082000101208000000001F00000010000F002000023F06080E00080009000A000B24282C303400000072
:402AC000100000009000000088000000080000008000000004F0000000F00000400200002005A000D00100018001A00120000000100000004300232D302B2000686C4C00E9
:402B000065666745464700303132333435363738394142434445460030313233343536373839616263646566000000000000000000000810004002088C020000502B08100A
:402B40008C4202084C0600006C490208680400000048E80100127A0000093D0000127A0000127A0008000000401F00000000A00F320000000000803F000020410000C84174
:402B80000000803F298FA5BF48E1FA3E500000000000000000000000000000000000000000000000000000000000000000000000F42A081000000000000000000000000053
:402BC000000000000000000000000000000000000000000000000000000000000000000000000000000000000000000000000000CC420208B10208108D020810000000004B
:402C000080B2C10050B3164B1B681A6AB3F8B030C3EBC303D358002BF5DA3E22114B1A6041F61E7204331A60A3F584730622C3F8182521F07F41C3F81C15D3F81C35084B89
:402C40001A68116AB2F8B030C3EBC3030B4400225A60054BD3F81C35002BFADA704700BFCC4D02080401264000002640F8B5274B1B6893F83130052B04D840F2C31124484D
:402C800000F05CFA214F3A68166AB2F8B03003EB83031E4452684FF26003D458A4B200F05DFA05463B681968D3F890208A58013C032C27D8032A0CD1164A127812F0FF0F7A
:402CC00007D10822B2601968D3F890208A58032AF9D01968D3F884208B588858C0F307221B0E581C02FB00000B4B03FB00F00B4B1B680B4AA2FB03239B09B0FBF3F08230AA
:402D0000FFF77EFF284600F021FAF8BDCC4D02087C2708100B00001640420F0090420208D34D62104378FF2B23D110B500F016FA0446104B1B6893F83130042B04D840F205
:402D4000C3110D4800F0FAF90A4B1A68136AB2F8B02003EB8203DB685A68136843F001031360136813F0010FFBD1204600F0EEF910BD7047CC4D02087C2708102DE9F04796
:402D800007468846554B1B6893F83130012B04D840F2C311524800F0D1F9504B1B681C6AB3F8B0201444D3F8B420161993F85030002B79D04B4B1B7813F0FF0F02D04FF078
:402DC000000901E04FF00109B9F1000F38D0434B1B6893F83130052B04D840F2C311404800F0ACF93D4B1A68116AB2F8B03003EB83030B44D2F8B420D358002B22DB0020D0
:402E000000F0BCF9384B98421ED00023374A12690121184600F08AF918B1354D17E0013500E00025002000F0A9F92F4B984202D0304B9D42F3D92F4B9D4207D92C4D06E07D
:402E4000002504E02A4D02E0294D00E00025002D41D100F083F98246274BD3F81C35002B10DA224A0121204600F090F960B94046FFF7C6FE57B13368002BFCDB00F04EF9BD
:402E8000054604E01A4D02E0194D00E01B4DB9F1000F05D00121002000F068F90028F9D1504600F053F916E000F058F980460F4A0121204600F06AF938B947B13368002B27
:402EC000FCDB00F02BF9054602E0094D00E00B4D404600F03BF92846BDE8F087CC4D02087C2708100B00001601018800104D020805005200EF4902000000264001005000C0
:402F0000F0B47F4B1A6855684FF0B0535B7813F0FF0F04D04FF0B0535B78DBB200E02123212B55D1116AB2F8B030C3EBC303CC18CB58002BF6DAE36843F00103E360146AF4
:402F4000B2F8B030C3EBC3031C44E36813F0020F2DD0E3689EB21368D2F884105958090A090401F47F01D2F88870DB591B0A41EA03633343E3601168D2F884208B5823F497
:402F80007F4343F410638B505D4A13681C68D3F88810635823F47F4343F41063635013681A68D3F884105158D3F88830D358544B1A68116AB2F8B030C3EBC3030B44002113
:402FC0005960116AB2F8B030C3EBC3030B445B684B4B19680C68D1F894301C44494A136943F004031361012801D030BF07E020BF454B1B7803B120BF0122434B1A7023682D
:4030000003F00303022BE9D00A6AB1F8B030C3EBC303D018D358002BF6DA4FF0B0535B7813F0FF0F04D04FF0B0535B78DBB200E02123212B30D1C36813F0020F1FD00C6883
:40304000D1F88410635823F47F42C3681B0C1B0203F47F4313436350294B19680C68D1F88800235823F47F420D6AB1F8B030C3EBC3032B44DB681B0E42EA03232350204BA3
:403080001A68136AB2F8B020C2EBC2021344DA6822F00102DA6026E0D5F80C311BBB1B490E681B4BD3F818451A4A106841F61E770F600621C3F818153E2111604422C3F8D9
:4030C0001C25134BD3F81C35002BFADA4FF0AA33C5F80C310D4B1E60A3F58473C3F8184503F582731860064B1A68116AB2F8B030C3EBC3030B4400225A60F0BC704700BF85
:40310000CC4D020800ED00E0384D02080801264000002640040126400000000001B40248844601BC604700BFB50A081001B40248844601BC604700BFBD0F081001B402483E
:40314000844601BC604700BF9D1A081001B40248844601BC604700BF7B1B081001B40248844601BC604700BF731B081001B40248844601BC604700BF610D081001B40248F6
:40318000844601BC604700BFE90D081001B40248844601BC604700BFDD0B081000000000000000000000000000000000000000000000000000000000000000000000000028
:4031C00000000000000000000000000000000000000000000000000000000000000000000000000000000000000000000000000000000000000000000000000000000000CF
:0200000490303A
:02000000EEE828
:0200000490501A
:0C0000000005E2F021002101E3010FE8FF
:00000001FF