:020000041008E2
:4000000000780408EB0208100D00000051030810510308105103081051030810000000000000000000000000000000004D0308104D030810000000004D0308104D030810DA
:400040004D0308104D0308104D0308104D0308104D0308104D0308104D0308104D0308104D0308104D0308104D0308104D0308104D0308104D0308104D0308104D03081000
:400080004D0308104D0308104D0308104D0308104D0308104D0308104D0308104D0308104D0308104D0308104D0308104D0308104D0308104D0308104D0308104D030810C0
:4000C0004D0308104D0308104D0308104D0308104D0308104D0308104D0308104D0308104D0308104D0308104D0308104D0308104D0308104D0308104D0308104D03081080
:400100004D0308104D0308104D0308104D0308104D0308104D0308104D0308104D0308104D0308104D0308104D0308104D0308104D0308104D0308104D0308104D0308103F
:400140004D0308104D0308104D0308104D0308104D0308104D0308104D0308104D0308104D0308104D0308104D0308104D0308104D0308104D0308104D0308104D030810FF
:400180004D0308104D0308104D0308104D0308104D0308104D0308104D0308104D0308104D0308104D0308104D0308104D0308104D0308104D0308104D0308104D030810BF
:4001C0004D0308104D0308104D0308104D0308104D0308104D0308104D0308104D0308104D0308104D0308104D0308104D0308104D0308104D0308104D0308104D0308107F
:400200004D0308104D0308104D0308104D0308104D0308104D0308104D0308104D0308104D0308104D0308104D0308104D0308104D0308104D0308104D0308104D0308103E
:400240004D0308104D0308104D0308104D0308104D0308104D0308104D0308104D0308104D0308104D0308104D0308104D0308104D0308104D0308104D0308104D030810FE
:400280004D0308104D0308104D03081010B5054C237833B9044B13B10448AFF300800123237010BD4C49020800000000303B0810084B10B51BB108490848AFF3008008484B
:4002C000036803B910BD074B002BFBD0BDE81040184700BF0000000050490208303B08101C430208000000007047FFF7FDFF72B6104C114DAC4209DA21686268A368043B27
:40030000A2BFC858D050FAE70C34F3E70B490C4A00209142BCBF41F8040BFAE709480A490860BFF34F8F00F0DBF900F0B5F900F0A1F8FEE7343B08104C3B08104C490208AF
:40034000204E02080040020808ED00E0FEE7FEE700B504207146084202D0EFF3098001E0EFF30880043001F00FFCFEE710B5084BD3F80843E4B207E00548D0F84013C9B217
:4003800000F090FF013CE4B2002CF5D110BD00BF000066400000000030B58BB001F0CEFF01F094FF012001F0A3FF294801F03CFE284B1B6803EB83039A00274B1A44536886
:4003C00023B94FF47671254801F0CEFB0021204801F0AAFE04461F4B1B6803EB83039A001D4B1A44536823B940F2D9411B4801F0BBFB174D22460021284601F0EBFE184C1D
:4004000020802B6823F000432B6022881549684602F078FC6946144800F0C4FA208802F00DF909A3D3E9002301F0BAFF00220F4B02F094FA00220E4B02F066F902F076FBD3
:4004400080B220800BB030BD000000000070A74000001D41544D02086C3A0810D4340810684D0208FC3408100435081000C092400000594010B58AB062B6184C18492046FF
:4004800001F014FBB4F90030002B08DB590903F01F03012202FA03F3124A42F8213000F0DDFA1149114800F043FF00F017FA192000F098FA28220021684602F05FFBC82029
:4004C00001F02EFBFFF768FF02460949684602F019FC6946074800F065FAF0E7E83508106D03081000E100E00835081000006640143508101C35081008B5012000F092FE71
:4005000008BD00BF704700BF5C4AD2F8803303F00F0303F1D00152F8212002F00702032A04D0042A05D092B9554914E0554A116811E003F1C002514951F8222002F01F0276
:40054000112A06D0132A04D04FF4FA4103E04E4901E04FF400418BBB484BD3F8902502F00100D3F88825C2F30172D3F8883513F0405F07D0414BD3F88835C3F30173012BA5
:4005800002D102E0012300E0002303B108B9032A46D13A48D0F88025C2F31103D0F88425C2F30C02D0F88005C0F300600130B1FBF2F202FB03F2B2FBF0F131E0012B2FD1DC
:4005C0002E4BD3F8402602F00100D3F80026C2F30172D3F8003613F0405F07D0274BD3F80036C3F30173012B02D102E0012300E0002303B108B9032A12D12048D0F800264B
:4006000002F07F02D0F80036C3F30423D0F80006C0F3044002FB01F2B2FBF3F2B2FBF0F1164BD3F88033C3F3011321FA03F215494A601648D0F89030C3F307230133006973
:40064000000E0130B2FBF0F08860B2FBF3F3CB600B6103F5742202F23F220D48A0FB0202C2F387420A7503F2E7330A4AA2FB03239B098B61DB03CB61704700BF000026402C
:4006800000127A008C42020800366E010000214083DE1B43D34D621008B50D4801F060FBFFF730FFFFF730FF00221146042000F081FB084800F014FC074B1B6893F851309D
:4006C00013B1064800F07CFC00F0BEFA08BD00BF3C39081068490208B84D02082035081008B501F0AEFA074AD2F8883043F47003C2F88830BFF34F8FBFF36F8F01F0A5FA7B
:4007000008BD00BF00ED00E0064B1B6913F0200F03D02022034B5A6070472022014B9A60704700BF0005324008B51F4B1A681F4B1B689A4211D11E4B01225A601D49B1F96E
:400740000010C3F83011D3F830311B4B402199601A490A7020225A6008BD194B1B68194A82FB0312DB17C3EB6213013B104AC2F81431FFF7C9FF104B1B6913F0200F0ED1AF
:40078000094B1B682F2B0ADC074A53680A490969C1F3801102EB8300816001335360024A13680133136008BDE84A0208AC42020800003840E0350810000532406C4D02088E
:4007C000704D02081F85EB5108B51C4B19601C4B83FB0123C917C1EB63110139194BC3F81411802803D13222174B1A600AE0402803D13622144B1A6004E0202802D13422D6
:40080000114B1A60114B1B6913F0400FFAD100230F4A13700F4A5360136020210B4A5160084AC2F8083100F0F7F8094B1B78002BFBD02022054B5A60074808BD704D0208F8
:400840001F85EB5100003840AC420208000532406C4D0208E84A0208F04A020810B50E4C0E49204601F022F9B4F90030002B08DB590903F01F03012202FA03F3084A42F883
:400880002130084B20225A6040225A6043F698218020FFF799FF10BDE03508102907081000E100E000053240084B1A68084B1B689A4206DA0222074B5A600122064B1A704D
:4008C00070470122024B5A60704700BF744D0208504B020800003840784D020810B58020FFF7BCFF0B4C0C49204601F0DFF8B4F90030002B08DB590903F01F03012202FA79
:4009000003F3064A42F82130042002F02FF9044B186010BDD8350810A908081000E100E07C4D020838B50546002404E00349044800F0FEFC0134AC42F8DB38BD5435081044
:400940000000664070B506460D461149114800F0EFFC26B940F2A5510F4801F005F90D4C3146204600F0E4FC0C49204600F0E0FC25B940F2A551084801F0F6F8054C2946B0
:40098000204600F0D5FC0649204600F0D1FC70BD5C3508100000664060350810A0350810A435081070B506460C460B4D2946FFF7C9FF0120FFF7B6FF29463046FFF7C2FFE7
:4009C00024B940F2A551054801F0CEF82146044800F0AEFC70BD00BFA8350810603508100000664030B58FB0054600240CE02246074901A802F086F9064901A8FFF7A2FF8D
:400A00000120FFF78FFF0134AC42F0DB0FB030BDAC350810A835081008B5084B1B783BB9074A0021074801F013F90122034B1A70044B01229A609A6108BD00BFEC4C02080C
:400A4000F03508100000384008B50249024800F095FF08BD804D02080000664008B5114B1B785BB9104A1149114800F063FD1149114801F01BF801220A4B1A700E4BB3F9CE
:400A80000030002B08DB590903F01F03012202FA03F30A4A42F82130054A136843F00043136008BDED4C0208804D02083C36081000006640490A0810E835081000E100E06A
:400AC0001F4B98422DD00CD840282ED003D8E8B1102828D02FE0802829D0B0F5807F28D029E0184B984228D006D8B0F1204F0DD0154B984212D01EE0144B98420AD0013311
:400B0000984209D0023B984215D101E0002070470F4870470F4870470F4870474FF4A0007047074870470D4870470D4870470D487047034870470C4870474FF4A4007047B4
:400B400006005200010000F0090000A0040000F0010052000200520003005200010050000200500005005200FF00520038B5124B1B6893F83130012B04D840F2C3110F482A
:400B800000F0F2FF0C4B1D682A6AB5F8B03013442C46D5F8B420D358002B0BDB084B1868FFF78EFF6B6801229A6063689B68002BFBD138BD034838BDB84D02087C36081098
:400BC000F04C0208020050001A4B186128B102230370FF23437000234380174B1B6893F850202AB300B583B0B3F93830ADF80030002301931149684600F058FFBDF90030D9
:400C0000002B08DB590903F01F03012202FA03F30B4A42F82130084B1B6893F8513023B102220849012000F077FA03B05DF804FB704700BFF04C0208B84D02088D430208E1
:400C400000E100E04544020808B50248FFF7BCFF08BD00BF044D020838B50B4B1B68D3F8B4301B58002B0DDA0D4604460B0C1B0423B140F2D521054800F076FFA9B26160F2
:400C8000002038BD024838BDB84D0208BC36081001008A0038B50368002B01DA002300E0094B73B90D460446C2600B0C1B0423B140F2BB21054800F057FFA9B2A160002075
:400CC00038BD014838BD00BF01008A00BC36081038B504460D4619B99921084800F044FF074B1B68D3F8B4301B59002B03DAE3682B60002038BD034838BD00BFFC360810A0
:400D0000B84D020801008A00254B1B6893F8313083423AD900293AD00B6813F01F0F38D170B50D4604461E4B1B6893F83130984204D340F2C3111B4800F016FF184B1B68E3
:400D4000186AB3F8B03004FB0304174E34602A68D2080021686801F011FF00212046FFF77BFF346825B940F293310E4800F0FCFE2A4600212046FFF78DFF60B900210A4B5A
:400D80001868FFF769FF40B970BD084870470748704706487047064870BD054870BD00BFB84D0208BC360810084D020803018A0001018A0010B504461346B2B9A9B9124B45
:400DC0001B6893F83130984204D340F2C3110F4800F0CAFE0C4B1B681A6AB3F8B03004FB03240B4B1C60002010BD43B149B1084A51609360111D2046FFF786FF10BD0548E3
:400E000010BD044810BD00BFB84D0208BC360810084D020803018A002DE9F0411B4B1B68DC68236883422CD90D464609A0EB4610012303FA00F819B900F003FF074600E0B1
:400E40000027124B18680368002B01DA002300E00F4B83B9626852F8263018EA030F05D023EA080342F82630002400E0094C0021FFF7F2FE00E0084C25B9384600F0E5FEA6
:400E800000E0064C2046BDE8F08100BF084D020801008A00020188000301880004018A000B4B1B68DB681A6882420CD94109A0EB4110012202FA00F05B6853F82130184200
:400EC00003D004487047044870470448704700BF084D02080101880004018A0000018800024B1B680BB9014B18607047144D02082DE9F8430446884691461D46089F2C4B1B
:400F00001B681BB9B5212B4800F02EFE284B1B682C2000FB04F01C18EEB21E50C5F3072363602D0CA560244B1B6893F831309E4204D340F2C311214800F016FE1E4B1B68AB
:400F4000196AB3F8B02006FB02162661666893F832309E4204D340F2DF11184800F004FE154B1B681D6A803605EB46156561A668330C1B0423B14FF4FF71104800F0F4FD90
:400F8000330C1B0423B140F2FF110C4800F0ECFDB3B243EA0646AE60C4F81C90C4F820800023A36117B1B7F90030A381BDE8F883144D02083C370810B84D0208BC360810BE
:400FC000F0B58FB0044618B95221274800F0CCFDA369072B03D95621234800F0C5FDE36A1BB95821204800F0BFFD236B1BB959211D4800F0B9FD07AD04F114060FCE0FC5A0
:4010000037682F6002AD26460FCE0FC533682B60164B1B68B3F93620079B1344ADF83030089B0D93A26AE16A0CAD00953B460A98FFF75EFF00210091069B0A460598FFF718
:4010400057FF216B284600F031FDBDF93030002B08DB590903F01F03012202FA03F3044A42F821300FB0F0BD3C370810B84D020800E100E0F8B506460F461D4614461AB9D4
:40108000FD211F4800F070FD1E4B1B681BB9FE211B4800F069FD1B4B1B682C2101FB063001FB07314B68012202FA03F31B04466802FA06F60269EAB18F69EFB91268002A43
:4010C00001DA002200E0104AC2B92288134323600369DC6001238B614D620469330C1B0423B140F2BB21094800F03EFDB2B2A2600020F8BD0648F8BD0648F8BD0548F8BDE8
:401100003C370810144D020801008A00BC36081004028A0007028A00F8B505460F4616460E4B1B6823B94FF4AF710D4800F01CFD0A4B1B682C2404FB0534236A23B94FF4D3
:40114000B171074800F010FDE369B34204D9236A43F826700020F8BD0248F8BD144D02083C3708100A028A0070B582B000230193044620B940F2D111284800F0F5FC236903
:4011800023B94FF4E971254800F0EEFC636923B940F2D311214800F0E7FC236A23B94FF4EA711E4800F0E0FC6369DD682A0C20D012041A601B682069194B1B68D3F8B430D3
:4011C000C358002B15DA01A9FFF782FD60B9019803681E0CDBB2E269934206D2226A52F8233013B1984700E0002631462069FFF733FDADB275B16369ADB21D601B68636A5A
:401200001BB198470023636202E0A36A03B198470023A36163691B6802B070BD3C370810B84D020810B50446074B1B6823B940F2B111064800F098FC034B1B682C2000FB0C
:401240000430FFF791FF10BD144D02083C37081010B4D0F8003303F00F03072B06D900230DE0D0F84043CC54013300E000239342F7D306E0D0F8404321F813400133934225
:40128000F8D35DF8044B704710B51446D0F80833C3F308039A4200D31C462246FFF7D8FF204610BD036813F4006F01D0802200E04022D0F80832C3F30803934203D0C0F8F3
:4012C0004012012070470020704700BF10B4D0F8003203F00F03072B06D900230DE0CC5CC0F84042013300E000239342F7D306E031F81340C0F8404201339342F8D35DF84D
:40130000044B704710B51446036813F4006F01D0802200E04022D0F80832C3F30803D31AA34200D81C462246FFF7D0FF204610BD30B4036813F4006F01D0802200E0402249
:40134000002408E0D0F80832C3F308039A42F9D0C0F8405201340D5D002DF3D130BC70472DE9F84305460C46036813F4006F02D04FF0800801E04FF04008D5F8007207F076
:401380000F07A26A012A19D9D4F82490E262561EB9F1000F00D026B940F27351254800F0E3FB324649462846FFF7ACFFA36A1B1AA362072F00D9400048446062D5F808321C
:4013C000C3F30803984533D0A36A012B30D10023A362072F02D8636A1E7801E0636A1E8800F02FFCC5F840624FF40073C5F8803FD5F8803F00F029FCD5F8883F23F40072B9
:4014000022F0010242F4007623F4EE6323F0030323B140F22A41084800F0A6FBC5F8886F236843F002032360236B0BB101209847BDE8F8837C370810BC3708102DE9F04197
:4014400005460C46036813F4006F01D0802600E040267608A769D4F81C8017B1B8F1000F04D14FF49961314800F07EFB424639462846FFF709FF236A03442362E3691B1A7A
:40148000E36173BBA368FBB1E3689E4201D8013E00E05E1E2B6813F4006F01D0802300E040239E4204D34FF42071214800F05CFBD5F8043323F0FF03F6B21E43C5F8046323
:4014C0000123C5F8C83F02E00023C5F8C83F636823F001036360236B33B304209847BDE8F081A169D5F8002302F00F02072A00D940000844A0619E4216D95C1E2B6813F492
:40150000006F01D0802300E040239C4204D34FF42071074800F028FBD5F8043323F0FF02E3B21343C5F80433BDE8F0817C370810BC370810002800F0A48170B505460029E1
:4015400000F0A18116460C460B78022B03D93F21A24800F009FB637B023BDBB2062B03D940219E4800F000FBA37B3BB1022B05D0032B03D04121994800F0F6FA94F82130ED
:40158000012B03D94221954800F0EEFA94F82830012B03D94321914800F0E6FA2378012B06D86368083B082B94BF0023012307E0A37F2BB16368013B062B94BF00230123DB
:4015C0001BB14521854800F0CFFAA368053B042B03D94621814800F0C7FA6369FF2B03D947217E4800F0C0FAA369FF2B03D948217A4800F0B9FAA37C6BB1237833B9A368A5
:40160000092B05D1A37B2BB1012304E0012302E0012300E000231BB14A21704800F0A4FA636B23F4366323F00D031BB14C216B4800F09AFAE36B23F4EE6323F003031BB148
:401640004D21664800F090FA2378022B01D1A37F13B16268013A00E00022237F13B14FF4803100E00021A368082B02D84FF4006300E000230B4302F00F02134343F00073E4
:401680002B60226B2B6813F4006F01D0802300E040239A4203D36221504800F065FAA26B2B6813F4006F01D0802300E040239A4203D36321494800F057FA626A2B6813F4FB
:4016C000006F01D0802300E040239A4203D36421424800F049FA23781B0603F040732B64637F0BB1402200E00022A37C13B14FF4806300E000231343227C12B14FF48072E5
:4017000000E000221343627C12B14FF4007200E000221A43E36A013B1B0403F470231343627B013A02F007021343A27B120102F030021343AB64237B13B14FF4807200E07B
:401740000022E37B23B92378022B03D1012302E0012300E0002313B14FF4007300E000231A43A368013B03F00F031343C5F80033227DA3691B0403F47F031343C5F810333F
:40178000E26AD5F8003303F00F0303339A4201D3102A03D97A21114800F0E6F9E37F23B12378012B03D0002302E0002300E0012313B14FF4807200E00022637B013B03F015
:4017C00007031A43A37B1B0103F0300313436B64237B2BB14FF4807203E000BF003808100022A368013B03F00F0313432278012A02D14FF4803200E000221343C5F80032C4
:4018000094F83030C5F8043394F8203013B14FF0007200E0002294F82130012B02D14FF0807300E00023134394F82820012A02D14FF4803200E00022134394F824201343C9
:401840002B6594F83830C5F80432636B23F4926323F002031B051B0DC5F8C83FE36B23F08C035B055B0DC5F8883F76B1002070603060B060F0603062F0623063044B736314
:4018800070BD04487047034870BD002070BD00BFEFCDAB000160AA000B694A69934202D34869181A7047CA694869101A184470472DE9F04107460D46036813F4006F02D0DC
:4018C0004FF0800801E04FF040084FEA5808D7F80863C6F308062C6926E00134EB689C4200D100246B699C420FD12B6B0BB1082098476B699C4208D10023C7F8C83F0CB10D
:40190000013C13E0EC68013C10E0D7F84023D7F8003303F00F03072B02D8AB681A5502E0AB6823F81420013E002ED6D12C61EC6829463846FFF7B0FF201A804519D908B1BA
:40194000441E00E000243B6813F4006F01D0802300E040239C4204D34FF42071064800F003F9D7F8040320F0FF03E0B21843C7F80403BDE8F08100BFBC37081038B50446BC
:401980000D46D0F8003E13F0080F35D0D0F8CC3F13F448730AD04A681A434A60C0F8C03FD0F8C03F0B6B0BB110209847D4F8CC3F13F4006F09D06B6843F400636B604FF427
:4019C0000063C4F8C03FD4F8C03FD4F8CC3F13F0010F11D0EB6923B129462046FFF72EFD05E0AB681BB129462046FFF761FF0123C4F8C03FD4F8C03FD4F8003E13F0040F5C
:401A00002ED0D4F88C3F13F4A0630AD02A681A432A60C4F8803FD4F8803F2B6B0BB120209847D4F88C3F13F0010F08D029462046FFF796FC0123C4F8803FD4F8803FD4F868
:401A40008C3F13F4007F0BD00022C4F8882F2B6823F001032B60EA622B6B0BB10220984738BD00BF38B50D4B9A680D4B9A420FD10D46044621B940F237110A4800F074F823
:401A800004F11003064A52F8230042F8235038BD1030054B53F8200038BD00BF00ED00E000400208403808100000081048B338B504460D464368072B03D93221134800F075
:401AC00053F8B4F900306268002B08DB5201D2B203F1604303F5614383F8002305E003F00F035201D2B20A49CA540A4B9A680A4B9A4208D12946B4F90000FFF7B3FF0020C7
:401B000038BD06487047002038BD00BF4038081014ED00E000ED00E0004002080100560010B5044605E0084B186800F081F8A4F50044B4F5004FF6D8044B186800FB04F067
:401B400000F076F810BD00BFA8420208A442020808B5034B1B7800FB03F000F069F808BDA042020801BEFEE738B50D46044C18220146204601F0EAF8A5610020FFF7F2FF0E
:401B8000B8480208FEE700BF08B50268254BDA6142681A6282685A62C2689A620269DA6242691A6382695A63C2699A631E4A916AD963D16A1964516A5964516B9964926B8F
:401BC000DA64F1EE103A13F0900F27D0026A154B1A65426A5A65826A9A65C26ADA65026B1A66426B5A66826B9A66C26BDA66026C1A67426C5A67826C9A67C26CDA67026DFA
:401C0000C3F88020426DC3F88420826DC3F88820C26DC3F88C20026EC3F89020FFF7B2FF08BD00BFB848020800ED00E0000000000230800803D001300238FCD100BF00BF33
:401C40007047EFF3108072B6704780F31088704700287DD00346002A7CD070B45068000280B29568AD0405F480252843D468240404F4403404431069000600F0E060204376
:401C8000147F0CB1012400E0002420430C1DA4011851D06828B903EB81100024C0F808410CE0012805D1146803EB8110C0F8084104E003EB81100124C0F80841106938B97A
:401CC000546903EB8110C0F80C419469C0F81041146803EB8110C0F81441906CB0F1FF3F17D0946A04F00F04166B360206F470663443956B2D0405F470252543146C240300
:401D0000A4B22C430001C0B2204303EB8114C4F82001506A00F00300D66A360106F030063043556B2D0205F440752843D46BA401E4B20443506C800000F00C00204303EB93
:401D40008113C3F82401126AC3F83821002003E0024870470148704770BC70470100B600014B1860704700BFB84D02082DE9F8430E46074618B93A217548FFF7F5FE1EB9DD
:401D80003B217348FFF7F0FE002F00F0DA80002E00F0DA8032686F4B13401BB14A216C48FFF7E2FE72686C4B13401BB14B216848FFF7DAFEB36813F0FC2F03D04C21644800
:401DC000FFF7D2FEF36813F0FC2F03D04D216048FFF7CAFE337D032B03D94E215C48FFF7C3FEB369B3F5803F03D34F215848FFF7BBFEF36D072B03D950215548FFF7B4FE2D
:401E0000336EB3F5803F03D351215148FFF7ACFE736EB3F5803F03D352214D48FFF7A4FE736843F000437B60B3683B61F3687B613369BB61337D9B07FB61B3693B62336887
:401E400003F46068736803F00409002435E02546A31D06EB83035A68404B13401BB163213B48FFF781FEAB1D06EB8303596805F1200247F822105B6813F0012F0BD1B8F5FD
:401E8000606F08D1B9F1000F05D04FF47842344B23F8152003E00022314B23F81520726F02F11C7303F58033520093FBF2F31BB22C4A42F825300134E4B20F2CC7D9F36DA4
:401EC000C7F81832F36DC7F81032336EC7F82832336EC7F82032736EC7F83832736EC7F8303296F87030DBB1B36EB3F1804F03D382211748FFF738FEF36E23F44F0323F0D1
:401F0000FF031BB183211248FFF72EFE6FF04043C7F80433B36EC7F80033F36EC7F84433D7F8003F3F2B02D0D7F8003F13B90B23C7F8003F336843F400133B600020BDE89C
:401F4000F8830948BDE8F8830748BDE8F88300BFF43908100811DF0001FE302088CA887EBC4D0208DC4D02080100060038B50D46044618B9B5211748FFF7F6FD2CB300239B
:401F8000236063604FF0031222616261A361E361236206E003F12002002144F822100133DBB20F2BF6D90023C4F81832C4F82832C4F838325DB16FF04043C4F804330020B7
:401FC000C4F84003C4F8440338BD034838BD002038BD00BFF43908100100060008B50368002B0ADBD0F8A032002BFBDB036843F0004303600220FFF7ABFD08BD38B50546B6
:402000000C46012904D940F271110648FFF7ACFD012C04D16B6843F480336B6038BD01236B6238BDF4390810436813F4803F03D0436823F480334360704700BF38B50446F3
:402040000D46012904D94FF4F0711148FFF78CFDD4F8103203F00103012D06D00AE0D4F8103203F00103013A00E00A4A1BB9002AF5D100E0074A33B10123C4F81032D4F85C
:402080001032002038BD0AB9034838BD034838BDF439081055555501020006000300060038B505460C460F2904D94FF415710848FFF75AFD0F2C07D8203455F8243013F019
:4020C000012F03D0002038BD002038BD012038BDF439081038B505460C460F2904D940F222211048FFF740FD0F2C14D821462846FFF7D6FF80F0010010F0FF0F05D06B68CB
:4021000013F0080F09D1002038BD6B6813F0040F05D1002038BD002038BD012038BD012038BD00BFF439081038B505460C460F2904D940F27B210648FFF716FD0F2C04D8A2
:40214000603455F8240080B200E0002000B238BDF4390810F8B506460C4615460F2904D940F27B311948FFF7FFFC0F2C2BD8736813F0800F22D104F1200356F8233013F4F3
:40218000806F1BD07768C7F302170137012303FA07F7736813F4807F02D1102F00D9102721463046FFF796FF20B9ADB2B5FBF7F52DB203E03FB295FBF7F52DB2044B33F875
:4021C0001430ED1A2DB22846F8BD00BFF4390810BC4D020870B505460C4616460F2904D940F21F411648FFF7BFFC0F2C23D86B6813F0020F21D1324621462846FFF7AAFFAC
:4022000042F2107303FB00F2002807DD0D4B53F8240000EBD07002EB600306E0094B53F8240000EBD070A2EB6003064A52F8240093FBF0F002E0002000E0002000B270BDD8
:40224000F4390810DC4D020838B504461D4B1A68916892F8703003F0010343F08043C1F800340369FF2B0AD89168B2F874200A44516821F47F411B029BB20B435360114B76
:402280001A68906892F87310032303FA01F592F8703092F8721003FA01F1294303F001030B4343F00043C0F800349368D3F80034054D00212846FFF759FEA1682846FFF7B1
:4022C00055FD38BDB84D020800001D4108B5074B5B6813F4802F04D001210448FFF78EFE08BD00210148FFF789FE08BD00001D4108B501460348FFF7A1FE08B1002008BD8D
:40230000012008BD00001D4108B5084B1B7963B907490848FFF7CAFB044B5B792BB90122024B5A710448FFF78FFF08BD544D020869230810D03508106C3A081008B5084B2D
:402340001B7913F0010F06D1FFF7DEFF044A137943F0010313710348FFF740FE08BD00BF544D020800001D4110B5094BD3F81042072C04D940F231610648FFF7F5FB044BDE
:40238000C3F81042D3F81022D3F8103210BD00BF00001D41303A081081F0004102E000BF83F0004330B54FEA41044FEA430594EA050F08BF90EA020F1FBF54EA000C55EA62
:4023C000020C7FEA645C7FEA655C00F0E2804FEA5454D4EB5555B8BF6D420CDD2C4480EA020281EA030382EA000083EA010180EA020281EA0303362D88BF30BD11F0004FE1
:402400004FEA01314FF4801C4CEA113102D0404261EB410113F0004F4FEA03334CEA133302D0524263EB430394EA050F00F0A780A4F10104D5F1200E0DDB02FA0EFC22FA80
:4024400005F2801841F1000103FA0EF2801843FA05F359410EE0A5F120050EF1200E012A03FA0EFC28BF4CF0020C43FA05F3C01851EBE37101F0004507D54FF0000EDCF134
:40248000000C7EEB00006EEB0101B1F5801F1BD3B1F5001F0CD349085FEA30004FEA3C0C04F101044FEA445212F5800F80F09A80BCF1004F08BF5FEA500C50F1000041EB6C
:4024C000045141EA050130BD5FEA4C0C404141EB010111F4801FA4F10104E9D191F0000F04BF01460020B1FA81F308BF2033A3F10B03B3F120020CDA0C3208DD02F1140CAA
:40250000C2F10C0201FA0CF021FA02F10CE002F11402D8BFC2F1200C01FA02F120FA0CFCDCBF41EA0C019040E41AA2BF01EB0451294330BD6FEA04041F3C1CDA0C340EDCE2
:4025400004F11404C4F1200220FA04F001FA02F340EA030021FA04F345EA030130BDC4F10C04C4F1200220FA02F001FA04F340EA0300294630BD21FA04F0294630BD94F008
:40258000000F83F4801306BF81F480110134013D4EE77FEA645C18BF7FEA655C29D094EA050F08BF90EA020F05D054EA000C04BF1946104630BD91EA030F1EBF0021002059
:4025C00030BD5FEA545C05D14000494128BF41F0004130BD14F580043CBF01F5801130BD01F0004545F0FE4141F470014FF0000030BD7FEA645C1ABF194610467FEA655CB6
:402600001CBF0B46024650EA013406BF52EA033591EA030F41F4002130BD00BF90F0000F04BF0021704730B54FF4806404F132044FF000054FF0000150E700BF90F0000F85
:4026400004BF0021704730B54FF4806404F1320410F0004548BF40424FF000013EE700BF42004FEAE2014FEA31014FEA02701FBF12F07F4393F07F4F81F06051704792F0D4
:40268000000F14BF93F07F4F704730B54FF4607401F0004521F0004120E700BF50EA010208BF704730B54FF000050AE050EA010208BF704730B511F0004502D5404261EB8D
:4026C00041014FF4806404F132045FEA915C3FF4DCAE4FF003025FEADC0C18BF03325FEADC0C18BF033202EBDC02C2F1200300FA03FC20FA02F001FA03FE40EA0E0021FAA0
:4027000002F11444C1E600BF70B54FF0FF0C4CF4E06C1CEA11541DBF1CEA135594EA0C0F95EA0C0F00F0DEF82C4481EA030621EA4C5123EA4C5350EA013518BF52EA03354C
:4027400041F4801143F4801338D0A0FB02CE4FF00005E1FB02E506F00042E0FB03E54FF00006E1FB03569CF0000F18BF4EF0010EA4F1FF04B6F5007F64F5407404D25FEA2D
:402780004E0E6D4146EB060642EAC62141EA55514FEAC52040EA5E504FEACE2EB4F1FD0C88BFBCF5E06F1ED8BEF1004F08BF5FEA500E50F1000041EB045170BD06F0004641
:4027C00046EA010140EA020081EA0301B4EB5C04C2BFD4EB0C0541EA045170BD41F480114FF0000E013C00F3AB8014F1360FDEBF002001F0004170BDC4F10004203C35DA17
:402800000C341BDC04F11404C4F1200500FA05F320FA04F001FA05F240EA020001F0004221F0004110EBD37021FA04F642EB06015EEA430E08BF20EAD37070BDC4F10C04B1
:40284000C4F1200500FA04F320FA05F001FA04F240EA020001F0004110EBD37041F100015EEA430E08BF20EAD37070BDC4F1200500FA05F24EEA020E20FA04F301FA05F2CE
:4028800043EA020321FA04F001F0004121FA04F220EA020000EBD3705EEA430E08BF20EAD37070BD94F0000F0FD101F00046400041EB010111F4801F08BF013CF7D041EACE
:4028C000060195F0000F18BF704703F00046520043EB030313F4801F08BF013DF7D043EA0603704794EA0C0F0CEA135518BF95EA0C0F0CD050EA410618BF52EA4306D1D1CE
:4029000081EA030101F000414FF0000070BD50EA410606BF1046194652EA430619D094EA0C0F02D150EA013613D195EA0C0F05D152EA03361CBF104619460AD181EA0301A1
:4029400001F0004141F0FE4141F470014FF0000070BD41F0FE4141F4780170BD70B54FF0FF0C4CF4E06C1CEA11541DBF1CEA135594EA0C0F95EA0C0F00F0A7F8A4EB05044E
:4029800081EA030E52EA03354FEA013100F088804FEA03334FF0805545EA131343EA12634FEA022245EA111545EA10654FEA00260EF000419D4208BF964244F1FD0404F5A9
:4029C000407402D25B084FEA3202B61A65EB03055B084FEA32024FF480104FF4002CB6EB020E75EB030E22BFB61A754640EA0C005B084FEA3202B6EB020E75EB030E22BFAE
:402A0000B61A754640EA5C005B084FEA3202B6EB020E75EB030E22BFB61A754640EA9C005B084FEA3202B6EB020E75EB030E22BFB61A754640EADC0055EA060E18D04FEA89
:402A4000051545EA16754FEA06164FEAC30343EA52734FEAC2025FEA1C1CC0D111F4801F0BD141EA00014FF000004FF0004CB6E711F4801F04BF01430020B4F1FD0C88BF5A
:402A8000BCF5E06F3FF6AFAEB5EB030C04BFB6EB020C5FEA500C50F1000041EB045170BD0EF0004E4EEA113114EB5C04C2BFD4EB0C0541EA045170BD41F480114FF0000E99
:402AC000013C90E645EA060E8DE60CEA135594EA0C0F08BF95EA0C0F3FF43BAF94EA0C0F0AD150EA01347FF434AF95EA0C0F7FF425AF104619462CE795EA0C0F06D152EA69
:402B000003353FF4FDAE1046194622E750EA410618BF52EA43067FF4C5AE50EA41047FF40DAF52EA43057FF4EBAE12E74A0011D212F5001211D20DD56FF47873B3EB62521C
:402B40000ED44FEAC12343F0004343EA505323FA02F070474FF00000704750EA013002D14FF0FF3070474FF000007047024B0146186800F059B800BF10430208024403463B
:402B8000934202D003F8011BFAE7704738B50546002946D051F8043C0C1F002BB8BFE41800F0E7F81F4A1368114613B96360146032E0A3420ED92268A018834204BF1868C1
:402BC0005B68636004BF121822600C6024E0A24203D813465A68002AF9D118681918A1420BD12168014458188242196014D1106852685A60014419600EE002D90C232B60A5
:402C00000AE021686018824204BF10685268626004BF091821605C602846BDE8384000F0A9B838BD604D020870B5CD1C25F0030508350C2D38BF0C25002D064601DBA9427C
:402C400002D90C23336046E000F093F8234B1C681A462146A1B10B685B1B0ED40B2B03D90B60CC18CD501EE08C420DBF63684B686360136018BF0C4615E00C464968E9E785
:402C8000174C23681BB9304600F02CF820602946304600F027F8431C18D0C41C24F00304A0420DD12560304600F064F804F10B00231D20F00700C31A0ED05A42E25070BDFE
:402CC000211A304600F00EF80130EBD10C233360304600F04FF8002070BD00BF604D02085C4D020838B5064C002305460846236000F0D6FB431C02D1236803B12B6038BD2B
:402D00001C4E02080EB400B59CB04FF402711DABADF81410029006906FF000410A48049107914FF6FF7153F8042BADF816100068019302A900F09EF8029B00221A701CB092
:402D40005DF804EB03B070471043020810B5034642B111F8014B03F8014B013A002CF7D11A4400E010BD934202D003F8014BFAE710BD70477047F8B5074615460E4621B9E4
:402D80001146BDE8F840FFF74FBF1AB9FFF7FEFE2846F8BD00F07AFB85420ED929463846FFF742FF044650B131462A4600F048FB31463846FFF7EAFE01E03046F8BD204612
:402DC000F8BD2DE9F0478E689E4282460C46914698463ED88A8912F4906F3AD0256809696F1A6569022305EB450595FBF3F57B1C43449D4238BF1D4653050FD52946FFF7CF
:402E000013FF064698B13A46216900F019FBA38923F4906343F08003A38113E02A46FFF7AAFF064670B921695046FFF7AFFE0C23CAF80030A38943F04003A3814FF0FF303E
:402E4000BDE8F087266165613E44ED1B2660A5604646464528BF464632464946206800F0FAFAA3689B1BA36023681E4426600020BDE8F0872DE9F04F9DB0804603938B8952
:402E80001C060D4616460DD50B695BB94021FFF7CBFE2860286118B90C23C8F80030CDE040236B610023099320238DF82930DFF89CB130238DF82A3037463C4614F8013B5D
:402EC0001BB9B7EB060910D003E0252BF9D02746F3E74B46324629464046FFF772FF013000F0A780099B4B4409933B78002B00F0A08000234FF0FF320493079305920693CC
:402F00008DF853301A930126052221784E4800F047FA671C049B38B14B4A801A06FA00F0184304903C46EFE7D90644BF20228DF853201A0744BF2B228DF8532022782A2A4A
:402F400003D0079A00210A200BE0039A111D12680391002A10DA524243F00200079204900BE0274601343B78303B092B03D800FB02320121F5E701B107923B782E2B1ED197
:402F80007B782A2B0AD1039B1A1D1B680392002BB8BF4FF0FF330237059310E000230593781C19460A24074601303A78303A092A03D804FB01210123F5E703B10591032219
:402FC0003978224800F0ECF940B14023CBEB000003FA00F0049B18430490013739781C488DF8281006227E1C00F0DAF988B1194B33B9039B073323F007030833039314E08A
:4030000003AB00932A46144B04A94046AFF3008007E003AB00932A460F4B04A9404600F093F8B0F1FF3F824603D0099B5344099342E7AB895B0601D4099801E04FF0FF30B7
:403040001DB0BDE8F08F00BFFA3A0810003B0810043B081000000000C32D08102DE9F04791461F460A698B68DDF820809342B8BF1346C9F8003091F8432006460C4612B15B
:403080000133C9F800302368990642BFD9F800300233C9F80030256815F0060510D104F1190A07E00123524639463046C04701301AD00135E368D9F800209B1A9D42F1DB77
:4030C00094F843302268003318BF012392060FD5E1185A1C302081F84300224494F8451082F84310023303E04FF0FF30BDE8F08704F1430239463046C0470130F4D02268B7
:40310000D9F80050E36802F00602042A08BF5D1B2269A3680CBF25EAE57500259342C4BF9B1AED184FF000091A344D4509D00123224639463046C0470130D5D009F1010958
:40314000F3E70020BDE8F0872DE9F04317460A7E85B06E2A984606460C460C9B01F1430E00F0AE8011D8632A22D009D8002A00F0BB80582A40F0CA8081F84520834955E041
:40318000642A1ED0692A1CD0C0E0732A00F0B08009D86F2A2ED0702A40F0B8800A6842F020020A603EE0752A24D0782A3AD0ADE01A6801F14205111D1960136884F8423058
:4031C000A8E021681A6811F0800F02D0111D196008E011F0400F02F10401196002D0B2F9003000E01368002B3CDA2D225B4284F8432037E021681A6811F0800F02D0111DC4
:40320000196007E011F0400F02F10401196001D0138800E01368227E5C496F2A14BF0A2208221BE078225A4984F845202268186812F0800F00F104051D6003D1550601D56F
:40324000038800E00368D00744BF42F0200222601BB9226822F0200222601022002084F8430001E049490A226568A560002D08DB206820F0040020602BB9002D7DD17546EC
:403280000CE0002B79D07546B3FBF2F002FB1033CB5C05F8013D03460028F5D1082A0BD12368DA0708D5236962689A42DEBF302305F8013C05F1FF35C5EB0E0323612EE05A
:4032C00008681A68496910F0800F03D0101D1860136808E010F0400F02F104001860136801D0198000E0196000232361754616E01A68111D1960156862680021284600F07D
:403300004FF808B1401B6060636804E004F1420584F8422001232361002384F84330CDF800803B4603AA21463046FFF797FE013002D14FF0FF3026E023692A4639463046AB
:40334000C0470130F5D023689B0710D5002504F1190907E001234A4639463046C0470130E7D00135E368039A9B1A9D42F2DBE068039B9842B8BF184605E00B7884F8423019
:4033800004F142058AE705B0BDE8F0830B3B08101C3B081000000000000000000000000001F0FF01102A2BDB10F0070F08D010F8013B013A8B422DD010F0070F42B3F6D18C
:4033C000F0B441EA012141EA014122F007047FF000070023F0E80256083C85EA010586EA010685FA47F5A3FA87F586FA47F6A5FA87F68EB9EED1F0BC01F0FF0102F007020E
:4034000032B110F8013B013A83EA010313B1F8D10020704701387047002D06BF35460338073815F0010F07D1013015F4807F02BF013015F4C03F0130F0BC0138704700BFD2
:4034400010B5431E0A44914204D011F8014B03F8014FF8E710BD884210B501EB020301D8421E0BE09842FBD28118D21AD34204D013F8014D01F8014DF8E710BD994204D031
:4034800011F8014B02F8014FF8E710BD51F8040C0028BEBF091851F8043CC01804387047044A05491368002B08BF0B461844106018467047644D0208204E0208F8B500BF74
:4034C000F8BC08BC9E467047F8B500BFF8BC08BC9E46704747656E6572617465645F536F757263655C50536F43362F426174746572695F4144432E68000000002564206D27
:40350000560D0A0032000000537461727475700A0D000000256425250D0A000031000000030000000100000001000000000000000503600004000000010000000000000055
:40354000010000000604600008000000C84A0208F90408101B5B324B000000001B5B000047656E6572617465645F536F757263655C50536F43365C70646C5C6472697665E6
:4035800072732F7065726970686572616C2F7363622F63795F7363625F756172742E68003B0000006600000030000000256400001B5B39316D0000001B5B39326D0000001C
:4035C0001B5B39346D0000001B5B306D000000008A000000070000007B000000070000007A000000070000002E00000007000000000000000000000000000000000000009F
:40360000020000000040000000400000000000000100000003000000FFFFFFFF03000000FFFFFFFF03000000FFFFFFFF03000000FFFFFFFF03000000FFFFFFFF000000000C
:403640000C0000000800000000020000000000000000000000000000000000000000000000000000000000000B0000000000000000000000000000000000000047656E65AA
:4036800072617465645F536F757263655C50536F43365C70646C5C647269766572732F7065726970686572616C2F6970632F63795F6970635F6472762E68000047656E6520
:4036C00072617465645F536F757263655C50536F43365C70646C5C647269766572735C7065726970686572616C5C6970635C63795F6970635F6472762E68000047656E6559
:4037000072617465645F536F757263655C50536F43365C70646C5C647269766572735C7065726970686572616C5C6970635C63795F6970635F6472762E63000047656E651D
:4037400072617465645F536F757263655C50536F43365C70646C5C647269766572735C7065726970686572616C5C6970635C63795F6970635F706970652E630047656E657B
:4037800072617465645F536F757263655C50536F43365C70646C5C647269766572735C7065726970686572616C5C7363625C63795F7363625F756172742E680047656E6530
:4037C00072617465645F536F757263655C50536F43365C70646C5C647269766572735C7065726970686572616C5C7363625C63795F7363625F636F6D6D6F6E2E68000000A2
:4038000047656E6572617465645F536F757263655C50536F43365C70646C5C647269766572735C7065726970686572616C5C7363625C63795F7363625F756172742E6300B4
:4038400047656E6572617465645F536F757263655C50536F43365C70646C5C647269766572735C7065726970686572616C5C737973696E745C63795F737973696E742E63AB
:40388000000000000000204000002440000000400000000000002340000030400000314000009F40000022400000104002020202020202020210101D800017007500FF03D2
:4038C0000602063604102000000000007FC0000000040000000000000019324B647D00804000080B100000000000FF012002001F00800004FF081018001000140018001C67
:403900004044484C50000000081000000800000004000000041000000012000004210000002100000016000040114002C41300138013A013200000001C0000000000214019
:4039400000002540000001400000344000002440000031400000324000001F410000234000001140010101010101010101101010800019005500F0000501053B04101C0144
:40398000010000000FC000000004000001010101011D3A57789600082000101208000000001F00000010000F002000023F06080E00080009000A000B24282C303400000063
:4039C000100000009000000088000000080000008000000004F0000000F00000400200002005A000D00100018001A001200000001000000047656E6572617465645F536F58
:403A0000757263655C50536F43365C70646C5C647269766572735C7065726970686572616C5C7361725C63795F7361722E63000047656E6572617465645F536F7572636502
:403A40005C50536F43365C70646C5C647269766572732F7065726970686572616C2F7361722F63795F7361722E6800000000000001000000803A081001000000020000007C
:403A800072CE2053900004901C000200020002000000FF0E0000000001000000000400000000000000000000000000000000000000000000000000000000000000000000FB
:403AC00000000000000000000000000000000000000000000000000000000000010000000000000000000000000000000000000000000000E40C00004300232D302B2000C7
:403B0000686C4C0065666745464700303132333435363738394142434445460030313233343536373839616263646566000000000000000000000810004002088C0200006D
:403B4000543B08108C4202082C0600004C490208D40400000048E80100127A0000093D0000127A0000127A0008000000401F00000000A00F320000000000000000000000BA
:403B8000000000000000000000000000000000000000000000000000F83A0810000000000000000000000000000000000000000000000000000000000000000000000000BB
:403BC000000000000000000000000000000000000000000000000000B0420208B10208108D0208100000000080B2C10050B3164B1B681A6AB3F8B030C3EBC303D358002BA4
:403C0000F5DA3E22114B1A6041F61E7204331A60A3F584730622C3F8182521F07F41C3F81C15D3F81C35084B1A68116AB2F8B030C3EBC3030B4400225A60054BD3F81C359A
:403C4000002BFADA704700BFB84D02080401264000002640F8B5274B1B6893F83130052B04D840F2C311244800F082FA214F3A68166AB2F8B03003EB83031E4452684FF28A
:403C80006003D458A4B200F06BFA05463B681968D3F890208A58013C032C27D8032A0CD1164A127812F0FF0F07D10822B2601968D3F890208A58032AF9D01968D3F88420B7
:403CC0008B588858C0F307221B0E581C02FB00000B4B03FB00F00B4B1B680B4AA2FB03239B09B0FBF3F08230FFF77EFF284600F02FFAF8BDB84D02087C3608100B000016C9
:403D000040420F0090420208D34D62104378FF2B23D110B500F024FA0446104B1B6893F83130042B04D840F2C3110D4800F020FA0A4B1A68136AB2F8B02003EB8203DB68D0
:403D40005A68136843F001031360136813F0010FFBD1204600F0FCF910BD7047B84D02087C3608102DE9F04707468846554B1B6893F83130012B04D840F2C311524800F04B
:403D8000F7F9504B1B681C6AB3F8B0201444D3F8B420161993F85030002B79D04B4B1B7813F0FF0F02D04FF0000901E04FF00109B9F1000F38D0434B1B6893F83130052BE3
:403DC00004D840F2C311404800F0D2F93D4B1A68116AB2F8B03003EB83030B44D2F8B420D358002B22DB002000F0A2F9384B98421ED00023374A12690121184600F088F9D5
:403E000018B1354D17E0013500E00025002000F08FF92F4B984202D0304B9D42F3D92F4B9D4207D92C4D06E0002504E02A4D02E0294D00E00025002D41D100F091F982462B
:403E4000274BD3F81C35002B10DA224A0121204600F066F960B94046FFF7C6FE57B13368002BFCDB00F06CF9054604E01A4D02E0194D00E01B4DB9F1000F05D00121002013
:403E800000F03EF90028F9D1504600F061F916E000F066F980460F4A0121204600F040F938B947B13368002BFCDB00F049F9054602E0094D00E00B4D404600F049F928465B
:403EC000BDE8F087B84D02087C3608100B00001601018800F04C020805005200EF4902000000264001005000F0B47F4B1A6855684FF0B0535B7813F0FF0F04D04FF0B053AB
:403F00005B78DBB200E02123212B55D1116AB2F8B030C3EBC303CC18CB58002BF6DAE36843F00103E360146AB2F8B030C3EBC3031C44E36813F0020F2DD0E3689EB21368FD
:403F4000D2F884105958090A090401F47F01D2F88870DB591B0A41EA03633343E3601168D2F884208B5823F47F4343F410638B505D4A13681C68D3F88810635823F47F4373
:403F800043F41063635013681A68D3F884105158D3F88830D358544B1A68116AB2F8B030C3EBC3030B4400215960116AB2F8B030C3EBC3030B445B684B4B19680C68D1F84F
:403FC00094301C44494A136943F004031361012801D030BF07E020BF454B1B7803B120BF0122434B1A70236803F00303022BE9D00A6AB1F8B030C3EBC303D018D358002B27
:40400000F6DA4FF0B0535B7813F0FF0F04D04FF0B0535B78DBB200E02123212B30D1C36813F0020F1FD00C68D1F88410635823F47F42C3681B0C1B0203F47F4313436350E0
:40404000294B19680C68D1F88800235823F47F420D6AB1F8B030C3EBC3032B44DB681B0E42EA03232350204B1A68136AB2F8B020C2EBC2021344DA6822F00102DA6026E0DC
:40408000D5F80C311BBB1B490E681B4BD3F818451A4A106841F61E770F600621C3F818153E2111604422C3F81C25134BD3F81C35002BFADA4FF0AA33C5F80C310D4B1E60FB
:4040C000A3F58473C3F8184503F582731860064B1A68116AB2F8B030C3EBC3030B4400225A60F0BC704700BFB84D020800ED00E0184D020808012640000026400401264090
:4041000001B40248844601BC604700BF190E081001B40248844601BC604700BF7510081001B40248844601BC604700BF950C081001B40248844601BC604700BFA10E081073
:4041400001B40248844601BC604700BF6D0B081001B40248844601BC604700BF4B1C081001B40248844601BC604700BF431C081001B40248844601BC604700BF691B08106D
:4041800000000000000000000000000000000000000000000000000000000000000000000000000000000000000000000000000000000000000000000000000000000000FF
:4041C00000000000000000000000000000000000000000000000000000000000000000000000000000000000000000000000000000000000000000000000000000000000BF
:0200000490303A
:02000000404579
:0200000490501A
:0C0000000005E2F021002101E30761454A
:00000001FF