:020000041000EA
:4000000000400208230100100D00000085010010000000000000000000000000000000000000000000000000000000008101001000000000000000008101001081010010E9
:400040008101001081010010810100108101001081010010810100108101001081010010810100108101001081010010810100108101001081010010810100108101001060
:400080008101001081010010810100108101001081010010810100108101001081010010810100108101001081010010810100108101001081010010810100108101001020
:4000C00010B5064C2378002B07D1054B002B02D0044800E000BF0123237010BD3C06000800000000482E0010084B10B5002B03D00749084800E000BF07480368002B00D1B4
:4001000010BD064B002BFBD09847F9E70000000040060008482E0010E8000008000000007047FFF7FDFF72B60F4C104DAC4209DA21686268A368043B02DBC858D050FAE733
:400140000C34F3E70A490B4A0020521A02DD043A8850FCDC084809490860BFF34F8F00F005F900F01DF8FEE74C2E0010642E00103C060008140800080000000808ED00E07B
:40018000FEE7FEE700B504207146084202D0EFF3098001E0EFF30880043001F0E3FAFEE710B562B6014800F067F9FEE70000081010B5002001F052F810BDC04670B56249F6
:4001C000E0239B00CB580F2213401A00D0329200525807210A40032A05D0042A06D0002A12D15A4814E05A4A106811E01A00C0329200554952581F210A40112A06D0132A7C
:4002000004D0FA20C00103E0524801E080200002002B36D14C4BB222D2009A5801211140B125ED005A59120F032422405B591B0F1C4207D0444C63591B0F03242340012BDC
:4002400002D102E0012300E00023002B01D0002901D1032A4BD13C4BB022D2009D58AD03AD0B3D495958C904C90C9C58240E01231C40013401F080FD6843210001F07CFD82
:4002800035E0012B33D1304BC822D2009A5801251540C024E4001A59120F03210A401B591B0F194207D028490B591B0F03210B40012B02D102E0012300E00023002B01D049
:4002C000002D01D1032A12D11F4DC022D200AB587F210B40A958090A1F263140AC58240C3440584301F048FD210001F045FDE0239B00154AD3581B0903221340D840144C0E
:400300006060164B1D692D0AFC32154001351969090E013101F030FDA060290001F02CFD0500E06020610E4BC0180E4901F024FD20750D4BE818FA21890001F01DFDA061FD
:40034000C003E06170BDC0460000264000127A00C000000800366E0184050000000021403F420F0040420F00E703000010B5284801F0FCFC274CB022D200A3585B005B0804
:40038000A350E0218900635830208343635080235B04A350204A214BE250A02292010433E250FF221E4BE25001F0CEFCC0225200A35801218B43A35000F05EFAFFF7FEFEBE
:4003C000B0235B055B78002B04D0B0235B055B78DBB200E02123212B03D1124B0022DA605A60114C22008021042000F0DDFC2000103000F071FD0D4B1A685123D35C002B3B
:4004000002D00B4800F0DEFD00F0A6FB10BDC046902D00100000264001000200840500008C050000E00023405806000810080008F01E00108023024AD358032018407047E5
:400440000000214010B501F020FA084980228C58074B2340074C23438B508823034AD358DB06FAD501F015FA10BDC04600002140FCFF00000100FA0570B50500830504D0A3
:40048000E821FF310F4801F03FF901F0FEF90400FFF7D0FF032801D1FFF7D4FF0A4AB0239B00D55080215058084B03400848034353508823044AD358DB06FAD5200001F028
:4004C000E8F970BD241F001000002140FCFF00000300FA05FEE7C04680221206044B1A6080221203034B1A60034A044B1A60704700001D4100031D4101001180000E1F41C4
:4005000010B50A00002101F0CCFC10BD10B501F0BFFC10BD30B587B0C449A022D2008B58032083438B50C24A116808688823CB58C3181868BF49084018601368186884241A
:400540001B59C01803681B021B0A80256D042B430360106805680359EB1818680140196013683E229A5C002A06D0B048E02189004258753CA24342503E229A5C002A06D0B2
:40058000AA48E021890042583024A24342503E229B5C002B07D0A549E02292008B588020000603438B500021012000F089FE0021022000F085FE0021032000F081FE002192
:4005C000042000F07DFE0021002000F079FE01A8994903000A0032CA32C312CA12C300F09DFE002802D00420FFF774FF8F49934A8B588020000603438B50914800F04AFF07
:40060000002802D00420FFF765FF884C8D4BE1588D4A0A40E250E1588C4A0A40E250E25880252D062A43E250043BE158884A0A40E250E158874A0A40802189010A43E2500A
:40064000E258802109020A43E250834A1168834B0B40802149000B431360002001F056FB7F4BE2581543E550E158012291430A43E2506421002001F08DF86D4B1B683F22B2
:400680009A5C052A03D90021764A986881509A6874215B5AD2181168664B0B408C2189010B431360624B1B687322995C703A8A40110070229A5C7220185C82400A43802167
:4006C00009060A438021C900986842509A6852583F229A5C132A0AD97122985C6F3A82401100032282400A405F49986842509A6878215B5AD21810685C4B03408020400095
:40070000034313604A4802689468535AE3181A6880318A4378390A431A60036873229A5C0324210091400A007021585C0231595C8840104371229A5C022191409440220014
:400740000A400243802109060A438021C900986842509A6852583F229A5C142A0BD97122985C703A82401100032282400A40C5210901986842509A6876215B5AD218116864
:400780003A4B0B403A490B431360294B1B6873229A5C0324210091400A007021585C0231595C8840104371229A5C01219140944022000A400243802109060A438021C900D0
:4007C000986842509A6852583F229A5C392A06D970229A5C01210A402649986842509A6874215B5AD2185168124B0B40C42189010B4353600E4B1A687323D35C0321994089
:400800007023D35C7220105C1C0084402143012003400B43802109060B438021C9009068435093685B5807B030BDC0460000264010080008FF00FFFF3C1F0010087F000042
:40084000400D030004050000FEFCFFFFFFFF00FFFFF0FFFFFF8FFFFF00002740FFFCFFFF0C050000140C00004C0C0000FF0000FF00F30100E40C000070B58AB096210020B0
:4008800000F088FF00F05EFF002814D100F04AFFC0235B00494AD358DB0705D41100484A8B585B005B088B504449454A8B588020000603438B50012001F0C0F9414A516C7F
:4008C000414B0B40E82189010B435364536C1B0AFF2213403A2B07D13A4A516C3B4B0B40E82189010B435364FFF714FE384A394B1A6000240CE0620012195300364AD31867
:40090000198B9A8AD88A00041043FFF7F9FD01340B2CF0D900240AE06200121993002E4AD3185A6E196ED86DFFF7F0FD0134112CF2D90122294B1A600232294B1A60294A2A
:400940001368812149000B43136001AC264D22002B00343343CB43C243CB43C243CB43C22100224800F000F922002B00583343CB43C243CB43C243CB43C221001C4800F049
:40098000F3F822002B007C3323CB23C223CB23C223CB23C22100174800F0E6F824220021200001F07EFA8E231B05E3602100124800F0DAF8FFF790FD0AB070BD0000264078
:4009C0000C05000000002740FF00FFFFFFC5FFDF0300FA05F00121403C1F00100479344008793440007934403C20001080023240000332408004324000053240214B9842C6
:400A000030D00ED8402831D004D800281FD010282AD031E080282BD080235B00984229D02AE0194B984229D007D8A0231B0698420DD0164B984212D01EE0154B98420AD0D3
:400A4000144B984209D0144B984215D101E0002016E0124814E0124812E0124810E0A020C0030DE007480BE00F4809E00F4807E00F4805E0034803E00E4801E0A420C0031A
:400A80007047C04606005200010000F0090000A0040000F0050000F0030000F0010052000200520003005200010050000200500005005200FF00520070B5124B1A6831230C
:400AC000D35C002B04D1C421FF310F4800F01CFE0C4B1D682C00B423EB582A6A944663441B68002B0BDB094B1868FFF787FF6B6801229A6063689B68002BFBD100E0044855
:400B000070BDC046100800080C2A0010E80700080200500010B50D4B1861002805D002230370FD33437000234380094B1B6850229A5C002A08D051229B5C002B04D04F3AAC
:400B40000449002000F0F8FA10BDC046E8070008100800086101000810B502481430FFF7D9FF10BDE807000870B505000C0000285DD000295DD0FF230A689A4303D099210E
:400B80002D4800F0C1FDFF2322699A4303D09A21294800F0B9FDA3685B0D03D09B21264800F0B2FD63685B0A03D09C21224800F0ABFDE3695B0F03D09D211F4800F0A4FDD3
:400BC000236A5B0F03D09E211B4800F09DFD1B4A11688B69EB1ADB0949691B01CB18216829607D211068415C6918E06808607E211068415C6918206908607F211068415C42
:400C00006918606908607C211068415C6918A06808606168A961116880228A5CAD18A2692A60E2691A60226A5A60002002E0044800E0034870BDC0464C2A001010080008D4
:400C400001005A0070B504000D000A4B1A68B423D3581B181B68002B0ADA0B0C03D00649064800F051FD2D042D0C6560002000E0034870BD10080008D5020000CC2A0010DC
:400C800001008A0070B505000C000368002B01DA002300E0084B002B0BD1EA60230C03D00649074800F030FD2404240CAC60002000E0014870BDC04601008A00BB02000076
:400CC000CC2A001070B505000C1E03D19921084800F01AFD074B1A68B423D3585B191B68002B03DAEB682360002000E0024870BD0C2B00101008000801008A0070B5040078
:400D00000D00234B1A683123D35C834236D9002936D00B68DB0635D13123D35C984204D3C421FF311B4800F0EFFC194B1B681A6AB0215B5A5C431419174E34602B68DA0824
:400D40000021686801F0ADF800212000FFF77AFF3468002D03D111490E4800F0D5FC2A0000212000FFF78EFF00280DD10A4B18680021FFF767FF002808D108E0084806E0C9
:400D8000074804E0064802E0064800E0054870BD10080008CC2A0010000800089303000003018A0001018A0010B50400002A17D1002915D1124B1A683123D35C984204D345
:400DC000C421FF310F4800F09FFC0D4B1B681A6AB0215B5A5C4314190B4B1C6000200EE0002A09D0002909D0074B59609A60191D2000FFF783FF02E0044800E0034810BD6D
:400E000010080008CC2A00100008000803018A00F0B583B00D001C4B1B68DC68236883422DD947097B01C01A012383401E00002903D100F02AFD019001E000230193124B40
:400E400018680368002B01DA002300E00F4B002B0ED16368BF00DF193B68334203D0B3433B60002400E00A4C0021FFF7EBFE00E0084C002D04D1019800F00BFD00E0064CC9
:400E8000200003B0F0BDC0460008000801008A00020188000301880004018A000A4B1B68DA68136883420BD943095901401A0121814052689B009B580B4203D0034802E0B5
:400EC000034800E003487047000800080101880004018A0000018800034B1B68002B01D1014B18607047C0460C080008F0B5474680B404000F0090461E002D4B1B68002B15
:400F000003D1B5212B4800F0FFFB294B1B682C2060431C18FF22150035402560330A13406360360CA660244B1A683123D35C9D4204D3C421FF31214800F0E6FB1E4B1A6861
:400F4000B023D35A6B43116A8C466344236166683223D35C9E4204D3E021FF31174800F0D3FB154B1B681D6A80367601AD196561A668330C04D0FF214900104800F0C4FB40
:400F8000330C03D00E490D4800F0BEFB3604330C1E43AE604346E36127620023A361069B002B02D000229B5EA38104BC9046F0BD0C0800084C2B001010080008CC2A00107C
:400FC000FF010000F0B58FB0041E03D15221294800F09AFB6368032B03D95421254800F093FBE36A002B03D15821224800F08CFB236B002B03D159211E4800F085FB07AA45
:401000001300210061C961C321C921C302AD290023001433C1CBC1C141CB41C10821535E0CAE3380144B1B6836215B5E07998C466344B370089B0D930B9B0A980096A26A60
:40104000E16AFFF753FF2B69E868002200920021FFF74CFF216B300000F0E8FA0023F25E002A05DB1F231A401E3B9340034A13600FB0F0BD4C2B00101008000800E100E07C
:40108000F8B505000F0016001C00002A03D1FD21224800F039FB224B1B68002B03D1FE211E4800F031FB1E4B1B682C2128004843181879435918012213004D68AB401B04C5
:4010C0004568AA4015000269002A20D08F69002F1FD11268002A01DA002200E0114A002A19D132681204120C134333600369DE6001238B614C6204692B0C03D00A490B487C
:4011000000F002FB2A04120CA260002004E0084802E0084800E00748F8BDC0464C2B00100C08000801008A00BB020000CC2A001004028A0007028A0070B504000D001600A4
:401140000F4B1B68002B04D1AF2149000D4800F0DBFA0B4B1B682C2060431C18236A002B04D1B1214900074800F0CEFAE369B34204D9236AB6009D51002000E0024870BDEE
:401180000C0800084C2B00100A028A0070B582B0040000230193002804D1D221FF312D4800F0B2FA2369002B04D1E9214900294800F0AAFA6369002B04D1D421FF31254871
:4011C00000F0A2FA236A002B04D1EA214900214800F09AFA6269D5682B0C24D01B041360136820691C4B1A68B423D358C3181B68002B18DA01A9FFF765FD00280ED10198C4
:4012000003681E0CFF221340E269934207D29B00226AD358002B02D0984700E0002631002069FFF70FFD2D042D0C0FD063691D601B68636A002B03D098470023636203E032
:40124000A36A002B00D098470023A36163691B6802B070BD4C2B00101008000810B50400084B1B68002B04D1B221FF31064800F04BFA044B1B682C2060431818FFF786FFFA
:4012800010BDC0460C0800084C2B001010B50400094B1B689B6CC340DB0703D4BE21074800F032FA044B1B681B691034A402E3580F20184010BDC046100800088C2B00104F
:4012C000134B1A683C23D35C83421DD9042904D94B1EFF3B9BB2132B18D8FF290CD91F2319400C4A0300C0339B009950D03080000423835000200AE007231940D03080009E
:40130000044BC150002002E0034800E002487047100800080000264001004A0070B5041E03D14A494A4800F0EFF9B023DB00494AD358002B00DA87E0474B22689A4203D98A
:401340004649434800F0E0F923689B039B0BE279002A02D08022520400E000221343B022D2003C498B50A2883D4B9A4204D98C218900374800F0C8F922893A4B9A4203D957
:401380003949334800F0C0F9A388DB04D90C23891B04364A13400B43354A2E498B50A37A0F2B04D98E218900294800F0ADF9E37A0F2B03D92F49264800F0A6F9A289284BE2
:4013C0009A4203D92C49224800F09EF9A37A0F211940E27A1201FF2313400B43A289120226490A401343A27B1207C02189050A401343B122D20017498B50A379042B03D95D
:401400001F49134800F080F9228A164B9A4204D9912189000E4800F077F90E4819494558194B1D40A3791B02E022D20013402B4343504558154B1D40238A1B040B4A134084
:401440002B434350002000E0114870BD1F020000CC2B001000002640FFFF030029020000FF1F0000FF010000310200000000FF0184050000390200003A02000000FF1F00BC
:40148000430200008C050000FFF8FFFFFFFF00FE03004A0070B505003149324A8B588020000603438B502C0003E0012000F020F9013CB223DB002A4AD3585B0701D4002C26
:4014C000F3D12749B122D2008858274B03408020800503438B50002D01D0002C0CD02049B022D2008B588020000603438B5003E0012000F0FDF8013CB223DB00184AD35818
:40150000DB0701D4002CF3D1002D01D0002C08D01349B122D2008B58C020800503438B5013E00F4BB121C90058580F4A02408020800502435A5008395A58520052085A5008
:4015400008495A58520052085A50002D03D0002C03D0002002E0002000E0044870BDC046000026408C050000FFFFFFCF02004A0070B505000C001A4B1B6828229A5C012AFA
:4015800015D1820807211000884327D19200AD1AED00FF20A8401B6820339A181168AC4023004B40184004004C40146016E03A229B5EDBB2994203D176210A4800F0A4F880
:4015C000074B1B681B68072215408022120615438022920194466444A400E55070BDC04610080008542C001070B504000D000B4B9A680B4B9A420CD1002904D13821FF316C
:40160000084800F081F81034054BA400E058E55003E01034A400044BE05870BD00ED00E000000008542C001000000010F0B5474680B482B0061E01914AD04368032B03D93B
:401640003221264800F060F80023F05E002804DBB178FFF78DFF002400E0214C0023F15E7368002912DB88081E4FC0308000C55903221140C900FC3290468A4095439A015F
:40168000434613408B402B43C35116E089B20F220A40083A92080632920013481018476803221140C900FF252A008A4097439A012B0013408B403B4343600B4B9A680B4B99
:4016C0009A4206D10023F05E0199FFF78DFF00E0034C200002B004BC9046F0BD542C00100100560000E100E000ED00E00000000810B5034B1B78584300F0BEF810BDC0462F
:40170000D400000801BEFEE770B50D00044C18220100200000F0CDFBA5610020FFF7F2FF00060008054B802212069A649B6C002B01DB002000E002487047C04600002740F5
:4017400003004600054B8022120198585B68FF221A4202D08023DB021843704700002640FEE7C04610B50A4B0268DA6142681A6282685A62C2689A620269DA6242691A63B6
:4017800082695A63C2699A63FFF7EAFF10BDC04600060008F0B5474680B4002801D0192300E064238B429B415B42304D2C682268A826A45BA41822680327BA433B401A43A4
:4017C00022602C682268A45BA2181668284CA046264016602C682668AA229446A25A96193268BA43134333602A6813686546525BD3181A68444614401C60002805D0102987
:401800001BD921291BD8012024E0184B1B6855229A5C914215D956229A5C914213D957229A5C914211D958229A5C91420FD959229B5C99420DD804200CE000200AE002204C
:4018400008E0002006E0012004E0022002E0032000E00520054A1268526813680F218B430343136004BC9046F0BDC04610080008FFFCFFFF000000000230800803D0013074
:401880000238FCD1C046C0467047EFF3108072B6704780F31088704710B5B0235B059B899BB2002B04D0B0235B059B899BB201E080235B0080225200934215D1184C2368C2
:4018C0001968683A9B58C9180B680F208343963A13430B6021680C689C23CB58E318196881430A431A6019E00D4C2368196898229B58C918B02040050A4BC2580A4B1340FA
:401900000A681343C022920013430B60226811689C23D358CB18054A82581A6010BDC0461008000848180000FFFCFFFF4418000030B5B0235B059B899BB2002B04D0B02334
:401940005B059B899BB201E080235B0080225200934215D1184C23681968683A9B58C9180B680F208343953A13430B6021680C689C23CB58E318196881430A431A6019E04B
:401980000D4D2B68196898229B58C918B0246405C12040012258094B13400A681343C022920013430B602A6811689C23D358CB1822581A6030BDC04610080008FFFCFFFFD6
:4019C000B0235B059B899BB2002B04D0B0235B059B899BB201E080235B008022520093420DD1104B1B681A6898215B58D21811680D4B0B40C021C9010B43136011E0094B97
:401A00001B68196898229B58C918084BB0225205D258074B13400A681343C022920013430B60704710080008FF8FFFFF18180000FFFCFFFF30B5B0235B059B899BB2002B8C
:401A400004D0B0235B059B899BB201E080235B008022520093420DD1134B1B681A6898215B58D2181168114B0B408021C9010B43136018E00C4D2B68196898229B58C91870
:401A8000B02464050A4822580A4B13400A681343C022920013430B602A6811689C23D358CB1822581A6030BD10080008FF8FFFFF4C180000FFFCFFFF10B5B0235B059B899A
:401AC0009BB2002B04D0B0235B059B899BB201E080235B0080225200934217D10020FFF7D5FBB0235B055B78002B04D0B0235B055B78DBB200E02123222B03D8002803D1A0
:401B0000013004E0012002E0002000E0012010BDF8B50700012803D93D493E48FFF7F4FDB0235B055B78002B04D0B0235B055B78DBB200E021239DB2B0235B059B899BB244
:401B4000002B04D0B0235B059E89B6B201E0802676000020FFF79AFB002814D180235B009E4212D1222D12D82B4B1B685C682B4821582B4B19403B068022520413400B43A3
:401B80002350002404E0274C02E0264C00E0254C80235B009E4201D1222D03D880235B009E4232D01C4B1A683123D35C002B04D1C421FF311C48FFF7A7FD174B1B681D6AED
:401BC00080235B009E4203D1002F05D0174A06E0002F03D0164A02E0164A00E0164A01212800FFF74FF800280FD10B4B1A68B423D3585B191B68002BF7DBEB681B0E1B060A
:401C0000A0221206934200D100242000F8BDC0464C0A0000982C00101008000818F00000FFFFFFFE040042000C2A0010010100300300000C010000300100000CF8B505001B
:401C4000012804D9822109012948FFF75DFDFFF733FF002849D0FFF718FE0700002D11D10021244B244AD150E823DB00B0225205D65CF6B20120FFF74BFF041E19D1FFF7FA
:401C80000BFE16E0B02252051C4BD0581A4B194958501B49565CF6B21A481A581F218A4314390A431A500320FFF722FDFFF7C2FE0024002C15D11049124A8B581F2083439A
:401CC00006401E438E50002D02D1FFF779FE08E00720FFF70DFDFFF72BFE0020FFF718FF04003800FFF7D5FD00E0074C2000F8BD982C0010307F000000002640101800007A
:401D0000410700001CFF000003004200042805D10B4A116804230B4313600FE0094B1A681168A023D358CB180006C022920410401860034A136804218B4313607047C04603
:401D400010E000E0100800080749C02252008B589B009B088020C00503438B508B588020000603438B50704700002640014B18607047C04610080008002243088B4274D35F
:401D800003098B425FD3030A8B4244D3030B8B4228D3030C8B420DD3FF22090212BA030C8B4202D31212090265D0030B8B4219D300E0090AC30B8B4201D3CB03C01A524124
:401DC000830B8B4201D38B03C01A5241430B8B4201D34B03C01A5241030B8B4201D30B03C01A5241C30A8B4201D3CB02C01A5241830A8B4201D38B02C01A5241430A8B42FB
:401E000001D34B02C01A5241030A8B4201D30B02C01A5241CDD2C3098B4201D3CB01C01A524183098B4201D38B01C01A524143098B4201D34B01C01A524103098B4201D32E
:401E40000B01C01A5241C3088B4201D3CB00C01A524183088B4201D38B00C01A524143088B4201D34B00C01A5241411A00D20146524110467047FFE701B5002000F006F8BF
:401E800002BDC0460029F7D076E770477047C046002310B59A4203D0CC5CC4540133F9E710BD03008218934202D019700133FAE77047030030B5002A0DD00C7801335D1E29
:401EC000013A2C700131002CF5D19A189A4202D01C700133FAE730BDF8B5C046F8BC08BC9E467047F8B5C046F8BC08BC9E4670470300000001000000010000000000000068
:401F000005036000040000000100000000000000010000000604600008000000C8070008B101001073797374656D5F70736F63365F636D30706C75732E630000F401000090
:401F4000140004010A00090508000000630100000020344074008020344074000022344074008022344074000024344074008024344074000026344074008026344074006C
:401F8000002834407400802834407400002A34407400802A3440740000213440DC20001090000000002334406C2100109000000000253440FC2100109000000000273440F7
:401FC0008C22001090000000002934401C23001090000000002B3440AC23001090000000006034403C2400107C00000080603440B82400107C00000000613440342500104F
:402000007C00000080613440B02500107C000000006234402C2600107C00000080623440A82600107C00000000633440242700107C00000080633440A02700107C000000B2
:40204000006434401C2800107C00000080643440982800107C00000000653440142900107C00000080653440902900107C0000000300000000000000000000006800000069
:402080000000000000000000000000001212000000000000000000000000000000000000000000BA0000000000000000000000000000000000001D1D010000000000000007
:4020C00000000000000000000000000000000000000000000500000000000000000000000000000000000000FFFFFFFFFFFFFFFFFFFFFFFFFFFFFFFFFFFFFFFFFF000000F0
:40210000FFFFFFFFFFFFFFFFFFFFFFFFFFFFFFFFFFFFFFFFFF000000000000000000000000000000000000000000000000000000FFFFFFFFFFFFFFFFFFFFFFFF111111117C
:402140001111111111111111111111111111111111111111111111111111111111111111111111111111111111111111000000000000000000000000FFFFFFFFFFFFFFFF7B
:40218000FFFFFFFFFFFFFFFFFFFFFFFFFF000000FFFFFFFFFFFFFFFFFFFFFFFFFFFFFFFFFFFFFFFFFF00000000000000000000000000000000000000000000000000000041
:4021C000FFFFFFFFFFFFFFFFFFFFFFFF11111111111111111111111111111111111111111111111111111111111111111111111111111111111111111111111100000000BB
:402200000000000000000000FFFFFFFFFFFFFFFFFFFFFFFFFFFFFFFFFFFFFFFFFF000000FFFFFFFFFFFFFFFFFFFFFFFFFFFFFFFFFFFFFFFFFF0000000000000000000000C8
:4022400000000000000000000000000000000000FFFFFFFFFFFFFFFFFFFFFFFF11111111111111111111111111111111111111111111111111111111111111111111111106
:40228000111111111111111111111111000000000000000000000000FFFFFFFFFFFFFFFFFFFFFFFFFFFFFFFFFFFFFFFFFF000000FFFFFFFFFFFFFFFFFFFFFFFFFFFFFFFF77
:4022C000FFFFFFFFFF000000000000000000000000000000000000000000000000000000FFFFFFFFFFFFFFFFFFFFFFFF11111111111111111111111111111111111111119B
:4023000011111111111111111111111111111111111111111111111111111111000000000000000000000000FFFFFFFFFFFFFFFFFFFFFFFFFFFFFFFFFFFFFFFFFF000000D6
:40234000FFFFFFFFFFFFFFFFFFFFFFFFFFFFFFFFFFFFFFFFFF000000000000000000000000000000000000000000000000000000FFFFFFFFFFFFFFFFFFFFFFFF111111113A
:402380001111111111111111111111111111111111111111111111111111111111111111111111111111111111111111000000000000000000000000FFFFFFFFFFFFFFFF39
:4023C000FFFFFFFFFFFFFFFFFFFFFFFFFF000000FFFFFFFFFFFFFFFFFFFFFFFFFFFFFFFFFFFFFFFFFF000000000000000000000000000000000000000000000000000000FF
:40240000FFFFFFFFFFFFFFFFFFFFFFFF1111111111111111111111111111111111111111111111111111111111111111111111111111111111111111111111110000000078
:40244000000000001F1F1F1F1F1F1F1F1F1F1F1F1F1F1F1F1F1F1F1F1F1F1F1F1F1F1F1F1F1F1F1F000000000000000000000000000000000000000000000000FFFFFFFF80
:40248000FFFFFFFFFFFFFFFF1112111111111111111111111111111111111111111111111111111111111111111111111111411111111111111111110000000000000000C3
:4024C0001F1F1F1F1F1F1F1F1F1F1F1F1F1F1F1F1F1F1F1F1F1F1F1F1F1F1F1F1F1F1F1F000000000000000000000000000000000000000000000000FFFFFFFFFFFFFFFF04
:40250000FFFFFFFF11101111111111111111111111111111111111111111111111111111111111111111111111110111111111111111111100000000000000001F1F1F1F04
:402540001F1F1F1F1F1F1F1F1F1F1F1F1F1F1F1F1F1F1F1F1F1F1F1F1F1F1F1F000000000000000000000000000000000000000000000000FFFFFFFFFFFFFFFFFFFFFFFF03
:4025800011101111111111111111111111111111111111111111111111111111111111111111111111110111111111111111111100000000000000001F1F1F1F1F1F1F1F04
:4025C0001F1F1F1F1F1F1F1F1F1F1F1F1F1F1F1F00071F1F1F1F1F1F000000000000000000000000000000000000000000000000FFFFFFFFFFFFFFFFFFFFFFFF11101111F3
:40260000111111111111111111111111111111111111111111111111111111111111111111110111111111111111111100000000000000001F1F1F1F1F1F1F1F1F1F1F1F4A
:402640001F1F1F1F1F1F1F1F1F1F1F1F1F1F1F1F1F1F1F1F000000000000000000000000000000000000000000000000FFFFFFFFFFFFFFFFFFFFFFFF111111111111111172
:402680001111111111111111111111111111111111111111111111111111111111111111111111111111111100000000000000001F1F1F1F1F1F1F1F1F1F1F1F1F1F1F1F82
:4026C0001F1F1F1F1F1F1F1F1F1F1F1F1F1F1F1F000000000000000000000000000000000000000000000000FFFFFFFFFFFFFFFFFFFFFFFF1111111111111111111111112A
:4027000011111111111111111111111111111111111111111111111111111111111111111111111100000000000000001F1F1F1F1F1F1F1F1F1F1F1F1F1F1F1F1F1F1F1FC9
:402740001F1F1F1F1F1F1F1F1F1F1F1F000000000000000000000000000000000000000000000000FFFFFFFFFFFFFFFFFFFFFFFF11111111111111111111111111111111E1
:40278000111111111111111111111111111111111111111111111111111111111111111100000000000000001F1F1F1F1F1F1F1F1F1F1F1F1F1F1F1F1F1F1F1F1F1F1F1F11
:4027C0001F1F1F1F1F1F1F1F000000000000000000000000000000000000000000000000FFFFFFFFFFFFFFFFFFFFFFFF111111111111111111111111111111111111111199
:402800001111111111111111111111111111111111111111111111111111111100000000000000001F1F1F1F1F1F1F1F1F1F1F1F1F1F1F1F1F1F1F1F1F1F1F1F1F1F1F1F58
:402840001F1F1F1F000000000000000000000000000000000000000000000000FFFFFFFFFFFFFFFFFFFFFFFF11111111111111111111111111111111111111111111111150
:4028800011111111111111111111111111111111111111111111111100000000000000001F1F1F1F1F1F1F1F1F1F1F1F1F1F1F1F1F1F1F1F1F1F1F1F1F1F1F1F1F1F1F1FA0
:4028C000000000000000000000000000000000000000000000000000FFFFFFFFFFFFFFFFFFFFFFFF1111111111111111111111111111111111111111111111111111111108
:40290000111111111111111111111111111111111111111100000000000000001F1F1F1F1F1F1F1F1F1F1F1F1F1F1F1F1F1F1F1F1F1F1F1F1F1F1F1F1F1F1F1F0000000063
:402940000000000000000000000000000000000000000000FFFFFFFFFFFFFFFFFFFFFFFF111111111111111111111111111111111111111111111111111111111111111143
:402980001111111111111111111111111111111100000000000000001F1F1F1F1F1F1F1F1F1F1F1F1F1F1F1F1F1F1F1F1F1F1F1F1F1F1F1F1F1F1F1F000000000000000027
:4029C00000000000000000000000000000000000FFFFFFFFFFFFFFFFFFFFFFFF1111111111111111111111111111111111111111111111111111111111111111111111117F
:402A000011111111111111111111111147656E6572617465645F536F757263655C50536F43365C70646C5C647269766572732F7065726970686572616C2F6970632F6379BC
:402A40005F6970635F6472762E68000047656E6572617465645F536F757263655C50536F43365C70646C5C647269766572735C7065726970686572616C5C6770696F5C63EB
:402A8000795F6770696F2E630000000047656E6572617465645F536F757263655C50536F43365C70646C5C647269766572735C7065726970686572616C5C6770696F5C636F
:402AC000795F6770696F2E680000000047656E6572617465645F536F757263655C50536F43365C70646C5C647269766572735C7065726970686572616C5C6970635C637924
:402B00005F6970635F6472762E68000047656E6572617465645F536F757263655C50536F43365C70646C5C647269766572735C7065726970686572616C5C6970635C637924
:402B40005F6970635F6472762E63000047656E6572617465645F536F757263655C50536F43365C70646C5C647269766572735C7065726970686572616C5C6970635C6379E9
:402B80005F6970635F706970652E630047656E6572617465645F536F757263655C50536F43365C70646C5C647269766572735C7065726970686572616C5C70726F745C6337
:402BC000795F70726F742E630000000047656E6572617465645F536F757263655C50536F43365C70646C5C647269766572735C7065726970686572616C5C737973636C6BED
:402C00005C63795F737973636C6B2E630000000047656E6572617465645F536F757263655C50536F43365C70646C5C647269766572735C7065726970686572616C5C7379C6
:402C400073636C6B5C63795F737973636C6B2E680000000047656E6572617465645F536F757263655C50536F43365C70646C5C647269766572735C70657269706865726188
:402C80006C5C737973696E745C63795F737973696E742E630000000047656E6572617465645F536F757263655C50536F43365C70646C5C647269766572735C706572697017
:402CC000686572616C5C737973706D5C63795F737973706D2E6300000000204000002440000000400000000000002340000030400000314000009F400000224000001040F3
:402D000002020202020202020210101D800017007500FF030602063604102000000000007FC0000000040000000000000019324B647D00804000080B100000000000FF0121
:402D40002002001F00800004FF081018001000140018001C4044484C5000000008100000080000000400000004100000001200000421000000210000001600004011400266
:402D8000C41300138013A013200000001C0000000000214000002540000001400000344000002440000031400000324000001F4100002340000011400101010101010101C9
:402DC00001101010800019005500F0000501053B04101C01010000000FC000000004000001010101011D3A57789600082000101208000000001F00000010000F0020000206
:402E00003F06080E00080009000A000B24282C3034000000100000009000000088000000080000008000000004F0000000F00000400200002005A000D00100018001A001A6
:402E40002000000010000000000000000000001000000008C00000006C2E0010C0000008400500003C060008D80100000048E80100127A0000093D0000093D0000093D00E1
:402E800004000000A00F00000000D007E9000010C10000100000000010B50004400B27D0144B1A68146AB023D15ACA00531AE3181B68002BF4DA3E220F4B1A600F4A104BC0
:402EC0001A60104B0621A322D20099500E4A98509B58084B1A68106AB023D15ACA00531AC31800225A60084B064AD358002BFADA10BDC04610080008040126401E1F000080
:402F000008012640000026401C05000010B54378FF2B20D100F012FA04000F4B1A683123D35C042B04D8C421FF310C4800F026FA094B1A68116AB023D35A9B00CB18DB680B
:402F40005A68116801230B4313601368DB07FCD4200000F0EBF910BD100800080C2A0010F0B585B001900291544B1A683123D35C002B04D1C421FF31514800F0FFF94F4B0B
:402F80001B681E6AB4229A58971950229B5C002B77D000F0EBF9050003283CD1474B1A683123D35C062B04D8C421FF31444800F0E5F9424B1968B023CB5A5A00D2185300F2
:402FC0000A6A94466344B4228A58D3181B68002B23DB002000F0DAF93A4B98421FD03A4B1A6900230021012000F0B0F9002803D0364C17E0013400E00024002000F0C6F9DA
:40300000304B984202D0324B9C42F3D9304B9C4207D92E4C06E0002404E02C4C02E02B4C00E00024002C46D100F088F90390294B294AD358002B13DA234A0121300000F0AC
:403040008DF900280ED10298FFF726FF019B002B0AD03B68002BFCDB00F060F9040004E01A4C02E0194C00E01C4C032D05D10121002000F093F90028F9D1039800F056F912
:4030800019E000F05BF905000F4A0121300000F065F9002809D1019B002B08D03B68002BFCDB00F03BF9040002E0084C00E00B4C280000F03BF9200005B0F0BD100800080C
:4030C0000C2A001001018800E807000805005200EF4902001C0500000000264001005000F0B54F464646C0B4824B1A685468B0235B055B78002B04D0B0235B055B78DBB2C3
:4031000000E02123212B67D1B023D15ACB005B1A116A8C46634419680029F5DADD6802212943D960B023D15ACB005B1A116A8C466344D968C9073ED5D9680904090C8C46A4
:4031400084271168D559A84641440968090A0904FF26360431400D0088261168894691598846C14449460968090A0906294365462943D9601168D359C9180A685E4B98460C
:403180001A4090252D012A430A605A4B99461A6813689C46925962441368414619400B002B4313604B461A681568D15969180B689359EB181B684F4B1A68B021555AEB0019
:4031C0005B1B156AAC46634400255D60156A515ACA00531AEB185B68484A116904230B431361012801D030BF00E020BF414B1A68B023D15ACB005B1A116A8C4663441968DA
:403200000029F3DAB02149054978002904D0B02149054978C9B200E02121212932D1D968C90722D510688421525880180468324A1440DB681B0C1B02FF2109020B402343EB
:4032400003602C4B19688823C8580B689C46604403681A400D6AB023CC5AE1000B1BEB18DB681B0E1B021A430260224B1A68106AB023D15ACA00531AC318DA6802218A43FD
:40328000DA6028E086235B00E358002B23D11C4807681C4BA321C9005E581B4A904615681A4A0260062058503E21424611600631174A9950164B134AD358002BFADA154A85
:4032C00086235B00E2500E4B1F60A323DB000D4AD6500D4B1D60074B1A68106AB023D15ACA00531AC31800225A600CBC90469946F0BDC04610080008FF00FFFF00ED00E079
:403300000801264000002640040126401E1F00001C050000AAAAAAAA0000000001B40248844601BC604700BFB90A001001B40248844601BC604700BF9318001001B40248E2
:40334000844601BC604700BF8B18001001B40248844601BC604700BF8110001001B40248844601BC604700BF850C001001B40248844601BC604700BF3504001001B402485F
:40338000844601BC604700BF0917001001B40248844601BC604700BF9D0E001001B40248844601BC604700BF110E001000000000000000000000000000000000000000002E
:4033C00000000000000000000000000000000000000000000000000000000000000000000000000000000000000000000000000000000000000000000000000000000000CD
:020000041008E2
:4000000000780408EB0208100D00000051030810510308105103081051030810000000000000000000000000000000004D0308104D030810000000004D0308104D030810DA
:400040004D0308104D0308104D0308104D0308104D0308104D0308104D0308104D0308104D0308104D0308104D0308104D0308104D0308104D0308104D0308104D03081000
:400080004D0308104D0308104D0308104D0308104D0308104D0308104D0308104D0308104D0308104D0308104D0308104D0308104D0308104D0308104D0308104D030810C0
:4000C0004D0308104D0308104D0308104D0308104D0308104D0308104D0308104D0308104D0308104D0308104D0308104D0308104D0308104D0308104D0308104D03081080
:400100004D0308104D0308104D0308104D0308104D0308104D0308104D0308104D0308104D0308104D0308104D0308104D0308104D0308104D0308104D0308104D0308103F
:400140004D0308104D0308104D0308104D0308104D0308104D0308104D0308104D0308104D0308104D0308104D0308104D0308104D0308104D0308104D0308104D030810FF
:400180004D0308104D0308104D0308104D0308104D0308104D0308104D0308104D0308104D0308104D0308104D0308104D0308104D0308104D0308104D0308104D030810BF
:4001C0004D0308104D0308104D0308104D0308104D0308104D0308104D0308104D0308104D0308104D0308104D0308104D0308104D0308104D0308104D0308104D0308107F
:400200004D0308104D0308104D0308104D0308104D0308104D0308104D0308104D0308104D0308104D0308104D0308104D0308104D0308104D0308104D0308104D0308103E
:400240004D0308104D0308104D0308104D0308104D0308104D0308104D0308104D0308104D0308104D0308104D0308104D0308104D0308104D0308104D0308104D030810FE
:400280004D0308104D0308104D03081010B5054C237833B9044B13B10448AFF300800123237010BD6C490208000000003C2B0810084B10B51BB108490848AFF3008008482F
:4002C000036803B910BD074B002BFBD0BDE81040184700BF00000000704902083C2B081038430208000000007047FFF7FDFF72B6104C114DAC4209DA21686268A368043BEF
:40030000A2BFC858D050FAE70C34F3E70B490C4A00209142BCBF41F8040BFAE709480A490860BFF34F8F00F067F900F041F900F031F8FEE7402B0810582B08106C490208EF
:40034000D44D02080040020808ED00E0FEE7FEE700B504207146084202D0EFF3098001E0EFF30880043001F0B5FBFEE710B5084BD3F80843E4B207E00548D0F84013C9B2BF
:4003800000F040FF013CE4B2002CF5D110BD00BF0000664010B58AB062B6174C1749204601F034FBB4F90030002B08DB590903F01F03012202FA03F3114A42F8213000F06A
:4003C000FDFA1049104800F063FF00F031FA28220021684601F076FCC82001F051FB642000F04AFA02460949684601F037FD6946054800F04DFFEFE7AC2608106D030810A2
:4004000000E100E04C260810000066405826081008B5012000F0B6FE08BD00BF704700BF5C4AD2F8803303F00F0303F1D00152F8212002F00702032A04D0042A05D092B9F7
:40044000554914E0554A116811E003F1C002514951F8222002F01F02112A06D0132A04D04FF4FA4103E04E4901E04FF400418BBB484BD3F8902502F00100D3F88825C2F3FB
:400480000172D3F8883513F0405F07D0414BD3F88835C3F30173012B02D102E0012300E0002303B108B9032A46D13A48D0F88025C2F31103D0F88425C2F30C02D0F8800590
:4004C000C0F300600130B1FBF2F202FB03F2B2FBF0F131E0012B2FD12E4BD3F8402602F00100D3F80026C2F30172D3F8003613F0405F07D0274BD3F80036C3F30173012B72
:4005000002D102E0012300E0002303B108B9032A12D12048D0F8002602F07F02D0F80036C3F30423D0F80006C0F3044002FB01F2B2FBF3F2B2FBF0F1164BD3F88033C3F34C
:40054000011321FA03F215494A601648D0F89030C3F3072301330069000E0130B2FBF0F08860B2FBF3F3CB600B6103F5742202F23F220D48A0FB0202C2F387420A7503F245
:40058000E7330A4AA2FB03239B098B61DB03CB61704700BF0000264000127A008C42020800366E010000214083DE1B43D34D621008B50D4801F078FBFFF730FFFFF730FF19
:4005C00000221146042000F0A5FB084800F038FC074B1B6893F8513013B1064800F0A0FC00F0E2FA08BD00BF4C2A081088490208CC4D02086026081008B501F0C6FA074AA2
:40060000D2F8883043F47003C2F88830BFF34F8FBFF36F8F01F0BDFA08BD00BF00ED00E0064B1B6913F0200F03D02022034B5A6070472022014B9A60704700BF0005324093
:4006400008B51F4B1A681F4B1B689A4211D11E4B01225A601D49B1F90010C3F83011D3F830311B4B402199601A490A7020225A6008BD194B1B68194A82FB0312DB17C3EBBE
:400680006213013B104AC2F81431FFF7C9FF104B1B6913F0200F0ED1094B1B682F2B0ADC074A53680A490969C1F3801102EB8300816001335360024A13680133136008BDEA
:4006C000084B0208AC42020800003840A426081000053240804D0208844D02081F85EB5108B51C4B19601C4B83FB0123C917C1EB63110139194BC3F81411802803D132224E
:40070000174B1A600AE0402803D13622144B1A6004E0202802D13422114B1A60114B1B6913F0400FFAD100230F4A13700F4A5360136020210B4A5160084AC2F8083100F064
:4007400003F9094B1B78002BFBD02022054B5A60074808BD844D02081F85EB5100003840AC42020800053240804D0208084B0208104B020810B50E4C0E49204601F046F9F9
:40078000B4F90030002B08DB590903F01F03012202FA03F3084A42F82130084B20225A6040225A6043F698218020FFF799FF10BDA42608104106081000E100E00005324014
:4007C00010B543F698218020FFF78AFF04460123002008E0C3EB83718A002244126E591E8A4010440133182BF4D9034B9B680BB140F07F4010BD00BF084B0208084B1A6808
:40080000084B1B689A4206DA0222074B5A600122064B1A7070470122024B5A60704700BF884D0208704B0208000038408C4D020810B58020FFF79EFF0B4C0C49204601F0A7
:40084000E5F8B4F90030002B08DB590903F01F03012202FA03F3064A42F82130042001F029FA044B186010BD9C260810FD07081000E100E0904D020870B52A4B996901FB47
:4008800000F0294981FB0031C017C0EBA111274B19608900264B186801F0C8FA0024254BC3F84841244B1C605C6000F065F8234B1C700FE0204B5B6863B11F4C26681C4B86
:4008C0001D68FFF77DFF45F8260023680133236000236360194B1B78012BEBD10023164AC2F898310AE0124A126852F823201249D1F898010244C1F8982101330B4A1268CC
:400900009342F0DB0C49D1F8983193FBF2F20C4B13440C4880FB0320DB17C3EBE000C1F8980170BDB0420208D34D6210884D0208904D020800003840704B02088C4D0208AB
:40094000C357DAFF1F85EB5108B5084B1B783BB9074A0021074801F01FF90122034B1A70044B01229A609A6108BD00BF0C4D0208B42608100000384008B5084B1B783BB9F9
:40098000074A0121074801F007F90122034B1A70044B02229A609A6108BD00BF0D4D0208002708100000384008B50249024800F095FF08BD944D02080000664008B5114B3D
:4009C0001B785BB9104A1149114800F063FD1149114801F01BF801220A4B1A700E4BB3F90030002B08DB590903F01F03012202FA03F30A4A42F82130054A136843F000434C
:400A0000136008BD0E4D0208944D02084C27081000006640A9090810AC26081000E100E01F4B98422DD00CD840282ED003D8E8B1102828D02FE0802829D0B0F5807F28D00D
:400A400029E0184B984228D006D8B0F1204F0DD0154B984212D01EE0144B98420AD00133984209D0023B984215D101E0002070470F4870470F4870470F4870474FF4A00097
:400A80007047074870470D4870470D4870470D487047034870470C4870474FF4A400704706005200010000F0090000A0040000F00100520002005200030052000100500077
:400AC0000200500005005200FF00520038B5124B1B6893F83130012B04D840F2C3110F4800F0E8FF0C4B1D682A6AB5F8B03013442C46D5F8B420D358002B0BDB084B186891
:400B0000FFF78EFF6B6801229A6063689B68002BFBD138BD034838BDCC4D02088C270810104D0208020050001A4B186128B102230370FF23437000234380174B1B6893F827
:400B400050202AB300B583B0B3F93830ADF80030002301931149684600F058FFBDF90030002B08DB590903F01F03012202FA03F30B4A42F82130084B1B6893F8513023B13B
:400B800002220849012000F077FA03B05DF804FB704700BF104D0208CC4D0208A943020800E100E06144020808B50248FFF7BCFF08BD00BF244D020838B50B4B1B68D3F889
:400BC000B4301B58002B0DDA0D4604460B0C1B0423B140F2D521054800F06CFFA9B26160002038BD024838BDCC4D0208CC27081001008A0038B50368002B01DA002300E08B
:400C0000094B73B90D460446C2600B0C1B0423B140F2BB21054800F04DFFA9B2A160002038BD014838BD00BF01008A00CC27081038B504460D4619B99921084800F03AFF41
:400C4000074B1B68D3F8B4301B59002B03DAE3682B60002038BD034838BD00BF0C280810CC4D020801008A00254B1B6893F8313083423AD900293AD00B6813F01F0F38D1F9
:400C800070B50D4604461E4B1B6893F83130984204D340F2C3111B4800F00CFF184B1B68186AB3F8B03004FB0304174E34602A68D2080021686801F005F800212046FFF7CB
:400CC0007BFF346825B940F293310E4800F0F2FE2A4600212046FFF78DFF60B900210A4B1868FFF769FF40B970BD084870470748704706487047064870BD054870BD00BF02
:400D0000CC4D0208CC270810284D020803018A0001018A0010B504461346B2B9A9B9124B1B6893F83130984204D340F2C3110F4800F0C0FE0C4B1B681A6AB3F8B03004FB47
:400D400003240B4B1C60002010BD43B149B1084A51609360111D2046FFF786FF10BD054810BD044810BD00BFCC4D0208CC270810284D020803018A002DE9F0411B4B1B6870
:400D8000DC68236883422CD90D464609A0EB4610012303FA00F819B900F0F7FE074600E00027124B18680368002B01DA002300E00F4B83B9626852F8263018EA030F05D0B9
:400DC00023EA080342F82630002400E0094C0021FFF7F2FE00E0084C25B9384600F0D9FE00E0064C2046BDE8F08100BF284D020801008A00020188000301880004018A0077
:400E00000B4B1B68DB681A6882420CD94109A0EB4110012202FA00F05B6853F82130184203D004487047044870470448704700BF284D02080101880004018A0000018800C1
:400E4000024B1B680BB9014B18607047344D02082DE9F8430446884691461D46089F2C4B1B681BB9B5212B4800F024FE284B1B682C2000FB04F01C18EEB21E50C5F3072310
:400E800063602D0CA560244B1B6893F831309E4204D340F2C311214800F00CFE1E4B1B68196AB3F8B02006FB02162661666893F832309E4204D340F2DF11184800F0FAFDCE
:400EC000154B1B681D6A803605EB46156561A668330C1B0423B14FF4FF71104800F0EAFD330C1B0423B140F2FF110C4800F0E2FDB3B243EA0646AE60C4F81C90C4F8208058
:400F00000023A36117B1B7F90030A381BDE8F883344D02084C280810CC4D0208CC270810F0B58FB0044618B95221274800F0C2FDA369072B03D95621234800F0BBFDE36AD8
:400F40001BB95821204800F0B5FD236B1BB959211D4800F0AFFD07AD04F114060FCE0FC537682F6002AD26460FCE0FC533682B60164B1B68B3F93620079B1344ADF83030C5
:400F8000089B0D93A26AE16A0CAD00953B460A98FFF75EFF00210091069B0A460598FFF757FF216B284600F031FDBDF93030002B08DB590903F01F03012202FA03F3044A31
:400FC00042F821300FB0F0BD4C280810CC4D020800E100E0F8B506460F461D4614461AB9FD211F4800F066FD1E4B1B681BB9FE211B4800F05FFD1B4B1B682C2101FB0630DE
:4010000001FB07314B68012202FA03F31B04466802FA06F60269EAB18F69EFB91268002A01DA002200E0104AC2B92288134323600369DC6001238B614D620469330C1B043E
:4010400023B140F2BB21094800F034FDB2B2A2600020F8BD0648F8BD0648F8BD0548F8BD4C280810344D020801008A00CC27081004028A0007028A00F8B505460F46164660
:401080000E4B1B6823B94FF4AF710D4800F012FD0A4B1B682C2404FB0534236A23B94FF4B171074800F006FDE369B34204D9236A43F826700020F8BD0248F8BD344D020876
:4010C0004C2808100A028A0070B582B000230193044620B940F2D111284800F0EBFC236923B94FF4E971254800F0E4FC636923B940F2D311214800F0DDFC236A23B94FF464
:40110000EA711E4800F0D6FC6369DD682A0C20D012041A601B682069194B1B68D3F8B430C358002B15DA01A9FFF782FD60B9019803681E0CDBB2E269934206D2226A52F8CD
:40114000233013B1984700E0002631462069FFF733FDADB275B16369ADB21D601B68636A1BB198470023636202E0A36A03B198470023A36163691B6802B070BD4C280810DA
:40118000CC4D020810B50446074B1B6823B940F2B111064800F08EFC034B1B682C2000FB0430FFF791FF10BD344D02084C28081010B4D0F8003303F00F03072B06D90023E2
:4011C0000DE0D0F84043CC54013300E000239342F7D306E0D0F8404321F8134001339342F8D35DF8044B704710B51446D0F80833C3F308039A4200D31C462246FFF7D8FFCC
:40120000204610BD036813F4006F01D0802200E04022D0F80832C3F30803934203D0C0F84012012070470020704700BF10B4D0F8003203F00F03072B06D900230DE0CC5CF6
:40124000C0F84042013300E000239342F7D306E031F81340C0F8404201339342F8D35DF8044B704710B51446036813F4006F01D0802200E04022D0F80832C3F30803D31A2E
:40128000A34200D81C462246FFF7D0FF204610BD30B4036813F4006F01D0802200E04022002408E0D0F80832C3F308039A42F9D0C0F8405201340D5D002DF3D130BC704744
:4012C0002DE9F84305460C46036813F4006F02D04FF0800801E04FF04008D5F8007207F00F07A26A012A19D9D4F82490E262561EB9F1000F00D026B940F27351254800F0B6
:40130000D9FB324649462846FFF7ACFFA36A1B1AA362072F00D9400048446062D5F80832C3F30803984533D0A36A012B30D10023A362072F02D8636A1E7801E0636A1E880E
:4013400000F023FCC5F840624FF40073C5F8803FD5F8803F00F01DFCD5F8883F23F4007222F0010242F4007623F4EE6323F0030323B140F22A41084800F09CFBC5F8886FDD
:40138000236843F002032360236B0BB101209847BDE8F8838C280810CC2808102DE9F04105460C46036813F4006F01D0802600E040267608A769D4F81C8017B1B8F1000FAD
:4013C00004D14FF49961314800F074FB424639462846FFF709FF236A03442362E3691B1AE36173BBA368FBB1E3689E4201D8013E00E05E1E2B6813F4006F01D0802300E091
:4014000040239E4204D34FF42071214800F052FBD5F8043323F0FF03F6B21E43C5F804630123C5F8C83F02E00023C5F8C83F636823F001036360236B33B304209847BDE860
:40144000F081A169D5F8002302F00F02072A00D940000844A0619E4216D95C1E2B6813F4006F01D0802300E040239C4204D34FF42071074800F01EFBD5F8043323F0FF0265
:40148000E3B21343C5F80433BDE8F0818C280810CC280810002800F0A48170B50546002900F0A18116460C460B78022B03D93F21A24800F0FFFA637B023BDBB2062B03D955
:4014C00040219E4800F0F6FAA37B3BB1022B05D0032B03D04121994800F0ECFA94F82130012B03D94221954800F0E4FA94F82830012B03D94321914800F0DCFA2378012BF6
:4015000006D86368083B082B94BF0023012307E0A37F2BB16368013B062B94BF002301231BB14521854800F0C5FAA368053B042B03D94621814800F0BDFA6369FF2B03D98E
:4015400047217E4800F0B6FAA369FF2B03D948217A4800F0AFFAA37C6BB1237833B9A368092B05D1A37B2BB1012304E0012302E0012300E000231BB14A21704800F09AFA4E
:40158000636B23F4366323F00D031BB14C216B4800F090FAE36B23F4EE6323F003031BB14D21664800F086FA2378022B01D1A37F13B16268013A00E00022237F13B14FF4CD
:4015C000803100E00021A368082B02D84FF4006300E000230B4302F00F02134343F000732B60226B2B6813F4006F01D0802300E040239A4203D36221504800F05BFAA26B34
:401600002B6813F4006F01D0802300E040239A4203D36321494800F04DFA626A2B6813F4006F01D0802300E040239A4203D36421424800F03FFA23781B0603F040732B6485
:40164000637F0BB1402200E00022A37C13B14FF4806300E000231343227C12B14FF4807200E000221343627C12B14FF4007200E000221A43E36A013B1B0403F470231343DB
:40168000627B013A02F007021343A27B120102F030021343AB64237B13B14FF4807200E00022E37B23B92378022B03D1012302E0012300E0002313B14FF4007300E00023EF
:4016C0001A43A368013B03F00F031343C5F80033227DA3691B0403F47F031343C5F81033E26AD5F8003303F00F0303339A4201D3102A03D97A21114800F0DCF9E37F23B126
:401700002378012B03D0002302E0002300E0012313B14FF4807200E00022637B013B03F007031A43A37B1B0103F0300313436B64237B2BB14FF4807203E000BF102908104D
:401740000022A368013B03F00F0313432278012A02D14FF4803200E000221343C5F8003294F83030C5F8043394F8203013B14FF0007200E0002294F82130012B02D14FF083
:40178000807300E00023134394F82820012A02D14FF4803200E00022134394F8242013432B6594F83830C5F80432636B23F4926323F002031B051B0DC5F8C83FE36B23F0C2
:4017C0008C035B055B0DC5F8883F76B1002070603060B060F0603062F0623063044B736370BD04487047034870BD002070BD00BFEFCDAB000160AA000B694A69934202D374
:401800004869181A7047CA694869101A184470472DE9F04107460D46036813F4006F02D04FF0800801E04FF040084FEA5808D7F80863C6F308062C6926E00134EB689C4289
:4018400000D100246B699C420FD12B6B0BB1082098476B699C4208D10023C7F8C83F0CB1013C13E0EC68013C10E0D7F84023D7F8003303F00F03072B02D8AB681A5502E0FD
:40188000AB6823F81420013E002ED6D12C61EC6829463846FFF7B0FF201A804519D908B1441E00E000243B6813F4006F01D0802300E040239C4204D34FF42071064800F098
:4018C000F9F8D7F8040320F0FF03E0B21843C7F80403BDE8F08100BFCC28081038B504460D46D0F8003E13F0080F35D0D0F8CC3F13F448730AD04A681A434A60C0F8C03FED
:40190000D0F8C03F0B6B0BB110209847D4F8CC3F13F4006F09D06B6843F400636B604FF40063C4F8C03FD4F8C03FD4F8CC3F13F0010F11D0EB6923B129462046FFF72EFD2C
:4019400005E0AB681BB129462046FFF761FF0123C4F8C03FD4F8C03FD4F8003E13F0040F2ED0D4F88C3F13F4A0630AD02A681A432A60C4F8803FD4F8803F2B6B0BB1202024
:401980009847D4F88C3F13F0010F08D029462046FFF796FC0123C4F8803FD4F8803FD4F88C3F13F4007F0BD00022C4F8882F2B6823F001032B60EA622B6B0BB102209847DE
:4019C00038BD00BF38B50D4B9A680D4B9A420FD10D46044621B940F237110A4800F06AF804F11003064A52F8230042F8235038BD1030054B53F8200038BD00BF00ED00E060
:401A000000400208502908100000081048B338B504460D464368072B03D93221134800F049F8B4F900306268002B08DB5201D2B203F1604303F5614383F8002305E003F061
:401A40000F035201D2B20A49CA540A4B9A680A4B9A4208D12946B4F90000FFF7B3FF002038BD06487047002038BD00BF5029081014ED00E000ED00E0004002080100560019
:401A800010B5044605E0084B186800F075F8A4F50044B4F5004FF6D8044B186800FB04F000F06AF810BD00BFA8420208A442020801BEFEE738B50D46044C182201462046C4
:401AC00000F0F0F9A5610020FFF7F2FFD8480208FEE700BF08B50268254BDA6142681A6282685A62C2689A620269DA6242691A6382695A63C2699A631E4A916AD963D16AF5
:401B00001964516A5964516B9964926BDA64F1EE103A13F0900F27D0026A154B1A65426A5A65826A9A65C26ADA65026B1A66426B5A66826B9A66C26BDA66026C1A67426C9D
:401B40005A67826C9A67C26CDA67026DC3F88020426DC3F88420826DC3F88820C26DC3F88C20026EC3F89020FFF7B2FF08BD00BFD848020800ED00E00230800803D00130CB
:401B80000238FCD100BF00BF7047EFF3108072B6704780F31088704700287DD00346002A7CD070B45068000280B29568AD0405F480252843D468240404F44034044310694B
:401BC000000600F0E0602043147F0CB1012400E0002420430C1DA4011851D06828B903EB81100024C0F808410CE0012805D1146803EB8110C0F8084104E003EB811001240D
:401C0000C0F80841106938B9546903EB8110C0F80C419469C0F81041146803EB8110C0F81441906CB0F1FF3F17D0946A04F00F04166B360206F470663443956B2D0405F4F9
:401C400070252543146C2403A4B22C430001C0B2204303EB8114C4F82001506A00F00300D66A360106F030063043556B2D0205F440752843D46BA401E4B20443506C8000FD
:401C800000F00C00204303EB8113C3F82401126AC3F83821002003E0024870470148704770BC70470100B600014B1860704700BFCC4D0208024B0146186800F059B800BF04
:401CC0002C43020802440346934202D003F8011BFAE7704738B50546002946D051F8043C0C1F002BB8BFE41800F0EFF81F4A1368114613B96360146032E0A3420ED9226840
:401D0000A018834204BF18685B68636004BF121822600C6024E0A24203D813465A68002AF9D118681918A1420BD12168014458188242196014D1106852685A600144196036
:401D40000EE002D90C232B600AE021686018824204BF10685268626004BF091821605C602846BDE8384000F0B1B838BD784D020870B5CD1C25F0030508350C2D38BF0C25E8
:401D8000002D064601DBA94202D90C23336046E000F09BF8234B1C681A462146A1B10B685B1B0ED40B2B03D90B60CC18CD501EE08C420DBF63684B686360136018BF0C46D4
:401DC00015E00C464968E9E7174C23681BB9304600F034F820602946304600F02FF8431C18D0C41C24F00304A0420DD12560304600F06CF804F10B00231D20F00700C31AC6
:401E00000ED05A42E25070BD211A304600F016F80130EBD10C233360304600F057F8002070BD00BF784D0208744D0208024B0A460146186800F04BB82C43020838B5064C01
:401E4000002305460846236000F0D2FB431C02D1236803B12B6038BDD04D02080EB400B59CB04FF402711DABADF81410029006906FF000410A48049107914FF6FF7153F8FD
:401E8000042BADF816100068019302A900F09EF8029B00221A701CB05DF804EB03B070472C43020810B5034642B111F8014B03F8014B013A002CF7D11A4400E010BD934213
:401EC00002D003F8014BFAE710BD70477047F8B5074615460E4621B91146BDE8F840FFF747BF1AB9FFF7F6FE2846F8BD00F076FB85420ED929463846FFF73AFF044650B1A4
:401F000031462A4600F044FB31463846FFF7E2FE01E03046F8BD2046F8BD2DE9F0478E689E4282460C46914698463ED88A8912F4906F3AD0256809696F1A6569022305EB04
:401F4000450595FBF3F57B1C43449D4238BF1D4653050FD52946FFF70BFF064698B13A46216900F015FBA38923F4906343F08003A38113E02A46FFF7AAFF064670B92169ED
:401F80005046FFF7A7FE0C23CAF80030A38943F04003A3814FF0FF30BDE8F087266165613E44ED1B2660A5604646464528BF464632464946206800F0F6FAA3689B1BA36060
:401FC00023681E4426600020BDE8F0872DE9F04F9DB0804603938B891C060D4616460DD50B695BB94021FFF7C3FE2860286118B90C23C8F80030CDE040236B610023099331
:4020000020238DF82930DFF89CB130238DF82A3037463C4614F8013B1BB9B7EB060910D003E0252BF9D02746F3E74B46324629464046FFF772FF013000F0A780099B4B445A
:4020400009933B78002B00F0A08000234FF0FF3204930793059206938DF853301A930126052221784E4800F043FA671C049B38B14B4A801A06FA00F0184304903C46EFE712
:40208000D90644BF20228DF853201A0744BF2B228DF8532022782A2A03D0079A00210A200BE0039A111D12680391002A10DA524243F00200079204900BE0274601343B78E0
:4020C000303B092B03D800FB02320121F5E701B107923B782E2B1ED17B782A2B0AD1039B1A1D1B680392002BB8BF4FF0FF330237059310E000230593781C19460A240746E6
:4021000001303A78303A092A03D804FB01210123F5E703B1059103223978224800F0E8F940B14023CBEB000003FA00F0049B18430490013739781C488DF8281006227E1C77
:4021400000F0D6F988B1194B33B9039B073323F007030833039314E003AB00932A46144B04A94046AFF3008007E003AB00932A460F4B04A9404600F093F8B0F1FF3F8246B1
:4021800003D0099B5344099342E7AB895B0601D4099801E04FF0FF301DB0BDE8F08F00BF062B08100C2B0810102B0810000000001B1F08102DE9F04791461F460A698B6816
:4021C000DDF820809342B8BF1346C9F8003091F8432006460C4612B10133C9F800302368990642BFD9F800300233C9F80030256815F0060510D104F1190A07E001235246D7
:4022000039463046C04701301AD00135E368D9F800209B1A9D42F1DB94F843302268003318BF012392060FD5E1185A1C302081F84300224494F8451082F84310023303E0DB
:402240004FF0FF30BDE8F08704F1430239463046C0470130F4D02268D9F80050E36802F00602042A08BF5D1B2269A3680CBF25EAE57500259342C4BF9B1AED184FF0000903
:402280001A344D4509D00123224639463046C0470130D5D009F10109F3E70020BDE8F0872DE9F04317460A7E85B06E2A984606460C460C9B01F1430E00F0AE8011D8632AF8
:4022C00022D009D8002A00F0BB80582A40F0CA8081F84520834955E0642A1ED0692A1CD0C0E0732A00F0B08009D86F2A2ED0702A40F0B8800A6842F020020A603EE0752A1C
:4023000024D0782A3AD0ADE01A6801F14205111D1960136884F84230A8E021681A6811F0800F02D0111D196008E011F0400F02F10401196002D0B2F9003000E01368002B2D
:402340003CDA2D225B4284F8432037E021681A6811F0800F02D0111D196007E011F0400F02F10401196001D0138800E01368227E5C496F2A14BF0A2208221BE078225A49A3
:4023800084F845202268186812F0800F00F104051D6003D1550601D5038800E00368D00744BF42F0200222601BB9226822F0200222601022002084F8430001E049490A22DB
:4023C0006568A560002D08DB206820F0040020602BB9002D7DD175460CE0002B79D07546B3FBF2F002FB1033CB5C05F8013D03460028F5D1082A0BD12368DA0708D523695E
:4024000062689A42DEBF302305F8013C05F1FF35C5EB0E0323612EE008681A68496910F0800F03D0101D1860136808E010F0400F02F104001860136801D0198000E0196045
:4024400000232361754616E01A68111D1960156862680021284600F04BF808B1401B6060636804E004F1420584F8422001232361002384F84330CDF800803B4603AA2146A1
:402480003046FFF797FE013002D14FF0FF3026E023692A4639463046C0470130F5D023689B0710D5002504F1190907E001234A4639463046C0470130E7D00135E368039ACA
:4024C0009B1A9D42F2DBE068039B9842B8BF184605E00B7884F8423004F142058AE705B0BDE8F083172B0810282B08100000000001F0FF01102A2BDB10F0070F08D010F82A
:40250000013B013A8B422DD010F0070F42B3F6D1F0B441EA012141EA014122F007047FF000070023F0E80256083C85EA010586EA010685FA47F5A3FA87F586FA47F6A5FAE4
:4025400087F68EB9EED1F0BC01F0FF0102F0070232B110F8013B013A83EA010313B1F8D10020704701387047002D06BF35460338073815F0010F07D1013015F4807F02BF4B
:40258000013015F4C03F0130F0BC0138704700BF10B5431E0A44914204D011F8014B03F8014FF8E710BD884210B501EB020301D8421E0BE09842FBD28118D21AD34204D036
:4025C00013F8014D01F8014DF8E710BD994204D011F8014B02F8014FF8E710BD51F8040C0028BEBF091851F8043CC01804387047044A05491368002B08BF0B4618441060FC
:40260000184670477C4D0208D84D0208F8B500BFF8BC08BC9E467047F8B500BFF8BC08BC9E46704747656E6572617465645F536F757263655C50536F43362F426174746520
:4026400072695F4144432E6800000000537461727475700A0D00000025690D0A000000000300000001000000010000000000000005036000040000000100000000000000A1
:40268000010000000604600008000000E84A0208110408108A000000070000007B000000070000007A000000070000002E0000000700000000000000000000000000000075
:4026C00000000000020000000040000000400000000000000100000003000000FFFFFFFF03000000FFFFFFFF03000000FFFFFFFF03000000FFFFFFFF03000000FFFFFFFF5C
:40270000DA040000000000000000000000000000020000000040000000400000000000000100000003000000FFFFFFFF03000000FFFFFFFF03000000FFFFFFFF0300000038
:40274000FFFFFFFF03000000FFFFFFFF000000000C0000000800000000020000000000000000000000000000000000000000000000000000000000000B000000000000003D
:4027800000000000000000000000000047656E6572617465645F536F757263655C50536F43365C70646C5C647269766572732F7065726970686572616C2F6970632F63790B
:4027C0005F6970635F6472762E68000047656E6572617465645F536F757263655C50536F43365C70646C5C647269766572735C7065726970686572616C5C6970635C637968
:402800005F6970635F6472762E68000047656E6572617465645F536F757263655C50536F43365C70646C5C647269766572735C7065726970686572616C5C6970635C637927
:402840005F6970635F6472762E63000047656E6572617465645F536F757263655C50536F43365C70646C5C647269766572735C7065726970686572616C5C6970635C6379EC
:402880005F6970635F706970652E630047656E6572617465645F536F757263655C50536F43365C70646C5C647269766572735C7065726970686572616C5C7363625C63794E
:4028C0005F7363625F756172742E680047656E6572617465645F536F757263655C50536F43365C70646C5C647269766572735C7065726970686572616C5C7363625C6379FF
:402900005F7363625F636F6D6D6F6E2E6800000047656E6572617465645F536F757263655C50536F43365C70646C5C647269766572735C7065726970686572616C5C73638B
:40294000625C63795F7363625F756172742E630047656E6572617465645F536F757263655C50536F43365C70646C5C647269766572735C7065726970686572616C5C73796D
:4029800073696E745C63795F737973696E742E63000000000000204000002440000000400000000000002340000030400000314000009F40000022400000104002020202A6
:4029C000020202020210101D800017007500FF030602063604102000000000007FC0000000040000000000000019324B647D00804000080B100000000000FF012002001F2C
:402A000000800004FF081018001000140018001C4044484C50000000081000000800000004000000041000000012000004210000002100000016000040114002C413001300
:402A40008013A013200000001C0000000000214000002540000001400000344000002440000031400000324000001F410000234000001140010101010101010101101010C5
:402A8000800019005500F0000501053B04101C01010000000FC000000004000001010101011D3A57789600082000101208000000001F00000010000F002000023F06080E1F
:402AC00000080009000A000B24282C3034000000100000009000000088000000080000008000000004F0000000F00000400200002005A000D00100018001A0012000000025
:402B0000100000004300232D302B2000686C4C006566674546470030313233343536373839414243444546003031323334353637383961626364656600000000000000004F
:402B400000000810004002088C020000602B08108C4202084C0600006C490208680400000048E80100127A0000093D0000127A0000127A0008000000401F00000000A00F3C
:402B8000320000000000803F000020410000C8410000803F298FA5BF48E1FA3E5000000000000000000000000000000000000000000000000000000000000000000000002E
:402BC000042B08100000000000000000000000000000000000000000000000000000000000000000000000000000000000000000000000000000000000000000000000008E
:402C0000CC420208B10208108D0208100000000080B2C10050B3164B1B681A6AB3F8B030C3EBC303D358002BF5DA3E22114B1A6041F61E7204331A60A3F584730622C3F868
:402C4000182521F07F41C3F81C15D3F81C35084B1A68116AB2F8B030C3EBC3030B4400225A60054BD3F81C35002BFADA704700BFCC4D02080401264000002640F8B5274BD1
:402C80001B6893F83130052B04D840F2C311244800F05CFA214F3A68166AB2F8B03003EB83031E4452684FF26003D458A4B200F05DFA05463B681968D3F890208A58013CBF
:402CC000032C27D8032A0CD1164A127812F0FF0F07D10822B2601968D3F890208A58032AF9D01968D3F884208B588858C0F307221B0E581C02FB00000B4B03FB00F00B4BF7
:402D00001B680B4AA2FB03239B09B0FBF3F08230FFF77EFF284600F021FAF8BDCC4D02088C2708100B00001640420F0090420208D34D62104378FF2B23D110B500F016FAC7
:402D40000446104B1B6893F83130042B04D840F2C3110D4800F0FAF90A4B1A68136AB2F8B02003EB8203DB685A68136843F001031360136813F0010FFBD1204600F0EEF9F4
:402D800010BD7047CC4D02088C2708102DE9F04707468846554B1B6893F83130012B04D840F2C311524800F0D1F9504B1B681C6AB3F8B0201444D3F8B420161993F8503078
:402DC000002B79D04B4B1B7813F0FF0F02D04FF0000901E04FF00109B9F1000F38D0434B1B6893F83130052B04D840F2C311404800F0ACF93D4B1A68116AB2F8B03003EBF7
:402E000083030B44D2F8B420D358002B22DB002000F0BCF9384B98421ED00023374A12690121184600F08AF918B1354D17E0013500E00025002000F0A9F92F4B984202D055
:402E4000304B9D42F3D92F4B9D4207D92C4D06E0002504E02A4D02E0294D00E00025002D41D100F083F98246274BD3F81C35002B10DA224A0121204600F090F960B9404695
:402E8000FFF7C6FE57B13368002BFCDB00F04EF9054604E01A4D02E0194D00E01B4DB9F1000F05D00121002000F068F90028F9D1504600F053F916E000F058F980460F4A1B
:402EC0000121204600F06AF938B947B13368002BFCDB00F02BF9054602E0094D00E00B4D404600F03BF92846BDE8F087CC4D02088C2708100B00001601018800104D02086E
:402F000005005200EF4902000000264001005000F0B47F4B1A6855684FF0B0535B7813F0FF0F04D04FF0B0535B78DBB200E02123212B55D1116AB2F8B030C3EBC303CC180D
:402F4000CB58002BF6DAE36843F00103E360146AB2F8B030C3EBC3031C44E36813F0020F2DD0E3689EB21368D2F884105958090A090401F47F01D2F88870DB591B0A41EA36
:402F800003633343E3601168D2F884208B5823F47F4343F410638B505D4A13681C68D3F88810635823F47F4343F41063635013681A68D3F884105158D3F88830D358544B7E
:402FC0001A68116AB2F8B030C3EBC3030B4400215960116AB2F8B030C3EBC3030B445B684B4B19680C68D1F894301C44494A136943F004031361012801D030BF07E020BF3E
:40300000454B1B7803B120BF0122434B1A70236803F00303022BE9D00A6AB1F8B030C3EBC303D018D358002BF6DA4FF0B0535B7813F0FF0F04D04FF0B0535B78DBB200E03A
:403040002123212B30D1C36813F0020F1FD00C68D1F88410635823F47F42C3681B0C1B0203F47F4313436350294B19680C68D1F88800235823F47F420D6AB1F8B030C3EB41
:40308000C3032B44DB681B0E42EA03232350204B1A68136AB2F8B020C2EBC2021344DA6822F00102DA6026E0D5F80C311BBB1B490E681B4BD3F818451A4A106841F61E7777
:4030C0000F600621C3F818153E2111604422C3F81C25134BD3F81C35002BFADA4FF0AA33C5F80C310D4B1E60A3F58473C3F8184503F582731860064B1A68116AB2F8B030D7
:40310000C3EBC3030B4400225A60F0BC704700BFCC4D020800ED00E0384D02080801264000002640040126400000000001B40248844601BC604700BFCD0A081001B4024835
:40314000844601BC604700BFD50F081001B40248844601BC604700BFB51A081001B40248844601BC604700BF931B081001B40248844601BC604700BF8B1B081001B4024838
:40318000844601BC604700BF790D081001B40248844601BC604700BF010E081001B40248844601BC604700BFF50B081000000000000000000000000000000000000000006D
:4031C00000000000000000000000000000000000000000000000000000000000000000000000000000000000000000000000000000000000000000000000000000000000CF
:0200000490303A
:020000003C16AC
:0200000490501A
:0C0000000005E2F021002101E3105D1674
:00000001FF